:020000022000DC
:1060000000FF0020E5C203000DC30300D9DB03003D
:1060100011C3030013C3030015C3030000000000F5
:1060200000000000000000000000000017C3030093
:1060300019C30300000000001BC303001DC30300BD
:106040001FC303001FC30300BDC902001FC3030019
:106050001FC303001FC303001FC30300EDB80200EA
:106060001FC3030079AF02007DAF02001FC303000E
:106070001FC303001FC303001FC303001FC303008C
:106080001FC3030085BA0400A1F4030085E20300E6
:1060900071BB04001FC303009DE003001FC3030086
:1060A0001FC303001FC30300313F040019C50200D2
:1060B0001FC303001FC30300000000000000000016
:1060C0001FC303001FC303001FC303001FC303003C
:1060D0001FC303001FC303001FC303000000000011
:1060E00000000000000000000000000000000000B0
:1060F00000000000000000000000000000000000A0
:10610000000000000000000000000000000000008F
:10611000000000000000000000000000000000007F
:10612000000000000000000000000000000000006F
:10613000000000000000000000000000000000005F
:10614000000000000000000000000000000000004F
:10615000000000000000000000000000000000003F
:10616000000000000000000000000000000000002F
:10617000000000000000000000000000000000001F
:10618000000000000000000000000000000000000F
:1061900000000000000000000000000000000000FF
:1061A00000000000000000000000000000000000EF
:1061B00000000000000000000000000000000000DF
:1061C00000000000000000000000000000000000CF
:1061D00000000000000000000000000000000000BF
:1061E00000000000000000000000000000000000AF
:1061F000000000000000000000000000000000009F
:1062000010B5054C237833B9044B13B10448AFF3F0
:1062100000800123237010BD6824002000000000CE
:10622000B422050008B5034B1BB103490348AFF383
:10623000008008BD000000006C240020B42205008E
:10624000154B002B08BF134B9D46A3F5803A002148
:106250008B460F461348144A121A27F0EDFF0F4BD6
:10626000002B00D098470E4B002B00D09847002001
:10627000002104000D000D48002802D00C4827F032
:106280003AFF27F06FFF2000290015F095FE27F058
:1062900055FF00BF0000080000FF002000000000C4
:1062A0000000000068240020BC6D0020F7E004001E
:1062B00000000000FF20704700207047002070475A
:1062C0000E2070477047704710B51821044626F01D
:1062D00049F9204610BDF8B50B680446DB6808464E
:1062E0000E4698470023C4E90033A3600546B0B1C9
:1062F00026F084F803465F19C4E90033A7602DB186
:1063000018462A46002127F097FF03466760326847
:106310001946976830462A46B8472046F8BD0346D6
:10632000E9E7407970470831034603C983E8030071
:10633000184670471031034603C983E80300184626
:10634000704710B50C46002C0AD001DA6442FAE717
:10635000002806DA21464042FFF7F3FF00B1201A79
:1063600010BD90FBF4F304FB1300F9E72DE9F04FA7
:1063700000F108090E46824699E8030087B00DF146
:10638000080888E80300404611F025FA0AF11007D2
:10639000009097E8030004AC84E80300204611F065
:1063A0001AFA072101903248B6FBF0F00430B0FB36
:1063B000F1F5C5EBC505401B012585404FF0FF30C9
:1063C000FFF7BFFF05FA00F05FFA85FB10F07F05CD
:1063D00008BFC0F3C61532464FF00001204618BF73
:1063E000EDB211F0C0F9204611F0F5F9DDE9003207
:1063F0009342064621D397E8030084E80300204631
:1064000011F0E9F9B04208D99AF807301D4214BFDB
:106410000120002007B0BDE8F08F99E8030084E870
:106420000300204611F0D7F9B04201D90020F1E76E
:106430009AF807301BEA030FE9E79AF807301BEADE
:10644000030FF3D099E8030088E80300404611F0F9
:10645000C2F9B042EAD897E8030084E80300204676
:1064600011F0B9F9B04294BF00200120D2E700BF7B
:106470008051010010B50C1A134605D00146224682
:10648000184627F0BFFE0346181910BD7FB5054614
:106490000B798DF8083002A80C4611F0D5FD2A467C
:1064A0000DF105018DF8040001A8FFF7E3FF064692
:1064B000601D11F0C9FD32460DF109018DF808008B
:1064C00002A8FFF7D7FF0646A01D11F0BDFD32461A
:1064D0000DF109018DF8080002A8FFF7CBFF064671
:1064E000E01D11F0B1FD32468DF808000DF10901F3
:1064F00002A8FFF7BFFF04F10801064602A811F049
:10650000FBF832460DF10D0102A8FFF7B3FF04F1CD
:106510001001064602A811F0EFF832460DF10D0108
:1065200002A8FFF7A7FF284604B070BD0D2A1FB5CB
:106530000C460BD901466846FFF7A8FF22460DF12D
:106540000E016846FFF796FF04B010BD0020FBE780
:1065500084B02DE9F04786B00FAD044685E80E0003
:106560002846012111F066FD012182460DF13D0012
:1065700011F060FD012181460DF13E0011F05AFD40
:10658000012180460DF13F0011F054FD04AE074695
:1065900032460DF14501281DFFF76CFF6D4696E868
:1065A000060002A811F0E7F82A460DF14A010DF1A4
:1065B0004500FFF75FFF95E80600304611F0DBF875
:1065C0009DF808209DF810300A4922722374039A1E
:1065D000059B2160204684F804A084F8059084F887
:1065E0000680E771E260636106B0BDE8F04704B081
:1065F000704700BF50ED0400704710B50C210446F1
:1066000025F0B0FF204610BD70B50846154611B9FB
:106610000024204670BD00230A4A0B4925F00FFFD5
:1066200004460028F4D02946FFF7A0FE0028EFD04A
:10663000236829461E6A2046DDE90423B047002866
:10664000E7D1E5E744EE040034ED04002DE9F04F16
:106650009946037A85B082460F46904600256BB96D
:106660008DF80D509DF80C30002063F307009DF865
:106670000D3063F30F2005B0BDE8F08F0029EFD097
:106680002C46CDE900891A4B3A46E9585046FFF7A7
:10669000BBFF06462CB370B10146204600F0E1FE78
:1066A000B0B13046FFF73DFE83462046FFF739FE86
:1066B000834538BF34460435C82DE2D19CB120460D
:1066C000FFF72FFE01238DF80C008DF80D30C9E780
:1066D00021463A46304600F02DFF002818BF3446C8
:1066E000E9E70446E7E74FF48073ADF80C30B9E70B
:1066F000C024002030B5037A85B004462BB9C27996
:1067000002B1C371012005B030BD10F0C1FF0546D4
:10671000684607F0A9F89DF80830002BF2D0DDE9B3
:10672000002329462046FFF791FFE080EAE70000BA
:106730002DE9F04F4C69BDB082460F4624B91023B5
:106740003B823DB0BDE8F08F0B8B702B01D812233C
:10675000F6E710F09DFF804606A807F085F8964BF7
:10676000C4F800804FF4E142CDE90423934D2B7827
:10677000BFF35B8FD9070ED4284625F04FFE50B1EA
:106780008F480DF0C3FE284625F054FE8D4A8E49F1
:106790008B4825F0E2FE0823952104AA88480EF0D4
:1067A00016FA049B6360059BA3609AF80830237473
:1067B00000210B46881D04EBC000013108294370FD
:1067C0008370C370037143718371C3710372F1D11C
:1067D0009DF82090B9F1000F00F0EA80DDE9062372
:1067E00004F1110604F119054FF0000BC4F835301F
:1067F000C4F8312084F811B0C82286F801B086F8B8
:1068000002B086F803B086F804B086F805B086F8C2
:1068100006B086F807B06D4984F819B00AA885F863
:1068200001B085F802B085F803B085F804B085F8AA
:1068300005B085F806B085F807B084F821B084F873
:1068400022B084F823B084F824B084F825B084F80A
:1068500026B084F827B084F828B084F829B084F8EA
:106860002AB084F82BB084F82CB084F82DB084F8CA
:106870002EB084F82FB084F830B027F0B5FC0AAB06
:10688000019318465B4650F8042B72B10122D4F8EC
:1068900011E0D4F815109A404FEAE27C4EEA020E5D
:1068A00062461143C6F800E071600133322BEAD131
:1068B0009AF80830002B77D0B8F1000F74D0B9F1F6
:1068C000000F71D00026019B53F8049B0193B9F18E
:1068D000000F66D000233E4A3E49484625F0AFFDF2
:1068E000824668B303684146D3F820B0DDE9062349
:1068F000D84728B34FF0010B0BFA06FB5A46D317C3
:10690000D4F81900D4F81D10CDE90223039B40EA06
:106910000B020B432A606B60504600F06EFF0028AC
:1069200008BF4FF0000BD4F82900D4F82D105A46B8
:10693000D31740EA0B0B0B43C4F829B0C4F82D3031
:106940000023254A2349484625F079FD80B190F877
:1069500060300BB10123B340D4F821C0D4F8252016
:10696000D9170A434CEA0303C4F82130C4F82520A0
:1069700000231A4A1749484625F061FD88B141466F
:10698000FFF7F4FC68B10123D4F819C0D4F81D2036
:10699000B340D9170A434CEA0303C4F81930C4F8CA
:1069A0001D200136322E8ED17123BB830023C7E612
:1069B0004A464B4614E700BF300B010084240020F8
:1069C00088240020802300209D440300C024002050
:1069D00044EE040034ED0400F0ED040090EE0400F9
:1069E00030B40B8840F2AF15AB42024618D0B3F575
:1069F000D87F03D2962B0DD030BC704740F2B11136
:106A00008B4203D040F2C1118B42F5D1104630BC0D
:106A1000FFF770BE4B681B78C3F300030372F6E701
:106A200030BCFFF785BEC3888380DAB2002062F3F2
:106A300007001B0A82B063F30F2002B0704700000A
:106A400070B50B4D0E46322455F8040B18B9013CB5
:106A5000FAD120460BE003689B6998470028F6D0DE
:106A6000314655F8040CFFF781FC0028EFD070BDCB
:106A7000C024002010B50B4C2378BFF35B8FDB07DD
:106A80000ED4204625F0CAFC50B107480DF03EFD5B
:106A9000204625F0CFFC054A0549034825F05DFD59
:106AA000014810BD84240020882400208023002079
:106AB0009D440300F8B54B681D78312D0C4603D872
:106AC000164E56F8250010B925232382F8BD036819
:106AD0001B69984763690BB91023F6E756F8250040
:106AE000278B0368DB6898470130874201D2122365
:106AF000EBE756F825000368DB68984763690130C7
:106B0000A0831D7056F82500228B61690368013A45
:106B10009B68013198470023D7E700BFC0240020BD
:106B20002DE9FF474B690C4623B91023238204B09B
:106B3000BDE8F0870B8BF92B01D81223F6E700256F
:106B4000DFF850802E4658F8043BE3B163695E5588
:106B500001A858F8041CFFF7BEFB58F8040CDDF838
:106B600004A00368DB689847002201465046D4F829
:106B7000149011F007FA6F1C49F80700019808B14A
:106B800025F05BFC05350136F6B2322EDBD1A5834C
:106B90000023CBE7C024002000B589B040F2B11338
:106BA000ADF800307022002368460193ADF808303C
:106BB000ADF80A308DF80C30ADF810200593ADF823
:106BC0001830ADF81C3006F08DFC09B05DF804FB00
:106BD0007FB50024194D8DF803409DF80330312B0B
:106BE00028D855F82330FBB1224601210DF10300CE
:106BF00011F0C8F99DF80330064655F8231001A896
:106C0000FFF769FB9DF80330019C55F823000368EA
:106C1000DB68984732460146204611F0B3F9044636
:106C2000019808B125F009FC9DF8033001338DF877
:106C30000330D2E7204604B070BD00BFC02400205E
:106C400073B50C461E461546FFF7C2FF0190FFF7CD
:106C500011FF04230DEB030299210EF07EFA336835
:106C6000228901339A4204D020232382002002B0DB
:106C700070BD312D01D92123F7E70120F7E707B5D2
:106C8000FFF7A6FF0190FFF7F5FE04230DEB0302CB
:106C900099210EF062FA03B05DF804FB3129F7B5D3
:106CA00007460C4631D81A4D55F82100B8B1036893
:106CB0005B699847064655F8240010B103685B6885
:106CC00098470023012E45F8243016D016F0FF0F08
:106CD00007D0022E15D03846FFF7D1FF002003B0B1
:106CE000F0BDFFF7C7FE4523ADF80630224603236B
:106CF0000DF106010EF07CFAEDE7FFF7BBFE46232F
:106D0000F2E7FFF7B7FE4723EEE72120E7E700BFF2
:106D1000C024002038B54B681D780C462946FFF783
:106D2000BDFF6369208253B1228B042A07D91D70ED
:106D30006569FFF74DFF0523C5F80100A38338BD42
:106D400038B505460024E1B228460134FFF7A6FF16
:106D5000322CF8D138BD000010B5034B0360044657
:106D6000FFF7EEFF204610BDE4ED040010B5044629
:106D7000FFF7F2FF2046042125F0F4FB204610BD6A
:106D800010B513460C4629B10A460146184627F0AD
:106D900039FA0346181910BD2DE9F0470B89012B6C
:106DA00092B080460C4604D820230B8212B0BDE876
:106DB000F0874B681D785B78012B5CD023B1022BE8
:106DC00000F09980212346E008AF1B263B462A4667
:106DD0000896FFF735FF00283ED029464046FFF7CA
:106DE0005DFF4020D4F804A025F008FB2389013B77
:106DF0001A2B814605D93A4631460AF10100FFF7C0
:106E0000BFFF0BAB0FCB6E4607C626F8023B1B0C31
:106E1000337097E80E00484600F0A2FD564B4846F6
:106E200043F8259000F0DAFC63688DF822505A1C74
:106E30002389CDF823204521013BADF82010ADF882
:106E40002730FFF717FE032239460EF05EF9404661
:106E5000FFF715FF002323826369002BA6D0228B46
:106E6000042AA3D91D706569FFF7B2FE0523C5F892
:106E70000100A3839AE708AE4FF00E0933462A4675
:106E8000CDF82090FFF7DCFE0028E5D029464046EB
:106E9000FFF704FF1820D4F804A025F0AFFA2389E7
:106EA000013B0D2B074605D9324649460AF1010040
:106EB000FFF766FFBDF82C30ADF8003096E80E0005
:106EC000384600F0ADFD2C4B384643F8257000F0F5
:106ED00083FD63688DF822505A1C2389CDF8232046
:106EE0004621013BADF82010ADF82730FFF7C2FD79
:106EF00003223146A9E70DF1200928264B462A46F0
:106F00000896FFF79DFE0028A6D029464046FFF7C9
:106F1000C5FE7020676825F071FA2389013B272B95
:106F2000824604D94A463146781CFFF729FF0BAF49
:106F30000FCF6E460FC697E8070086E80700504659
:106F400099E80E0000F0FCFB0B4B504643F825A0DF
:106F500000F05EFB63688DF822505A1C2389CDF83F
:106F600023204721013BADF82010ADF82730FFF773
:106F700081FD0322494668E7C02400202DE9F04F37
:106F800091B002AF00238946BB608246FFF772FDD5
:106F900007F1080249460DF07FFFBB68002B44D083
:106FA000D3E90063EB467B6007F118087B689E42DB
:106FB00037D016F8014B312CF8D80E23FB74002380
:106FC000A7F80C90BC73C7F80F803B75FFF752FD14
:106FD000032207F10C010DF07AFD0028E6D1154BD4
:106FE00053F8240010B103685B689847182025F017
:106FF00005FA07F1280305461A460E214046FFF719
:10700000BFFEBA8EADF8002007F128030ECB28464C
:1070100000F006FD074B284643F8245000F0DCFC46
:10702000C4E75046FFF72BFEDD463C37BD46BDE8C2
:10703000F08F00BFC02400202DE9F04F9BB008AFB7
:107040008B46002478603C61FFF714FD07F11002C5
:1070500059460DF021FF3B69002B50D0D3E9008346
:10706000C7F808D0DFF8A090FB608AB00DF1200AC5
:107070003C60FB6898453DD018F8014B312CF8D89E
:107080004FF02803FB763B68A7F814B0BC75C7F82F
:1070900017A03B77FFF7EEFC032207F114010DF078
:1070A00016FD0028E5D159F8240010B103685B688B
:1070B0009847702025F0A2F907F1200506462A46D8
:1070C00028215046FFF75CFE07F12C0EBEE80F00AA
:1070D000EC46ACE80F009EE807008CE8070030465D
:1070E00095E80E0000F02CFB304649F8246000F0D3
:1070F0008FFABEE77868FFF7C2FDD7F808D04C37A3
:10710000BD46BDE8F08F00BFC02400202DE9F04F40
:1071100095B004AF8B46002478607C61FFF7AAFC31
:1071200007F1140259460DF0B7FE7B69002B52D0CF
:10713000D3E90083C7F808D0DFF8A490FB6088B0DB
:107140000DF1100A3C60FB6898453FD018F8014BE0
:10715000312CF8D84FF01B03FB773B68A7F818B029
:10716000BC76C7F81BA087F82030FFF783FC03220A
:1071700007F118010DF0ABFC0028E4D159F8240008
:1071800010B103685B689847402025F037F907F194
:10719000240506462A461B215046FFF7F1FD07F15C
:1071A000400313E90F00EC46ACE807002CF8023B63
:1071B0001B0C8CF8003095E80E00304600F0D0FB38
:1071C000304649F8246000F009FBBCE77868FFF717
:1071D00056FDD7F808D04437BD46BDE8F08F00BF54
:1071E000C024002010B545210446FFF78FFF20463C
:1071F0004621FFF7C3FE47212046FFF71DFF10BDC4
:107200002DE9F04F814695B00E469A461546002A64
:1072100000F0AE800A785749002351F8044B0993D7
:10722000DFB20133002CF8D1012A46D04FFA82FB9D
:10723000BBF1000F05D0022A74D0212015B0BDE8A3
:10724000F08F1B2D40F09480402025F0D7F80DF1F1
:1072500028080446424629463046FFF791FD0DAB0B
:107260000FCBEC46ACE807002CF8023B1B0C8CF86B
:10727000003098E80E00204600F072FB099A3D4B62
:10728000204643F8224000F0A9FA4523ADF8283003
:107290008DF82A70CDF82B608DF82F508DF830B016
:1072A000FFF7E8FB032241460DF02FFF48468AF81E
:1072B0000070FFF7E4FC5846C0E70E2D58D11820A7
:1072C00025F09CF80DF128088346424629463046B1
:1072D000FFF756FDBDF83430ADF8003098E80E00E9
:1072E000584600F09DFB234B099A584643F822B0BC
:1072F00000F072FB4623ADF828308DF82A70CDF8E7
:107300002B608DF82F508DF83040FFF7B3FB032230
:1073100041460DF0FAFE48468AF80070FFF7AFFCD0
:1073200020468BE7282D23D1702025F067F80DF13A
:1073300028088346424629463046FFF721FD0DF1D5
:10734000340EBEE80F00EC46ACE80F009EE80700E4
:107350008CE80700584698E80E0000F0F1F9054B5C
:10736000099A584643F822B000F052F94723C2E781
:10737000202063E7C02400202DE9FF414FF6FF7372
:10738000DFF88C800B8207460C468DF80330002511
:1073900058F8040B58B303682689DB68984786427F
:1073A00025D1666858F8041C01A8FEF794FF304602
:1073B0002289019926F00AFF0646019808B125F0B6
:1073C0003CF8A6B98DF803502682636963B1228B1D
:1073D000042A09D99DF803201A706569FFF7F8FBA4
:1073E0000523C5F80100A38304B0BDE8F081013591
:1073F000EDB2322DCCD1238A002BE6D00DF1030360
:10740000228961683846FFF7FBFE2082DDE700BF76
:10741000C02400200B88A3F5D57310B50446062BB5
:107420001ED8DFE803F0040B0E11151D1900FFF73D
:10743000A3FF2046BDE81040FFF7AEBBFFF7ACFC52
:10744000F7E7FFF767FCF4E7BDE81040FFF732BB52
:10745000BDE81040FFF764BBBDE81040FFF770BC0B
:1074600010BD70B50D4688B0044610B9002008B0B4
:1074700070BD0029FAD001466846FEF754FF684601
:1074800010F0A9F92946064602A8FEF74CFF02A80B
:1074900010F0A1F98642E9D1214604A8FEF74AFF7F
:1074A00004A810F098F92946044606A8FEF742FF02
:1074B00006A810F090F9231A58425841D7E710B5A2
:1074C0000C4631B1002805DA4042FFF7F8FF00B161
:1074D000201A10BDB0FBF1F301FB1300F9E7000027
:1074E0002DE9F041069D0C46401B11491646984671
:1074F000FFF7E5FF0E490746701BFFF7E0FF0C4959
:107500000646601BFFF7DBFF09490446A8EB0500B0
:10751000FFF7D5FFB74206D807D184428CBF0020C1
:107520000120BDE8F0810120FBE70020F9E700BF62
:10753000805101002DE9F0418CB00C460546014612
:1075400002A89046FEF7EFFE02A810F044F9294683
:10755000064604A8FEF7EEFE04A810F03CF921460A
:10756000054606A8FEF7DFFE06A810F034F921460E
:10757000074608A8FEF7DEFE08A810F02CF94246E0
:10758000044600210AA810F0EEF80AA810F023F92A
:10759000234600903A4629463046FFF7A1FF0CB03B
:1075A000BDE8F0810220704728207047704710B571
:1075B0007021044624F0D6FF204610BD90F86030BC
:1075C00013B1203006F0A5B84830FBE790F86030E2
:1075D00013B1203006F0A4B84830FBE770B506467A
:1075E0000C46154662B92A462146304600F0A4F9F9
:1075F0000022014606F14000BDE8704006F03CB8AC
:1076000021B10368DB689847A842ECD9204670BDD9
:1076100013B5044600F0E2F894F8683023B1626EC6
:107620000021684610F09FF802B010BDF8B504467E
:1076300016461F46FEF79AFE48B132463B462046A4
:1076400000F0F4F8054684F860002846F8BD94F888
:1076500060300BB90025F8E732463B4604F14000A4
:1076600005F0BCFF054650B110F012F894F86830F0
:107670006066002BE9D1012384F86830E5E794F8CF
:1076800068607EB10FF0FEFFA36D626EC31A984270
:1076900005D9934206D8904204D93546D5E793429E
:1076A000FBD9F8E794F86820002384F86030002ABA
:1076B000D0D0E1E7F0B517464B68436001F108020E
:1076C00004460D4600F1080392E8030005F110029C
:1076D00083E8030092E8030004F1100383E8030049
:1076E00005F120030FCBDFF854C0C4F818C004F133
:1076F000200686E80F00383555F8083C236395E8E6
:10770000030004F1380383E803000B4B236007F107
:1077100008030FCB04F14805C4F840C085E80F000A
:10772000BB69A3650023C4E9193384F8603084F889
:1077300068302046F0BD00BF20EE040014FD0400B8
:1077400084B0F0B5A1B0064627A880E80E0008AACC
:1077500003462DAF154618685968144603C408330C
:10776000BB422246F7D119889B78A37021800BABCE
:107770000FCB6C4607C424F8023B1B0C237095E822
:107780000E0010A800F0ECF804AA0DF1B7030DF1FB
:10779000BF0C174618685968144603C4083363457C
:1077A0002246F7D1186820601B7923719DF81C30A0
:1077B0008DF8003097E80E00284605F013FF2A46A2
:1077C00010A93046FFF776FF304621B0BDE8F04003
:1077D00004B07047002070471B2070477047704707
:1077E000203005F096BF203005F09ABF10B540213B
:1077F000044624F0B7FE204610BD38B590F83C4052
:1078000005467CB10FF04AFF2B6BAA6BC31A984256
:1078100006D9934208D8904234BF0024012401E0E5
:107820009342F8D8204638BD0024FBE7F8B51F4640
:1078300003689B6904461646984798B1236820461A
:107840009B69984748B332463B4604F1180005F05F
:10785000C5FE054678B10FF021FF0123A06384F82F
:107860003C3006E023682046DB6998470028E5D1D4
:1078700001252846F8BD94F83C300BB90025F8E7FF
:107880002046FFF7BAFF05460028F1D194F83C30B6
:10789000002BF3D084F83C00EBE723682046DB693B
:1078A00098470028E4D032463B4604F1180005F022
:1078B00095FE054628B90FF0F1FE0123A06384F878
:1078C0003C3094F83C30002BD3D02046FFF795FF96
:1078D0000028D3D194F83C50002DC9D084F83C0046
:1078E000C7E7D0B5044616461F46FEF73FFD30B148
:1078F00032463B462046BDE8D040FFF797BFD0BD9B
:1079000030B585B0044668460D46FEF7BFFD2246F9
:107910000DF10E016846FEF7ADFD05F11801684650
:1079200005F08EFE04F10E020DF10D016846FEF722
:10793000A1FD204605B030BD10B51A2A88B00C460E
:107940000BD9014601A8FFF7DBFF22460DF11F010D
:1079500001A8FEF78FFD08B010BD0020FBE7000076
:1079600084B070B586B0054602AC0BA880E80E0066
:1079700022460DF13A01FEF77DFDBDF81430ADF859
:10798000003094E80E002E462846FEF7E1FD0F4B2E
:1079900046F8183B22460DF147010DF13A00FEF77B
:1079A00069FD9DF814308DF8003094E80E003046E3
:1079B00005F018FE00232846C5E90E3385F83C3053
:1079C00006B0BDE8704004B0704700BF6CEE040024
:1079D000012070470E2070477047704710B518217E
:1079E000044624F0BFFD204610BDF0B5036885B005
:1079F000DB68174606460C469847B84205460CD841
:107A000031466846FEF742FD25B12A4669462046C2
:107A100026F0EAFB601905B0F0BD0020FBE700008E
:107A200084B037B507AC84E80E00BDF82830ADF857
:107A3000003094E80E000546FEF78AFD034B2B60EC
:107A4000284603B0BDE8304004B07047B8EE0400EB
:107A5000704710B50821044624F084FD204610BD6F
:107A60002DE9F04F837987B0894673B900238DF8EB
:107A700011309DF81030002063F307009DF811309D
:107A800063F30F2007B0BDE8F08F0029EED00A465F
:107A900004A800210FF067FE04A80FF09CFE00254B
:107AA0000390FF24A8462F46234BE85878B30023C1
:107AB000224A234924F0C3FC064640B34946FEF758
:107AC00055FC20B3314604A8FEF72DFC04A80FF0A6
:107AD00082FE3146824604A8FEF72CFC04A80FF073
:107AE0007AFEFF2C834608D1BA451AD03046FEF7FD
:107AF00018FCD8460446574609E0039B009301460C
:107B000043463A465046FFF7EBFC0028ECD10435DB
:107B1000C82DC9D1FF2C08BF64248DF81040012363
:107B2000A5E7C345E2D13046FEF7FBFB844228BF00
:107B30000446E4B2EBE700BFC024002090EE04004E
:107B400034ED040013B504460FF0A2FD01462046B3
:107B5000FFF786FF6379ADF80400C0F30720984271
:107B60000CD12BB123799DF804001B1A18BF0123F7
:107B7000BDF80420A280184602B010BD0123F7E72B
:107B80000B8810B440F2B114A34202460BD040F26D
:107B9000C114A34207D0962B0AD14B681B78C3F3BC
:107BA0000003837100E010465DF8044BFFF7CABF85
:107BB0005DF8044B704783880020DAB262F3070057
:107BC0001B0A82B063F30F2002B07047F8B5274B51
:107BD0000360274EFF230025837300F1180304463A
:107BE00005718581036100F11007304600F04EFCFD
:107BF0004FF0000332183146384600F087FB4FF44F
:107C000000732385A023E362C4E93255C4E93455E7
:107C10004FF4807384F82A50A36484F84C50C4F85D
:107C200004510123134D84F8E8302B78BFF35B8FA8
:107C3000D9070ED4284624F0F1FB50B10E4801F0CC
:107C400099FD284624F0F6FB0C4A0D490A4824F019
:107C500084FC094BA3600023C4F8D830A4F8DC30BE
:107C6000C4F8E030A4F8E4302046F8BDF8F0040091
:107C700028F00400B42600200C26002080230020D9
:107C8000FD97020038B5037904464BBB012211462B
:107C9000806801F09DFE18B30123124D23712B78EB
:107CA000BFF35B8FDB0709D4284624F0B7FB28B16C
:107CB0000D4805F033FC284624F0BCFB21460A4859
:107CC00005F054FC04F11001204600F027F820468E
:107CD000218D00F071F82046BDE8384000F02EB943
:107CE00038BD00BFD426002088250020A1F1200344
:107CF0009BB243F6E072934298BF8185704710B5FE
:107D00000379044643B1FFF7F1FF00F017F920466D
:107D1000BDE8104000F060B910BD000070B5044629
:107D200088B010300E4600F0CBFA2379FBB16269BF
:107D300004AB0293EAB91D4C204600F0A7FB4FF0BC
:107D400000032218214602A800F0E0FA1123BDF832
:107D50000C2002998DF8043001A800F095FB18B1B1
:107D6000134A622116F01BF802A800F0A1FA08B02D
:107D700070BDD6E900541DB914B10E4824F079FF46
:107D80000F2C019406D9002101A800F059FB019B9A
:107D90000290049322462946029800F0D9FA019BEA
:107DA000029A03930021D154D0E700BF28F00400C9
:107DB00057F004002DF0040008B5037953B1018594
:107DC000084600F05FFB28B1034A6921BDE808407E
:107DD00015F0E5BF08BD00BF57F0040011F10C0F0E
:107DE00009D010DC11F1140F05D011F1100F02D0E1
:107DF00011F1280F0DD190F92A308B4209D080F86B
:107E00002A1000F02FB80B1DF5D003DC11F1080F7C
:107E1000F1D070470029EED00429FAD1EBE713B571
:107E20000446FEF727FE01230DF107022A210CF07C
:107E3000CEFE9DF907102046FFF7D0FF02B010BD1F
:107E400013B50446FEF716FE01230DF107020B21C0
:107E50000CF0BDFE9DF907102046FFF7BFFF02B0F2
:107E600010BD000008B5037973B1817BFF290BD0E9
:107E700090F92A20012000F003FB28B1034AA02139
:107E8000BDE8084015F08BBF08BD00BF57F00400E7
:107E9000F8B505460C461746002A3DD100F15006BC
:107EA0003C220021304626F0C7F90123337017B970
:107EB0004FF4C0637380D5F8043183B3F4B105F196
:107EC000F8040C220021204626F0B6F94CF20103FA
:107ED000A5F8F830D5F8040101F0B2F8C5F80001B2
:107EE000D5F8040101F0AEF80123A5F8FC00B46256
:107EF00086F82C3095F8FC400434E4B22B7DC4F1B4
:107F00001A04E4B29C4228BF1C4674701CB10123C1
:107F10003FB185F84C30F8BD00F18C06C0E71C4637
:107F2000ECE785F84B30F6E710B500220446FFF782
:107F3000AFFF2046BDE8104000F080B8038E03F488
:107F40007C4343F001030386002343634FF48073B3
:107F5000A0F84430838D8363C38D8387704770B5E9
:107F60000379012604464673D3B1037BD3B900F1EC
:107F7000300200F1D8010E3000F07CFA054620B145
:107F8000204600F0CFF8284670BD84F848003146FE
:107F9000A07B00F071FA05460028F4D12673F2E7C1
:107FA0000825F0E70025EEE710B5002343730379B9
:107FB000044673B1037B63B1807B00F05FFA30F05D
:107FC000080304D0034A40F2411115F0E8FE0023F3
:107FD000237310BD57F0040038B5037B04460BB97A
:107FE000437B53B3237943B3A06801F07DFD94F83C
:107FF000495075B9002394F84820F2B1BBB1012370
:1080000084F8303084F84A302046BDE8384000F02B
:108010007DB8A06801F04CFF0028EBD194F84A30FD
:10802000002BE8D1012384F848302B46E3E70522F2
:1080300084F8302084F84A30E6E738BD70B503791B
:108040000446002B5FD090F8E85090F84B30013593
:1080500005F0010580F8E850E3B11F2100EB85062B
:10806000A0F8DC10D6F8C83023B9012026F04AF871
:10807000C6F8C800D6F8C810C4F8D81004F1DC025D
:1080800004F1500014F0C6F920B11F4A4FF4C47136
:1080900015F085FE94F84C30E3B11F2104EB850503
:1080A000A4F8E410D5F8D03023B9012026F02AF83E
:1080B000C5F8D000D5F8D010C4F8E01004F1E402FF
:1080C00004F18C0014F0A6F920B10F4A4FF4C971E5
:1080D00015F065FEA37BFF2B0CD0002204F1D80124
:1080E00004F10E0000F0C6F920B1074A4FF4CC713C
:1080F00015F055FE237B33B9637B23B12046BDE8E1
:108100007040FFF72CBF70BD57F0040010B5037B23
:1081100004460BB1FFF748FF2046BDE81040FFF7CB
:108120001EBF0000F0B58BB006462122002101A839
:1081300026F082F800241F4F2546B6F8DC30A34213
:1081400014D9D6F8D8301A5D01AB5819394626F043
:1081500085F904F00703072B054405D121220021EE
:1081600001A826F069F800250134E6E72122002164
:1081700001A826F061F800240E4F2546B6F8E43039
:10818000A34214D9D6F8E0301A5D01AB581939462C
:1081900026F064F904F00703072B054405D12122DA
:1081A000002101A826F048F800250134E6E70BB0CD
:1081B000F0BD00BFAAF00400027B42B100220521FD
:1081C000027380F8301080F84A20FFF7C8BE70476D
:1081D00010B50B88B3F5827F86B004460A465CD0A2
:1081E0000BD80C2B2DD03C2B19D00B2B12D14B685C
:1081F00093F90010FFF7F2FD0CE0B3F5847F0BD08C
:1082000040F209118B4221D040F20712934201D172
:10821000FFF7D2FF06B010BDFFF7DEFEFAE74968B0
:10822000128902AB0A44009368464FF0000300F045
:108230006DF820466946FFF771FD684600F038F892
:10824000E8E74B681988FFF75AFDE3E753681B78A6
:108250008DF80030F3B1FFF782FE114C2378BFF3A5
:108260005B8FDB070ED4204624F0D8F850B10D48C0
:108270000AF048F9204624F0DDF80B4A0B4909487A
:1082800024F06BF901236A4642F2107105480AF0A6
:1082900093F9BFE7FFF788FEDFE7FFF7CFFEB9E707
:1082A000D0260020B8260020802300202F84020042
:1082B000034653F8080B984201D024F0BEB870472B
:1082C0008842F7B504460E461ED003464D6853F863
:1082D000082B9A4214BF81680F21A9420AD201A833
:1082E000019500F0ADF807462046FFF7E1FF019B3E
:1082F0002760A36025B12A463168206800F028F87D
:108300002368656000225A5503B0F0BD73B5054679
:108310000E4619B912B10D4824F0ABFC941B0F2C7A
:10832000019406D9002101A800F08AF8019B286079
:10833000AB6022463146286800F00AF8019B2A68A3
:108340006B600021D15402B070BD00BF2DF004005D
:10835000012A30B403D10B78037030BC7047002A77
:10836000FBD030BC25F040BF0B680360014B83603D
:10837000704700BF04F10400024B83600B68036088
:10838000704700BF04F104000B680360704770473A
:108390000048704740EF040010B504460846044901
:1083A00024F0CDFB002814BF2046002010BD00BFE4
:1083B00040EF04000B680360014B8360704700BF0F
:1083C0001CF10400024B83600B680360704700BF20
:1083D0001CF104000B680360704770470048704749
:1083E0000CEF040010B504460846044924F0A7FB2E
:1083F000002814BF2046002010BD00BF0CEF040071
:1084000010B5044B044640F8103BFFF751FF2046DF
:1084100010BD00BFF8F0040010B50446FFF7F0FFF0
:1084200020464FF4847124F09DF8204610BD70471B
:1084300010B51821044624F095F8204610BD000020
:1084400008B50368002B02DA094824F015FC8B42BA
:1084500008D949008B4205D20029B6BF6FF000430E
:10846000016003600068BDE80840013023F0C6BF2A
:10847000AFF0040072DF704773DF704774DF70473E
:1084800077DF704778DF70477CDF704726F010B8E1
:10849000A0F84210704708B500F0C6FA006808BDA1
:1084A000B0F842007047B0F840007047A0F84410A0
:1084B0007047B0F844007047094A02604DF6AD615C
:1084C0000022426001818272C260C0F81220C0F8AE
:1084D0001620C26180F82020426280F82820704770
:1084E000D0F2040038B590F82030DB0704460D4682
:1084F00005D5044A1B2102F157000FF027FDE56066
:1085000038BD00BF9CF104002DE9F047044698B047
:1085100000250CAEE1611C220F460EA829460C95E1
:10852000756025F089FE1C2229460EA80DF154091C
:10853000ADF854508DF85650ADF85A508DF85C5047
:1085400025F07AFE07A9204600F0BAF80322294652
:10855000484625F071FE9DF85630CDF84C9023F03A
:10856000070304F1040943F0030341F2111A4846DA
:108570008DF85630ADF854A001F010FE484601F0D9
:10858000A5FD14222946009007A825F055FE236872
:10859000CDF81CD01B69ADF82650204698472368BB
:1085A000ADF824009B6820469847ADF82800204687
:1085B00000F062FB0DF15A080B9003224046294659
:1085C00025F03AFE9DF85C30D4F80C90CDF8208070
:1085D00023F0070343F005030DF10C08ADF85AA092
:1085E0008DF85C300F951295CDF80480B9F1000F2D
:1085F0005FD0484625F05CFF0F28054604D90130BE
:1086000023F0FCFE03950190012D01984AD199F8C1
:1086100000300370019B029500215955029BC3B1A4
:10862000019A0F920DF15D059BB203222846ADF829
:108630004230ADF8403025F0FFFD11238DF85D305C
:10864000BDF85E30129503F4784343F44073ADF8FF
:108650005E302368002511955B6B314620469847B4
:1086600010B1ADF83250119604F1120307AA0EA909
:10867000B88D00F0C0FA18B10F4A8C2115F08FFBAD
:108680000021204600F03EF894F82030019843F095
:108690000103404584F8203001D023F0CEFE18B00D
:1086A000BDE8F087002DB5D02A46494625F09CFD4F
:1086B000B0E7024824F0DDFA9CF104001DF204004A
:1086C0000B7F23F0030343F002030B7790F8203075
:1086D0000A7FC3F3800363F3C3020A7790F8203064
:1086E000D2B2C3F3400363F304120A7790F8203048
:1086F000D2B2C3F3001363F345120A77437C81F8C7
:108700003F3070472DE9F043036887B0DB690446CA
:10871000884698470546204600F0AEFA94F8203087
:108720009B06074667D594F82830FD2B63D8414651
:10873000284606F033FF236806469B682046984784
:10874000B04242D300F070FA236881465B6920464C
:10875000984794F82830CDF80880CDE900630146A9
:108760003B462A46484606F053FF002840D023687F
:108770003146DB6820469847236820461B699847A6
:10878000E369ADF816009868618AC08B3B460DF12D
:10879000160200F0B2FF20B11B4A4FF4807115F0B1
:1087A000FEFA94F82030C3F34000F0B1E269926819
:1087B000D18B4FF6FF72914223D0C3F3C000A0B11A
:1087C000236820465B6A98470FE012253246002155
:1087D000384625F031FD23680021DB6820469847A4
:1087E00000F022FA06F006FF284607B0BDE8F08345
:1087F0004FF6FF75EAE723682946DB68204698476D
:10880000BAE70020F1E700BF9CF1040070B590F8D2
:1088100020309A0786B0054643D5C2699268D18B4D
:108820004FF6FF7291423CD01B073AD503681B6993
:1088300098476B8AADF8083001238DF80A3000267E
:108840000DF10603CDE90436EB69ADF806009B682F
:10885000ADF80C6002A9D88B00F0CFF908280446C7
:1088600018D007D860B1104A4FF49D71204615F01A
:1088700096FA05E0132806D043F201439842F2D15C
:10888000204606B070BD95F8203043F0400385F8CF
:108890002030F5E795F8203066F3861385F8203010
:1088A000EEE70824ECE700BF9CF104002DE9F04F4F
:1088B00090F820309A0791B0044640F18C80C2694C
:1088C0009268D18B4FF6FF72914200F084801B07B3
:1088D00040F1818003681B6998478046204600F07C
:1088E000CBF994F82050C5F3801582460DB1B4F849
:1088F00046504FF0000B0DF11809A8454AD9A8EBD6
:1089000005071422132F4FF000014846BB46A8BFAD
:108910004FF0130B25F090FC132FCABF1322FF2238
:10892000B5FBF2F20AEB0507C8BFD2B21FFA8BF60D
:108930008DF8182039461FFA8BF20DF1190025F039
:1089400053FC721C92B239460BA8ADF8062025F0F4
:108950004BFC638AADF8083001238DF80A300DF125
:108960000603CDE90439E3699B68002202A9D88B8C
:10897000ADF80C2000F041F9834618B313284FF0EE
:1089800000020BD194F82020A4F8465042F0400297
:1089900084F82020584611B0BDE8F08F082808D18F
:1089A00094F82010A4F8462062F3861184F8201071
:1089B000F0E743F20142904204D0084A4FF4D171EB
:1089C00015F0EDF9BDF806200BA93846354425F021
:1089D0000BFCADB291E74FF0080BDBE79CF1040014
:1089E00010B590F820305B06044609D503685B6A31
:1089F000984728B994F8203060F3861384F8203023
:108A000010BD10B590F820305B0604460BD5036806
:108A10005B6A984738B994F82030A4F8460060F3B0
:108A2000861384F8203010BD80B483B000AF786026
:108A30007B682C3318460C37BD465DF8047B7047C5
:108A400010B5044B044640F8303BA36BDB689847F5
:108A5000204610BD3CF1040010B50446FFF7F0FFBE
:108A60002046482123F07EFD204610BD2DE9F0432D
:108A700087B00D46044600F0D7F806F0C2FD064662
:108A8000002840D123682946DB6820469847C9233F
:108A90008DF8173094F8203013F0200F236851D050
:108AA00094F82820FD2A4DD81B692046984706F0E7
:108AB00084FD236801469B692046984700F0B4F87E
:108AC0000546204600F0D8F8236807461B69204673
:108AD0009847236880465B6920469847236881460B
:108AE000DB69204698470DF11703CDE90003029694
:108AF0004B4642463946284606F05EFE30B900F045
:108B000093F806F077FD07B0BDE8F08300F08CF82D
:108B10009DF8172094F8281007F08FF80028EED061
:108B200020469DF81760FFF77FFF23680746DB6943
:108B300020469847E56B03463A46314604F130003B
:108B4000A847E0E7FE228DF817209B6929462046BA
:108B50009847E5E7F8B5436A04465BBB90F82030D8
:108B6000DB0920D0144F154E3D78BFF35B8F15F015
:108B700001050ED1384623F051FC50B1384635601E
:108B8000B580B57123F056FC0D4A0E49304623F0EE
:108B9000E4FC336803B16362636A5BB90120BDE83A
:108BA000F8400FF035BA03689B689847012125F01B
:108BB000A9FA6062F8BD00BF78270020D8260020FF
:108BC00080230020098C020038B50446406A28B191
:108BD00094F82030DD0902D00023636238BD25F00F
:108BE000EDFA6562FAE700230120CB8040F21B1307
:108BF00008710B807047AADF7047AEDF704770477F
:108C0000704770470020704710B50446006808B1EF
:108C100025F0D4FA204610BD10B59421044623F067
:108C2000A1FC204610BD000070B50E4E3378BFF396
:108C30005B8F13F0010513D1304623F0EFFB78B1C1
:108C4000094C0A4B23603046042384F8545084F8BE
:108C50005C3023F0EFFB064A0649204623F07DFCFA
:108C6000014870BD74270020E0260020A4FE040007
:108C700080230020FF8B020090F820309B0603D554
:108C800090F82830FD2B02D903685B691847406AC9
:108C9000704749BA4182704749BA8182704710B51E
:108CA00001F10F0302301A468B4212F8014900F815
:108CB000014B00D110BD1346F5E784B038B505ADC2
:108CC00085E80E0041F20253038004462946FFF76F
:108CD000E6FF2046BDF82410FFF7DBFFBDF82810A3
:108CE000FFF7DAFF9DF92C30A375BDE8384004B0DA
:108CF00070473030704713B5D0E90D3293420446C7
:108D0000019106D01960436B04334363204602B0DF
:108D100010BD01AA1946303000F0E0F8F6E7000077
:108D20000A4901604DF6AD610022018200F11C018B
:108D3000C0E905124FF6FF710271C0E90222827488
:108D400002778185C0E90C2282637047A8F3040092
:108D500073B5037904463BBB00F10C0581602846DE
:108D600001F01CFA284601F0B1F922464FF6FF73D4
:108D7000019022F82C3F01A9012000F0EEF818B173
:108D80000A4A2D2115F00BF8236820465B6A9847A4
:108D9000D0E90056AE4205D0214655F8040BFFF746
:108DA000B3FBF7E70123237102B070BD29F3040080
:108DB00070B503685B6A0D469847D0E90046A64245
:108DC0000FD054F8040B90F8203065F3451380F869
:108DD0002030036815B1DB6A9847F0E71B6B9847B2
:108DE000EDE770BD10B50C68C46000F10C038A8813
:108DF0009A808A799A7110BD0A88112A09D0502A5E
:108E00000DD0102A10D1036801F108025B6989882E
:108E10001847036801F108029B69898818470368AD
:108E200031F8062FDB69184770477047F7B50368BC
:108E30005B6A0D46074616469847D0E900319942CD
:108E400037D053F8044B2888E28A90420FD16A89C0
:108E5000022A0CD105F10C0013F0A6FC94F8203086
:108E600060F3C30384F82030012003B0F0BD628AB0
:108E70009642E4D1AB795A1E022A06D82368698942
:108E80001B6A204698470120EFE7062B13D1B868EC
:108E900000230DF106023146C08BADF8063000F01C
:108EA0001BFC2368BDF806101B6A2046984701206A
:108EB000DBE70020D9E70120D7E770B503685B6ADC
:108EC0000D469847D0E90046B44206D054F8040B4A
:108ED000036829469B6A9847F6E770BD2DE9F84F6D
:108EE000D0E9007AAAEB0704A41014BF234601239B
:108EF000E418804689469346A1EB070526D2B4F1D3
:108F0000804F23D224BB2646DBF800307351B9458D
:108F100004D02A463946304625F074F90435D14547
:108F20003544AAEB090B04D05A464946284625F099
:108F30005BF95D4417B1384623F07FFA06EB8404F1
:108F4000C8E90065C8F80840BDE8F88F6FF04044F4
:108F5000A00023F053FA0646D6E7A8DF7047704713
:108F600010B56421044623F0FDFA204610BD000030
:108F700010B5094C2378BFF35B8FDB0709D420467B
:108F800023F04CFA28B1054804F0C8FA204623F033
:108F900051FA024810BD00BFD426002088250020C9
:108FA00070B5104B0360002500F12803122604461B
:108FB000456232462946184625F03EF94FF41671AF
:108FC000FF22C4E913126587C4E90F55C4E911559E
:108FD00084F85450A56525663246294625F02CF9BB
:108FE000204670BD04F4040080F82910704780F812
:108FF0003A10704780F83B107047012303FA01F1E3
:1090000010B549B290F93C4022B12143C9B280F871
:109010003C1010BD24EA0101F8E7012303FA01F135
:1090200010B549B290F93D4022B12143C9B280F850
:109030003D1010BD24EA0101F8E780F83E107047AA
:10904000283070471220704710B55C30144606F087
:1090500092FE28B101461022A01C25F0C5F801207F
:1090600010BD00002DE9F04304468FB004F1240642
:109070000D4604F093F9314604F0E2F9A36D013393
:10908000A365FDF7F7FC042304AA88210BF09FFDDC
:10909000FDF7F0FC042305AA8B210BF098FD059A3F
:1090A000003218BF012202212046FFF7A6FF059AD1
:1090B000002A3AD1A264216DA06D04F1280700298D
:1090C00039D0C30740F1D280A26D12F00F0840F0F2
:1090D000F980FDF7CFFC042306AA99210BF077FD58
:1090E000072384F82830042384F82A3094F83A308F
:1090F00084F82B3094F83B3084F82C3094F83C30D2
:1091000084F82D30BDF81A30E3850622414604F17B
:10911000300025F091F8049BA26D002B40F0D08028
:1091200093B2E3864FF47A43BEE0A36C002BC2D027
:10913000049BA364BFE7062384F8283094F83B30EF
:1091400084F82B3094F83C3084F82C3094F83E307E
:1091500084F82D3094F83F3084F82E304FF07D0C99
:10916000236CC4F8312093FBFCF384F8350084F8B9
:109170002A10A4F82F30042204F1360025F05CF800
:10918000DFF8B88198F80030BFF35B8FD8070ED4B2
:10919000404623F043F950B1624809F0B3F9404624
:1091A00023F048F9604A61495E4823F0D6F93A460F
:1091B000022112235B4809F0FFF9FDF75BFC032253
:1091C00019210BF015FD50B3236D43B3DFF87091F7
:1091D00099F80030BFF35B8F13F0010813D14846B4
:1091E00023F01CF978B1524F524B3B6048460423A0
:1091F00087F8548087F85C3023F01CF94A4A4E49BE
:10920000384623F0AAF965220221CDE9012104F1B3
:109210002A03102200921946454806F0F9F9BDB913
:109220004FF48273ADF8183070230795ADF82050D5
:10923000ADF822508DF82450ADF828300B95ADF8DC
:109240003050ADF83450FFF793FE06A904F06AF9E8
:10925000236D002B60D104F0A1F823464FF4804227
:10926000314604F0D9F80FB0BDE8F08394F83A1015
:10927000F2B1072384F82830012384F82A30A36C44
:10928000236394F83C3084F8343094F83E3084F80A
:109290003530049B84F82B10E2623BB983B2E3863D
:1092A0007D22236C93FBF2F3238769E79BB2F6E7F9
:1092B0003A462046FFF7C8FE00287FF461AF03E777
:1092C0009BB22EE7072384F82830002384F82A3045
:1092D00094F83A3084F82B3094F83B3084F82C30F2
:1092E00094F83C3084F82D30E38FE3857D21236CA6
:1092F00093FBF1F32386636CC4F83230049B4BB9C3
:1093000093B2E38694F83D3084F83830FA2384F839
:10931000393035E79BB2F4E704F040F823464FF4C8
:1093200000429DE7B8260020802300202F84020001
:10933000E0260020A4FE0400FF8B0200D0260020BF
:10934000742700200021FFF78DBE0000031D37B5F4
:10935000202200210446184624F06EFF254645F8D9
:10936000240F04F01BF82D4A294604F045F8FDF7B8
:1093700081FB01230DF1070286210BF028FC9DF8EB
:109380000730102B02D045D8022B45D8236504F1B5
:109390005C0006F095FC04F001F8234629464FF4E2
:1093A000004204F039F8FDF765FB032236210BF08B
:1093B0001FFC012102462046FFF71FFEFDF75AFB66
:1093C000032237210BF014FC032102462046FFF74D
:1093D00014FEFDF74FFB032238210BF009FC052199
:1093E00002462046FFF709FEFDF744FB0322432116
:1093F0000BF0FEFB062102462046FFF7FEFDFFF7BD
:10940000B7FD214604F0B2F801212046FFF72AFEFD
:1094100003B030BDFF2BB9D0FF23B7E7459302005F
:1094200070B58EB00D460446FDF724FB04236A4652
:1094300088210BF0CCFB4FF4403305931DB140F273
:109440000513ADF8163094F83E308DF80430636C97
:10945000CDF80530009BA26D002B60D193B2ADF822
:10946000093009238DF80C300723ADF814304FF480
:10947000C673ADF818300C237022ADF8203001AE61
:10948000002303ADADF822308DF82430ADF828204C
:109490000B93ADF83030ADF8343004960795FFF7F4
:1094A00067FD06A904F03EF894F83B308DF80430CF
:1094B00094F83C308DF8053094F83F308DF8063044
:1094C0007D22236C93FBF2F3ADF80730009BA26D75
:1094D0003BBB93B2ADF8093008238DF80C3007235D
:1094E000ADF814304FF4C673ADF818300C23702269
:1094F000ADF820300023ADF822308DF82430ADF8DF
:1095000028200B93ADF83030ADF834300496079531
:10951000FFF72EFD06A904F005F80EB070BD9BB252
:109520009DE79BB2D6E7000037B50B88872B044632
:1095300000F0968023D8382B00F0BC8008D8362B5A
:1095400000F0AA8000F2AF80222B74D003B030BDAF
:10955000812B75D008D8432BF8D14B681A7800328C
:1095600018BF012206211AE0822B70D0832BEDD187
:109570004B681B6803647F2380F83F30E6E7B3F550
:10958000947F00F082801AD8962B6FD00AD88B2B4C
:10959000DCD14B681A68003218BF01220221FFF7A4
:1095A0002CFDD3E740F20712934240D0B3F5847FFD
:1095B000CCD1002180F85410FFF754FDC6E7B3F575
:1095C000E17F7ED009D8B3F5D97FBFD14B681A7837
:1095D000003218BF01220721E1E7B3F5EB7F4DD040
:1095E00040F2D7129342B1D14B685C30196806F053
:1095F000EAFBE56C6B1EE364002DA7D10DF10700BB
:10960000012103F059F89DF8072042F210735343EB
:10961000FF22B3FBF2F303F56A4364226033294669
:10962000B3FBF2F32046E364FFF7FAFE8EE7012373
:1096300080F854308AE74B681B7880F83A3085E729
:109640004B681B7880F83B300323C3647EE749688E
:109650001E4AD1E90001002324F074FB606475E721
:109660004B6893F9003080F83E306FE74B681A780A
:10967000002102F00102FFF7D0FC67E790F83C30D0
:1096800043F0100380F83C3060E74B681A780032F2
:1096900018BF0122002182E74B681A78003218BFF8
:1096A000012201217BE74B681A78003218BF0122A2
:1096B000032174E74B681A78003218BF0122052194
:1096C0006DE749685C3006F022FB3FE70090D0036D
:1096D000ACDF7047ADDF704713B514461288ADF8A4
:1096E00000200022ADF802206A460193FFF7F2FF46
:1096F000BDF80030238002B010BD13B514461288A7
:10970000ADF800200022ADF802206A460193FFF771
:10971000DFFFBDF80030238002B010BD10B5044655
:109720000BF059FE204610BD10B504460BF053FE59
:10973000204610BD10B50B4C2378BFF35B8FDB07C1
:109740000ED4204622F06AFE50B107480BF03EFED0
:10975000204622F06FFE054A0549034822F0FDFE2F
:10976000014810BD9027002088270020802300207A
:109770002997020038B500230446C0E90033C0E948
:109780000233142022F03AFE0546606808B122F048
:1097900054FE4FF6FF73E383154BA362A363154B8F
:1097A000A36404F18103C4E90155C4F8A030143561
:1097B0001F23E560A4F8A430002504F15C03C4E98C
:1097C000055525772562E5622563E5632564E56433
:1097D00084F8505020222946184624F02DFD064BCF
:1097E00063616423E067638384F88050204638BD5A
:1097F000C4F40400ACF404000600100010B500230B
:10980000044600F8403BA36CDB68984704F1300045
:1098100000F087FB04F1200000F083FB606808B1D2
:1098200022F00BFE204610BD13B503780446D3B9D1
:109830000DF1070000F044FC18B10C4A462114F069
:10984000AEFA9DF8073033B100F038FC18B1074A82
:109850004A2114F0A4FA012000F01EFC0E2000F0B2
:109860001DFC0123237002B010BD00BF5DF4040095
:1098700008B514F055FA14F0E7FB14F0EBFB14F004
:1098800065FB08280AD018B1054A772114F087FA39
:1098900014F0DAFB10B914F043FAF9E708BD00BF81
:1098A0005DF404001FB5037804464BB343783BBB1B
:1098B000144B01A91B680193012014F02BFC18B173
:1098C000114AA72114F06BFA01A814F08BFC18B10F
:1098D0000D4ABE2114F063FA00230293ADF80C3058
:1098E00002A80C23ADF80A3000F0E4FB18B1064AD8
:1098F000C42114F054FA01236370204600F0BCFB2D
:1099000004B010BDD02300205DF404007047704700
:1099100038B5437805464BB3154C2378BFF35B8FBE
:10992000DB070ED4204622F079FD50B111480BF030
:109930004DFD204622F07EFD0F4A10490D4822F0D1
:109940000CFE4FF496710B480BF04DFDFFF7F2FE45
:109950004FF496710BF047FDD5E90145AC4205D0B7
:1099600054F8040B03689B689847F7E738BD00BFBD
:10997000842700207C270020802300201D970200E0
:1099800070B54378044673B1837863B9D0E9015662
:10999000B54206D055F8040B03682146DB689847AA
:1099A000F6E70123A37070BD13B5D0E902329342EC
:1099B0000446019106D01960836804338360204611
:1099C00002B010BD01AA1946043000F0B1FAF6E762
:1099D000012906D019B1022905D00020704700786E
:1099E00070474078704780787047000010B5437822
:1099F0008CB00446002B44D0027F002A41D1BDF830
:109A00000030ADF8062003F0E00343F48273ADF8B4
:109A1000003002928DF80C20FDF72CF802230DEB9C
:109A2000030227210BF0D3F8FDF724F828210223A5
:109A300001AA0BF0CCF804F1A001684600F034FB59
:109A400020B1114A4FF4AC7114F0A9F90123237726
:109A500040F20513ADF81030702200230593ADF8E5
:109A60001830ADF81A308DF81C30ADF8202009936D
:109A7000ADF82830ADF82C30FFF77AFA04A903F0DE
:109A800051FD0CB010BD00BF5DF4040010B543786B
:109A900088B004461BB3037F0BB300F007FB20B173
:109AA000104A40F2671114F07AF900234FF48372E0
:109AB000ADF80020237770220193ADF80830ADF89F
:109AC0000A308DF80C30ADF810200593ADF8183041
:109AD000ADF81C30FFF74CFA694603F023FD08B0DF
:109AE00010BD00BF5DF40400007F704770B5D0E981
:109AF00001460D46A64205D0294654F8040BFFF74F
:109B000057F9F7E770BD0000F0B50B88502B8BB00C
:109B100005460C466CD015D8102B2FD003D8012B3E
:109B200048D00BB0F0BD112B5DD01C2BF9D1D5E97D
:109B30000165AE42F5D056F8040B036821461B6957
:109B40009847F6E7532B7DD011D8512BEFD0522BED
:109B5000E7D1002203231146C08B00F0A9FA0028A8
:109B6000DFD0404A4FF4E47114F019F9D9E7562BCD
:109B7000DDD0572BD5D100F0A2F9D2E700F03DF9A6
:109B800040F20713ADF80830702200230393ADF8BC
:109B90001030ADF812308DF81430ADF8182007935E
:109BA000ADF82030ADF82430FFF7E2F902A903F058
:109BB000B9FCB6E7FFF7BEFD0222014602A80BF092
:109BC00024FC029B00936946BDF80C30A088ADF8D8
:109BD000043000F071FA0028A3D0224A40F2931119
:109BE00014F0DDF89DE700F024F94FF48473C9E721
:109BF00000F0F6F8237B062B16D1FFF79BFD02221F
:109C0000014602A80BF001FCD5E90157029E06347B
:109C1000AF4286D055F8040B328803682146DB69D1
:109C200098470028F4D07CE7D5E90167A51DB74225
:109C30003FF477AF56F8040BE28803682946DB69E6
:109C40009847F4E7D0E90136B3423FF46AAF53F8DE
:109C5000040BE188828D9142F6D1036821461B698D
:109C600098475EE75DF4040010B504468CB0C11C53
:109C700006220DF1010024F0B7FAE27C8DF80020F5
:109C8000227D8DF80820A28B8DF80920A269CDF8DD
:109C90000A2040F20112ADF810200E220023ADF888
:109CA000182070228DF80730ADF81A308DF81C306E
:109CB000ADF820200993ADF82830ADF82C30CDF860
:109CC00014D0FFF755F904A903F02CFC0CB010BD1B
:109CD00000F125028261FFF7C7BF000070B50B8855
:109CE0001D2B92B006460C462BD10D7AC5F34115BB
:109CF0003DBB08313AB3242201A824F075FA94F848
:109D00002420216A8DF828200DF1290024F06CFA16
:109D10000F4A0795442101A813F09CFF20B10D4A7A
:109D200040F23D2114F03BF806F1A001002000F0C4
:109D3000BBF9082805D020B1064A40F24E2114F0A4
:109D40002EF812B070BD0846FFF78EFFECE700BF9B
:109D5000D19C02005DF4040010B50D4C2378BFF3D4
:109D60005B8FDB070ED4204622F058FB50B1094828
:109D7000FFF700FD204622F05DFB074A0749054832
:109D800022F0EBFB0348BDE8104000F06FB800BFC5
:109D9000B42600200C26002080230020FD9702001E
:109DA00010B504467C3403F0F9FA2146064A03F064
:109DB00023FB03F0F3FA214600234FF42022BDE8F1
:109DC000104003F029BB00BF599D020010B50446A6
:109DD00003F0E4FA04F17C01BDE8104003F030BB6D
:109DE00010B5044603F0DAFA04F17C0100234FF4C5
:109DF0002022BDE8104003F031BBF8B58B88C38347
:109E00000023C370C36A04460D4613B1898820300D
:109E10009847D4E90167BE4206D056F8040B0368A0
:109E200029461B699847F6E72046BDE8F840FFF74A
:109E3000B7BFF8B54FF6FF73C383C36A04460E4637
:109E40001BB1C36B898830309847D4E90157BD42B4
:109E500006D055F8040B036831461B699847F6E7AE
:109E60002046BDE8F840FFF7B1BF000008B5034643
:109E7000C08B4FF6FF72904214D0DA7892B901226B
:109E8000DA70132100F00CF908280BD043F202021B
:109E9000904207D030B1044A40F2A321BDE8084007
:109EA00013F07DBF08BD00BF5DF40400C0787047AB
:109EB000C08B4FF6FF73C01A18BF0120704770B5F2
:109EC000D0E901460D1DB44206D054F8040B0368D6
:109ED00029461B6A9847F6E770BD1FB5CA688B68AC
:109EE00003925B68044668469847694604F120007F
:109EF00000F05DF8684600F014F804B010BD1FB51E
:109F0000CA688B6803925B6804466846984769464E
:109F100004F1300000F04BF8684600F002F804B09D
:109F200010BD10B583680446DB689847204610BD15
:109F30002DE9F84FD0E9007AAAEB0704A41014BF6A
:109F400023460123E418804689469346A1EB070582
:109F500026D2B4F1804F23D224BB2646DBF8003052
:109F60007351B94504D02A463946304624F04AF99F
:109F70000435D1453544AAEB090B04D05A4649466D
:109F8000284624F031F95D4417B1384622F055FADD
:109F900006EB8404C8E90065C8F80840BDE8F88FFE
:109FA0006FF04044A00022F029FA0646D6E730B50B
:109FB0008B6885B004461B6801A80D469847A368C6
:109FC000214628461B689847039B01A91B68204629
:109FD0009847E368EA68E260EB6005B030BD0000D6
:109FE0000B680360014B8360704700BFC4F404003A
:109FF000024B83600B680360704700BFC4F4040029
:10A000000B680360704770470048704728F40400ED
:10A0100010B504460846044922F091FD002814BFFB
:10A020002046002010BD00BF28F404000B68036028
:10A03000014B8360704700BFACF40400024B8360A7
:10A040000B680360704700BFACF404000B6803604A
:10A05000704770470048704710F4040010B504467C
:10A060000846044922F06BFD002814BF204600205A
:10A0700010BD00BF10F4040008B5143000F012F851
:10A0800030B1044A40F21F11BDE8084013F087BE0A
:10A0900008BD00BF5DF4040036DF704737DF70474E
:10A0A00076DF70477ADF70478ADF70478BDF704753
:10A0B000B1DF704765DF704766DF704711DF7047BB
:10A0C00012DF704762DF704763DF704782B08379C9
:10A0D00082888DF80630002362F30F03BDF8062056
:10A0E00062F31F43184602B0704700002DE9F84F95
:10A0F0000024DFF898A0DFF8A0B080468946264605
:10A1000025462746D9F80030DB5DABB30F2D2FDC99
:10A110002D2B1ED0202B1CD0A3F13002D2B2092A45
:10A1200005D9A3F14102052A15D8373BDAB202EB73
:10A130000413F20748BFC5F10F0203F0FF0406F154
:10A14000010341BF08F802401E460135002458BFF4
:10A150001E460137D6E7A3F16102052A01D8573B15
:10A16000E4E75246482158460DF0F0FE0022DEE7B3
:10A17000064A0748582104E00F2D04DC034A05482D
:10A1800056210DF0E3FE4046BDE8F88F0AF50400C5
:10A1900079F5040069F5040057F5040010B502686C
:10A1A000837986B004465AB3D3B9014602A8FFF7B3
:10A1B0009DFF01AA02A91020FFF786FF052812D1F2
:10A1C000A11D02A8FFF77EFF18B1104A1B2113F052
:10A1D000E6FD9DF815209DF8143043EA0223A38084
:10A1E000A07906B010BD28B99DF80630A371BDF85E
:10A1F0000430F4E7054A064822210DF0A7FEEFE7F8
:10A20000002BEDD1014A03482521F6E70AF50400A9
:10A21000DCF40400F0F40400427803781344021DD7
:10A220001C3012F8011B0B4490429BB2F9D1D8B2FA
:10A2300000EB1323C3F30F201844C04380B27047D0
:10A240002DE9F8431E460F4631B3052826D81C23B6
:10A25000174D434305EB0308EB5C834220D198F88C
:10A260000190B9F1180F1DD891451DD8C3EBC30358
:10A270009C002819FFF7D0FFB8F80230834215D1AF
:10A2800004344A462919384623F0AEFF98F80130C5
:10A2900033700020BDE8F8830520FBE70120F9E7D3
:10A2A0000420F7E70220F5E70320F3E70620F1E7B3
:10A2B00000FF00201A4B43604FF481734381032356
:10A2C000C37341F21433038240F60A13C382038B33
:10A2D000DFF864C003F0800343F4427343F00103EA
:10A2E0000383104B0362104BC36140F2C97240F20A
:10A2F000BC73C0E9092340F6AC514FF49663C0E942
:10A300000B134363094BC363094B0364EC2380F8CD
:10A310003830084BC0E911C3DD2380F84C3070475A
:10A32000080B0607CDCC4C3EE02D903B5C8F423FA6
:10A3300085EBD13EF0490200400D03001A4B1B4A49
:10A34000C0E901234FF40073C38141F21433038247
:10A3500040F20673C382038B03F0800343F4AC63C3
:10A3600043F001030383124B0362124BC3614FF4AA
:10A37000FA716FF07C03C0E909134FF0000C4FF441
:10A38000E163C0E90BC34FF4167343630A4BC36325
:10A390000A4B0364EC2380F83830094BC0E91133D1
:10A3A000DD2380F84C30704704050601080A0E0DC5
:10A3B000378981BE1EA7E83B3333B33E9A99993E55
:10A3C00080841E001A4B43604FF481734381032342
:10A3D000C37341F21433038240F60A13C382038B22
:10A3E000DFF864C003F0800343F4847343F0010397
:10A3F0000383104B0362104BC36140F2D37240F2EF
:10A40000CD73C0E9092340F2DC514FF49663C0E9F3
:10A410000B134363094BC363094B0364EC2380F8BC
:10A420003830084BC0E911C3DD2380F84C30704749
:10A43000080B0607CDCC4C3EBC74933B5C8F423F6F
:10A4400085EBD13EF0490200400D03001B4B4360F9
:10A450004FF4817343814FF44073C38141F214334D
:10A46000038240F60A13C382038B154903F080036D
:10A4700043F4B47343F001030383124B0362124BA2
:10A48000C3616FF062034362AB3B836242F22832E6
:10A490004FF49663C0E90B234FF4167343630B4BE1
:10A4A000C3634FF07A530364EC2380F83830084BD1
:10A4B000C0E91113DD2380F84C307047080B060704
:10A4C000400D0300A01A2F3E48507C3B3333333FEE
:10A4D000F04902001D4B4360012303724FF4E06317
:10A4E00043811B4BC36003F1F05303F5A81303F63C
:10A4F00011530361174B4361038B174903F080032A
:10A5000043F4CC6343F007030383144B0362144BFF
:10A51000C36100234362A3F58773836242F228324A
:10A5200040F21453C0E90B234FF4167343630D4BF1
:10A53000C3630D4B0364EC2380F838300B4BC0E948
:10A540001113DD2380F84C30704700BF080B0F0D4E
:10A550000507030222240829400D0300F931463E75
:10A5600048507C3B1A51BA3E1283A03EF04902008B
:10A57000174B436040F2012343810423C3814FF40E
:10A58000C163038241F21343C382038B03F0800350
:10A5900043F48F73038300230362C3614FF47A7320
:10A5A000C0E9093300224FF46163C0E90B23436320
:10A5B0004FF08043C3634FF07E530364D82380F889
:10A5C0003830044BC0E91133DD2380F84C3070473C
:10A5D00011160B0C80841E0008B5FFF7C9FF042379
:10A5E000437608BD41F619230382038B03F0F00381
:10A5F00043F400730383EC2380F83830014BC0E947
:10A600001133704780841E0038B54FF01023054683
:10A61000D3F88440631C04BF224B1C68B4F57C7FD4
:10A620001BD840F2EF339C422CD2642C30D008D897
:10A63000A4F12803022B2ED92846FFF7C3FE0720DA
:10A6400038BDC82C2AD0F7D3A4F57A73042BF3D8DD
:10A65000FFF730FE2C600020F2E7B4F5BC6F0AD89B
:10A6600040F2DF539C4210D240F2DC539C42E3D3D1
:10A67000FFF7A8FEEEE740F2E1539C42DCD1FFF782
:10A6800029FFE7E7FFF75AFEE4E7FFF7DFFEE1E720
:10A69000FFF7A8FFDEE7FFF76BFFDBE7FFF79CFFA5
:10A6A000D8E700BFC823002010B50B4C2378BFF3B8
:10A6B0005B8FDB070ED4204621F0B0FE50B1074877
:10A6C000FFF758F8204621F0B5FE054A0549034832
:10A6D00021F043FF014810BDB42600200C260020C5
:10A6E00080230020FD97020010B50368022B88B07C
:10A6F0002DD0032B30D0012B27D140F22913ADF8F8
:10A70000003070220023174C0193ADF80830ADF8EB
:10A710000A308DF80C30ADF810200593ADF81830E4
:10A72000ADF81C302378BFF35B8FDB0709D42046DC
:10A7300021F074FE28B10C4802F0F0FE204621F012
:10A7400079FE6946084802F0EDFE08B010BD00F041
:10A75000D1F802F021FDF8E700F0CCF802F01EFD80
:10A76000F3E700BFD42600208825002007B501901C
:10A770000138022804D804210DEB0100FFF7B4FFD3
:10A7800003B05DF804FB10B50446FFF78DFF2146CA
:10A79000BDE81040FFF7B8B913B50388212B044674
:10A7A00041D013D8112B09D8102B02D2013B012B19
:10A7B0000AD830212046FFF7E6FF05E01B2BF8D032
:10A7C0001D2B29D0152BF4D002B010BD522BF0D088
:10A7D00011D83B2B35D0502BEBD0232BF4D10022BA
:10A7E0001146808800F080F80028EDD0204AAC2186
:10A7F00013F0D5FAE8E7562B2ED0572BD9D0552B8E
:10A80000E2D14521808800F071F80028DCD0184A98
:10A81000B22113F0C4FAD7E7FFF746FF0022214622
:10A82000FFF75CFAD0E7002301A98088ADF8043077
:10A8300000F058F80028C7D00D4A9B2113F0AFFA5A
:10A84000C2E71321808800F04BF80028BCD0084AEA
:10A85000A12113F0A4FAB7E71321808800F040F893
:10A860000028B1D0024AA72113F099FAACE700BF43
:10A87000B1F50400704716F013BC10B5044600F0A3
:10A8800039F82146BDE8104002F050BCFFF7F5BF93
:10A8900008B5064A142113F0DDF928B1044AFF2156
:10A8A000BDE8084013F07BBA08BD00BF8DA80200C8
:10A8B000B1F5040010B5044B03600446C06908B14B
:10A8C00021F0BBFD204610BD90F5040010B50446F4
:10A8D000FFF7F0FF2046342121F044FE204610BD52
:10A8E00076DF70478FDF704790DF7047B5DF7047C6
:10A8F0007047000010B50B4C2378BFF35B8FDB076C
:10A900000ED4204621F08AFD50B1074802F094F899
:10A91000204621F08FFD054A0549034821F01DFE20
:10A92000014810BDC8270020942700208023002064
:10A93000B5A802009C2837D8952879D2252819D89F
:10A94000212875D20C2808D80B2871D200286FD086
:10A95000431F042B88BF00207047142805D81228F5
:10A9600066D2102818BF00207047A0F117039BB2D1
:10A97000052B0BE047280CD83B2859D2272856D363
:10A980002F2855D9A0F132039BB2082B28BF0020F5
:10A990007047892806D886284AD2A0F180039BB246
:10A9A000042BF3E78B28DDE7B0F5B47F1ED2B0F5BA
:10A9B000B27F3DD2B0F5957F0DD2B0F5947F37D2FE
:10A9C000B0F5807F33D3B0F5857F31D3A0F58A739E
:10A9D0009BB2092BDAE7B0F59E7F28D3B0F5A37FB1
:10A9E00026D9A0F5A8739BB20A2BCFE7B0F5D97F83
:10A9F0000DD8B0F5D57F1BD2B0F5BC7F17D3B0F51D
:10AA0000C07F15D3A0F5C6739BB2152BBEE7B0F57A
:10AA1000F07F05D2B0F5E97F0AD2A0F5DF73A6E793
:10AA20004FF6FF7398420CBF184600207047002075
:10AA3000704700000388053B9BB2B3F5ED7F9ABFDA
:10AA4000014AD05C0020704705F6040000884728C2
:10AA500007D845280AD2063803288CBF00200120D9
:10AA60007047A0F19A03584258417047012070473F
:10AA70000388802B03D1081C18BF012070470120D8
:10AA800070470388222B19D8212B2FD2102B2DD0C1
:10AA900009D8052B26D3092B28D90B3B012B8CBFBA
:10AAA000FF2000207047182B20D002D8123B022B29
:10AAB000F5E71B2B0CBF0020FF2070473C2B08D86C
:10AAC0003B2B13D2272B0DD32F2B0FD9323B072B28
:10AAD000E5E7962B08D001D8423BE8E79A2B05D052
:10AAE0009C2BE7E7FF20704701207047002070474C
:10AAF00003883C2B1FD83B2B3DD21B2B11D8182B86
:10AB000039D20C2B07D80B2B35D2053B042B8CBF2D
:10AB1000FF2000207047102B2DD02AD3123B022B90
:10AB2000F5E72F2B04D8272B25D2213B012BEEE76D
:10AB3000323B072BEBE78B2B1FD00BD8832B03D893
:10AB4000802B1AD2423BEAE7873B012B8CBFFF20C8
:10AB500001207047982B08D8972B0CD2952B0CD03E
:10AB6000962B0CBF0220FF207047992B05D09C2B01
:10AB7000CDE7FF207047002070470120704700F1AB
:10AB8000804000F5E040002382B003600368019339
:10AB9000019B02B070470023435082B04358019399
:10ABA000019B02B07047704710B5054B0360044627
:10ABB000406818B1237C0BB123F000FB204610BD88
:10ABC00004F8040010B5064B044640F8303BFFF78C
:10ABD000EBFF04F11C00FFF7E7FF204610BD00BFAC
:10ABE00050F9040010B50446FFF7ECFF20466C2135
:10ABF00021F0B8FC204610BD10B50446FFF7D4FF85
:10AC00002046142121F0AEFC204610BD38B50C4D75
:10AC10002C78BFF35B8F14F001040ED1284621F08D
:10AC2000FDFB50B1074B20222146184623F004FBC0
:10AC300080F82040284621F0FDFB024838BD00BFC7
:10AC40003C2800204028002010B5164A164C02600F
:10AC500000224FF6FF71C0E907424FF0080CC0E92F
:10AC60000C420224C0E909C1C0E90E410121027170
:10AC700080F82C2080F84020A0F8441080F846206E
:10AC800080F8582080F85E20C0E918228266C0E96A
:10AC9000142280F847208264A0F84C2080F84E20CF
:10ACA00010BD00BF50F9040004F8040010B50B4CAF
:10ACB0002378BFF35B8FDB070ED4204621F0AEFB79
:10ACC00050B10748FFF7C0FF204621F0B3FB054A0B
:10ACD0000549034821F041FC014810BDCC27002064
:10ACE000D027002080230020C5AB0200164A002395
:10ACF000022110B5C2F80035C2F8F015C2F8F435DB
:10AD00006FF00043C2F808334FF48270FFF737FF4B
:10AD10000E4B4021802483F80713C3F8804193F839
:10AD200007134809EC210141C90705D5084988687E
:10AD300038B10B6823430B600223C2F804330020B0
:10AD400010BD1C60F8E700BF0070004000E100E0AB
:10AD5000786D0020016570474165704743798B42EB
:10AD60000FD901EB410100EB410113788B71D2F84F
:10AD70000130C1F807305379CB72012303710020F1
:10AD8000704760207047000070B5164D90F858105D
:10AD9000B0F9643005EB01111B0443F47843C1F8AA
:10ADA0001C3590F85860072E044604D90E4940F22D
:10ADB000B92013F05FF87600802303FA06F6C5F891
:10ADC000086394F85840072C04D9074940F2B92089
:10ADD00013F050F84023640003FA04F4014BC3F865
:10ADE000044370BD007000402CF80400072998BF90
:10ADF0000C4B426698BF33F8113080F8581088BF6A
:10AE00004FF4AA730729A0F85A3096BF064B4FF4A7
:10AE1000A87333F81130A0F85C30012380F85E305D
:10AE2000FFF7B2BF0CF804001CF8040070B5174D12
:10AE300090F85810B0F8643005EB011143F07F63CF
:10AE400043F47023C1F81C3590F85860072E04466F
:10AE500004D90F4940F2B92013F00CF87600802392
:10AE600003FA06F6C5F8046394F85840072C04D991
:10AE7000074940F2B92012F0FDFF4023640003FAB5
:10AE800004F4024BC3F8084370BD00BF00700040DB
:10AE90002CF804002DE9F0410546194EFFF7C6FFD6
:10AEA000D5F85480D6F80475B8F1000F24D0D6F840
:10AEB00008252C6E013200234FF41820002122F0C7
:10AEC00091FF4FF47A72002322F08CFF3C1B24F098
:10AED0007F44844210D9D6F80825002301324FF46C
:10AEE0002820002122F07EFF4FF47A72002322F006
:10AEF00079FF844200D2C0472F66BDE8F08100BFD1
:10AF000000B0004010B5836E632B044602DD0120C3
:10AF10000DF07EF8A36E13B9034AC2F80833A36E8E
:10AF20000133A36610BD00BF0070004010B5836EF2
:10AF3000013B002B0446836602DA01200DF068F81D
:10AF4000A36E13B9014AC2F8043310BD007000406B
:10AF5000002108B5064A084612F07CFE30B1054AC9
:10AF600040F23631BDE8084012F019BF08BD00BFFD
:10AF70003DB7020081F804007047000008B5FFF7F4
:10AF800095FEFFF7E5FF4FF4A0710248BDE80840C9
:10AF9000FFF701BE00A00040042914D00AD80129FF
:10AFA00013D0A1B1022914D0032908BF042018BF6F
:10AFB0000020704706290ED00FD307290FD064292F
:10AFC00008BF0920F3E705207047022070470120E1
:10AFD00070470320704707207047062070470820FD
:10AFE00070472DE9F0411378072B80460C46174631
:10AFF00004D9642B02D001200DF00AF87B79083BBC
:10B00000DBB2F62B02D801200DF002F8D7F80130A0
:10B01000962B33D9B3F5967F32D9B3F5167F31D954
:10B02000B3F5966F30D9B3F5E16F2FD9B3F5166F3D
:10B030002ED940F6B83293428CBF00230123797990
:10B04000FF2927D04046FFF7A7FF0125064639789C
:10B050004046FFF7A1FF22012D0502F1804202F5D3
:10B06000E04245EA032343F40033C2F81835C2F83E
:10B070001465C2F810050020BDE8F0810723DEE763
:10B080000623DCE70523DAE70423D8E70323D6E722
:10B090000223D4E700263546D9E700001A4B70B5E5
:10B0A00000240546C3F80045861D6B79A34207DDE1
:10B0B0003246E1B22846FFF794FF01340636F4E742
:10B0C000114B124C0122C3F800252378BFF35B8F8C
:10B0D000DB070ED4204621F0A1F950B10C4807F04F
:10B0E00011FA204621F0A6F90A4A0B49084821F036
:10B0F00034FA11236A1D42F27471054807F05CFAB4
:10B1000000232B7170BD00BF00700040D0260020CE
:10B11000B8260020802300202F840200F0B5C789C4
:10B120000246002398B287420ED9548916891C44DE
:10B13000B4FBF6F506FB154455682C5D0D78A54269
:10B1400003F10103EED1F0BD4FF6FF70FBE7438939
:10B15000018901339BB2B3FBF1F201FB123343814E
:10B16000C389013BC38170478389028901339BB244
:10B1700070B5B3FBF2F502FB15338381C38901334C
:10B180009BB29A4204460E46C38101D2FFF7DFFF0D
:10B19000A38962683178D15470BDF7B5456B044618
:10B1A00015B1262003B0F0BD0121008F22F0AAFFC7
:10B1B00060630028F5D0276A65874FF6FF76012582
:10B1C000E66384F84050002FEBD12946A08C22F092
:10B1D00099FF20620028E4D084F82C50E784A6620E
:10B1E000FFF714FD90F8203005467BB9061F00F1EB
:10B1F0001C074FF4C87022F0D9FF0028D1D046F8C0
:10B20000040FB742F5D1012385F82030FFF7FEFC8B
:10B2100000238DF807301C340DF107012046FFF79D
:10B22000A3FF9DF807300133DBB2072B8DF8073001
:10B23000F2D90020B6E700002DE9F843421D0F4681
:10B240000B460446103153F8040B42F8040B8B42B2
:10B25000F9D11B781370774B774D01221A60D5F81E
:10B26000083543F00303C5F80835D5F8103523F049
:10B270000F03C5F81035D4F812304FEA13794FEAAE
:10B280000318B9F1010F08BFB8F1000F04D36B49DF
:10B2900040F2B12012F0EEFDC5F84085D5F8043536
:10B2A0006548DFF8C08123F00303C5F80435D5F8FD
:10B2B000003243F00103C5F800324FF4A071FFF7EC
:10B2C0006AFC4FF4A2715C485D4DFFF764FC4FF4DB
:10B2D000A4715948FFF75FFC4FF4A6715648FFF779
:10B2E0005AFC0C23A375574BC5F87035A3F50453CE
:10B2F0003C3BC5F8743503F540530433C5F8403979
:10B30000A37D514A012606FA03F3C5F80435C8F8AF
:10B310000060D2F8083543F00303C2F808356179BC
:10B32000C823B3FBF1F3033BC2F84035D2F8043530
:10B3300023F003033343C2F8043510464FF4A071E1
:10B34000FFF729FC4FF4A271FFF725FC4FF4A4711D
:10B35000FFF721FC4FF4A671FFF71DFCD2F8003275
:10B3600043F48073C2F800320E236376374BC5F87E
:10B370008035A3F589531C3BC5F88435637E9E4018
:10B380000F23C5F80465A376314B324EC5F88865A6
:10B390006021C5F88C85C5F84C2983F80A1393F809
:10B3A0000A134809EC21014111F0010F154606D09E
:10B3B000294A916859BB4FF480621A6005E0274A18
:10B3C000BA2142F2020012F0EAFC4FF48033C5F8D1
:10B3D00004330D23E3751A4B214AC3F878653946C7
:10B3E000C3F87C252046FFF781FC18B11B4ACE210B
:10B3F00012F0D5FCA61D00256379AB420CDD324668
:10B40000E9B22046FFF7EDFD01350636F4E7136893
:10B4100043F480631360D8E7114B0122C3F8002581
:10B420002046FFF7BAFE204602F0BAF80020BDE839
:10B43000F88300BF0C90004000900040D1F8040059
:10B4400000F001404091004000A0004040A10040B9
:10B4500000E100E004710040786D002081F80400F4
:10B46000007000400CA0004038B504460D46FFF7C0
:10B4700055FE4FF6FF73984205D120462946FFF747
:10B4800073FE012038BD0020FCE700002DE9F341E8
:10B49000C38F8DF80710012B054642D800F1300606
:10B4A0000DF107013046FFF739FE4FF6FF73984262
:10B4B00039D1FFF7ABFB9DF8073050F8238095F8A2
:10B4C000463003F0FF04C3B1012C2ED10DF107016A
:10B4D0003046FFF749FE164A1368002BFCD04FF4A4
:10B4E0008070FFF74CFB134BC822C3F82C86C3F8BF
:10B4F0003026002002B0BDE8F08101270DF10701E0
:10B50000304685F84670FFF72FFE0A4AC823C2F876
:10B510002C864FF48070C2F83036FFF730FB17608E
:10B52000E7E72620E6E72920E4E72820E2E700BF56
:10B53000007100400070004038B504460D46FFF72A
:10B54000E1FC29462046FFF7A1FF05462046FFF70C
:10B55000EDFC284638BD0000F8B590F845300446AB
:10B56000002B4AD0002380F84530FFF7CBFCE37D69
:10B5700022492348012202FA03F3C1F80835A37EC9
:10B5800002FA03F3C1F808351E4B1A60A3F5805385
:10B590004FF4A0711A60FFF7FEFA1B4B1A6094F883
:10B5A000463083B904F1300704F11C06E38FDBB1A8
:10B5B000616B658F38460D44FFF7C9FD294630465B
:10B5C000FFF752FFF2E7022384F846304FF48A7007
:10B5D000FFF7D5FA0D4B2021C3F804139A6094F8B5
:10B5E0004630002BFBD1DDE74FF48270FFF7C7FA3E
:10B5F0002046BDE8F840FFF799BCF8BD00F00140D7
:10B600000090004004A000400C90004000700040FA
:10B6100038B590F84630022B04460CD000F11C05DA
:10B62000638D6BB9E28F238F9A4219D10D4B0122A2
:10B630001A60002003E00B4B01221A60282038BD5D
:10B64000E38C226A2046D15CFFF776FF2628E9D0FA
:10B65000292801D00028F2D12846FFF778FDDFE73E
:10B660002520ECE704A0004038B50446FFF74AFC6B
:10B670002046FFF7CDFF05462046FFF757FC28463A
:10B6800038BD000010B590F84530012B04460BD0B2
:10B69000FFF738FC2046FFF749FC2046FFF7E4FFA0
:10B6A00018B1022384F8453010BDE27D094940F20B
:10B6B0000113A4F84430012303FA02F2C1F804256F
:10B6C000054A1360A27E03FA02F2C1F80425034A78
:10B6D0001360E9E700F001400CA00040009000403A
:10B6E00013B504468DF80710FFF70CFC9DF80730E2
:10B6F0002344002283F847200DF1070104F11C00C8
:10B70000FFF7B2FE2046FFF711FC94F84530022BFC
:10B7100002D12046FFF7B6FF02B010BD10B50446B7
:10B72000FFF71AFF2046BDE81040FFF7ABBF08B592
:10B73000FFF7BCFABDE80840FFF7F0BFFFF7F7BF1F
:10B7400030B5036D89B004460D4663B390F84430BC
:10B75000B3B140F27F13ADF8003070220023684689
:10B760000193ADF80830ADF80A308DF80C30ADF823
:10B7700010200593ADF81830ADF81C3001F0B2FE82
:10B78000002384F84430237943B12046FFF7E4FED8
:10B790002046FFF783FC2046FFF774FF236D284601
:10B7A000984709B030BDFFF79BFFFAE710B5044694
:10B7B000FFF77CFA2178BDE81040FFF7C1BF000019
:10B7C000F7B5444B1B680446002B58D04FF48270E9
:10B7D000FFF7D5F994F84650EDB2012D0ED1E18F67
:10B7E00071B9022384F846303B4A084612F032FA17
:10B7F00020B13A4A40F2523112F0D1FA03B0F0BD12
:10B80000668F676B04F13000FFF7A1FCBB5D344A23
:10B810008DF8073029460DF1070012F01BFA20B110
:10B820002E4A40F2593112F0BAFA2E4BD3F8343680
:10B830009DF807302344012283F84720E18F61B946
:10B84000022384F84630244A084612F003FA0028FE
:10B85000D4D0224A40F26631CEE72046FFF7D8FE28
:10B8600068B10223002184F846301B4A084612F0D2
:10B87000F1F90028C2D0194A4FF45D71BCE71A4BA8
:10B880001B683BB14FF48A70FFF779F9002384F805
:10B890004630B3E794F85E30002BAFD0B4F85A00CE
:10B8A00000F1804303F5E0431B6823B1FFF767F91C
:10B8B0002046FFF769FAB4F85C0000F1804303F515
:10B8C000E0431B68002B99D0FFF759F92046FFF79A
:10B8D000E1FA93E7047100402FB7020081F80400F9
:10B8E000ADB70200007000401471004008B5FFF7CA
:10B8F000DDF9BDE80840FFF763BF0368007918472A
:10B90000704700000000000030B52DED028BB4EE52
:10B91000E00AF1EE10FA85B005460C46F0EE408ADA
:10B92000B0EE608A04DB504A2221212012F037FA5F
:10B930004E4BD3F80435AB6018EE900A21F054FD5D
:10B9400043A3D3E9002322F037F8002860D0DFEDCD
:10B95000487A68EEA77A17EE900A21F045FD3EA3DB
:10B96000D3E9002321F0E2FB3DA3D3E9002321F03A
:10B97000BDFE00223F4B21F0D7FB22F065F8C5B297
:10B9800018EE100A21F030FD31A3D3E9002322F094
:10B9900013F8C0B1DFED367A68EE277A17EE900A19
:10B9A00021F022FD2CA3D3E9002321F0BFFB2CA31F
:10B9B000D3E9002321F09AFE00222E4B21F0B4FBA4
:10B9C00022F042F8C0B2002304210622072C8DF891
:10B9D00004108DF806308DF807508DF808008DF8AA
:10B9E0000930ADF80A308DF80D2013D91E4A3B21DD
:10B9F000212012F0D4F9204901A812F05BFC18B103
:10BA0000194A592112F0CBF905B0BDEC028B30BDBB
:10BA10000546B5E7013C062C06D8DFE804F004082B
:10BA20000A0C0F11140001238DF80C30E3E70223F8
:10BA3000FAE70323F8E78DF80C10DCE70523F3E7BA
:10BA40008DF80C20D7E70723EEE700BFAFF30080A7
:10BA5000666666666666AA3F666666666666FA3FFC
:10BA60006666666666660A4064F9040000B00040D7
:10BA7000000080420000F03F29BB02000139CBB238
:10BA8000032B05D8034A002132F8130012F09ABCA8
:10BA9000704700BF5CF9040012F0B2BC38B50B88E7
:10BAA000A3F5807304460C2B36D8DFE803F0093584
:10BAB00035350735353531353535330002232371BA
:10BAC000236823B3154BD3F80455D3F80825A3688E
:10BAD0000132ED1A4FF448100023002122F082F9C0
