:020000022000DC
:1060000000FF0020A9E20300D1E203009DFB030092
:10601000D5E20300D7E20300D9E20300000000004C
:10602000000000000000000000000000DBE20300B0
:10603000DDE2030000000000DFE20300E1E2030014
:10604000E3E20300E3E2030089CE0200E3E203009F
:10605000E3E20300E3E20300E3E20300E9BA020043
:10606000E3E20300FBBA0200E3E20300E3E2030021
:10607000E3E20300E3E20300E3E20300E3E2030000
:10608000E3E20300B1DA0400CD140400B10204001D
:106090009DDB0400E3E20300C9000400E3E2030027
:1060A000E3E20300E3E203005D5F0400F1C90200E4
:1060B000E3E20300E3E20300000000000000000050
:1060C000E3E20300E3E20300E3E20300E3E20300B0
:1060D000E3E20300E3E20300E3E203000000000068
:1060E00000000000000000000000000000000000B0
:1060F00000000000000000000000000000000000A0
:10610000000000000000000000000000000000008F
:10611000000000000000000000000000000000007F
:10612000000000000000000000000000000000006F
:10613000000000000000000000000000000000005F
:10614000000000000000000000000000000000004F
:10615000000000000000000000000000000000003F
:10616000000000000000000000000000000000002F
:10617000000000000000000000000000000000001F
:10618000000000000000000000000000000000000F
:1061900000000000000000000000000000000000FF
:1061A00000000000000000000000000000000000EF
:1061B00000000000000000000000000000000000DF
:1061C00000000000000000000000000000000000CF
:1061D00000000000000000000000000000000000BF
:1061E00000000000000000000000000000000000AF
:1061F000000000000000000000000000000000009F
:1062000010B5054C237833B9044B13B10448AFF3F0
:1062100000800123237010BD7824002000000000BE
:106220006443050008B5034B1BB103490348AFF3B2
:10623000008008BD000000007C24002064430500AD
:10624000154B002B08BF134B9D46A3F5803A002148
:106250008B460F461348144A121A2AF035F80F4B92
:10626000002B00D098470E4B002B00D09847002001
:10627000002104000D000D48002802D00C4829F030
:1062800082FF29F0B7FF2000290017F07FFE29F0D8
:106290009DFF00BF0000080000FF0020000000007C
:1062A00000000000782400202C76002087010500E3
:1062B00000000000FF20704700207047002070475A
:1062C0000E2070477047704710B51821044628F01B
:1062D0005FF9204610BDF8B50B680446DB68084638
:1062E0000E4698470023C4E90033A3600546B0B1C9
:1062F00028F09AF803465F19C4E90033A7602DB16E
:1063000018462A46002129F0DFFF034667603268FD
:106310001946976830462A46B8472046F8BD0346D6
:10632000E9E7407970470831034603C983E8030071
:10633000184670471031034603C983E80300184626
:10634000704710B50C46002C0AD001DA6442FAE717
:10635000002806DA21464042FFF7F3FF00B1201A79
:1063600010BD90FBF4F304FB1300F9E72DE9F04FA7
:1063700000F108090E46824699E8030087B00DF146
:10638000080888E80300404612F06DFC0AF1100787
:10639000009097E8030004AC84E80300204612F064
:1063A00062FC072101903248B6FBF0F00430B0FBEC
:1063B000F1F5C5EBC505401B012585404FF0FF30C9
:1063C000FFF7BFFF05FA00F05FFA85FB10F07F05CD
:1063D00008BFC0F3C61532464FF00001204618BF73
:1063E000EDB212F008FC204612F03DFCDDE900326F
:1063F0009342064621D397E8030084E80300204631
:1064000012F031FCB04208D99AF807301D4214BF8F
:106410000120002007B0BDE8F08F99E8030084E870
:106420000300204612F01FFCB04201D90020F1E722
:106430009AF807301BEA030FE9E79AF807301BEADE
:10644000030FF3D099E8030088E80300404612F0F8
:106450000AFCB042EAD897E8030084E8030020462B
:1064600012F001FCB04294BF00200120D2E700BF2F
:106470008051010010B50C1A134605D00146224682
:10648000184629F007FF0346181910BD7FB50546C9
:106490000B798DF8083002A80C4613F023FD2A462C
:1064A0000DF105018DF8040001A8FFF7E3FF064692
:1064B000601D13F017FD32460DF109018DF808003B
:1064C00002A8FFF7D7FF0646A01D13F00BFD3246CA
:1064D0000DF109018DF8080002A8FFF7CBFF064671
:1064E000E01D13F0FFFC32468DF808000DF10901A4
:1064F00002A8FFF7BFFF04F10801064602A812F048
:1065000043FB32460DF10D0102A8FFF7B3FF04F182
:106510001001064602A812F037FB32460DF10D01BC
:1065200002A8FFF7A7FF284604B070BD0D2A1FB5CB
:106530000C460BD901466846FFF7A8FF22460DF12D
:106540000E016846FFF796FF04B010BD0020FBE780
:1065500084B02DE9F04786B00FAD044685E80E0003
:106560002846012113F0B4FC012182460DF13D00C3
:1065700013F0AEFC012181460DF13E0013F0A8FCA2
:10658000012180460DF13F0013F0A2FC04AE074646
:1065900032460DF14501281DFFF76CFF6D4696E868
:1065A000060002A812F02FFB2A460DF14A010DF158
:1065B0004500FFF75FFF95E80600304612F023FB29
:1065C0009DF808209DF810300A4922722374039A1E
:1065D000059B2160204684F804A084F8059084F887
:1065E0000680E771E260636106B0BDE8F04704B081
:1065F000704700BFE00D0500704710B50C21044640
:1066000027F0C6FF204610BD70B50846154611B9E3
:106610000024204670BD00230A4A0B4927F025FFBD
:1066200004460028F4D02946FFF7A0FE0028EFD04A
:10663000236829461E6A2046DDE90423B047002866
:10664000E7D1E5E7D40E0500C40D05002DE9F04FB4
:106650009946037A85B082460F46904600256BB96D
:106660008DF80D509DF80C30002063F307009DF865
:106670000D3063F30F2005B0BDE8F08F0029EFD097
:106680002C46CDE900891A4B3A46E9585046FFF7A7
:10669000BBFF06462CB370B10146204600F0E1FE78
:1066A000B0B13046FFF73DFE83462046FFF739FE86
:1066B000834538BF34460435C82DE2D19CB120460D
:1066C000FFF72FFE01238DF80C008DF80D30C9E780
:1066D00021463A46304600F02DFF002818BF3446C8
:1066E000E9E70446E7E74FF48073ADF80C30B9E70B
:1066F000D024002030B5037A85B004462BB9C27986
:1067000002B1C371012005B030BD12F001F8054699
:10671000684608F02FF89DF80830002BF2D0DDE92C
:10672000002329462046FFF791FFE080EAE70000BA
:106730002DE9F04F4C69BDB082460F4624B91023B5
:106740003B823DB0BDE8F08F0B8B702B01D812233C
:10675000F6E711F0DDFF804606A808F00BF8964B2F
:10676000C4F800804FF4E142CDE90423934D2B7827
:10677000BFF35B8FD9070ED4284627F065FE50B1D2
:106780008F480EF0F7FD284627F06AFE8D4A8E49A5
:106790008B4827F0F8FE0823952104AA88480FF0BB
:1067A00051F9049B6360059BA3609AF80830237439
:1067B00000210B46881D04EBC000013108294370FD
:1067C0008370C370037143718371C3710372F1D11C
:1067D0009DF82090B9F1000F00F0EA80DDE9062372
:1067E00004F1110604F119054FF0000BC4F835301F
:1067F000C4F8312084F811B0C82286F801B086F8B8
:1068000002B086F803B086F804B086F805B086F8C2
:1068100006B086F807B06D4984F819B00AA885F863
:1068200001B085F802B085F803B085F804B085F8AA
:1068300005B085F806B085F807B084F821B084F873
:1068400022B084F823B084F824B084F825B084F80A
:1068500026B084F827B084F828B084F829B084F8EA
:106860002AB084F82BB084F82CB084F82DB084F8CA
:106870002EB084F82FB084F830B029F0FDFC0AABBC
:10688000019318465B4650F8042B72B10122D4F8EC
:1068900011E0D4F815109A404FEAE27C4EEA020E5D
:1068A00062461143C6F800E071600133322BEAD131
:1068B0009AF80830002B77D0B8F1000F74D0B9F1F6
:1068C000000F71D00026019B53F8049B0193B9F18E
:1068D000000F66D000233E4A3E49484627F0C5FDDA
:1068E000824668B303684146D3F820B0DDE9062349
:1068F000D84728B34FF0010B0BFA06FB5A46D317C3
:10690000D4F81900D4F81D10CDE90223039B40EA06
:106910000B020B432A606B60504600F06EFF0028AC
:1069200008BF4FF0000BD4F82900D4F82D105A46B8
:10693000D31740EA0B0B0B43C4F829B0C4F82D3031
:106940000023254A2349484627F08FFD80B190F85F
:1069500060300BB10123B340D4F821C0D4F8252016
:10696000D9170A434CEA0303C4F82130C4F82520A0
:1069700000231A4A1749484627F077FD88B1414657
:10698000FFF7F4FC68B10123D4F819C0D4F81D2036
:10699000B340D9170A434CEA0303C4F81930C4F8CA
:1069A0001D200136322E8ED17123BB830023C7E612
:1069B0004A464B4614E700BF300B010094240020E8
:1069C000982400208023002005530300D0240020B9
:1069D000D40E0500C40D0500800E0500200F050033
:1069E00030B40B8840F2AF15AB42024618D0B3F575
:1069F000D87F03D2962B0DD030BC704740F2B11136
:106A00008B4203D040F2C1118B42F5D1104630BC0D
:106A1000FFF770BE4B681B78C3F300030372F6E701
:106A200030BCFFF785BEC3888380DAB2002062F3F2
:106A300007001B0A82B063F30F2002B0704700000A
:106A400070B50B4D0E46322455F8040B18B9013CB5
:106A5000FAD120460BE003689B6998470028F6D0DE
:106A6000314655F8040CFFF781FC0028EFD070BDCB
:106A7000D024002010B50B4C2378BFF35B8FDB07CD
:106A80000ED4204627F0E0FC50B107480EF072FC0F
:106A9000204627F0E5FC054A0549034827F073FD29
:106AA000014810BD94240020982400208023002059
:106AB00005530300F8B54B681D78312D0C4603D8FB
:106AC000164E56F8250010B925232382F8BD036819
:106AD0001B69984763690BB91023F6E756F8250040
:106AE000278B0368DB6898470130874201D2122365
:106AF000EBE756F825000368DB68984763690130C7
:106B0000A0831D7056F82500228B61690368013A45
:106B10009B68013198470023D7E700BFD0240020AD
:106B20002DE9FF474B690C4623B91023238204B09B
:106B3000BDE8F0870B8BF92B01D81223F6E700256F
:106B4000DFF850802E4658F8043BE3B163695E5588
:106B500001A858F8041CFFF7BEFB58F8040CDDF838
:106B600004A00368DB689847002201465046D4F829
:106B7000149013F03BF96F1C49F80700019808B115
:106B800027F071FC05350136F6B2322EDBD1A58334
:106B90000023CBE7D024002000B589B040F2B11328
:106BA000ADF800307022002368460193ADF808303C
:106BB000ADF80A308DF80C30ADF810200593ADF823
:106BC0001830ADF81C3007F0E1FB09B05DF804FBAC
:106BD0007FB50024194D8DF803409DF80330312B0B
:106BE00028D855F82330FBB1224601210DF10300CE
:106BF00013F0FCF89DF80330064655F8231001A861
:106C0000FFF769FB9DF80330019C55F823000368EA
:106C1000DB68984732460146204613F0E7F8044601
:106C2000019808B127F01FFC9DF8033001338DF85F
:106C30000330D2E7204604B070BD00BFD02400204E
:106C400073B50C461E461546FFF7C2FF0190FFF7CD
:106C500011FF04230DEB030299210FF0C5F93368EE
:106C6000228901339A4204D020232382002002B0DB
:106C700070BD312D01D92123F7E70120F7E707B5D2
:106C8000FFF7A6FF0190FFF7F5FE04230DEB0302CB
:106C900099210FF0A9F903B05DF804FB3129F7B58C
:106CA00007460C4631D81A4D55F82100B8B1036893
:106CB0005B699847064655F8240010B103685B6885
:106CC00098470023012E45F8243016D016F0FF0F08
:106CD00007D0022E15D03846FFF7D1FF002003B0B1
:106CE000F0BDFFF7C7FE4523ADF80630224603236B
:106CF0000DF106010FF0C7F9EDE7FFF7BBFE4623E4
:106D0000F2E7FFF7B7FE4723EEE72120E7E700BFF2
:106D1000D024002038B54B681D780C462946FFF773
:106D2000BDFF6369208253B1228B042A07D91D70ED
:106D30006569FFF74DFF0523C5F80100A38338BD42
:106D400038B505460024E1B228460134FFF7A6FF16
:106D5000322CF8D138BD000010B5034B0360044657
:106D6000FFF7EEFF204610BD740E050010B5044677
:106D7000FFF7F2FF2046042127F00AFC204610BD51
:106D800010B513460C4629B10A460146184629F0AB
:106D900081FA0346181910BD2DE9F0470B89012B24
:106DA00092B080460C4604D820230B8212B0BDE876
:106DB000F0874B681D785B78012B5CD023B1022BE8
:106DC00000F09980212346E008AF1B263B462A4667
:106DD0000896FFF735FF00283ED029464046FFF7CA
:106DE0005DFF4020D4F804A027F01EFB2389013B5F
:106DF0001A2B814605D93A4631460AF10100FFF7C0
:106E0000BFFF0BAB0FCB6E4607C626F8023B1B0C31
:106E1000337097E80E00484600F0A2FD564B4846F6
:106E200043F8259000F0DAFC63688DF822505A1C74
:106E30002389CDF823204521013BADF82010ADF882
:106E40002730FFF717FE032239460FF0A5F840461A
:106E5000FFF715FF002323826369002BA6D0228B46
:106E6000042AA3D91D706569FFF7B2FE0523C5F892
:106E70000100A3839AE708AE4FF00E0933462A4675
:106E8000CDF82090FFF7DCFE0028E5D029464046EB
:106E9000FFF704FF1820D4F804A027F0C5FA2389CF
:106EA000013B0D2B074605D9324649460AF1010040
:106EB000FFF766FFBDF82C30ADF8003096E80E0005
:106EC000384600F0ADFD2C4B384643F8257000F0F5
:106ED00083FD63688DF822505A1C2389CDF8232046
:106EE0004621013BADF82010ADF82730FFF7C2FD79
:106EF00003223146A9E70DF1200928264B462A46F0
:106F00000896FFF79DFE0028A6D029464046FFF7C9
:106F1000C5FE7020676827F087FA2389013B272B7D
:106F2000824604D94A463146781CFFF729FF0BAF49
:106F30000FCF6E460FC697E8070086E80700504659
:106F400099E80E0000F0FCFB0B4B504643F825A0DF
:106F500000F05EFB63688DF822505A1C2389CDF83F
:106F600023204721013BADF82010ADF82730FFF773
:106F700081FD0322494668E7D02400202DE9F04F27
:106F800091B002AF00238946BB608246FFF772FDD5
:106F900007F1080249460EF0C0FEBB68002B44D042
:106FA000D3E90063EB467B6007F118087B689E42DB
:106FB00037D016F8014B312CF8D80E23FB74002380
:106FC000A7F80C90BC73C7F80F803B75FFF752FD14
:106FD000032207F10C010EF0B0FC0028E6D1154B9E
:106FE00053F8240010B103685B689847182027F015
:106FF0001BFA07F1280305461A460E214046FFF703
:10700000BFFEBA8EADF8002007F128030ECB28464C
:1070100000F006FD074B284643F8245000F0DCFC46
:10702000C4E75046FFF72BFEDD463C37BD46BDE8C2
:10703000F08F00BFD02400202DE9F04F9BB008AFA7
:107040008B46002478603C61FFF714FD07F11002C5
:1070500059460EF062FE3B69002B50D0D3E9008305
:10706000C7F808D0DFF8A090FB608AB00DF1200AC5
:107070003C60FB6898453DD018F8014B312CF8D89E
:107080004FF02803FB763B68A7F814B0BC75C7F82F
:1070900017A03B77FFF7EEFC032207F114010EF077
:1070A0004CFC0028E5D159F8240010B103685B6856
:1070B0009847702027F0B8F907F1200506462A46C0
:1070C00028215046FFF75CFE07F12C0EBEE80F00AA
:1070D000EC46ACE80F009EE807008CE8070030465D
:1070E00095E80E0000F02CFB304649F8246000F0D3
:1070F0008FFABEE77868FFF7C2FDD7F808D04C37A3
:10710000BD46BDE8F08F00BFD02400202DE9F04F30
:1071100095B004AF8B46002478607C61FFF7AAFC31
:1071200007F1140259460EF0F8FD7B69002B52D08E
:10713000D3E90083C7F808D0DFF8A490FB6088B0DB
:107140000DF1100A3C60FB6898453FD018F8014BE0
:10715000312CF8D84FF01B03FB773B68A7F818B029
:10716000BC76C7F81BA087F82030FFF783FC03220A
:1071700007F118010EF0E1FB0028E4D159F82400D2
:1071800010B103685B689847402027F04DF907F17C
:10719000240506462A461B215046FFF7F1FD07F15C
:1071A000400313E90F00EC46ACE807002CF8023B63
:1071B0001B0C8CF8003095E80E00304600F0D0FB38
:1071C000304649F8246000F009FBBCE77868FFF717
:1071D00056FDD7F808D04437BD46BDE8F08F00BF54
:1071E000D024002010B545210446FFF78FFF20462C
:1071F0004621FFF7C3FE47212046FFF71DFF10BDC4
:107200002DE9F04F814695B00E469A461546002A64
:1072100000F0AE800A785749002351F8044B0993D7
:10722000DFB20133002CF8D1012A46D04FFA82FB9D
:10723000BBF1000F05D0022A74D0212015B0BDE8A3
:10724000F08F1B2D40F09480402027F0EDF80DF1D9
:1072500028080446424629463046FFF791FD0DAB0B
:107260000FCBEC46ACE807002CF8023B1B0C8CF86B
:10727000003098E80E00204600F072FB099A3D4B62
:10728000204643F8224000F0A9FA4523ADF8283003
:107290008DF82A70CDF82B608DF82F508DF830B016
:1072A000FFF7E8FB032241460EF076FE48468AF8D7
:1072B0000070FFF7E4FC5846C0E70E2D58D11820A7
:1072C00027F0B2F80DF12808834642462946304699
:1072D000FFF756FDBDF83430ADF8003098E80E00E9
:1072E000584600F09DFB234B099A584643F822B0BC
:1072F00000F072FB4623ADF828308DF82A70CDF8E7
:107300002B608DF82F508DF83040FFF7B3FB032230
:1073100041460EF041FE48468AF80070FFF7AFFC88
:1073200020468BE7282D23D1702027F07DF80DF122
:1073300028088346424629463046FFF721FD0DF1D5
:10734000340EBEE80F00EC46ACE80F009EE80700E4
:107350008CE80700584698E80E0000F0F1F9054B5C
:10736000099A584643F822B000F052F94723C2E781
:10737000202063E7D02400202DE9FF414FF6FF7362
:10738000DFF88C800B8207460C468DF80330002511
:1073900058F8040B58B303682689DB68984786427F
:1073A00025D1666858F8041C01A8FEF794FF304602
:1073B0002289019928F052FF0646019808B127F06A
:1073C00052F8A6B98DF803502682636963B1228B07
:1073D000042A09D99DF803201A706569FFF7F8FBA4
:1073E0000523C5F80100A38304B0BDE8F081013591
:1073F000EDB2322DCCD1238A002BE6D00DF1030360
:10740000228961683846FFF7FBFE2082DDE700BF76
:10741000D02400200B88A3F5D57310B50446062BA5
:107420001ED8DFE803F0040B0E11151D1900FFF73D
:10743000A3FF2046BDE81040FFF7AEBBFFF7ACFC52
:10744000F7E7FFF767FCF4E7BDE81040FFF732BB52
:10745000BDE81040FFF764BBBDE81040FFF770BC0B
:1074600010BD70B50D4688B0044610B9002008B0B4
:1074700070BD0029FAD001466846FEF754FF684601
:1074800011F0F1FB2946064602A8FEF74CFF02A8C0
:1074900011F0E9FB8642E9D1214604A8FEF74AFF34
:1074A00004A811F0E0FB2946044606A8FEF742FFB7
:1074B00006A811F0D8FB231A58425841D7E710B557
:1074C0000C4631B1002805DA4042FFF7F8FF00B161
:1074D000201A10BDB0FBF1F301FB1300F9E7000027
:1074E0002DE9F041069D0C46401B11491646984671
:1074F000FFF7E5FF0E490746701BFFF7E0FF0C4959
:107500000646601BFFF7DBFF09490446A8EB0500B0
:10751000FFF7D5FFB74206D807D184428CBF0020C1
:107520000120BDE8F0810120FBE70020F9E700BF62
:10753000805101002DE9F0418CB00C460546014612
:1075400002A89046FEF7EFFE02A811F08CFB294638
:10755000064604A8FEF7EEFE04A811F084FB2146BF
:10756000054606A8FEF7DFFE06A811F07CFB2146C3
:10757000074608A8FEF7DEFE08A811F074FB424695
:10758000044600210AA811F036FB0AA811F06BFB93
:10759000234600903A4629463046FFF7A1FF0CB03B
:1075A000BDE8F0810220704728207047704710B571
:1075B0007021044626F0ECFF204610BD90F86030A4
:1075C00013B1203007F007B84830FBE790F860307F
:1075D00013B1203007F006B84830FBE770B5064617
:1075E0000C46154662B92A462146304600F0A4F9F9
:1075F0000022014606F14000BDE8704006F09EBF43
:1076000021B10368DB689847A842ECD9204670BDD9
:1076100013B5044600F0E2F894F8683023B1626EC6
:107620000021684611F0E7FA02B010BDF8B5044633
:1076300016461F46FEF79AFE48B132463B462046A4
:1076400000F0F4F8054684F860002846F8BD94F888
:1076500060300BB90025F8E732463B4604F14000A4
:1076600006F01FFF054650B111F052F894F868304B
:107670006066002BE9D1012384F86830E5E794F8CF
:1076800068607EB111F036F8A36D626EC31A98423D
:1076900005D9934206D8904204D93546D5E793429E
:1076A000FBD9F8E794F86820002384F86030002ABA
:1076B000D0D0E1E7F0B517464B68436001F108020E
:1076C00004460D4600F1080392E8030005F110029C
:1076D00083E8030092E8030004F1100383E8030049
:1076E00005F120030FCBDFF854C0C4F818C004F133
:1076F000200686E80F00383555F8083C236395E8E6
:10770000030004F1380383E803000B4B236007F107
:1077100008030FCB04F14805C4F840C085E80F000A
:10772000BB69A3650023C4E9193384F8603084F889
:1077300068302046F0BD00BFB00E05000C1E0500ED
:1077400084B0F0B5A1B0064627A880E80E0008AACC
:1077500003462DAF154618685968144603C408330C
:10776000BB422246F7D119889B78A37021800BABCE
:107770000FCB6C4607C424F8023B1B0C237095E822
:107780000E0010A800F0ECF804AA0DF1B7030DF1FB
:10779000BF0C174618685968144603C4083363457C
:1077A0002246F7D1186820601B7923719DF81C30A0
:1077B0008DF8003097E80E00284606F075FE2A4640
:1077C00010A93046FFF776FF304621B0BDE8F04003
:1077D00004B07047002070471B2070477047704707
:1077E000203006F0F8BE203006F0FCBE10B5402177
:1077F000044626F0CDFE204610BD38B590F83C403A
:1078000005467CB110F020FE2B6BAA6BC31A984280
:1078100006D9934208D8904234BF0024012401E0E5
:107820009342F8D8204638BD0024FBE7F8B51F4640
:1078300003689B6904461646984798B1236820461A
:107840009B69984748B332463B4604F1180006F05E
:1078500028FE054678B110F0F7FD0123A06384F8F7
:107860003C3006E023682046DB6998470028E5D1D4
:1078700001252846F8BD94F83C300BB90025F8E7FF
:107880002046FFF7BAFF05460028F1D194F83C30B6
:10789000002BF3D084F83C00EBE723682046DB693B
:1078A00098470028E4D032463B4604F1180006F021
:1078B000F8FD054628B910F0C7FD0123A06384F840
:1078C0003C3094F83C30002BD3D02046FFF795FF96
:1078D0000028D3D194F83C50002DC9D084F83C0046
:1078E000C7E7D0B5044616461F46FEF73FFD30B148
:1078F00032463B462046BDE8D040FFF797BFD0BD9B
:1079000030B585B0044668460D46FEF7BFFD2246F9
:107910000DF10E016846FEF7ADFD05F11801684650
:1079200006F0F0FD04F10E020DF10D016846FEF7C0
:10793000A1FD204605B030BD10B51A2A88B00C460E
:107940000BD9014601A8FFF7DBFF22460DF11F010D
:1079500001A8FEF78FFD08B010BD0020FBE7000076
:1079600084B070B586B0054602AC0BA880E80E0066
:1079700022460DF13A01FEF77DFDBDF81430ADF859
:10798000003094E80E002E462846FEF7E1FD0F4B2E
:1079900046F8183B22460DF147010DF13A00FEF77B
:1079A00069FD9DF814308DF8003094E80E003046E3
:1079B00006F07AFD00232846C5E90E3385F83C30F1
:1079C00006B0BDE8704004B0704700BFFC0E050073
:1079D000012070470E2070477047704710B518217E
:1079E000044626F0D5FD204610BDF0B5036885B0ED
:1079F000DB68174606460C469847B84205460CD841
:107A000031466846FEF742FD25B12A4669462046C2
:107A100028F032FC601905B0F0BD0020FBE7000043
:107A200084B037B507AC84E80E00BDF82830ADF857
:107A3000003094E80E000546FEF78AFD034B2B60EC
:107A4000284603B0BDE8304004B07047480F050039
:107A5000704710B50821044626F09AFD204610BD57
:107A60002DE9F04F837987B0894673B900238DF8EB
:107A700011309DF81030002063F307009DF811309D
:107A800063F30F2007B0BDE8F08F0029EED00A465F
:107A900004A8002111F0AFF804A811F0E4F80025C3
:107AA0000390FF24A8462F46234BE85878B30023C1
:107AB000224A234926F0D9FC064640B34946FEF740
:107AC00055FC20B3314604A8FEF72DFC04A811F0A4
:107AD000CAF83146824604A8FEF72CFC04A811F02F
:107AE000C2F8FF2C834608D1BA451AD03046FEF7BB
:107AF00018FCD8460446574609E0039B009301460C
:107B000043463A465046FFF7EBFC0028ECD10435DB
:107B1000C82DC9D1FF2C08BF64248DF81040012363
:107B2000A5E7C345E2D13046FEF7FBFB844228BF00
:107B30000446E4B2EBE700BFD0240020200F05008C
:107B4000C40D050013B5044610F0E2FD01462046C1
:107B5000FFF786FF6379ADF80400C0F30720984271
:107B60000CD12BB123799DF804001B1A18BF0123F7
:107B7000BDF80420A280184602B010BD0123F7E72B
:107B80000B8810B440F2B114A34202460BD040F26D
:107B9000C114A34207D0962B0AD14B681B78C3F3BC
:107BA0000003837100E010465DF8044BFFF7CABF85
:107BB0005DF8044B704783880020DAB262F3070057
:107BC0001B0A82B063F30F2002B07047F8B5274B51
:107BD0000360274EFF230025837300F1180304463A
:107BE00005718581036100F11007304600F04EFCFD
:107BF0004FF0000332183146384600F087FB4FF44F
:107C000000732385A023E362C4E93255C4E93455E7
:107C10004FF4807384F82A50A36484F84C50C4F85D
:107C200004510123134D84F8E8302B78BFF35B8FA8
:107C3000D9070ED4284626F007FC50B10E4801F0B3
:107C400001FE284626F00CFC0C4A0D490A4826F095
:107C50009AFC094BA3600023C4F8D830A4F8DC30A8
:107C6000C4F8E030A4F8E4302046F8BD88110500DF
:107C7000B8100500042700205C2600208023002087
:107C8000CD98020038B5037904464BBB012211465A
:107C9000806801F005FF18B30123124D23712B7882
:107CA000BFF35B8FDB0709D4284626F0CDFB28B154
:107CB0000D4806F087FB284626F0D2FB21460A48ED
:107CC00006F0AEFB04F11001204600F027F8204634
:107CD000218D00F071F82046BDE8384000F02EB943
:107CE00038BD00BF2827002098250020A1F12003DF
:107CF0009BB243F6E072934298BF8185704710B5FE
:107D00000379044643B1FFF7F1FF00F017F920466D
:107D1000BDE8104000F060B910BD000070B5044629
:107D200088B010300E4600F0CBFA2379FBB16269BF
:107D300004AB0293EAB91D4C204600F0A7FB4FF0BC
:107D400000032218214602A800F0E0FA1123BDF832
:107D50000C2002998DF8043001A800F095FB18B1B1
:107D6000134A622118F031F802A800F0A1FA08B015
:107D700070BDD6E900541DB914B10E4826F08FFF2E
:107D80000F2C019406D9002101A800F059FB019B9A
:107D90000290049322462946029800F0D9FA019BEA
:107DA000029A03930021D154D0E700BFB810050018
:107DB000E7100500BD10050008B5037953B1018532
:107DC000084600F05FFB28B1034A6921BDE808407E
:107DD00017F0FBBF08BD00BFE710050011F10C0F45
:107DE00009D010DC11F1140F05D011F1100F02D0E1
:107DF00011F1280F0DD190F92A308B4209D080F86B
:107E00002A1000F02FB80B1DF5D003DC11F1080F7C
:107E1000F1D070470029EED00429FAD1EBE713B571
:107E20000446FEF727FE01230DF107022A210DF07B
:107E300009FE9DF907102046FFF7D0FF02B010BDE4
:107E400013B50446FEF716FE01230DF107020B21C0
:107E50000DF0F8FD9DF907102046FFF7BFFF02B0B7
:107E600010BD000008B5037973B1817BFF290BD0E9
:107E700090F92A20012000F003FB28B1034AA02139
:107E8000BDE8084017F0A1BF08BD00BFE71005001E
:107E9000F8B505460C461746002A3DD100F15006BC
:107EA0003C220021304628F00FFA0123337017B925
:107EB0004FF4C0637380D5F8043183B3F4B105F196
:107EC000F8040C220021204628F0FEF94CF20103B0
:107ED000A5F8F830D5F8040101F0E4F8C5F8000180
:107EE000D5F8040101F0E0F80123A5F8FC00B46224
:107EF00086F82C3095F8FC400434E4B22B7DC4F1B4
:107F00001A04E4B29C4228BF1C4674701CB10123C1
:107F10003FB185F84C30F8BD00F18C06C0E71C4637
:107F2000ECE785F84B30F6E710B500220446FFF782
:107F3000AFFF2046BDE8104000F080B8038E03F488
:107F40007C4343F001030386002343634FF48073B3
:107F5000A0F84430838D8363C38D8387704770B5E9
:107F60000379012604464673D3B1037BD3B900F1EC
:107F7000300200F1D8010E3000F07CFA054620B145
:107F8000204600F0CFF8284670BD84F848003146FE
:107F9000A07B00F071FA05460028F4D12673F2E7C1
:107FA0000825F0E70025EEE710B5002343730379B9
:107FB000044673B1037B63B1807B00F05FFA30F05D
:107FC000080304D0034A40F2411117F0FEFE0023DB
:107FD000237310BDE710050038B5037B04460BB9C9
:107FE000437B53B3237943B3A06801F0E5FD94F8D4
:107FF000495075B9002394F84820F2B1BBB1012370
:1080000084F8303084F84A302046BDE8384000F02B
:108010007DB8A06801F0B4FF0028EBD194F84A3095
:10802000002BE8D1012384F848302B46E3E70522F2
:1080300084F8302084F84A30E6E738BD70B503791B
:108040000446002B5FD090F8E85090F84B30013593
:1080500005F0010580F8E850E3B11F2100EB85062B
:10806000A0F8DC10D6F8C83023B9012028F092F827
:10807000C6F8C800D6F8C810C4F8D81004F1DC025D
:1080800004F1500016F0A8F920B11F4A4FF4C47152
:1080900017F09BFE94F84C30E3B11F2104EB8505EB
:1080A000A4F8E410D5F8D03023B9012028F072F8F4
:1080B000C5F8D000D5F8D010C4F8E01004F1E402FF
:1080C00004F18C0016F088F920B10F4A4FF4C97101
:1080D00017F07BFEA37BFF2B0CD0002204F1D8010C
:1080E00004F10E0000F0C6F920B1074A4FF4CC713C
:1080F00017F06BFE237B33B9637B23B12046BDE8C9
:108100007040FFF72CBF70BDE710050010B5037B72
:1081100004460BB1FFF748FF2046BDE81040FFF7CB
:108120001EBF0000F0B58BB006462122002101A839
:1081300028F0CAF800241F4F2546B6F8DC30A342C9
:1081400014D9D6F8D8301A5D01AB5819394628F041
:10815000CDF904F00703072B054405D121220021A6
:1081600001A828F0B1F800250134E6E7212200211A
:1081700001A828F0A9F800240E4F2546B6F8E430EF
:10818000A34214D9D6F8E0301A5D01AB581939462C
:1081900028F0ACF904F00703072B054405D1212290
:1081A000002101A828F090F800250134E6E70BB083
:1081B000F0BD00BF3A110500027B42B1002205214B
:1081C000027380F8301080F84A20FFF7C8BE70476D
:1081D00010B50B88B3F5827F86B004460A465CD0A2
:1081E0000BD80C2B2DD03C2B19D00B2B12D14B685C
:1081F00093F90010FFF7F2FD0CE0B3F5847F0BD08C
:1082000040F209118B4221D040F20712934201D172
:10821000FFF7D2FF06B010BDFFF7DEFEFAE74968B0
:10822000128902AB0A44009368464FF0000300F045
:108230006DF820466946FFF771FD684600F038F892
:10824000E8E74B681988FFF75AFDE3E753681B78A6
:108250008DF80030F3B1FFF782FE114C2378BFF3A5
:108260005B8FDB070ED4204626F0EEF850B10D48A8
:1082700011F05EFB204626F0F3F80B4A0B49094843
:1082800026F081F901236A464CF25031054811F07D
:108290000AFCBFE7FFF788FEDFE7FFF7CFFEB9E78D
:1082A0002427002008270020802300202F8402009C
:1082B000034653F8080B984201D026F0D4B8704713
:1082C0008842F7B504460E461ED003464D6853F863
:1082D000082B9A4214BF81680F21A9420AD201A833
:1082E000019500F0ADF807462046FFF7E1FF019B3E
:1082F0002760A36025B12A463168206800F028F87D
:108300002368656000225A5503B0F0BD73B5054679
:108310000E4619B912B10D4826F0C1FC941B0F2C62
:10832000019406D9002101A800F08AF8019B286079
:10833000AB6022463146286800F00AF8019B2A68A3
:108340006B600021D15402B070BD00BFBD100500AC
:10835000012A30B403D10B78037030BC7047002A77
:10836000FBD030BC27F088BF0B680360014B8360F3
:10837000704700BF94110500024B83600B680360D7
:10838000704700BF941105000B6803607047704789
:1083900000487047D00F050010B504460846044950
:1083A00026F0E3FB002814BF2046002010BD00BFCC
:1083B000D00F05000B680360014B8360704700BF5E
:1083C000AC110500024B83600B680360704700BF6F
:1083D000AC1105000B680360704770470048704798
:1083E0009C0F050010B504460846044926F0BDFB65
:1083F000002814BF2046002010BD00BF9C0F0500C0
:1084000010B5044B044640F8103BFFF751FF2046DF
:1084100010BD00BF8811050010B50446FFF7F0FF3E
:1084200020464FF4847126F0B3F8204610BD704703
:1084300010B51C21044626F0ABF8204610BD000004
:1084400008B50368002B02DA094826F02BFC8B42A2
:1084500008D949008B4205D20029B6BF6FF000430E
:10846000016003600068BDE80840013025F0DCBF12
:108470003F11050072DF704773DF704774DF70478C
:1084800077DF704778DF70477CDF704728F058B897
:10849000A0F84210704708B500F0E8FA006808BD7F
:1084A000B0F842007047B0F840007047A0F84410A0
:1084B0007047B0F844007047094A02604DF6AD615C
:1084C0000022426001818272C260C0F81220C0F8AE
:1084D0001620C26180F82020426280F82820704770
:1084E0006013050038B590F82030DB0704460D46D0
:1084F00005D5044A1B2102F1570011F05BFCE56031
:1085000038BD00BF2C1205002DE9F047044698B095
:1085100000250CAEE1611C220F460EA829460C95E1
:10852000756027F0D1FE1C2229460EA80DF15409D2
:10853000ADF854508DF85650ADF85A508DF85C5047
:1085400027F0C2FE07A9204600F0BAF80322294608
:10855000484627F0B9FE9DF85630CDF84C9023F0F0
:10856000070304F1040943F0030341F2111A4846DA
:108570008DF85630ADF854A001F078FE484601F071
:108580000DFE14222946009007A827F09DFE2368BF
:10859000CDF81CD01B69ADF82650204698472368BB
:1085A000ADF824009B6820469847ADF82800204687
:1085B00000F094FB0DF15A080B9003224046294627
:1085C00027F082FE9DF85C30D4F80C90CDF8208026
:1085D00023F0070343F005030DF10C08ADF85AA092
:1085E0008DF85C300F951295CDF80480B9F1000F2D
:1085F0005FD0484627F0A4FF0F28054604D9013074
:1086000025F012FF03950190012D01984AD199F8A8
:1086100000300370019B029500215955029BC3B1A4
:10862000019A0F920DF15D059BB203222846ADF829
:108630004230ADF8403027F047FE11238DF85D3011
:10864000BDF85E30129503F4784343F44073ADF8FF
:108650005E302368002511955B6B314620469847B4
:1086600010B1ADF83250119604F1120307AA0EA909
:10867000B88D00F002FB18B10F4A8C2117F0A5FB52
:108680000021204600F03EF894F82030019843F095
:108690000103404584F8203001D025F0E4FE18B0F5
:1086A000BDE8F087002DB5D02A46494627F0E4FD05
:1086B000B0E7024826F0F3FA2C120500AD120500CF
:1086C0000B7F23F0030343F002030B7790F8203075
:1086D0000A7FC3F3800363F3C3020A7790F8203064
:1086E000D2B2C3F3400363F304120A7790F8203048
:1086F000D2B2C3F3001363F345120A77437C81F8C7
:108700003F3070472DE9F043036889B0DB690446C8
:10871000884698470546204600F0E0FA94F8203055
:108720009A06064640F1818094F82830FD2B7CD8CB
:108730004146284605F073FC236807469B6820469F
:108740009847B84241D300F0A9FA236881465B6993
:1087500020469847CDF8088094F82830ADF81C7072
:108760000193079B0490ADF81450009304AA33467C
:1087700006CA4846069605F033FB054638B33A4626
:108780000021304627F0A0FD236820462B4CDB68F3
:10879000002198472378BFF35B8FDB070ED4204678
:1087A00025F052FE50B1264801F04CF8204625F045
:1087B00057FE244A2449224825F0E5FE204801F0CE
:1087C000BDFB284609B0BDE8F0831225D7E7236832
:1087D0003946DB6820469847236820461B6998473E
:1087E000E369ADF818009868618AC08B334606AA21
:1087F00000F0EBFF18B1154AFB2117F0E6FA94F8E8
:108800002030C3F340000028DCD0E2699268D18BAD
:108810004FF6FF7291420ED0C3F3C0000028D1D0B2
:10882000236820465B6A9847CCE723682946DB68C3
:1088300020469847D0E70020C4E700BF0427002067
:108840005C26002080230020CD9802002C12050019
:1088500070B590F820309A0786B0054643D5C269B6
:108860009268D18B4FF6FF7291423CD01B073AD5EC
:1088700003681B6998476B8AADF8083001238DF8AF
:108880000A3000260DF10603CDE90436EB69ADF898
:1088900006009B68ADF80C6002A9D88B00F0EFF9D8
:1088A0000828044618D007D860B1104A40F23511A4
:1088B000204617F08AFA05E0132806D043F2014358
:1088C0009842F2D1204606B070BD95F8203043F0B2
:1088D000400385F82030F5E795F8203066F38613DD
:1088E00085F82030EEE70824ECE700BF2C120500E5
:1088F0002DE9F04F90F820309A0791B0044640F1EE
:108900008C80C2699268D18B4FF6FF72914200F061
:1089100084801B0740F1818003681B69984780466B
:10892000204600F0DBF994F82050C5F3801582460C
:108930000DB1B4F846504FF0000B0DF11809A845E1
:108940004AD9A8EB05071422132F4FF0000148461F
:10895000BB46A8BF4FF0130B27F0B6FC132FCABFBE
:108960001322FF22B5FBF2F20AEB0507C8BFD2B211
:108970001FFA8BF68DF8182039461FFA8BF20DF18D
:10898000190027F079FC721C92B239460BA8ADF899
:10899000062027F071FC638AADF8083001238DF8BA
:1089A0000A300DF10603CDE90439E3699B68002222
:1089B00002A9D88BADF80C2000F061F9834618B3FA
:1089C00013284FF000020BD194F82020A4F8465051
:1089D00042F0400284F82020584611B0BDE8F08FE4
:1089E000082808D194F82010A4F8462062F38611D4
:1089F00084F82010F0E743F20142904204D0084A84
:108A000040F29D1117F0E1F9BDF806200BA9384698
:108A1000354427F031FCADB291E74FF0080BDBE7AE
:108A20002C12050010B590F820305B06044609D5DD
:108A300003685B6A984728B994F8203060F386137E
:108A400084F8203010BD10B590F820305B06044645
:108A50000BD503685B6A984738B994F82030A4F8BE
:108A6000460060F3861384F8203010BD80B483B0D4
:108A700000AF78607B682C3318460C37BD465DF834
:108A8000047B704710B5044B044640F8303BA36BA1
:108A9000DB689847204610BDCC11050010B5044690
:108AA000FFF7F0FF2046482125F072FD204610BD5B
:108AB000704710B51821044625F06AFD204610BD08
:108AC000F0B58BB00E46044600F0E8F805F0BBFAAE
:108AD0000546002847D123683146DB682046984781
:108AE000C9238DF8173094F8203013F0200F236835
:108AF00066D094F82820FD2A62D81B692046984742
:108B0000294605F098FA236801469B692046984754
:108B100000F0C4F80746204600F0E0F82368064657
:108B20001B692046984723680696ADF81C005B69D0
:108B30002046984723680646DB69204698470DF192
:108B40001703ADF824000193099B0093029506AA30
:108B5000334606CA3846089605F0D0F928B100F029
:108B60009DF805F077FA0BB0F0BD194D2B78BFF3E7
:108B70005B8FDB0709D4284625F066FC28B1154831
:108B800005F0BAFA284625F06BFC9DF8172094F8FA
:108B90002810104805F0B7FA0028E0D020469DF8CC
:108BA0001760FFF763FF23680746DB692046984795
:108BB000E56B03463A46314604F13000A847D2E758
:108BC000FE228DF817209B69314620469847E5E73D
:108BD0006827002044270020F8B5436A04465BBBA1
:108BE00090F82030DB0920D0144F154E3D78BFF3AC
:108BF0005B8F15F001050ED1384625F025FC50B1EC
:108C000038463560B580B57125F02AFC0D4A0E490D
:108C1000304625F0B8FC336803B16362636A5BB920
:108C20000120BDE8F84011F027B903689B68984718
:108C3000012127F0AFFA6062F8BD00BF6427002071
:108C40005C270020802300208B8C020038B504466E
:108C5000406A28B194F82030DD0902D00023636215
:108C600038BD27F0F3FA6562FAE700230120CB80D4
:108C700040F21B1308710B807047AADF7047AEDF0C
:108C80007047704770470020704710B50446006871
:108C900008B127F0DBFA204610BD000010B50B4CE0
:108CA0002378BFF35B8FDB070ED4204625F0CCFB87
:108CB00050B1074805F08AF8204625F0D1FB054A57
:108CC0000549034825F05FFC014810BD6C270020D2
:108CD0002C27002080230020B18A020090F8203049
:108CE0009B0603D590F82830FD2B02D903685B69F9
:108CF0001847406A704749BA4182704749BA818231
:108D0000704710B501F10F0302301A468B4212F87A
:108D1000014900F8014B00D110BD1346F5E784B0BE
:108D200038B505AD85E80E0041F2025303800446D4
:108D30002946FFF7E6FF2046BDF82410FFF7DBFFCA
:108D4000BDF82810FFF7DAFF9DF92C30A375BDE8B8
:108D5000384004B070473030704713B5D0E90D3259
:108D600093420446019106D01960436B0433436378
:108D7000204602B010BD01AA1946303000F0E0F8DC
:108D8000F6E700000A4901604DF6AD61002201825C
:108D900000F11C01C0E905124FF6FF710271C0E934
:108DA0000222827402778185C0E90C2282637047B7
:108DB0003814050073B5037904463BBB00F10C057C
:108DC0008160284601F052FA284601F0E7F9224670
:108DD0004FF6FF73019022F82C3F01A9012000F00B
:108DE000EEF818B10A4A2D2116F0EFFF236820464D
:108DF0005B6A9847D0E90056AE4205D0214655F847
:108E0000040BFFF781FBF7E70123237102B070BD6C
:108E1000B913050070B503685B6A0D469847D0E941
:108E20000046A6420FD054F8040B90F8203065F3AA
:108E3000451380F82030036815B1DB6A9847F0E7E6
:108E40001B6B9847EDE770BD10B50C68C46000F16E
:108E50000C038A889A808A799A7110BD0A88112A2F
:108E600009D0502A0DD0102A10D1036801F1080250
:108E70005B6989881847036801F108029B69898842
:108E80001847036831F8062FDB69184770477047A9
:108E9000F7B503685B6A0D46074616469847D0E962
:108EA0000031994237D053F8044B2888E28A904227
:108EB0000FD16A89022A0CD105F10C0015F056FC7D
:108EC00094F8203060F3C30384F82030012003B00D
:108ED000F0BD628A9642E4D1AB795A1E022A06D8C6
:108EE000236869891B6A204698470120EFE7062B13
:108EF00013D1B86800230DF106023146C08BADF8DE
:108F0000063000F051FC2368BDF806101B6A2046AD
:108F100098470120DBE70020D9E70120D7E770B5AB
:108F200003685B6A0D469847D0E90046B44206D014
:108F300054F8040B036829469B6A9847F6E770BD0E
:108F40002DE9F84FD0E9007AAAEB0704A41014BF6A
:108F500023460123E418804689469346A1EB070582
:108F600026D2B4F1804F23D224BB2646DBF8003052
:108F70007351B94504D02A463946304627F08AF95C
:108F80000435D1453544AAEB090B04D05A4649466D
:108F9000284627F071F95D4417B1384625F063FA89
:108FA00006EB8404C8E90065C8F80840BDE8F88FFE
:108FB0006FF04044A00025F037FA0646D6E7A8DF58
:108FC0007047704710B56421044625F0E1FA204649
:108FD00010BD000010B5094C2378BFF35B8FDB0791
:108FE00009D4204625F030FA28B1054805F0EAF901
:108FF000204625F035FA024810BD00BF2827002082
:109000009825002070B5104B0360002500F128035F
:1090100012260446456232462946184627F054F97E
:109020004FF4FA71FF22C4E913126587C4E90F55A2
:10903000C4E9115584F85450A56525663246294681
:1090400027F042F9204670BD9414050080F82910DD
:10905000704780F83A10704780F83B107047012342
:1090600003FA01F110B549B290F93C4022B1214315
:10907000C9B280F83C1010BD24EA0101F8E70123D1
:1090800003FA01F110B549B290F93D4022B12143F4
:10909000C9B280F83D1010BD24EA0101F8E780F85C
:1090A0003E107047283070471220704710B55C3072
:1090B000144607F0AAFC28B101461022A01C27F094
:1090C000DBF8012010BD00002DE9F043044699B003
:1090D00004F124070E4604F0E3FB394604F032FCA9
:1090E000A36D0133A3650FF005FB021C18BF01221D
:1090F000042105462046FFF7B2FFFDF7BBFC042321
:1091000007AA8B210CF09EFC079A003218BF01229F
:1091100002212046FFF7A3FF079A002A39D1A26453
:10912000216DA36D04F12808002937D0D80740F13C
:10913000F580A36D13F00F0940F01B81FDF79AFC39
:10914000042310AA99210CF07DFC072384F8283011
:10915000042384F82A3094F83A3084F82B3094F8B9
:109160003B3084F82C3094F83C3084F82D30BDF836
:109170004230E3850622494604F1300027F0A4F886
:10918000A36D002D40F0F3809DB2E5864FF47A4345
:10919000E1E0A36C002BC3D0A564C1E7062084F8EE
:1091A000280094F83B0084F82B0094F83C0084F8E5
:1091B0002C0094F83E0084F82D0094F83F0084F8C9
:1091C0002E007D25206CC4F8312090FBF5F084F84A
:1091D0002A10A4F82F0084F83530042204F1360058
:1091E00027F072F87A4D2B78BFF35B8FD9070ED436
:1091F000284625F029F950B1764810F099FB284609
:1092000025F02EF9744A7549724825F0BCF942469A
:1092100042F2127112236F4810F045FCFDF72AFC50
:10922000032219210CF01FFC002850D0236D002BC5
:109230004DD06B4D2B78BFF35B8FDA0709D42846EE
:1092400025F002F928B1674804F056FF284625F0BA
:1092500007F90DF14008102342466521614804F0EA
:109260006CFF002833D0604D2B78BFF35B8FDB079A
:1092700009D4284625F0E8F828B15C4804F0B8FB8A
:10928000284625F0EDF81022ADF82420ADF8342062
:10929000ADF83C2004F12A010DF11A0205920C915F
:1092A0000E910EA903C903AA0023CDF82080ADF8C2
:1092B0002C3082E803000CA903C901AA82E803004C
:1092C0000B9A009208AA06CA484804F093FBBEB95C
:1092D0004FF48273ADF8403070231196ADF84860BA
:1092E000ADF84A608DF84C60ADF850301596ADF889
:1092F0005860ADF85C60FFF76DFE10A905F066F8E8
:10930000236D002B5ED104F0CBFA23464FF480424C
:10931000394604F003FB19B0BDE8F08394F83A1025
:10932000EAB1E262A26C2263072094F83C2084F840
:10933000280084F83420012094F83E2084F82A0084
:1093400084F82B1084F835203DB99DB2E586236C56
:109350007D2293FBF2F3238744E7ADB2F6E7424662
:109360002046FFF7A3FE00287FF43CAFE1E6ADB254
:109370000BE7072284F82820002284F82A2094F89A
:109380003A2084F82B2094F83B2084F82C2094F881
:109390003C2084F82D20E28FE2857D21226C92FB17
:1093A000F1F22286626CC4F832204DB99DB294F875
:1093B0003D3084F83830FA23E58684F8393011E7F7
:1093C000ADB2F4E704F06CFA23464FF400429FE795
:1093D0002427002008270020802300202F8402005B
:1093E00068270020442700207027002074270020D1
:1093F0000021FFF769BE0000031D37B520220021C0
:109400000446184626F060FF254645F8240F04F070
:1094100047FA2D4A294604F071FAFDF72BFB012388
:109420000DF1070286210CF00DFB9DF80730102B83
:1094300002D045D8022B45D8236504F15C0007F023
:1094400089FA04F02DFA234629464FF4004204F02D
:1094500065FAFDF70FFB032236210CF004FB012116
:1094600002462046FFF7FBFDFDF704FB03223721F0
:109470000CF0F9FA032102462046FFF7F0FDFDF754
:10948000F9FA032238210CF0EEFA052102462046B3
:10949000FFF7E5FDFDF7EEFA032243210CF0E3FAB6
:1094A000062102462046FFF7DAFDFFF793FD21462D
:1094B00004F0B6FF01212046FFF706FE03B030BDE1
:1094C000FF2BB9D0FF23B7E7F1930200F0B58FB0BF
:1094D00004460E460FF00EF94FF44033054605934F
:1094E0001EB140F20513ADF8163094F83E308DF8F9
:1094F0000430636CCDF80530A36D002D5FD19BB2B5
:10950000ADF8093009238DF80C300723ADF814307D
:109510004FF4C673ADF818300C237022ADF820302C
:1095200001AF002303AEADF822308DF82430ADF842
:1095300028200B93ADF83030ADF8343004970796FF
:10954000FFF748FD06A904F041FF94F83B308DF881
:10955000043094F83C308DF8053094F83F308DF8A5
:1095600006307D22236C93FBF2F3ADF80730A36D38
:109570003DBB9DB208238DF80C300723ADF81430A5
:109580004FF4C673ADF818300C237022ADF82030BC
:109590000023ADF822308DF82430ADF828200B934D
:1095A000ADF83030ADF83430ADF809500497079677
:1095B000FFF710FD06A904F009FF0FB0F0BDABB234
:1095C0009EE7ADB2D6E7000010B50B88872B0446A6
:1095D00000F0A88025D8382B00F0CF8008D8362B93
:1095E00000F0BD8000F2C280222B00F0868010BD0A
:1095F000812B00F0878008D8432BF8D14B681A786C
:10960000003218BF012206211BE0822B00F081806E
:10961000832BECD14B681B6803647F2380F83F30B9
:10962000E5E7B3F5947F00F093801CD8962B7FD0AC
:109630000BD88B2BDBD14B681A68003218BF012284
:109640000221BDE81040FFF70ABD40F20712934225
:109650004FD0B3F5847FCAD1002180F85410BDE803
:109660001040FFF731BDB3F5E17F00F08D8009D8E0
:10967000B3F5D97FBBD14B681A78003218BF0122ED
:109680000721DEE7B3F5EB7F5BD040F2D7129342C0
:10969000ADD14B685C30196807F0DFF9E36C5A1EF6
:1096A000E264002BA3D13B4B1B78BFF35B8FDB073E
:1096B00009D4384824F0C8FE28B1374803F064FACA
:1096C000344824F0CDFE344803F0B0FA44F6206369
:1096D0005843FF23B0FBF3F000F5434050306423C0
:1096E0000021B0FBF3F0E0642046BDE81040FFF736
:1096F000EDBE012380F8543079E74B681B7880F881
:109700003A3074E74B681B7880F83B300323C3641E
:109710006DE74968214AD1E90001002326F028FBC2
:10972000606464E74B6893F9003080F83E305EE790
:109730004B681A78002102F00102BDE81040FFF7E3
:109740009EBC90F83C3043F0100380F83C304EE76C
:109750004B681A78003218BF0122002171E74B686C
:109760001A78003218BF012201216AE74B681A7883
:10977000003218BF0122032163E74B681A780032D8
:1097800018BF012205215CE749685C30BDE8104044
:1097900007F007B9A4270020A82700200090D003D5
:1097A000ACDF7047ADDF704713B514461288ADF8D3
:1097B00000200022ADF802206A460193FFF7F2FF75
:1097C000BDF80030238002B010BD13B514461288D6
:1097D000ADF800200022ADF802206A460193FFF7A1
:1097E000DFFFBDF80030238002B010BD10B5044685
:1097F0000CF05FFD204610BD10B504460CF059FD7D
:10980000204610BD10B50B4C2378BFF35B8FDB07F0
:109810000ED4204624F018FE50B107480CF044FD49
:10982000204624F01DFE054A0549034824F0ABFEFE
:10983000014810BDC0270020B82700208023002049
:10984000F997020038B500230446C0E90033C0E9A7
:109850000233142024F0E8FD0546606808B124F0C6
:1098600002FE4FF6FF73E383154BA362A363154B10
:10987000A36404F18103C4E90155C4F8A030143590
:109880001F23E560A4F8A430002504F15C03C4E9BB
:10989000055525772562E5622563E5632564E56462
:1098A00084F8505020222946184626F00DFD064B1C
:1098B00063616423E067638384F88050204638BD89
:1098C000541505003C1505000600100010B50023D6
:1098D000044600F8403BA36CDB68984704F1300075
:1098E00000F087FB04F1200000F083FB606808B102
:1098F00024F0B9FD204610BD13B503780446D3B952
:109900000DF1070000F044FC18B10C4A442116F098
:109910005CFA9DF8073033B100F038FC18B1074A03
:10992000482116F052FA012000F01EFC0E2000F033
:109930001DFC0123237002B010BD00BFED14050013
:1099400008B516F003FA16F095FB16F099FB16F021
:1099500013FB08280AD018B1054A752116F035FA0C
:1099600016F088FB10B916F0F1F9F9E708BD00BF51
:10997000ED1405001FB5037804464BB343783BBB99
:10998000144B01A91B680193012016F0D9FB18B1F3
:10999000114AA52116F019FA01A816F039FC18B1E0
:1099A0000D4ABC2116F011FA00230293ADF80C30D9
:1099B00002A80C23ADF80A3000F0E4FB18B1064A07
:1099C000C22116F002FA01236370204600F0BCFBAE
:1099D00004B010BDDC230020ED1405007047704773
:1099E00038B5437805464BB3154C2378BFF35B8FEE
:1099F000DB070ED4204624F027FD50B111480CF0AF
:109A000053FC204624F02CFD0F4A10490D4824F049
:109A1000BAFD4FF496710B480CF053FCFFF7F2FEC1
:109A20004FF496710CF04DFCD5E90145AC4205D0E0
:109A300054F8040B03689B689847F7E738BD00BFEC
:109A4000B4270020AC27002080230020ED970200DF
:109A500070B54378044673B1837863B9D0E9015691
:109A6000B54206D055F8040B03682146DB689847D9
:109A7000F6E70123A37070BD13B5D0E9023293421B
:109A80000446019106D01960836804338360204640
:109A900002B010BD01AA1946043000F0B1FAF6E791
:109AA000012906D019B1022905D00020704700789D
:109AB00070474078704780787047000010B5437851
:109AC0008CB00446002B44D0027F002A41D1BDF85F
:109AD0000030ADF8062003F0E00343F48273ADF8E4
:109AE000003002928DF80C20FCF7C4FF02230DEB2E
:109AF000030227210BF0A6FFFCF7BCFF282102235D
:109B000001AA0BF09FFF04F1A001684600F034FBAE
:109B100020B1114A4FF4AB7116F057F901232377A6
:109B200040F20513ADF81030702200230593ADF814
:109B30001830ADF81A308DF81C30ADF8202009939C
:109B4000ADF82830ADF82C30FFF744FA04A904F042
:109B50003DFC0CB010BD00BFED14050010B54378FE
:109B600088B004461BB3037F0BB300F007FB20B1A2
:109B7000104A40F2651116F028F900234FF4837261
:109B8000ADF80020237770220193ADF80830ADF8CE
:109B90000A308DF80C30ADF810200593ADF8183070
:109BA000ADF81C30FFF716FA694604F00FFC08B058
:109BB00010BD00BFED140500007F704770B5D0E9FF
:109BC00001460D46A64205D0294654F8040BFFF77E
:109BD00021F9F7E770BD0000F0B50B88502B8BB072
:109BE00005460C466CD015D8102B2FD003D8012B6E
:109BF00048D00BB0F0BD112B5DD01C2BF9D1D5E9AD
:109C00000165AE42F5D056F8040B036821461B6986
:109C10009847F6E7532B7DD011D8512BEFD0522B1C
:109C2000E7D1002203231146C08B00F0A9FA0028D7
:109C3000DFD0404A4FF4E37116F0C7F8D9E7562B4E
:109C4000DDD0572BD5D100F0A2F9D2E700F03DF9D5
:109C500040F20713ADF80830702200230393ADF8EB
:109C60001030ADF812308DF81430ADF8182007938D
:109C7000ADF82030ADF82430FFF7ACF902A904F0BC
:109C8000A5FBB6E7FFF7BEFD0222014602A80CF0D5
:109C90002AFB029B00936946BDF80C30A088ADF802
:109CA000043000F071FA0028A3D0224A40F291114A
:109CB00016F08BF89DE700F024F94FF48473C9E7A0
:109CC00000F0F6F8237B062B16D1FFF79BFD02224E
:109CD000014602A80CF007FBD5E90157029E0634A5
:109CE000AF4286D055F8040B328803682146DB6901
:109CF00098470028F4D07CE7D5E90167A51DB74255
:109D00003FF477AF56F8040BE28803682946DB6915
:109D10009847F4E7D0E90136B3423FF46AAF53F80D
:109D2000040BE188828D9142F6D1036821461B69BC
:109D300098475EE7ED14050010B504468CB0C11CD1
:109D400006220DF1010026F097FAE27C8DF8002042
:109D5000227D8DF80820A28B8DF80920A269CDF80C
:109D60000A2040F20112ADF810200E220023ADF8B7
:109D7000182070228DF80730ADF81A308DF81C309D
:109D8000ADF820200993ADF82830ADF82C30CDF88F
:109D900014D0FFF71FF904A904F018FB0CB010BD94
:109DA00000F125028261FFF7C7BF000070B50B8884
:109DB0001D2B92B006460C462BD10D7AC5F34115EA
:109DC0003DBB08313AB3242201A826F055FA94F895
:109DD0002420216A8DF828200DF1290026F04CFA64
:109DE0000F4A0795442101A815F036FF20B10D4A0E
:109DF00040F23B2115F0E9FF06F1A001002000F040
:109E0000BBF9082805D020B1064A4FF4137115F0AC
:109E1000DCFF12B070BD0846FFF78EFFECE700BF15
:109E2000A19D0200ED14050010B50D4C2378BFF381
:109E30005B8FDB070ED4204624F006FB50B10948A7
:109E4000FFF700FD204624F00BFB074A07490548B1
:109E500024F099FB0348BDE8104000F06FB800BF44
:109E6000042700205C26002080230020CD980200DB
:109E700010B504467C3403F013FD2146064A03F076
:109E80003DFD03F00DFD214600234FF42022BDE8E7
:109E9000104003F043BD00BF299E020010B50446E8
:109EA00003F0FEFC04F17C01BDE8104003F04ABD64
:109EB00010B5044603F0F4FC04F17C0100234FF4D8
:109EC0002022BDE8104003F04BBDF8B58B88C3835A
:109ED0000023C370C36A04460D4613B1898820303D
:109EE0009847D4E90167BE4206D056F8040B0368D0
:109EF00029461B699847F6E72046BDE8F840FFF77A
:109F0000B7BFF8B54FF6FF73C383C36A04460E4666
:109F10001BB1C36B898830309847D4E90157BD42E3
:109F200006D055F8040B036831461B699847F6E7DD
:109F30002046BDE8F840FFF7B1BF000008B5034672
:109F4000C08B4FF6FF72904214D0DA7892B901229A
:109F5000DA70132100F00CF908280BD043F202024A
:109F6000904207D030B1044A40F2A121BDE8084038
:109F700015F02BBF08BD00BFED140500C078704779
:109F8000C08B4FF6FF73C01A18BF0120704770B521
:109F9000D0E901460D1DB44206D054F8040B036805
:109FA00029461B6A9847F6E770BD1FB5CA688B68DB
:109FB00003925B68044668469847694604F12000AE
:109FC00000F05DF8684600F014F804B010BD1FB54D
:109FD000CA688B6803925B6804466846984769467E
:109FE00004F1300000F04BF8684600F002F804B0CD
:109FF00010BD10B583680446DB689847204610BD45
:10A000002DE9F84FD0E9007AAAEB0704A41014BF99
:10A0100023460123E418804689469346A1EB0705B1
:10A0200026D2B4F1804F23D224BB2646DBF8003081
:10A030007351B94504D02A463946304626F02AF9EC
:10A040000435D1453544AAEB090B04D05A4649469C
:10A05000284626F011F95D4417B1384624F003FA7A
:10A0600006EB8404C8E90065C8F80840BDE8F88F2D
:10A070006FF04044A00024F0D7F90646D6E730B58B
:10A080008B6885B004461B6801A80D469847A368F5
:10A09000214628461B689847039B01A91B68204658
:10A0A0009847E368EA68E260EB6005B030BD000005
:10A0B0000B680360014B8360704700BF54150500B7
:10A0C000024B83600B680360704700BF54150500A6
:10A0D0000B6803607047704700487047B81405006C
:10A0E00010B504460846044924F03FFD002814BF7B
:10A0F0002046002010BD00BFB81405000B680360A7
:10A10000014B8360704700BF3C150500024B836024
:10A110000B680360704700BF3C1505000B680360C7
:10A120007047704700487047A014050010B50446FA
:10A130000846044924F019FD002814BF20460020D9
:10A1400010BD00BFA014050008B5143000F012F8CF
:10A1500030B1044A40F21D11BDE8084015F035BE8B
:10A1600008BD00BFED14050036DF704737DF7047CC
:10A1700076DF70477ADF70478ADF70478BDF704782
:10A18000B1DF704765DF704766DF704711DF7047EA
:10A1900012DF704762DF704763DF704782B08379F8
:10A1A00082888DF80630002362F30F03BDF8062085
:10A1B00062F31F43184602B0704700002DE9F84FC4
:10A1C0000024DFF898A0DFF8A0B080468946264634
:10A1D00025462746D9F80030DB5DABB30F2D2FDCC9
:10A1E0002D2B1ED0202B1CD0A3F13002D2B2092A75
:10A1F00005D9A3F14102052A15D8373BDAB202EBA3
:10A200000413F20748BFC5F10F0203F0FF0406F183
:10A21000010341BF08F802401E460135002458BF23
:10A220001E460137D6E7A3F16102052A01D8573B44
:10A23000E4E75246482158460FF0BCFD0022DEE715
:10A24000064A0748582104E00F2D04DC034A05485C
:10A2500056210FF0AFFD4046BDE8F88F9A15050076
:10A2600009160500F9150500E715050010B5026887
:10A27000837986B004465AB3D3B9014602A8FFF7E2
:10A280009DFF01AA02A91020FFF786FF052812D121
:10A29000A11D02A8FFF77EFF18B1104A1B2115F07F
:10A2A00094FD9DF815209DF8143043EA0223A38005
:10A2B000A07906B010BD28B99DF80630A371BDF88D
:10A2C0000430F4E7054A064822210FF073FDEFE75A
:10A2D000002BEDD1014A03482521F6E79A15050028
:10A2E0006C15050080150500427803781344021DA3
:10A2F0001C3012F8011B0B4490429BB2F9D1D8B22A
:10A3000000EB1323C3F30F201844C04380B27047FF
:10A310002DE9F8431E460F4631B3052826D81C23E5
:10A32000174D434305EB0308EB5C834220D198F8BB
:10A330000190B9F1180F1DD891451DD8C3EBC30387
:10A340009C002819FFF7D0FFB8F80230834215D1DE
:10A3500004344A462919384625F08EFF98F8013012
:10A3600033700020BDE8F8830520FBE70120F9E702
:10A370000420F7E70220F5E70320F3E70620F1E7E2
:10A3800000FF0020184B43604FF481734381032387
:10A39000437341F21433C381144B8363144BC3637F
:10A3A0004369DFF860C003F40002124B13434361BA
:10A3B000114B8361114BC36140F2C97240F2BC730F
:10A3C000C0E9082340F6AC514FF49663C0E90A1384
:10A3D0000363EC2380F83430094BC0E910C3DD235C
:10A3E00080F84830704700BF080B06075C8F423F7B
:10A3F00085EBD13E0A090903E02D903BCDCC4C3EC4
:10A40000F0490200400D0300164A174BC0E9012332
:10A41000164BC360164B8363164BC363436903F447
:10A420000002154B13434361144B8361144BC3610A
:10A430004FF4FA716FF07C03C0E908134FF4487CC5
:10A440004FF4E163C0E90AC34FF496630363EC235E
:10A4500080F834300B4BC0E91033DD2380F84830EE
:10A46000704700BF080A0E0D040506010002141310
:10A470003333B33E9A99993E060761055C77733C86
:10A480000A6882BE80841E000F23037141F21123EB
:10A49000C380134B4FF08062C0E90223114B8363EA
:10A4A000114BC363436903F4000343F0AC6343F40B
:10A4B000403343610D4B83610D4BC3610023C0E901
:10A4C000083383624FF4E163C0E90B33EC2380F877
:10A4D0003430084BC0E91033DD2380F84830704732
:10A4E00002030A09CDCC4C3EEC51383EEE2C5539D6
:10A4F000C74B77BE80841E00184B43604FF48173B6
:10A5000043810323437341F21433C381144B8363A8
:10A51000144BC3634369DFF860C003F40002124BBD
:10A5200013434361114B8361114BC36140F2D372FA
:10A5300040F2CD73C0E9082340F2DC514FF496633A
:10A54000C0E90A130363EC2380F83430094BC0E9F7
:10A5500010C3DD2380F84830704700BF080B0607A2
:10A560005C8F423F85EBD13E0A090901BC74933BE5
:10A57000CDCC4C3EF0490200400D0300174B436028
:10A580004FF481734381164BC360164B83634FF0C6
:10A590007A53C3634369144903F40002134B134312
:10A5A0004361134B8361134BC3616FF0620303621A
:10A5B000AB3B436242F228324FF49663C0E90A2370
:10A5C0004FF416730363EC2380F834300A4BC0E970
:10A5D0001013DD2380F84830704700BF080B0607D2
:10A5E000000314133333333F400D03000A0969019C
:10A5F00048507C3BA01A2F3EF0490200194B836360
:10A60000194B1A4AC3631A4BC0E90123194BC360A3
:10A6100003F1805303F5412303F615630361436996
:10A6200003F40002144B13434361144B8361144B36
:10A63000C36100230362A3F58773436242F22831AA
:10A640004FF4E163C0E90A134FF416730363EC237C
:10A6500080F834300B4BC0E91033DD2380F84830EC
:10A66000704700BF1A51BA3E1283A03E080B0F0D6F
:10A6700005010007030216140829670548507C3BB2
:10A68000F931463E80841E00144B436040F20123A2
:10A690004381134BC3604FF0804383634FF07E537D
:10A6A000C363436903F400020E4B13434361002369
:10A6B0008361C3614FF47A73C0E9083300224FF419
:10A6C0006163C0E90A230363D82380F83430064B62
:10A6D000C0E91033DD2380F84830704711160B0CA9
:10A6E0000400080613141E0180841E0008B5FFF73D
:10A6F000CBFF0423C37508BD41F61923C381C38A68
:10A7000003F0F00343F40073C382EC2380F8343089
:10A71000014BC0E91033704780841E0038B54FF0FC
:10A7200010230546D3F88440631C04BF254B1C68E6
:10A73000B4F57C7F1BD840F2EF339C4230D2642CBE
:10A7400037D008D8A4F12803022B35D92846FFF7C3
:10A75000D3FE072038BDC82C31D0F7D3A4F57A73C7
:10A76000042BF3D8FFF70EFE2C600020F2E740F236
:10A77000DE539C420AD840F2DC539C4213D240F292
:10A78000F1339C42E2D1FFF77FFEEDE7B4F5BC6FF9
:10A790000CD940F2E1539C42D8D1FFF72FFFE3E7F9
:10A7A000FFF732FEE0E7FFF7A7FEDDE7FFF7E6FE83
:10A7B000DAE7FFF7A1FFD7E7FFF766FFD4E7FFF778
:10A7C00095FFD1E7D423002010B50B4C2378BFF3BD
:10A7D0005B8FDB070ED4204623F036FE50B10748CE
:10A7E000FFF730F8204623F03BFE054A05490348B1
:10A7F00023F0C9FE014810BD042700205C2600207C
:10A8000080230020CD98020010B50368022B88B089
:10A810002DD0032B30D0012B27D140F22913ADF8D6
:10A82000003070220023174C0193ADF80830ADF8CA
:10A830000A308DF80C30ADF810200593ADF81830C3
:10A84000ADF81C302378BFF35B8FDB0709D42046BB
:10A8500023F0FAFD28B10C4803F0B4FD204623F0A4
:10A86000FFFD6946084803F0B1FD08B010BD00F0D7
:10A87000D7F802F013FFF8E700F0D2F802F010FF6B
:10A88000F3E700BF282700209825002007B50128FE
:10A89000019005D008B1032805D903B05DF804FB89
:10A8A000202001F0F9FC04210DEB0100FFF7ACFFC3
:10A8B000F3E710B50446FFF787FF2146BDE81040D7
:10A8C000FFF78AB913B50388212B044641D013D86A
:10A8D000112B09D8102B02D2013B012B0AD83021B1
:10A8E0002046FFF7E6FF05E01B2BF8D01D2B29D0F3
:10A8F000152BF4D002B010BD522BF0D011D83B2B49
:10A9000035D0502BEBD0232BF4D100221146808878
:10A9100000F080F80028EDD0204AB22115F055FA59
:10A92000E8E7562B2ED0572BD9D0552BE2D1452115
:10A93000808800F071F80028DCD0184AB82115F0A2
:10A9400044FAD7E7FFF740FF00222146FFF72EFA2F
:10A95000D0E7002301A98088ADF8043000F058F852
:10A960000028C7D00D4AA12115F02FFAC2E7132104
:10A97000808800F04BF80028BCD0084AA72115F0C9
:10A9800024FAB7E71321808800F040F80028B1D0FE
:10A99000024AAD2115F019FAACE700BF41160500D7
:10A9A000704718F093BB10B5044600F039F8214603
:10A9B000BDE8104002F03CBEFFF7F5BF08B5064AFF
:10A9C000142115F049F930B1044A40F20511BDE8EF
:10A9D000084015F0FAB908BDB9A9020041160500F2
:10A9E00010B5044B03600446C06908B123F03BFD79
:10A9F000204610BD2016050010B50446FFF7F0FFF5
:10AA00002046342123F0C4FD204610BD76DF704778
:10AA10008FDF704790DF7047B5DF704770470000E9
:10AA200010B50B4C2378BFF35B8FDB070ED42046A9
:10AA300023F00AFD50B1074802F080FA204623F0C7
:10AA40000FFD054A0549034823F09DFD014810BD4F
:10AA5000F8270020C427002080230020E1A902005D
:10AA60009C283AD8952880F0818025281BD8212859
:10AA70007CD20C2808D80B2878D2002876D0431F27
:10AA8000042B88BF00207047142805D812286DD2E7
:10AA9000102818BF00207047A0F117039BB2052BA8
:10AAA00028BF0020704747280AD83B285ED22728B5
:10AAB0005BD32F285AD9A0F132039BB2082BEFE7C2
:10AAC000872806D8862851D2A0F180039BB2042B98
:10AAD000E6E789284AD08B28DBE7B0F5B47F1ED2A1
:10AAE000B0F5B27F42D2B0F5957F0DD2B0F5947F2C
:10AAF0003CD2B0F5807F38D3B0F5857F36D3A0F552
:10AB00008A739BB2092BCBE7B0F59E7F2DD3B0F5AE
:10AB1000A37F2BD9A0F5A8739BB20B2BC0E7B0F590
:10AB2000D97F0DD8B0F5D57F20D2B0F5BC7F1CD32E
:10AB3000B0F5C07F1AD3A0F5C6739BB2182BAFE750
:10AB4000B0F5F27F07D8B0F5E97F0FD2A0F5DF733B
:10AB50009BB2072BA4E7B0F5704F07D04FF6FF73F9
:10AB600098420CBF184600207047002070470088AC
:10AB700040F20913984200F09481B0F5857F80F08F
:10AB8000A580392800F093814AD822282DD8212881
:10AB900080F087810C2800F0728112D8072806D82F
:10ABA000062880F06C81052808BF042011E00928E0
:10ABB00000F07781C0F05B810B2814BF00200120DA
:10ABC0007047132808D8122880F05981102808BF30
:10ABD000022018BF00207047142800F06281183846
:10ABE00003288CBF0020012070472F280DD82B2868
:10ABF00080F05D81292800F25481272880F03F8170
:10AC000025288CBF002010207047352800F249818C
:10AC1000342880F04C81322834BF00200220704755
:10AC2000872825D8862880F03C81452800F01D81A2
:10AC30000CD8412800F235813D2880F018813B284E
:10AC400000F02F813C2808BF2020C2E7802800F0B8
:10AC5000168106D8462800F00E81472808BF282014
:10AC6000B7E7822800F01B81C0F01B8183289BE797
:10AC7000992812D8982880F01A81952800F00F8121
:10AC800004D8892800F00D818B288DE7962800F0E4
:10AC90000E81972808BF08209BE7B0F5807F00F061
:10ACA000FE8006D89B2800F0F680C0F0E2809C2849
:10ACB00083E7B0F5817F00F0EE80C0F0DC8040F2E9
:10ACC000031398420CBF082000207047B0F5CF7FD7
:10ACD00067D8B0F5CE7F00F2E280B0F5C67F00F015
:10ACE000DA802BD8B0F5947F00F0DB800FD8B0F578
:10ACF0008D7F07D2B0F58C7F80F0D38040F21713A0
:10AD000098425AE700F0BB80B0F58E7F69E7B0F556
:10AD1000B47F0ED2B0F5B27F80F0C380B0F5A87FCB
:10AD200040F2AB80B0F5A97F40F2B78040F25313F8
:10AD3000E6E76FF4BC731844012852E7B0F5CA7F08
:10AD400000F0AF8014D8B0F5C87F0AD8B0F5C77F3F
:10AD500000F2958040F28D1398420CBF0420002031
:10AD6000704740F2911398420CBF042007207047AF
:10AD7000B0F5CC7F0AD8B0F5CB7F00F2968040F2D8
:10AD8000951398427DD0B0F5CB7F16E740F299132A
:10AD9000984200F08680B0F5CE7F2CBF00200520C1
:10ADA0007047B0F5E17F6ED023D8B0F5D77F13D2CE
:10ADB000B0F5D67F75D2B0F5D17F66D005D8B0F5A5
:10ADC000D07F34BF002004207047B0F5D57F5ED01F
:10ADD0005FD840F2A31374E7B0F5E07F05D2B0F579
:10ADE000DF7F58D2B0F5D97FE7E660D040F2C113DB
:10ADF00086E7B0F5EC7F19D2B0F5EB7F57D2B0F50E
:10AE0000E97F4AD008D840F2C313984247D0B0F542
:10AE1000E27F08BF0320DCE6B0F5EA7F47D040F2CE
:10AE2000D51398420CBF072000207047B0F5F07F83
:10AE300037D00DD840F2D913984234D0B0F5EC7F1A
:10AE400031D940F2DD1398420CBF02200020704738
:10AE5000B0F5F27F29D0B0F5704F28D040F2E3135F
:10AE600098420CBF2E20002070471B2070471020F6
:10AE70007047062070470E20704700207047022060
:10AE800070471220704711207047052070474020FE
:10AE90007047482070470C207047032070470820F7
:10AEA0007047012070470A20704707207047042030
:10AEB00070470088472807D845280AD20638032853
:10AEC0008CBF002001207047A0F19A0358425841DE
:10AED0007047012070470388802B03D1081C18BFDE
:10AEE00001207047012070470388222B19D8212B9D
:10AEF0002FD2102B2DD009D8052B26D3092B28D9DA
:10AF00000B3B012B8CBFFF2000207047182B20D05B
:10AF100002D8123B022BF5E71B2B0CBF0020FF20B1
:10AF200070473C2B08D83B2B13D2272B0DD32F2B4C
:10AF30000FD9323B072BE5E7962B08D001D8423BCF
:10AF4000E8E79A2B05D09C2BE7E7FF20704701200C
:10AF50007047002070470388392B1FD8322B3FD20F
:10AF6000142B11D8122B3BD20C2B07D80B2B37D21A
:10AF7000053B042B8CBFFF2000207047102B08BF1F
:10AF8000002018BFFF207047222B04D8212B27D286
:10AF9000183B032BEEE7273B082BEBE78B2B21D04D
:10AFA0000ED8442B04D8422B1AD23B3B012BE1E7AD
:10AFB000802B13D3832B15D9872B08BF0120E0E703
:10AFC000982B07D8972B0BD2952B0BD0962B08BF1D
:10AFD0000220D6E7992B05D09C2BCBE7FF207047AA
:10AFE000002070470120704738B50C4D2C78BFF316
:10AFF0005B8F14F001040ED1284623F025FA50B1DE
:10B00000074B24222146184625F05EF980F824409B
:10B01000284623F025FA024838BD00BF2428002026
:10B02000FC27002010B50B4C2378BFF35B8FDB07A8
:10B030000ED4204623F008FA50B1074800F022F859
:10B04000204623F00DFA054A0549034823F09BFAF0
:10B05000014810BDA42800202828002080230020BB
:10B0600045BD020010B50446FFF7DCFF2178BDE8BE
:10B07000104000F043BC08B5FFF7D4FFBDE808401E
:10B0800000F033BC30B5164A164D02600022C0E90C
:10B090000D52C0E91252027180F8442080F8582005
:10B0A00080F85E20C0E9182280F8682080F86E20C1
:10B0B000C0E91C2282670C2201214FF6FF744FF079
:10B0C000090C022580F82F200D2280F82E10C0E9EF
:10B0D0000FC4C0E91454A0F85C1080F8302030BDD3
:10B0E0001C190500A01605002DE9F0430B460E467D
:10B0F00085B00446421D103153F8040B42F8040B8E
:10B100008B42F9D11B781370494B4A4D01221A60CA
:10B11000D5F8083543F00303C5F80835D5F81035E0
:10B1200023F00F03C5F81035D4F812304FEA137925
:10B130004FEA0318B9F1010F08BFB8F1000F04D3AB
:10B140003D4940F2B12014F0ABFEC5F84085D5F87A
:10B1500004353A4A23F00303C5F80435D5F8003224
:10B1600043F00103C5F80032002313601168039116
:10B17000039933490B6009680291029931490B60C8
:10B1800009680191019930490B600B680093009B9D
:10B1900094F82F30DB0003F1804303F5F833314698
:10B1A000C3F81025A2F504523C3AC3F8142594F8CC
:10B1B0002F2001239340254AC2F8043594F83030FB
:10B1C000DB0003F1804303F5F833A2F5BF32FC3A0C
:10B1D000C3F81025A2F58272C3F81425204600F0AA
:10B1E0003BF818B11A4A9B2114F0EFFDA21D00256F
:10B1F000C4F100086379AB4202F106070ADDD6F814
:10B200000D3028F81730E9B2204600F0B4F80135C7
:10B210003A46EFE70F4B0122C3F80025204600F025
:10B2200051F8204603F016F9002005B0BDE8F08380
:10B230000C90004000900040D9170500409100405C
:10B2400044910040489100404C91004000F0014082
:10B250002E1805000070004010B5174C0023022284
:10B26000C4F80035C4F8F025C4F8F435C4F8F8354E
:10B270006FF00043C4F808334FF4827000F0B4FD5F
:10B280000E4B4022802083F80723C3F8800193F8F7
:10B2900007235109EC220A41D20705D5084A9168D3
:10B2A00039B11368034313600223C4F80433002048
:10B2B00010BD1860F8E700BF0070004000E100E03A
:10B2C000E87500202DE9F341C56C04461DB1262028
:10B2D00002B0BDE8F0810121B0F8500024F05AFF1F
:10B2E000E0640028F3D0A76BA4F852504FF6FF7625
:10B2F0000125666584F85850002FE8D12946A08FB3
:10B3000024F048FFA0630028E1D084F84450E78788
:10B310002664FFF769FE90F824300546B3B9061F8E
:10B3200000F12008202024F089FF07460028CED015
:10B330004FF4C87024F082FFF8610028C7D046F8A7
:10B34000047FB045EED1012385F82430FFF74CFE91
:10B3500000238DF8073034340DF10701204600F04A
:10B360002FFC9DF807300133DBB2082B8DF8073036
:10B37000F2D90020ACE72DE9F8431378072B0446F7
:10B380000D46164604D9642B02D001200EF074FD40
:10B390007379083BDBB2F62B02D801200EF06CFD6E
:10B3A000D6F80120962A4FF00C032CD803FB054356
:10B3B00096229A834FF007097079FF284FF00C0707
:10B3C00068D107FB05444FF0000840F6FF73238463
:10B3D000A4F81E80A4F81A804446307800F08EFB52
:10B3E0002B01240503F1804303F5E04344EA0924DB
:10B3F00044F40034C3F81845C3F81485C3F81005A5
:10B400000020BDE8F883B2F5967F07D803FB05431B
:10B410004FF496729A834FF00609CDE7B2F5167F86
:10B4200007D803FB05434FF416729A834FF00509C2
:10B43000C2E7B2F5966F07D803FB05434FF4966257
:10B440009A834FF00409B7E7B2F5E16F07D803FB21
:10B4500005434FF4E1629A834FF00309ACE7B2F57C
:10B46000166F07D803FB05434FF416629A834FF01B
:10B470000209A1E740F6B8318A4203FB05438DBFBC
:10B480004FF4616299834FF001099A8388BF4FF0AE
:10B49000000991E707FB054400F030FB40F2FF7321
:10B4A00023844FF60103E383A38B5B4263838046CF
:10B4B000012492E701667047F7B590F85D300446C5
:10B4C000002B47D0002680F85D6000F03FFA94F82A
:10B4D0003030214A012505FA03F3C2F808351F4B25
:10B4E0001D60C3F83C6103F59E731B680193019BCB
:10B4F0001B4B1D6094F85E307BB1022384F85E30F4
:10B500004FF48A7000F070FC164B2022C3F804231D
:10B510009D6094F85E30002BFBD104F1480704F1E4
:10B520003406B4F856305BB1E16CB4F8525038468A
:10B530000D4400F088FB2946304600F05AFBF0E746
:10B540004FF4827000F050FC204603B0BDE8F0409C
:10B5500000F010BA03B0F0BD00F0014004900040CC
:10B560000C9000400070004010B590F85D30012B49
:10B5700004460AD003790BB100F010F9204600F020
:10B5800019F818B1022384F85D3010BD40F20113A0
:10B59000A4F85C3094F830300449012202FA03F335
:10B5A000C1F80435024B1A60EFE700BF00F001401C
:10B5B0000090004038B5044600F0C8F9002120464C
:10B5C00000F006F80546204600F0D4F9284638BDBC
:10B5D00070B590F85E30022B04460E4621D000F183
:10B5E0003405B4F8423043B9B4F85600B4F85030DA
:10B5F000984214BF2520002070BDE38FA26B204627
:10B60000D15C5EB100F01EF82628EDD0292801D0CB
:10B610000028F1D1284600F016FBE2E700F003F81D
:10B62000F2E72820E8E738B504460D4600F08EF929
:10B630002946204600F006F80546204600F09AF913
:10B64000284638BD2DE9F347B0F856308DF807107D
:10B65000012B054668D800F148060DF10701304678
:10B6600000F0D8FA4FF6FF7398425FD1FFF7BCFCA9
:10B670009DF8073050F823400023E7699A464FF0C1
:10B680000C0904F1020E05F116086A799A4212DDDE
:10B6900009FB03F008EB000184F800A00A684EF8EB
:10B6A00000200EEB000C4A68CCF804208A68CCF825
:10B6B00008200133E9E795F85E3003F0FF04D3B1C9
:10B6C000012C35D10DF10701304600F079FA194A05
:10B6D0001368002BFCD04FF4807000F085FBFFF75F
:10B6E00083FC154BC822C3F82C760020C3F8302603
:10B6F00002B0BDE8F0874FF001080DF1070185F8B1
:10B700005E8030460C4D00F05BFAFFF76DFCC823FD
:10B71000C5F82C764FF48070C5F8303600F064FB25
:10B72000C5F800802046E3E72620E1E72920DFE78F
:10B730002820DDE70071004000700040416670473E
:10B7400010B50446426780F86810084600F000FA19
:10B75000A4F86A0094F8680000F00AFA0123A4F83B
:10B760006C0084F86E302046BDE8104000F056B8FA
:10B7700043798B420FD901EB410100EB4101137872
:10B780008B71D2F80130C1F807305379CB720123A5
:10B790000371002070476020704700001A4B70B59D
:10B7A00000240546C3F80045861D6B79A34207DDDA
:10B7B0003246E1B22846FFF7DEFD01340636F4E7F3
:10B7C000114B124C0122C3F8002500232B71237862
:10B7D000BFF35B8FDB070ED4204622F035FE50B15D
:10B7E0000B480EF0A5F8204622F03AFE094A0A4915
:10B7F000074822F0C8FE6A1D11234CF2B4310448F8
:10B80000BDE870400EF04FB90070004024270020C2
:10B8100008270020802300202F84020070B5164DD9
:10B8200090F86810B0F9743005EB01111B0443F473
:10B830007843C1F81C3590F86860072E044604D997
:10B840000E4940F2B92014F02BFB7600802303FA56
:10B8500006F6C5F8086394F86840072C04D9074930
:10B8600040F2B92014F01CFB4023640003FA04F4F6
:10B87000014BC3F8044370BD007000407E18050002
:10B8800070B5174D90F86810B0F8743005EB0111E1
:10B8900043F07F6343F47023C1F81C3590F868606F
:10B8A000072E044604D90F4940F2B92014F0F8FAE3
:10B8B0007600802303FA06F6C5F8046394F868401E
:10B8C000072C04D9074940F2B92014F0E9FA4023C3
:10B8D000640003FA04F4024BC3F8084370BD00BFD0
:10B8E000007000407E180500704710B50446FFF751
:10B8F000E3FD2046BDE81040FFF736BE30B5036ECD
:10B9000089B004460D46FBB190F85C30B3B140F20B
:10B910007F13ADF800307022002368460193ADF824
:10B920000830ADF80A308DF80C30ADF810200593D2
:10B93000ADF81830ADF81C3002F028FD002384F873
:10B940005C302846236E984709B030BD10B5836F30
:10B95000632B044602DD01200EF08EFAA36F13B9AB
:10B96000034AC2F80833A36F0133A36710BD00BFB9
:10B970000070004010B5836F013B002B04468367C5
:10B9800002DA01200EF078FAA36F13B9014AC2F867
:10B99000043310BD00700040F7B54C4B1B680446E3
:10B9A000002B67D04FF4827000F01EFA94F85E50BE
:10B9B000EDB2012D0FD1B4F8561071B9022384F8FD
:10B9C0005E30434A084614F047F920B1414A40F23C
:10B9D000EB2114F0FAF903B0F0BDB4F85260E76C53
:10B9E00004F1480000F02FF9BB5D8DF80330FFF73C
:10B9F000FBFA9DF8033050F823301D7094F82E6048
:10BA0000731C84F82E30FFF7EFFA9DF8033050F8DE
:10BA100023300DF103015E7004F1340000F0E9F809
:10BA200029462D4A0DF1030014F016F9B4F856100A
:10BA3000C9B92A4B264A1D60C3F83C1103F59E7311
:10BA400008461B680193019B254B1D60022384F867
:10BA50005E3014F001F90028BDD01E4A4FF4457144
:10BA600014F0B3F9B7E72379002BB4D12946204667
:10BA7000FFF7AEFD1B4B1B683BB14FF48A7000F023
:10BA8000B3F9002384F85E30A5E794F86E30002BFC
:10BA9000A1D0B4F86A0000F1804303F5E0431B68CD
:10BAA00023B100F0A1F92046FFF7B8FEB4F86C000E
:10BAB00000F1804303F5E0431B68002B8BD000F0BE
:10BAC00093F9204600F058F985E700BF0471004063
:10BAD00077B002002E18050065B002000490004007
