:020000022000DC
:1060000000FF002025D903004DD9030019F2030039
:1060100051D9030053D9030055D9030000000000F3
:1060200000000000000000000000000057D903003D
:1060300059D90300000000005BD903005DD90300BB
:106040005FD903005FD90300A1CE02005FD903002E
:106050005FD903005FD903005FD9030019BB0200B9
:106060005FD903002BBB02002DBB02005FD90300E8
:106070005FD903005FD903005FD903005FD9030034
:106080005FD903002DD10400490B04002DF9030052
:1060900019D204005FD9030045F703005FD903005C
:1060A0005FD903005FD90300D955040009CA020073
:1060B0005FD903005FD9030000000000000000006A
:1060C0005FD903005FD903005FD903005FD90300E4
:1060D0005FD903005FD903005FD90300000000000F
:1060E00000000000000000000000000000000000B0
:1060F00000000000000000000000000000000000A0
:10610000000000000000000000000000000000008F
:10611000000000000000000000000000000000007F
:10612000000000000000000000000000000000006F
:10613000000000000000000000000000000000005F
:10614000000000000000000000000000000000004F
:10615000000000000000000000000000000000003F
:10616000000000000000000000000000000000002F
:10617000000000000000000000000000000000001F
:10618000000000000000000000000000000000000F
:1061900000000000000000000000000000000000FF
:1061A00000000000000000000000000000000000EF
:1061B00000000000000000000000000000000000DF
:1061C00000000000000000000000000000000000CF
:1061D00000000000000000000000000000000000BF
:1061E00000000000000000000000000000000000AF
:1061F000000000000000000000000000000000009F
:1062000010B5054C237833B9044B13B10448AFF3F0
:1062100000800123237010BD7824002000000000BE
:10622000D439050008B5034B1BB103490348AFF34C
:10623000008008BD000000007C240020D439050047
:10624000154B002B08BF134B9D46A3F5803A002148
:106250008B460F461348144A121A29F073FB0F4B52
:10626000002B00D098470E4B002B00D09847002001
:10627000002104000D000D48002802D00C4829F030
:10628000C0FA29F0F5FA2000290017F0BDF929F02D
:10629000DBFA00BF0000080000FF00200000000043
:1062A0000000000078240020CC75002003F80400D2
:1062B00000000000FF20704700207047002070475A
:1062C0000E2070477047704710B51821044627F01C
:1062D0009DFC204610BDF8B50B680446DB680846F7
:1062E0000E4698470023C4E90033A3600546B0B1C9
:1062F00027F0D8FB03465F19C4E90033A7602DB12E
:1063000018462A46002129F01DFB034667603268C3
:106310001946976830462A46B8472046F8BD0346D6
:10632000E9E7407970470831034603C983E8030071
:10633000184670471031034603C983E80300184626
:10634000704710B50C46002C0AD001DA6442FAE717
:10635000002806DA21464042FFF7F3FF00B1201A79
:1063600010BD90FBF4F304FB1300F9E72DE9F04FA7
:1063700000F108090E46824699E8030087B00DF146
:10638000080888E80300404611F0E5FF0AF110070D
:10639000009097E8030004AC84E80300204611F065
:1063A000DAFF072101903248B6FBF0F00430B0FB71
:1063B000F1F5C5EBC505401B012585404FF0FF30C9
:1063C000FFF7BFFF05FA00F05FFA85FB10F07F05CD
:1063D00008BFC0F3C61532464FF00001204618BF73
:1063E000EDB211F080FF204611F0B5FFDDE900327B
:1063F0009342064621D397E8030084E80300204631
:1064000011F0A9FFB04208D99AF807301D4214BF15
:106410000120002007B0BDE8F08F99E8030084E870
:106420000300204611F097FFB04201D90020F1E7A8
:106430009AF807301BEA030FE9E79AF807301BEADE
:10644000030FF3D099E8030088E80300404611F0F9
:1064500082FFB042EAD897E8030084E803002046B0
:1064600011F079FFB04294BF00200120D2E700BFB5
:106470008051010010B50C1A134605D00146224682
:10648000184629F045FA0346181910BD7FB5054690
:106490000B798DF8083002A80C4613F07BF82A46D9
:1064A0000DF105018DF8040001A8FFF7E3FF064692
:1064B000601D13F06FF832460DF109018DF80800E8
:1064C00002A8FFF7D7FF0646A01D13F063F8324677
:1064D0000DF109018DF8080002A8FFF7CBFF064671
:1064E000E01D13F057F832468DF808000DF1090150
:1064F00002A8FFF7BFFF04F10801064602A811F049
:10650000BBFE32460DF10D0102A8FFF7B3FF04F107
:106510001001064602A811F0AFFE32460DF10D0142
:1065200002A8FFF7A7FF284604B070BD0D2A1FB5CB
:106530000C460BD901466846FFF7A8FF22460DF12D
:106540000E016846FFF796FF04B010BD0020FBE780
:1065500084B02DE9F04786B00FAD044685E80E0003
:106560002846012113F00CF8012182460DF13D006F
:1065700013F006F8012181460DF13E0013F000F8FA
:10658000012180460DF13F0012F0FAFF04AE0746EC
:1065900032460DF14501281DFFF76CFF6D4696E868
:1065A000060002A811F0A7FE2A460DF14A010DF1DE
:1065B0004500FFF75FFF95E80600304611F09BFEAF
:1065C0009DF808209DF810300A4922722374039A1E
:1065D000059B2160204684F804A084F8059084F887
:1065E0000680E771E260636106B0BDE8F04704B081
:1065F000704700BF60040500704710B50C210446C9
:1066000027F004FB204610BD70B50846154611B9A9
:106610000024204670BD00230A4A0B4927F063FA84
:1066200004460028F4D02946FFF7A0FE0028EFD04A
:10663000236829461E6A2046DDE90423B047002866
:10664000E7D1E5E754050500440405002DE9F04FC6
:106650009946037A85B082460F46904600256BB96D
:106660008DF80D509DF80C30002063F307009DF865
:106670000D3063F30F2005B0BDE8F08F0029EFD097
:106680002C46CDE900891A4B3A46E9585046FFF7A7
:10669000BBFF06462CB370B10146204600F0E1FE78
:1066A000B0B13046FFF73DFE83462046FFF739FE86
:1066B000834538BF34460435C82DE2D19CB120460D
:1066C000FFF72FFE01238DF80C008DF80D30C9E780
:1066D00021463A46304600F02DFF002818BF3446C8
:1066E000E9E70446E7E74FF48073ADF80C30B9E70B
:1066F000D024002030B5037A85B004462BB9C27986
:1067000002B1C371012005B030BD11F081FD054615
:10671000684607F061FB9DF80830002BF2D0DDE9F8
:10672000002329462046FFF791FFE080EAE70000BA
:106730002DE9F04F4C69BDB082460F4624B91023B5
:106740003B823DB0BDE8F08F0B8B702B01D812233C
:10675000F6E711F05DFD804606A807F03DFB964B7D
:10676000C4F800804FF4E142CDE90423934D2B7827
:10677000BFF35B8FD9070ED4284627F0A3F950B199
:106780008F480EF0C9FB284627F0A8F98D4A8E499C
:106790008B4827F036FA0823952104AA88480EF082
:1067A00023FF049B6360059BA3609AF80830237461
:1067B00000210B46881D04EBC000013108294370FD
:1067C0008370C370037143718371C3710372F1D11C
:1067D0009DF82090B9F1000F00F0EA80DDE9062372
:1067E00004F1110604F119054FF0000BC4F835301F
:1067F000C4F8312084F811B0C82286F801B086F8B8
:1068000002B086F803B086F804B086F805B086F8C2
:1068100006B086F807B06D4984F819B00AA885F863
:1068200001B085F802B085F803B085F804B085F8AA
:1068300005B085F806B085F807B084F821B084F873
:1068400022B084F823B084F824B084F825B084F80A
:1068500026B084F827B084F828B084F829B084F8EA
:106860002AB084F82BB084F82CB084F82DB084F8CA
:106870002EB084F82FB084F830B029F03BF80AAB82
:10688000019318465B4650F8042B72B10122D4F8EC
:1068900011E0D4F815109A404FEAE27C4EEA020E5D
:1068A00062461143C6F800E071600133322BEAD131
:1068B0009AF80830002B77D0B8F1000F74D0B9F1F6
:1068C000000F71D00026019B53F8049B0193B9F18E
:1068D000000F66D000233E4A3E49484627F003F9A0
:1068E000824668B303684146D3F820B0DDE9062349
:1068F000D84728B34FF0010B0BFA06FB5A46D317C3
:10690000D4F81900D4F81D10CDE90223039B40EA06
:106910000B020B432A606B60504600F06EFF0028AC
:1069200008BF4FF0000BD4F82900D4F82D105A46B8
:10693000D31740EA0B0B0B43C4F829B0C4F82D3031
:106940000023254A2349484627F0CDF880B190F826
:1069500060300BB10123B340D4F821C0D4F8252016
:10696000D9170A434CEA0303C4F82130C4F82520A0
:1069700000231A4A1749484627F0B5F888B141461E
:10698000FFF7F4FC68B10123D4F819C0D4F81D2036
:10699000B340D9170A434CEA0303C4F81930C4F8CA
:1069A0001D200136322E8ED17123BB830023C7E612
:1069B0004A464B4614E700BF300B010094240020E8
:1069C0009824002080230020A94E0300D02400201A
:1069D000540505004404050000050500A005050058
:1069E00030B40B8840F2AF15AB42024618D0B3F575
:1069F000D87F03D2962B0DD030BC704740F2B11136
:106A00008B4203D040F2C1118B42F5D1104630BC0D
:106A1000FFF770BE4B681B78C3F300030372F6E701
:106A200030BCFFF785BEC3888380DAB2002062F3F2
:106A300007001B0A82B063F30F2002B0704700000A
:106A400070B50B4D0E46322455F8040B18B9013CB5
:106A5000FAD120460BE003689B6998470028F6D0DE
:106A6000314655F8040CFFF781FC0028EFD070BDCB
:106A7000D024002010B50B4C2378BFF35B8FDB07CD
:106A80000ED4204627F01EF850B107480EF044FA05
:106A9000204627F023F8054A0549034827F0B1F8B6
:106AA000014810BD94240020982400208023002059
:106AB000A94E0300F8B54B681D78312D0C4603D85C
:106AC000164E56F8250010B925232382F8BD036819
:106AD0001B69984763690BB91023F6E756F8250040
:106AE000278B0368DB6898470130874201D2122365
:106AF000EBE756F825000368DB68984763690130C7
:106B0000A0831D7056F82500228B61690368013A45
:106B10009B68013198470023D7E700BFD0240020AD
:106B20002DE9FF474B690C4623B91023238204B09B
:106B3000BDE8F0870B8BF92B01D81223F6E700256F
:106B4000DFF850802E4658F8043BE3B163695E5588
:106B500001A858F8041CFFF7BEFB58F8040CDDF838
:106B600004A00368DB689847002201465046D4F829
:106B7000149012F093FC6F1C49F80700019808B1BB
:106B800026F0AFFF05350136F6B2322EDBD1A583F4
:106B90000023CBE7D024002000B589B040F2B11328
:106BA000ADF800307022002368460193ADF808303C
:106BB000ADF80A308DF80C30ADF810200593ADF823
:106BC0001830ADF81C3006F01BFF09B05DF804FB6F
:106BD0007FB50024194D8DF803409DF80330312B0B
:106BE00028D855F82330FBB1224601210DF10300CE
:106BF00012F054FC9DF80330064655F8231001A806
:106C0000FFF769FB9DF80330019C55F823000368EA
:106C1000DB68984732460146204612F03FFC0446A6
:106C2000019808B126F05DFF9DF8033001338DF81F
:106C30000330D2E7204604B070BD00BFD02400204E
:106C400073B50C461E461546FFF7C2FF0190FFF7CD
:106C500011FF04230DEB030299210EF097FF336817
:106C6000228901339A4204D020232382002002B0DB
:106C700070BD312D01D92123F7E70120F7E707B5D2
:106C8000FFF7A6FF0190FFF7F5FE04230DEB0302CB
:106C900099210EF07BFF03B05DF804FB3129F7B5B5
:106CA00007460C4631D81A4D55F82100B8B1036893
:106CB0005B699847064655F8240010B103685B6885
:106CC00098470023012E45F8243016D016F0FF0F08
:106CD00007D0022E15D03846FFF7D1FF002003B0B1
:106CE000F0BDFFF7C7FE4523ADF80630224603236B
:106CF0000DF106010EF099FFEDE7FFF7BBFE46230D
:106D0000F2E7FFF7B7FE4723EEE72120E7E700BFF2
:106D1000D024002038B54B681D780C462946FFF773
:106D2000BDFF6369208253B1228B042A07D91D70ED
:106D30006569FFF74DFF0523C5F80100A38338BD42
:106D400038B505460024E1B228460134FFF7A6FF16
:106D5000322CF8D138BD000010B5034B0360044657
:106D6000FFF7EEFF204610BDF404050010B5044601
:106D7000FFF7F2FF2046042126F048FF204610BD11
:106D800010B513460C4629B10A460146184628F0AC
:106D9000BFFD0346181910BD2DE9F0470B89012BE3
:106DA00092B080460C4604D820230B8212B0BDE876
:106DB000F0874B681D785B78012B5CD023B1022BE8
:106DC00000F09980212346E008AF1B263B462A4667
:106DD0000896FFF735FF00283ED029464046FFF7CA
:106DE0005DFF4020D4F804A026F05CFE2389013B1F
:106DF0001A2B814605D93A4631460AF10100FFF7C0
:106E0000BFFF0BAB0FCB6E4607C626F8023B1B0C31
:106E1000337097E80E00484600F0A2FD564B4846F6
:106E200043F8259000F0DAFC63688DF822505A1C74
:106E30002389CDF823204521013BADF82010ADF882
:106E40002730FFF717FE032239460EF077FE404643
:106E5000FFF715FF002323826369002BA6D0228B46
:106E6000042AA3D91D706569FFF7B2FE0523C5F892
:106E70000100A3839AE708AE4FF00E0933462A4675
:106E8000CDF82090FFF7DCFE0028E5D029464046EB
:106E9000FFF704FF1820D4F804A026F003FE23898E
:106EA000013B0D2B074605D9324649460AF1010040
:106EB000FFF766FFBDF82C30ADF8003096E80E0005
:106EC000384600F0ADFD2C4B384643F8257000F0F5
:106ED00083FD63688DF822505A1C2389CDF8232046
:106EE0004621013BADF82010ADF82730FFF7C2FD79
:106EF00003223146A9E70DF1200928264B462A46F0
:106F00000896FFF79DFE0028A6D029464046FFF7C9
:106F1000C5FE7020676826F0C5FD2389013B272B3D
:106F2000824604D94A463146781CFFF729FF0BAF49
:106F30000FCF6E460FC697E8070086E80700504659
:106F400099E80E0000F0FCFB0B4B504643F825A0DF
:106F500000F05EFB63688DF822505A1C2389CDF83F
:106F600023204721013BADF82010ADF82730FFF773
:106F700081FD0322494668E7D02400202DE9F04F27
:106F800091B002AF00238946BB608246FFF772FDD5
:106F900007F1080249460EF092FCBB68002B44D072
:106FA000D3E90063EB467B6007F118087B689E42DB
:106FB00037D016F8014B312CF8D80E23FB74002380
:106FC000A7F80C90BC73C7F80F803B75FFF752FD14
:106FD000032207F10C010EF082FA0028E6D1154BCE
:106FE00053F8240010B103685B689847182026F016
:106FF00059FD07F1280305461A460E214046FFF7C2
:10700000BFFEBA8EADF8002007F128030ECB28464C
:1070100000F006FD074B284643F8245000F0DCFC46
:10702000C4E75046FFF72BFEDD463C37BD46BDE8C2
:10703000F08F00BFD02400202DE9F04F9BB008AFA7
:107040008B46002478603C61FFF714FD07F11002C5
:1070500059460EF034FC3B69002B50D0D3E9008335
:10706000C7F808D0DFF8A090FB608AB00DF1200AC5
:107070003C60FB6898453DD018F8014B312CF8D89E
:107080004FF02803FB763B68A7F814B0BC75C7F82F
:1070900017A03B77FFF7EEFC032207F114010EF077
:1070A0001EFA0028E5D159F8240010B103685B6886
:1070B0009847702026F0F6FC07F1200506462A4680
:1070C00028215046FFF75CFE07F12C0EBEE80F00AA
:1070D000EC46ACE80F009EE807008CE8070030465D
:1070E00095E80E0000F02CFB304649F8246000F0D3
:1070F0008FFABEE77868FFF7C2FDD7F808D04C37A3
:10710000BD46BDE8F08F00BFD02400202DE9F04F30
:1071100095B004AF8B46002478607C61FFF7AAFC31
:1071200007F1140259460EF0CAFB7B69002B52D0BE
:10713000D3E90083C7F808D0DFF8A490FB6088B0DB
:107140000DF1100A3C60FB6898453FD018F8014BE0
:10715000312CF8D84FF01B03FB773B68A7F818B029
:10716000BC76C7F81BA087F82030FFF783FC03220A
:1071700007F118010EF0B3F90028E4D159F8240002
:1071800010B103685B689847402026F08BFC07F13C
:10719000240506462A461B215046FFF7F1FD07F15C
:1071A000400313E90F00EC46ACE807002CF8023B63
:1071B0001B0C8CF8003095E80E00304600F0D0FB38
:1071C000304649F8246000F009FBBCE77868FFF717
:1071D00056FDD7F808D04437BD46BDE8F08F00BF54
:1071E000D024002010B545210446FFF78FFF20462C
:1071F0004621FFF7C3FE47212046FFF71DFF10BDC4
:107200002DE9F04F814695B00E469A461546002A64
:1072100000F0AE800A785749002351F8044B0993D7
:10722000DFB20133002CF8D1012A46D04FFA82FB9D
:10723000BBF1000F05D0022A74D0212015B0BDE8A3
:10724000F08F1B2D40F09480402026F02BFC0DF198
:1072500028080446424629463046FFF791FD0DAB0B
:107260000FCBEC46ACE807002CF8023B1B0C8CF86B
:10727000003098E80E00204600F072FB099A3D4B62
:10728000204643F8224000F0A9FA4523ADF8283003
:107290008DF82A70CDF82B608DF82F508DF830B016
:1072A000FFF7E8FB032241460EF048FC48468AF807
:1072B0000070FFF7E4FC5846C0E70E2D58D11820A7
:1072C00026F0F0FB0DF12808834642462946304659
:1072D000FFF756FDBDF83430ADF8003098E80E00E9
:1072E000584600F09DFB234B099A584643F822B0BC
:1072F00000F072FB4623ADF828308DF82A70CDF8E7
:107300002B608DF82F508DF83040FFF7B3FB032230
:1073100041460EF013FC48468AF80070FFF7AFFCB8
:1073200020468BE7282D23D1702026F0BBFB0DF1E2
:1073300028088346424629463046FFF721FD0DF1D5
:10734000340EBEE80F00EC46ACE80F009EE80700E4
:107350008CE80700584698E80E0000F0F1F9054B5C
:10736000099A584643F822B000F052F94723C2E781
:10737000202063E7D02400202DE9FF414FF6FF7362
:10738000DFF88C800B8207460C468DF80330002511
:1073900058F8040B58B303682689DB68984786427F
:1073A00025D1666858F8041C01A8FEF794FF304602
:1073B0002289019928F090FA0646019808B126F032
:1073C00090FBA6B98DF803502682636963B1228BC6
:1073D000042A09D99DF803201A706569FFF7F8FBA4
:1073E0000523C5F80100A38304B0BDE8F081013591
:1073F000EDB2322DCCD1238A002BE6D00DF1030360
:10740000228961683846FFF7FBFE2082DDE700BF76
:10741000D02400200B88A3F5D57310B50446062BA5
:107420001ED8DFE803F0040B0E11151D1900FFF73D
:10743000A3FF2046BDE81040FFF7AEBBFFF7ACFC52
:10744000F7E7FFF767FCF4E7BDE81040FFF732BB52
:10745000BDE81040FFF764BBBDE81040FFF770BC0B
:1074600010BD70B50D4688B0044610B9002008B0B4
:1074700070BD0029FAD001466846FEF754FF684601
:1074800010F069FF2946064602A8FEF74CFF02A845
:1074900010F061FF8642E9D1214604A8FEF74AFFB9
:1074A00004A810F058FF2946044606A8FEF742FF3C
:1074B00006A810F050FF231A58425841D7E710B5DC
:1074C0000C4631B1002805DA4042FFF7F8FF00B161
:1074D000201A10BDB0FBF1F301FB1300F9E7000027
:1074E0002DE9F041069D0C46401B11491646984671
:1074F000FFF7E5FF0E490746701BFFF7E0FF0C4959
:107500000646601BFFF7DBFF09490446A8EB0500B0
:10751000FFF7D5FFB74206D807D184428CBF0020C1
:107520000120BDE8F0810120FBE70020F9E700BF62
:10753000805101002DE9F0418CB00C460546014612
:1075400002A89046FEF7EFFE02A810F004FF2946BD
:10755000064604A8FEF7EEFE04A810F0FCFE214645
:10756000054606A8FEF7DFFE06A810F0F4FE214649
:10757000074608A8FEF7DEFE08A810F0ECFE42461B
:10758000044600210AA810F0AEFE0AA810F0E3FE9F
:10759000234600903A4629463046FFF7A1FF0CB03B
:1075A000BDE8F0810220704728207047704710B571
:1075B0007021044626F02AFB204610BD90F860306A
:1075C00013B1203006F039BB4830FBE790F860304B
:1075D00013B1203006F038BB4830FBE770B50646E3
:1075E0000C46154662B92A462146304600F0A4F9F9
:1075F0000022014606F14000BDE8704006F0D0BA16
:1076000021B10368DB689847A842ECD9204670BDD9
:1076100013B5044600F0E2F894F8683023B1626EC6
:107620000021684610F05FFE02B010BDF8B50446B8
:1076300016461F46FEF79AFE48B132463B462046A4
:1076400000F0F4F8054684F860002846F8BD94F888
:1076500060300BB90025F8E732463B4604F14000A4
:1076600006F050FA054650B110F0D2FD94F868309B
:107670006066002BE9D1012384F86830E5E794F8CF
:1076800068607EB110F0BEFDA36D626EC31A9842B1
:1076900005D9934206D8904204D93546D5E793429E
:1076A000FBD9F8E794F86820002384F86030002ABA
:1076B000D0D0E1E7F0B517464B68436001F108020E
:1076C00004460D4600F1080392E8030005F110029C
:1076D00083E8030092E8030004F1100383E8030049
:1076E00005F120030FCBDFF854C0C4F818C004F133
:1076F000200686E80F00383555F8083C236395E8E6
:10770000030004F1380383E803000B4B236007F107
:1077100008030FCB04F14805C4F840C085E80F000A
:10772000BB69A3650023C4E9193384F8603084F889
:1077300068302046F0BD00BF30050500F413050099
:1077400084B0F0B5A1B0064627A880E80E0008AACC
:1077500003462DAF154618685968144603C408330C
:10776000BB422246F7D119889B78A37021800BABCE
:107770000FCB6C4607C424F8023B1B0C237095E822
:107780000E0010A800F0ECF804AA0DF1B7030DF1FB
:10779000BF0C174618685968144603C4083363457C
:1077A0002246F7D1186820601B7923719DF81C30A0
:1077B0008DF8003097E80E00284606F0A7F92A4613
:1077C00010A93046FFF776FF304621B0BDE8F04003
:1077D00004B07047002070471B2070477047704707
:1077E000203006F02ABA203006F02EBA10B540211B
:1077F000044626F00BFA204610BD38B590F83C4000
:1078000005467CB110F00AFD2B6BAA6BC31A984297
:1078100006D9934208D8904234BF0024012401E0E5
:107820009342F8D8204638BD0024FBE7F8B51F4640
:1078300003689B6904461646984798B1236820461A
:107840009B69984748B332463B4604F1180006F05E
:1078500059F9054678B110F0E1FC0123A06384F8E2
:107860003C3006E023682046DB6998470028E5D1D4
:1078700001252846F8BD94F83C300BB90025F8E7FF
:107880002046FFF7BAFF05460028F1D194F83C30B6
:10789000002BF3D084F83C00EBE723682046DB693B
:1078A00098470028E4D032463B4604F1180006F021
:1078B00029F9054628B910F0B1FC0123A06384F82A
:1078C0003C3094F83C30002BD3D02046FFF795FF96
:1078D0000028D3D194F83C50002DC9D084F83C0046
:1078E000C7E7D0B5044616461F46FEF73FFD30B148
:1078F00032463B462046BDE8D040FFF797BFD0BD9B
:1079000030B585B0044668460D46FEF7BFFD2246F9
:107910000DF10E016846FEF7ADFD05F11801684650
:1079200006F022F904F10E020DF10D016846FEF792
:10793000A1FD204605B030BD10B51A2A88B00C460E
:107940000BD9014601A8FFF7DBFF22460DF11F010D
:1079500001A8FEF78FFD08B010BD0020FBE7000076
:1079600084B070B586B0054602AC0BA880E80E0066
:1079700022460DF13A01FEF77DFDBDF81430ADF859
:10798000003094E80E002E462846FEF7E1FD0F4B2E
:1079900046F8183B22460DF147010DF13A00FEF77B
:1079A00069FD9DF814308DF8003094E80E003046E3
:1079B00006F0ACF800232846C5E90E3385F83C30C4
:1079C00006B0BDE8704004B0704700BF7C050500FC
:1079D000012070470E2070477047704710B518217E
:1079E000044626F013F9204610BDF0B5036885B0B3
:1079F000DB68174606460C469847B84205460CD841
:107A000031466846FEF742FD25B12A4669462046C2
:107A100027F070FF601905B0F0BD0020FBE7000003
:107A200084B037B507AC84E80E00BDF82830ADF857
:107A3000003094E80E000546FEF78AFD034B2B60EC
:107A4000284603B0BDE8304004B07047C8050500C3
:107A5000704710B50821044626F0D8F8204610BD1E
:107A60002DE9F04F837987B0894673B900238DF8EB
:107A700011309DF81030002063F307009DF811309D
:107A800063F30F2007B0BDE8F08F0029EED00A465F
:107A900004A8002110F027FC04A810F05CFC0025CD
:107AA0000390FF24A8462F46234BE85878B30023C1
:107AB000224A234926F017F8064640B34946FEF706
:107AC00055FC20B3314604A8FEF72DFC04A810F0A5
:107AD00042FC3146824604A8FEF72CFC04A810F0B4
:107AE0003AFCFF2C834608D1BA451AD03046FEF73F
:107AF00018FCD8460446574609E0039B009301460C
:107B000043463A465046FFF7EBFC0028ECD10435DB
:107B1000C82DC9D1FF2C08BF64248DF81040012363
:107B2000A5E7C345E2D13046FEF7FBFB844228BF00
:107B30000446E4B2EBE700BFD0240020A005050016
:107B40004404050013B5044610F062FB01462046CC
:107B5000FFF786FF6379ADF80400C0F30720984271
:107B60000CD12BB123799DF804001B1A18BF0123F7
:107B7000BDF80420A280184602B010BD0123F7E72B
:107B80000B8810B440F2B114A34202460BD040F26D
:107B9000C114A34207D0962B0AD14B681B78C3F3BC
:107BA0000003837100E010465DF8044BFFF7CABF85
:107BB0005DF8044B704783880020DAB262F3070057
:107BC0001B0A82B063F30F2002B07047F8B5274B51
:107BD0000360274EFF230025837300F1180304463A
:107BE00005718581036100F11007304600F04EFCFD
:107BF0004FF0000332183146384600F087FB4FF44F
:107C000000732385A023E362C4E93255C4E93455E7
:107C10004FF4807384F82A50A36484F84C50C4F85D
:107C200004510123134D84F8E8302B78BFF35B8FA8
:107C3000D9070ED4284625F045FF50B10E4801F073
:107C4000B3FD284625F04AFF0C4A0D490A4825F0A5
:107C5000D8FF094BA3600023C4F8D830A4F8DC3067
:107C6000C4F8E030A4F8E4302046F8BD0808050068
:107C700038070500042700205C2600208023002010
:107C80003198020038B5037904464BBB01221146F6
:107C9000806801F0B7FE18B30123124D23712B78D1
:107CA000BFF35B8FDB0709D4284625F00BFF28B113
:107CB0000D4805F0C1FE284625F010FF21460A4870
:107CC00005F0E8FE04F11001204600F027F82046F8
:107CD000218D00F071F82046BDE8384000F02EB943
:107CE00038BD00BF2827002098250020A1F12003DF
:107CF0009BB243F6E072934298BF8185704710B5FE
:107D00000379044643B1FFF7F1FF00F017F920466D
:107D1000BDE8104000F060B910BD000070B5044629
:107D200088B010300E4600F0CBFA2379FBB16269BF
:107D300004AB0293EAB91D4C204600F0A7FB4FF0BC
:107D400000032218214602A800F0E0FA1123BDF832
:107D50000C2002998DF8043001A800F095FB18B1B1
:107D6000134A622117F06FFB02A800F0A1FA08B0D5
:107D700070BDD6E900541DB914B10E4826F0CDFAF5
:107D80000F2C019406D9002101A800F059FB019B9A
:107D90000290049322462946029800F0D9FA019BEA
:107DA000029A03930021D154D0E700BF38070500A1
:107DB000670705003D07050008B5037953B1018544
:107DC000084600F05FFB28B1034A6921BDE808407E
:107DD00017F039BB08BD00BF6707050011F10C0F94
:107DE00009D010DC11F1140F05D011F1100F02D0E1
:107DF00011F1280F0DD190F92A308B4209D080F86B
:107E00002A1000F02FB80B1DF5D003DC11F1080F7C
:107E1000F1D070470029EED00429FAD1EBE713B571
:107E20000446FEF727FE01230DF107022A210DF07B
:107E3000DBFB9DF907102046FFF7D0FF02B010BD15
:107E400013B50446FEF716FE01230DF107020B21C0
:107E50000DF0CAFB9DF907102046FFF7BFFF02B0E7
:107E600010BD000008B5037973B1817BFF290BD0E9
:107E700090F92A20012000F003FB28B1034AA02139
:107E8000BDE8084017F0DFBA08BD00BF670705006E
:107E9000F8B505460C461746002A3DD100F15006BC
:107EA0003C220021304627F04DFD0123337017B9E5
:107EB0004FF4C0637380D5F8043183B3F4B105F196
:107EC000F8040C220021204627F03CFD4CF201036F
:107ED000A5F8F830D5F8040101F0B2F8C5F80001B2
:107EE000D5F8040101F0AEF80123A5F8FC00B46256
:107EF00086F82C3095F8FC400434E4B22B7DC4F1B4
:107F00001A04E4B29C4228BF1C4674701CB10123C1
:107F10003FB185F84C30F8BD00F18C06C0E71C4637
:107F2000ECE785F84B30F6E710B500220446FFF782
:107F3000AFFF2046BDE8104000F080B8038E03F488
:107F40007C4343F001030386002343634FF48073B3
:107F5000A0F84430838D8363C38D8387704770B5E9
:107F60000379012604464673D3B1037BD3B900F1EC
:107F7000300200F1D8010E3000F07CFA054620B145
:107F8000204600F0CFF8284670BD84F848003146FE
:107F9000A07B00F071FA05460028F4D12673F2E7C1
:107FA0000825F0E70025EEE710B5002343730379B9
:107FB000044673B1037B63B1807B00F05FFA30F05D
:107FC000080304D0034A40F2411117F03CFA0023A1
:107FD000237310BD6707050038B5037B04460BB952
:107FE000437B53B3237943B3A06801F097FD94F822
:107FF000495075B9002394F84820F2B1BBB1012370
:1080000084F8303084F84A302046BDE8384000F02B
:108010007DB8A06801F066FF0028EBD194F84A30E3
:10802000002BE8D1012384F848302B46E3E70522F2
:1080300084F8302084F84A30E6E738BD70B503791B
:108040000446002B5FD090F8E85090F84B30013593
:1080500005F0010580F8E850E3B11F2100EB85062B
:10806000A0F8DC10D6F8C83023B9012027F0D0FBE7
:10807000C6F8C800D6F8C810C4F8D81004F1DC025D
:1080800004F1500015F0E6FC20B11F4A4FF4C47112
:1080900017F0D9F994F84C30E3B11F2104EB8505B2
:1080A000A4F8E410D5F8D03023B9012027F0B0FBB4
:1080B000C5F8D000D5F8D010C4F8E01004F1E402FF
:1080C00004F18C0015F0C6FC20B10F4A4FF4C971C1
:1080D00017F0B9F9A37BFF2B0CD0002204F1D801D3
:1080E00004F10E0000F0C6F920B1074A4FF4CC713C
:1080F00017F0A9F9237B33B9637B23B12046BDE890
:108100007040FFF72CBF70BD6707050010B5037BFB
:1081100004460BB1FFF748FF2046BDE81040FFF7CB
:108120001EBF0000F0B58BB006462122002101A839
:1081300027F008FC00241F4F2546B6F8DC30A34288
:1081400014D9D6F8D8301A5D01AB5819394627F042
:108150000BFD04F00703072B054405D12122002164
:1081600001A827F0EFFB00250134E6E721220021DA
:1081700001A827F0E7FB00240E4F2546B6F8E430AF
:10818000A34214D9D6F8E0301A5D01AB581939462C
:1081900027F0EAFC04F00703072B054405D1212250
:1081A000002101A827F0CEFB00250134E6E70BB043
:1081B000F0BD00BFBA070500027B42B100220521D5
:1081C000027380F8301080F84A20FFF7C8BE70476D
:1081D00010B50B88B3F5827F86B004460A465CD0A2
:1081E0000BD80C2B2DD03C2B19D00B2B12D14B685C
:1081F00093F90010FFF7F2FD0CE0B3F5847F0BD08C
:1082000040F209118B4221D040F20712934201D172
:10821000FFF7D2FF06B010BDFFF7DEFEFAE74968B0
:10822000128902AB0A44009368464FF0000300F045
:108230006DF820466946FFF771FD684600F038F892
:10824000E8E74B681988FFF75AFDE3E753681B78A6
:108250008DF80030F3B1FFF782FE114C2378BFF3A5
:108260005B8FDB070ED4204625F02CFC50B10D4867
:1082700010F0B4FE204625F031FC0B4A0B490948AA
:1082800025F0BFFC01236A464CF25031054810F03E
:1082900060FFBFE7FFF788FEDFE7FFF7CFFEB9E734
:1082A0002427002008270020802300202F8402009C
:1082B000034653F8080B984201D025F012BC7047D2
:1082C0008842F7B504460E461ED003464D6853F863
:1082D000082B9A4214BF81680F21A9420AD201A833
:1082E000019500F0ADF807462046FFF7E1FF019B3E
:1082F0002760A36025B12A463168206800F028F87D
:108300002368656000225A5503B0F0BD73B5054679
:108310000E4619B912B10D4825F0FFFF941B0F2C22
:10832000019406D9002101A800F08AF8019B286079
:10833000AB6022463146286800F00AF8019B2A68A3
:108340006B600021D15402B070BD00BF3D07050035
:10835000012A30B403D10B78037030BC7047002A77
:10836000FBD030BC27F0C6BA0B680360014B8360BA
:10837000704700BF14080500024B83600B68036060
:10838000704700BF140805000B6803607047704712
:10839000004870475006050010B5044608460449D9
:1083A00025F021FF002814BF2046002010BD00BF8B
:1083B000500605000B680360014B8360704700BFE7
:1083C0002C080500024B83600B680360704700BFF8
:1083D0002C0805000B680360704770470048704721
:1083E0001C06050010B504460846044925F0FBFEAE
:1083F000002814BF2046002010BD00BF1C06050049
:1084000010B5044B044640F8103BFFF751FF2046DF
:1084100010BD00BF0808050010B50446FFF7F0FFC7
:1084200020464FF4847125F0F1FB204610BD7047C3
:1084300010B51C21044625F0E9FB204610BD0000C4
:1084400008B50368002B02DA094825F069FF8B4262
:1084500008D949008B4205D20029B6BF6FF000430E
:10846000016003600068BDE80840013025F01ABBD8
:10847000BF07050072DF704773DF704774DF704716
:1084800077DF704778DF70477CDF704727F096BB57
:10849000A0F84210704708B500F0C6FA006808BDA1
:1084A000B0F842007047B0F840007047A0F84410A0
:1084B0007047B0F844007047094A02604DF6AD615C
:1084C0000022426001818272C260C0F81220C0F8AE
:1084D0001620C26180F82020426280F82820704770
:1084E000E009050038B590F82030DB0704460D465A
:1084F00005D5044A1B2102F1570010F0B3FFE560D7
:1085000038BD00BFAC0805002DE9F047044698B01F
:1085100000250CAEE1611C220F460EA829460C95E1
:10852000756027F00FFA1C2229460EA80DF1540998
:10853000ADF854508DF85650ADF85A508DF85C5047
:1085400027F000FA07A9204600F0BAF803222946CE
:10855000484627F0F7F99DF85630CDF84C9023F0B7
:10856000070304F1040943F0030341F2111A4846DA
:108570008DF85630ADF854A001F02AFE484601F0BF
:10858000BFFD14222946009007A827F0DBF92368D5
:10859000CDF81CD01B69ADF82650204698472368BB
:1085A000ADF824009B6820469847ADF82800204687
:1085B00000F062FB0DF15A080B9003224046294659
:1085C00027F0C0F99DF85C30D4F80C90CDF82080ED
:1085D00023F0070343F005030DF10C08ADF85AA092
:1085E0008DF85C300F951295CDF80480B9F1000F2D
:1085F0005FD0484627F0E2FA0F28054604D901303B
:1086000025F050FA03950190012D01984AD199F86F
:1086100000300370019B029500215955029BC3B1A4
:10862000019A0F920DF15D059BB203222846ADF829
:108630004230ADF8403027F085F911238DF85D30D8
:10864000BDF85E30129503F4784343F44073ADF8FF
:108650005E302368002511955B6B314620469847B4
:1086600010B1ADF83250119604F1120307AA0EA909
:10867000B88D00F0C0FA18B10F4A8C2116F0E3FE55
:108680000021204600F03EF894F82030019843F095
:108690000103404584F8203001D025F022FA18B0BB
:1086A000BDE8F087002DB5D02A46494627F022F9CB
:1086B000B0E7024825F031FEAC0805002D090500A1
:1086C0000B7F23F0030343F002030B7790F8203075
:1086D0000A7FC3F3800363F3C3020A7790F8203064
:1086E000D2B2C3F3400363F304120A7790F8203048
:1086F000D2B2C3F3001363F345120A77437C81F8C7
:108700003F3070472DE9F043036887B0DB690446CA
:10871000884698470546204600F0AEFA94F8203087
:108720009B06074667D594F82830FD2B63D8414651
:10873000284607F033FC236806469B682046984786
:10874000B04242D300F070FA236881465B6920464C
:10875000984794F82830CDF80880CDE900630146A9
:108760003B462A46484607F053FC002840D0236881
:108770003146DB6820469847236820461B699847A6
:10878000E369ADF816009868618AC08B3B460DF12D
:10879000160200F0CCFF20B11B4A4FF4807116F096
:1087A00052FE94F82030C3F34000F0B1E2699268C1
:1087B000D18B4FF6FF72914223D0C3F3C000A0B11A
:1087C000236820465B6A98470FE012253246002155
:1087D000384627F0B7F823680021DB682046984721
:1087E00000F022FA07F006FC284607B0BDE8F08347
:1087F0004FF6FF75EAE723682946DB68204698476D
:10880000BAE70020F1E700BFAC08050070B590F8AA
:1088100020309A0786B0054643D5C2699268D18B4D
:108820004FF6FF7291423CD01B073AD503681B6993
:1088300098476B8AADF8083001238DF80A3000267E
:108840000DF10603CDE90436EB69ADF806009B682F
:10885000ADF80C6002A9D88B00F0CFF908280446C7
:1088600018D007D860B1104A4FF49D71204616F019
:10887000EAFD05E0132806D043F201439842F2D105
:10888000204606B070BD95F8203043F0400385F8CF
:108890002030F5E795F8203066F3861385F8203010
:1088A000EEE70824ECE700BFAC0805002DE9F04F27
:1088B00090F820309A0791B0044640F18C80C2694C
:1088C0009268D18B4FF6FF72914200F084801B07B3
:1088D00040F1818003681B6998478046204600F07C
:1088E000CBF994F82050C5F3801582460DB1B4F849
:1088F00046504FF0000B0DF11809A8454AD9A8EBD6
:1089000005071422132F4FF000014846BB46A8BFAD
:108910004FF0130B27F016F8132FCABF1322FF22B4
:10892000B5FBF2F20AEB0507C8BFD2B21FFA8BF60D
:108930008DF8182039461FFA8BF20DF1190026F038
:10894000D9FF721C92B239460BA8ADF8062026F06A
:10895000D1FF638AADF8083001238DF80A300DF19C
:108960000603CDE90439E3699B68002202A9D88B8C
:10897000ADF80C2000F041F9834618B313284FF0EE
:1089800000020BD194F82020A4F8465042F0400297
:1089900084F82020584611B0BDE8F08F082808D18F
:1089A00094F82010A4F8462062F3861184F8201071
:1089B000F0E743F20142904204D0084A4FF4D171EB
:1089C00016F041FDBDF806200BA93846354426F0C7
:1089D00091FFADB291E74FF0080BDBE7AC08050063
:1089E00010B590F820305B06044609D503685B6A31
:1089F000984728B994F8203060F3861384F8203023
:108A000010BD10B590F820305B0604460BD5036806
:108A10005B6A984738B994F82030A4F8460060F3B0
:108A2000861384F8203010BD80B483B000AF786026
:108A30007B682C3318460C37BD465DF8047B7047C5
:108A400010B5044B044640F8303BA36BDB689847F5
:108A5000204610BD4C08050010B50446FFF7F0FF96
:108A60002046482125F0D2F8204610BD2DE9F043DC
:108A700087B00D46044600F0D7F807F0C2FA064664
:108A8000002840D123682946DB6820469847C9233F
:108A90008DF8173094F8203013F0200F236851D050
:108AA00094F82820FD2A4DD81B692046984707F0E6
:108AB00084FA236801469B692046984700F0B4F881
:108AC0000546204600F0D8F8236807461B69204673
:108AD0009847236880465B6920469847236881460B
:108AE000DB69204698470DF11703CDE90003029694
:108AF0004B4642463946284607F05EFB30B900F047
:108B000093F807F077FA07B0BDE8F08300F08CF82F
:108B10009DF8172094F8281007F08FFD0028EED05C
:108B200020469DF81760FFF77FFF23680746DB6943
:108B300020469847E56B03463A46314604F130003B
:108B4000A847E0E7FE228DF817209B6929462046BA
:108B50009847E5E7F8B5436A04465BBB90F82030D8
:108B6000DB0920D0144F154E3D78BFF35B8F15F015
:108B700001050ED1384624F0A5FF50B138463560C6
:108B8000B580B57124F0AAFF0D4A0E49304625F094
:108B900038F8336803B16362636A5BB90120BDE8EA
:108BA000F84010F0C1BC03689B689847012126F08B
:108BB0002FFE6062F8BD00BFCC2700202C270020CC
:108BC00080230020098C020038B50446406A28B191
:108BD00094F82030DD0902D00023636238BD26F00E
:108BE00073FE6562FAE700230120CB8040F21B137D
:108BF00008710B807047AADF7047AEDF704770477F
:108C0000704770470020704710B50446006808B1EF
:108C100026F05AFE204610BD10B59421044624F0DB
:108C2000F5FF204610BD000070B50E4E3378BFF33F
:108C30005B8F13F0010513D1304624F043FF78B168
:108C4000094C0A4B23603046042384F8545084F8BE
:108C50005C3024F043FF064A0649204624F0D1FF49
:108C6000014870BDC8270020342700208416050065
:108C700080230020FF8B020090F820309B0603D554
:108C800090F82830FD2B02D903685B691847406AC9
:108C9000704749BA4182704749BA8182704710B51E
:108CA00001F10F0302301A468B4212F8014900F815
:108CB000014B00D110BD1346F5E784B038B505ADC2
:108CC00085E80E0041F20253038004462946FFF76F
:108CD000E6FF2046BDF82410FFF7DBFFBDF82810A3
:108CE000FFF7DAFF9DF92C30A375BDE8384004B0DA
:108CF00070473030704713B5D0E90D3293420446C7
:108D0000019106D01960436B04334363204602B0DF
:108D100010BD01AA1946303000F0E0F8F6E7000077
:108D20000A4901604DF6AD610022018200F11C018B
:108D3000C0E905124FF6FF710271C0E90222827488
:108D400002778185C0E90C2282637047B80A05006A
:108D500073B5037904463BBB00F10C0581602846DE
:108D600001F036FA284601F0CBF922464FF6FF73A0
:108D7000019022F82C3F01A9012000F0EEF818B173
:108D80000A4A2D2116F05FFB236820465B6A98474C
:108D9000D0E90056AE4205D0214655F8040BFFF746
:108DA000B3FBF7E70123237102B070BD390A050058
:108DB00070B503685B6A0D469847D0E90046A64245
:108DC0000FD054F8040B90F8203065F3451380F869
:108DD0002030036815B1DB6A9847F0E71B6B9847B2
:108DE000EDE770BD10B50C68C46000F10C038A8813
:108DF0009A808A799A7110BD0A88112A09D0502A5E
:108E00000DD0102A10D1036801F108025B6989882E
:108E10001847036801F108029B69898818470368AD
:108E200031F8062FDB69184770477047F7B50368BC
:108E30005B6A0D46074616469847D0E900319942CD
:108E400037D053F8044B2888E28A90420FD16A89C0
:108E5000022A0CD105F10C0014F0C6FF94F8203062
:108E600060F3C30384F82030012003B0F0BD628AB0
:108E70009642E4D1AB795A1E022A06D82368698942
:108E80001B6A204698470120EFE7062B13D1B868EC
:108E900000230DF106023146C08BADF8063000F01C
:108EA00035FC2368BDF806101B6A20469847012050
:108EB000DBE70020D9E70120D7E770B503685B6ADC
:108EC0000D469847D0E90046B44206D054F8040B4A
:108ED000036829469B6A9847F6E770BD2DE9F84F6D
:108EE000D0E9007AAAEB0704A41014BF234601239B
:108EF000E418804689469346A1EB070526D2B4F1D3
:108F0000804F23D224BB2646DBF800307351B9458D
:108F100004D02A463946304626F0FAFC0435D145BD
:108F20003544AAEB090B04D05A464946284626F098
:108F3000E1FC5D4417B1384624F0D3FD06EB840410
:108F4000C8E90065C8F80840BDE8F88F6FF04044F4
:108F5000A00024F0A7FD0646D6E7A8DF70477047BB
:108F600010B56421044624F051FE204610BD0000D7
:108F700010B5094C2378BFF35B8FDB0709D420467B
:108F800024F0A0FD28B1054804F056FD204624F049
:108F9000A5FD024810BD00BF28270020982500200D
:108FA00070B5104B0360002500F12803122604461B
:108FB000456232462946184626F0C4FC4FF4FA7141
:108FC000FF22C4E913126587C4E90F55C4E911559E
:108FD00084F85450A56525663246294626F0B2FC31
:108FE000204670BD140B050080F82910704780F8EA
:108FF0003A10704780F83B107047012303FA01F1E3
:1090000010B549B290F93C4022B12143C9B280F871
:109010003C1010BD24EA0101F8E7012303FA01F135
:1090200010B549B290F93D4022B12143C9B280F850
:109030003D1010BD24EA0101F8E780F83E107047AA
:10904000283070471220704710B55C30144607F086
:1090500092FB28B101461022A01C26F04BFC0120F7
:1090600010BD00002DE9F04304468FB004F1240642
:109070000D4604F021FC314604F070FCA36D013371
:10908000A365FDF7F7FC042304AA88210CF0ACFAD1
:10909000FDF7F0FC042305AA8B210CF0A5FA059A34
:1090A000003218BF012202212046FFF7A6FF059AD1
:1090B000002A3AD1A264216DA06D04F1280700298D
:1090C00039D0C30740F1D380A26D12F00F0840F0F1
:1090D000FA80FDF7CFFC042306AA99210CF084FA4C
:1090E000072384F82830042384F82A3094F83A308F
:1090F00084F82B3094F83B3084F82C3094F83C30D2
:1091000084F82D30BDF81A30E3850622414604F17B
:10911000300026F017FC049BA26D002B40F0D1809C
:1091200093B2E3864FF47A43BFE0A36C002BC2D026
:10913000049BA364BFE7062384F8283094F83B30EF
:1091400084F82B3094F83C3084F82C3094F83E307E
:1091500084F82D3094F83F3084F82E304FF07D0C99
:10916000236CC4F8312093FBFCF384F8350084F8B9
:109170002A10A4F82F30042204F1360026F0E2FB76
:10918000DFF8BC8198F80030BFF35B8FD8070ED4AE
:10919000404624F097FC50B163480FF01FFF404653
:1091A00024F09CFC614A62495F4824F02AFD3A465B
:1091B00042F2127112235C480FF0CBFFFDF75AFC0C
:1091C000032219210CF021FA50B3236D43B3DFF8C9
:1091D000749199F80030BFF35B8F13F0010813D13D
:1091E000484624F06FFC78B1524F534B3B604846E1
:1091F000042387F8548087F85C3024F06FFC4B4AD6
:109200004E49384624F0FDFC65220221CDE90121BA
:1092100004F12A03102200921946464806F0F8FE8F
:10922000BDB94FF48273ADF8183070230795ADF8CF
:109230002050ADF822508DF82450ADF828300B9511
:10924000ADF83050ADF83450FFF792FE06A904F0A7
:10925000F7FB236D002B60D104F02EFB23464FF467
:109260008042314604F066FB0FB0BDE8F08394F80D
:109270003A10F2B1072384F82830012384F82A3009
:10928000A36C236394F83C3084F8343094F83E3077
:1092900084F83530049B84F82B10E2623BB983B22A
:1092A000E3867D22236C93FBF2F3238768E79BB26E
:1092B000F6E73A462046FFF7C7FE00287FF460AF86
:1092C00002E79BB22DE7072384F82830002384F8B7
:1092D0002A3094F83A3084F82B3094F83B3084F8F4
:1092E0002C3094F83C3084F82D30E38FE3857D21D9
:1092F000236C93FBF1F32386636CC4F83230049B38
:109300004BB993B2E38694F83D3084F83830FA23B1
:1093100084F8393034E79BB2F4E704F0CDFA234601
:109320004FF400429DE700BF082700208023002063
:109330002F8402003427002084160500FF8B0200D2
:1093400024270020C82700200021FFF78BBE000043
:10935000031D37B5202200210446184626F0F2FAF4
:10936000254645F8240F04F0A7FA2D4A294604F0B3
:10937000D1FAFDF77FFB01230DF1070286210CF0E6
:1093800033F99DF80730102B02D045D8022B45D871
:10939000236504F15C0007F093F904F08DFA23468D
:1093A00029464FF4004204F0C5FAFDF763FB03229F
:1093B00036210CF02AF9012102462046FFF71DFE56
:1093C000FDF758FB032237210CF01FF90321024659
:1093D0002046FFF712FEFDF74DFB032238210CF06B
:1093E00014F9052102462046FFF707FEFDF742FB70
:1093F000032243210CF009F9062102462046FFF71B
:10940000FCFDFFF7B5FD214604F044FB0121204699
:10941000FFF728FE03B030BDFF2BB9D0FF23B7E71D
:109420004993020070B58EB00D460446FDF722FB4D
:1094300004236A4688210CF0D7F84FF44033059393
:109440001DB140F20513ADF8163094F83E308DF89A
:109450000430636CCDF80530009BA26D002B60D109
:1094600093B2ADF8093009238DF80C300723ADF81D
:1094700014304FF4C673ADF818300C237022ADF8D9
:10948000203001AE002303ADADF822308DF824303A
:10949000ADF828200B93ADF83030ADF83430049699
:1094A0000795FFF765FD06A904F0CAFA94F83B306A
:1094B0008DF8043094F83C308DF8053094F83F3046
:1094C0008DF806307D22236C93FBF2F3ADF8073064
:1094D000009BA26D3BBB93B2ADF8093008238DF819
:1094E0000C300723ADF814304FF4C673ADF81830C4
:1094F0000C237022ADF820300023ADF822308DF817
:109500002430ADF828200B93ADF83030ADF834306E
:1095100004960795FFF72CFD06A904F091FA0EB00A
:1095200070BD9BB29DE79BB2D6E7000010B50B88DB
:10953000872B044600F0A88025D8382B00F0CF8078
:1095400008D8362B00F0BD8000F2C280222B00F03C
:10955000868010BD812B00F0878008D8432BF8D17E
:109560004B681A78003218BF012206211BE0822BBB
:1095700000F08180832BECD14B681B6803647F2350
:1095800080F83F30E5E7B3F5947F00F093801CD876
:10959000962B7FD00BD88B2BDBD14B681A6800320F
:1095A00018BF01220221BDE81040FFF726BD40F29E
:1095B000071293424FD0B3F5847FCAD1002180F8BF
:1095C0005410BDE81040FFF74DBDB3F5E17F00F04A
:1095D0008D8009D8B3F5D97FBBD14B681A7800329A
:1095E00018BF01220721DEE7B3F5EB7F5BD040F225
:1095F000D7129342ADD14B685C30196807F0E3F89D
:10960000E36C5A1EE264002BA3D13B4B1B78BFF3E3
:109610005B8FDB0709D4384824F054FA28B1374867
:1096200003F0BEFA344824F059FA344803F00AFB38
:1096300044F620635843FF23B0FBF3F000F54340AA
:10964000503064230021B0FBF3F0E0642046BDE815
:109650001040FFF7E7BE012380F8543079E74B68EC
:109660001B7880F83A3074E74B681B7880F83B3001
:109670000323C3646DE74968214AD1E9000100234F
:1096800025F0B4FE606464E74B6893F9003080F81D
:109690003E305EE74B681A78002102F00102BDE817
:1096A0001040FFF7BABC90F83C3043F0100380F84C
:1096B0003C304EE74B681A78003218BF0122002177
:1096C00071E74B681A78003218BF012201216AE75E
:1096D0004B681A78003218BF0122032163E74B68F8
:1096E0001A78003218BF012205215CE749685C3016
:1096F000BDE8104007F00BB8D0270020D427002089
:109700000090D003ACDF7047ADDF704713B514464F
:109710001288ADF800200022ADF802206A460193BD
:10972000FFF7F2FFBDF80030238002B010BD13B583
:1097300014461288ADF800200022ADF802206A46D7
:109740000193FFF7DFFFBDF80030238002B010BDAA
:1097500010B504460CF07FFB204610BD10B5044642
:109760000CF079FB204610BD10B50B4C2378BFF3ED
:109770005B8FDB070ED4204624F0A4F950B10748D4
:109780000CF064FB204624F0A9F9054A054903487A
:1097900024F037FA014810BDEC270020E427002010
:1097A000802300205D97020038B500230446C0E9FD
:1097B0000033C0E90233142024F074F905466068D0
:1097C00008B124F08EF94FF6FF73E383154BA362C3
:1097D000A363154BA36404F18103C4E90155C4F8E4
:1097E000A03014351F23E560A4F8A430002504F14F
:1097F0005C03C4E9055525772562E5622563E563C9
:109800002564E56484F8505020222946184626F045
:1098100099F8064B63616423E067638384F88050A2
:10982000204638BDD40B0500BC0B05000600100017
:1098300010B50023044600F8403BA36CDB68984752
:1098400004F1300000F087FB04F1200000F083FBFE
:10985000606808B124F045F9204610BD13B50378BF
:109860000446D3B90DF1070000F044FC18B10C4ACE
:10987000442115F0E8FD9DF8073033B100F038FCC5
:1098800018B1074A482115F0DEFD012000F01EFC4A
:109890000E2000F01DFC0123237002B010BD00BF9C
:1098A0006D0B050008B515F08FFD15F021FF15F0C3
:1098B00025FF15F09FFE08280AD018B1054A75212A
:1098C00015F0C1FD15F014FF10B915F07DFDF9E795
:1098D00008BD00BF6D0B05001FB5037804464BB3F0
:1098E00043783BBB144B01A91B680193012015F081
:1098F00065FF18B1114AA52115F0A5FD01A815F0C5
:10990000C5FF18B10D4ABC2115F09DFD002302933F
:10991000ADF80C3002A80C23ADF80A3000F0E4FBDF
:1099200018B1064AC22115F08EFD0123637020464E
:1099300000F0BCFB04B010BDE02300206D0B05005F
:109940007047704738B5437805464BB3154C2378BC
:10995000BFF35B8FDB070ED4204624F0B3F850B181
:1099600011480CF073FA204624F0B8F80F4A104959
:109970000D4824F046F94FF496710B480CF073FA39
:10998000FFF7F2FE4FF496710CF06DFAD5E9014540
:10999000AC4205D054F8040B03689B689847F7E77E
:1099A00038BD00BFE0270020D827002080230020FA
:1099B0005197020070B54378044673B1837863B958
:1099C000D0E90156B54206D055F8040B036821468C
:1099D000DB689847F6E70123A37070BD13B5D0E9A3
:1099E000023293420446019106D019608368043321
:1099F0008360204602B010BD01AA1946043000F071
:109A0000B1FAF6E7012906D019B1022905D00020E4
:109A10007047007870474078704780787047000042
:109A200010B543788CB00446002B44D0027F002A46
:109A300041D1BDF80030ADF8062003F0E00343F457
:109A40008273ADF8003002928DF80C20FDF712F809
:109A500002230DEB030227210BF0C6FDFDF70AF8E8
:109A60002821022301AA0BF0BFFD04F1A0016846E2
:109A700000F034FB20B1114A4FF4AB7115F0E3FC58
:109A80000123237740F20513ADF810307022002334
:109A90000593ADF81830ADF81A308DF81C30ADF8DC
:109AA00020200993ADF82830ADF82C30FFF760FA8C
:109AB00004A903F0C5FF0CB010BD00BF6D0B05007D
:109AC00010B5437888B004461BB3037F0BB300F096
:109AD00007FB20B1104A40F2651115F0B4FC0023D9
:109AE0004FF48372ADF80020237770220193ADF814
:109AF0000830ADF80A308DF80C30ADF81020059321
:109B0000ADF81830ADF81C30FFF732FA694603F0B3
:109B100097FF08B010BD00BF6D0B0500007F7047B8
:109B200070B5D0E901460D46A64205D0294654F845
:109B3000040BFFF73DF9F7E770BD0000F0B50B88A7
:109B4000502B8BB005460C466CD015D8102B2FD05F
:109B500003D8012B48D00BB0F0BD112B5DD01C2BCE
:109B6000F9D1D5E90165AE42F5D056F8040B03688A
:109B700021461B699847F6E7532B7DD011D8512B0E
:109B8000EFD0522BE7D1002203231146C08B00F007
:109B9000A9FA0028DFD0404A4FF4E37115F053FCD6
:109BA000D9E7562BDDD0572BD5D100F0A2F9D2E75B
:109BB00000F03DF940F20713ADF8083070220023A1
:109BC0000393ADF81030ADF812308DF81430ADF8C5
:109BD00018200793ADF82030ADF82430FFF7C8F90E
:109BE00002A903F02DFFB6E7FFF7BEFD02220146F2
:109BF00002A80CF04AF9029B00936946BDF80C30AC
:109C0000A088ADF8043000F071FA0028A3D0224AF1
:109C100040F2911115F017FC9DE700F024F94FF484
:109C20008473C9E700F0F6F8237B062B16D1FFF703
:109C30009BFD0222014602A80CF027F9D5E9015745
:109C4000029E0634AF4286D055F8040B3288036872
:109C50002146DB6998470028F4D07CE7D5E9016705
:109C6000A51DB7423FF477AF56F8040BE2880368AE
:109C70002946DB699847F4E7D0E90136B3423FF45F
:109C80006AAF53F8040BE188828D9142F6D10368E4
:109C900021461B6998475EE76D0B050010B5044629
:109CA0008CB0C11C06220DF1010025F023FEE27CE0
:109CB0008DF80020227D8DF80820A28B8DF80920D8
:109CC000A269CDF80A2040F20112ADF810200E2250
:109CD0000023ADF8182070228DF80730ADF81A3047
:109CE0008DF81C30ADF820200993ADF82830ADF880
:109CF0002C30CDF814D0FFF73BF904A903F0A0FEF7
:109D00000CB010BD00F125028261FFF7C7BF000053
:109D100070B50B881D2B92B006460C462BD10D7AE0
:109D2000C5F341153DBB08313AB3242201A825F003
:109D3000E1FD94F82420216A8DF828200DF12900F6
:109D400025F0D8FD0F4A0795442101A815F0C2FA65
:109D500020B10D4A40F23B2115F075FB06F1A00140
:109D6000002000F0BBF9082805D020B1064A4FF4C6
:109D7000137115F068FB12B070BD0846FFF78EFF37
:109D8000ECE700BF059D02006D0B050010B50D4C02
:109D90002378BFF35B8FDB070ED4204623F092FEBF
:109DA00050B10948FFF700FD204623F097FE074A0F
:109DB0000749054823F025FF0348BDE8104000F09F
:109DC0006FB800BF042700205C26002080230020FD
:109DD0003198020010B504467C3403F06DFD214635
:109DE000064A03F097FD03F067FD214600234FF478
:109DF0002022BDE8104003F09DBD00BF8D9D0200F4
:109E000010B5044603F058FD04F17C01BDE8104094
:109E100003F0A4BD10B5044603F04EFD04F17C012F
:109E200000234FF42022BDE8104003F0A5BDF8B593
:109E30008B88C3830023C370C36A04460D4613B1E5
:109E4000898820309847D4E90167BE4206D056F889
:109E5000040B036829461B699847F6E72046BDE8CE
:109E6000F840FFF7B7BFF8B54FF6FF73C383C36A77
:109E700004460E461BB1C36B898830309847D4E93D
:109E80000157BD4206D055F8040B036831461B69E3
:109E90009847F6E72046BDE8F840FFF7B1BF00005D
:109EA00008B50346C08B4FF6FF72904214D0DA78A3
:109EB00092B90122DA70132100F00CF908280BD0B6
:109EC00043F20202904207D030B1044A40F2A1218D
:109ED000BDE8084015F0B7BA08BD00BF6D0B05001E
:109EE000C0787047C08B4FF6FF73C01A18BF0120AF
:109EF000704770B5D0E901460D1DB44206D054F844
:109F0000040B036829461B6A9847F6E770BD1FB526
:109F1000CA688B6803925B6804466846984769463E
:109F200004F1200000F05DF8684600F014F804B079
:109F300010BD1FB5CA688B6803925B68044668460B
:109F40009847694604F1300000F04BF8684600F08D
:109F500002F804B010BD10B583680446DB6898476A
:109F6000204610BD2DE9F84FD0E9007AAAEB07048E
:109F7000A41014BF23460123E41880468946934663
:109F8000A1EB070526D2B4F1804F23D224BB26468D
:109F9000DBF800307351B94504D02A4639463046C3
:109FA00025F0B6FC0435D1453544AAEB090B04D0A5
:109FB0005A464946284625F09DFC5D4417B138466F
:109FC00023F08FFD06EB8404C8E90065C8F808405B
:109FD000BDE8F88F6FF04044A00023F063FD064613
:109FE000D6E730B58B6885B004461B6801A80D46DE
:109FF0009847A368214628461B689847039B01A9F8
:10A000001B6820469847E368EA68E260EB6005B0A9
:10A0100030BD00000B680360014B8360704700BFD8
:10A02000D40B0500024B83600B680360704700BFD0
:10A03000D40B05000B6803607047704700487047F9
:10A04000380B050010B504460846044924F0CBF847
:10A05000002814BF2046002010BD00BF380B0500AB
:10A060000B680360014B8360704700BFBC0B0500A9
:10A07000024B83600B680360704700BFBC0B050098
:10A080000B6803607047704700487047200B05005D
:10A0900010B504460846044924F0A5F8002814BF6A
:10A0A0002046002010BD00BF200B050008B514306D
:10A0B00000F012F830B1044A40F21D11BDE808402A
:10A0C00015F0C1B908BD00BF6D0B050036DF704744
:10A0D00037DF704776DF70477ADF70478ADF704777
:10A0E0008BDF7047B1DF704765DF704766DF704711
:10A0F00011DF704712DF704762DF704763DF704720
:10A1000082B0837982888DF80630002362F30F03D2
:10A11000BDF8062062F31F43184602B070470000E6
:10A120002DE9F84F0024DFF898A0DFF8A0B08046B2
:10A130008946264625462746D9F80030DB5DABB375
:10A140000F2D2FDC2D2B1ED0202B1CD0A3F1300285
:10A15000D2B2092A05D9A3F14102052A15D8373B05
:10A16000DAB202EB0413F20748BFC5F10F0203F0A5
:10A17000FF0406F1010341BF08F802401E46013505
:10A18000002458BF1E460137D6E7A3F16102052A15
:10A1900001D8573BE4E75246482158460FF062F990
:10A1A0000022DEE7064A0748582104E00F2D04DCB0
:10A1B000034A054856210FF055F94046BDE8F88F8F
:10A1C0001A0C0500890C0500790C0500670C0500C8
:10A1D00010B50268837986B004465AB3D3B90146F4
:10A1E00002A8FFF79DFF01AA02A91020FFF786FF32
:10A1F000052812D1A11D02A8FFF77EFF18B1104A51
:10A200001B2115F020F99DF815209DF8143043EA24
:10A210000223A380A07906B010BD28B99DF80630AE
:10A22000A371BDF80430F4E7054A064822210FF077
:10A2300019F9EFE7002BEDD1014A03482521F6E794
:10A240001A0C0500EC0B0500000C050042780378A1
:10A250001344021D1C3012F8011B0B4490429BB2A8
:10A26000F9D1D8B200EB1323C3F30F201844C04335
:10A2700080B270472DE9F8431E460F4631B30528DA
:10A2800026D81C23174D434305EB0308EB5C8342A0
:10A2900020D198F80190B9F1180F1DD891451DD81B
:10A2A000C3EBC3039C002819FFF7D0FFB8F80230B6
:10A2B000834215D104344A462919384625F01AFB41
:10A2C00098F8013033700020BDE8F8830520FBE7E3
:10A2D0000120F9E70420F7E70220F5E70320F3E780
:10A2E0000620F1E700FF0020184B43604FF4817314
:10A2F00043810323437341F21433C381144B8363BB
:10A30000144BC3634369DFF860C003F40002124BCF
:10A3100013434361114B8361114BC36140F2C97216
:10A3200040F2BC73C0E9082340F6AC514FF4966389
:10A33000C0E90A130363EC2380F83430094BC0E909
:10A3400010C3DD2380F84830704700BF080B0607B4
:10A350005C8F423F85EBD13E0A090903E02D903B1B
:10A36000CDCC4C3EF0490200400D0300164A174B7D
:10A37000C0E90123164BC360164B8363164BC363BE
:10A38000436903F40002154B13434361144B83618B
:10A39000144BC3614FF4FA716FF07C03C0E90813EA
:10A3A0004FF4487C4FF4E163C0E90AC34FF496636D
:10A3B0000363EC2380F834300B4BC0E91033DD230A
:10A3C00080F84830704700BF080A0E0D04050601EA
:10A3D000000214133333B33E9A99993E0607610580
:10A3E0005C77733C0A6882BE80841E000F23037171
:10A3F00041F21123C380134B4FF08062C0E9022366
:10A40000114B8363114BC363436903F4000343F0AF
:10A41000AC6343F4403343610D4B83610D4BC36127
:10A420000023C0E9083383624FF4E163C0E90B33D2
:10A43000EC2380F83430084BC0E91033DD2380F87A
:10A440004830704702030A093333B33E9A99993E64
:10A45000EE2C5539C74B77BE80841E00184B4360E5
:10A460004FF4817343810323437341F21433C38157
:10A47000144B8363144BC3634369DFF860C003F478
:10A480000002124B13434361114B8361114BC361B3
:10A4900040F2D37240F2CD73C0E9082340F2DC51A0
:10A4A0004FF49663C0E90A130363EC2380F8343059
:10A4B000094BC0E910C3DD2380F84830704700BF66
:10A4C000080B06075C8F423F85EBD13E0A09090164
:10A4D000BC74933BCDCC4C3EF0490200400D0300D0
:10A4E000174B43604FF481734381164BC360164B87
:10A4F00083634FF07A53C3634369144903F4000242
:10A50000134B13434361134B8361134BC3616FF0D0
:10A5100062030362AB3B436242F228324FF496631C
:10A52000C0E90A234FF416730363EC2380F8343038
:10A530000A4BC0E91013DD2380F84830704700BF94
:10A54000080B0607000314133333333F400D030099
:10A550000A09690148507C3BA01A2F3EF0490200CD
:10A56000194B8363194B1A4AC3631A4BC0E9012381
:10A57000194BC36003F1805303F5412303F61563C0
:10A580000361436903F40002144B13434361144B0A
:10A590008361144BC36100230362A3F58773436295
:10A5A00042F228314FF4E163C0E90A134FF4167305
:10A5B0000363EC2380F834300B4BC0E91033DD2308
:10A5C00080F84830704700BF1A51BA3E1283A03E4F
:10A5D000080B0F0D05010007030216140829670573
:10A5E00048507C3BF931463E80841E00144B43604A
:10A5F00040F201234381134BC3604FF080438363D8
:10A600004FF07E53C363436903F400020E4B1343C0
:10A61000436100238361C3614FF47A73C0E9083357
:10A6200000224FF46163C0E90A230363D82380F852
:10A630003430064BC0E91033DD2380F848307047D2
:10A6400011160B0C0400080613141E0180841E0052
:10A6500008B5FFF7CBFF0423C37508BD41F61923E6
:10A66000C381C38A03F0F00343F40073C382EC2375
:10A6700080F83430014BC0E91033704780841E00ED
:10A6800038B54FF010230546D3F88440631C04BF4F
:10A69000254B1C68B4F57C7F1BD840F2EF339C42FD
:10A6A00030D2642C37D008D8A4F12803022B35D936
:10A6B0002846FFF7D3FE072038BDC82C31D0F7D38A
:10A6C000A4F57A73042BF3D8FFF70EFE2C6000205C
:10A6D000F2E740F2DE539C420AD840F2DC539C423F
:10A6E00013D240F2F1339C42E2D1FFF77FFEEDE757
:10A6F000B4F5BC6F0CD940F2E1539C42D8D1FFF7BE
:10A700002FFFE3E7FFF732FEE0E7FFF7A7FEDDE705
:10A71000FFF7E6FEDAE7FFF7A1FFD7E7FFF766FFEF
:10A72000D4E7FFF795FFD1E7D823002010B50B4CF5
:10A730002378BFF35B8FDB070ED4204623F0C2F9EA
:10A7400050B10748FFF730F8204623F0C7F9054A13
:10A750000549034823F055FA014810BD042700209D
:10A760005C260020802300203198020010B5036889
:10A77000022B88B02DD0032B30D0012B27D140F2F3
:10A780002913ADF8003070220023174C0193ADF867
:10A790000830ADF80A308DF80C30ADF81020059374
:10A7A000ADF81830ADF81C302378BFF35B8FDB07B2
:10A7B00009D4204623F086F928B10C4803F03CF96F
:10A7C000204623F08BF96946084803F039F908B0B0
:10A7D00010BD00F0D7F802F06DFFF8E700F0D2F8F6
:10A7E00002F06AFFF3E700BF282700209825002029
:10A7F00007B50128019005D008B1032805D903B099
:10A800005DF804FB202001F053FD04210DEB010055
:10A81000FFF7ACFFF3E710B50446FFF787FF2146CB
:10A82000BDE81040FFF78AB913B50388212B044611
:10A8300041D013D8112B09D8102B02D2013B012B88
:10A840000AD830212046FFF7E6FF05E01B2BF8D0A1
:10A850001D2B29D0152BF4D002B010BD522BF0D0F7
:10A8600011D83B2B35D0502BEBD0232BF4D1002229
:10A870001146808800F080F80028EDD0204AB221EF
:10A8800014F0E1FDE8E7562B2ED0572BD9D0552BED
:10A89000E2D14521808800F071F80028DCD0184A08
:10A8A000B82114F0D0FDD7E7FFF740FF0022214682
:10A8B000FFF72EFAD0E7002301A98088ADF8043015
:10A8C00000F058F80028C7D00D4AA12114F0BBFDB4
:10A8D000C2E71321808800F04BF80028BCD0084A5A
:10A8E000A72114F0B0FDB7E71321808800F040F8ED
:10A8F0000028B1D0024AAD2114F0A5FDACE700BF9D
:10A90000C10C0500704717F01FBF10B5044600F0DA
:10A9100039F82146BDE8104002F096BEFFF7F5BFBA
:10A9200008B5064A142114F0D5FC30B1044A40F2AF
:10A930000511BDE8084014F086BD08BD1DA9020040
:10A94000C10C050010B5044B03600446C06908B192
:10A9500023F0C7F8204610BDA00C050010B5044632
:10A96000FFF7F0FF2046342123F050F9204610BDB8
:10A9700076DF70478FDF704790DF7047B5DF704735
:10A980007047000010B50B4C2378BFF35B8FDB07DB
:10A990000ED4204623F096F850B1074802F0DAFAB8
:10A9A000204623F09BF8054A0549034823F029F97E
:10A9B000014810BD24280020F0270020802300201B
:10A9C00045A902009C2837D895287ED225281BD877
:10A9D00021287AD20C2808D80B2876D2002874D0E7
:10A9E000431F042B88BF00207047142805D8122865
:10A9F0006BD2102818BF00207047A0F117039BB23C
:10AA0000052B28BF0020704747280AD83B285CD276
:10AA1000272859D32F2858D9A0F132039BB2082BED
:10AA2000EFE7892806D886284FD2A0F180039BB291
:10AA3000042BE6E78B28DDE7B0F5B47F1ED2B0F536
:10AA4000B27F42D2B0F5957F0DD2B0F5947F3CD263
:10AA5000B0F5807F38D3B0F5857F36D3A0F58A7303
:10AA60009BB2092BCDE7B0F59E7F2DD3B0F5A37F28
:10AA70002BD9A0F5A8739BB20B2BC2E7B0F5D97FF9
:10AA80000DD8B0F5D57F20D2B0F5BC7F1CD3B0F582
:10AA9000C07F1AD3A0F5C6739BB2182BB1E7B0F5EF
:10AAA000F27F07D8B0F5E97F0FD2A0F5DF739BB234
:10AAB000072BA6E7B0F5704F07D04FF6FF7398420B
:10AAC0000CBF18460020704700207047008840F2F5
:10AAD0000913984200F08F81B0F5857F80F0AA803D
:10AAE0003B2800F088814ED822282DD8212880F0DC
:10AAF00082810C2800F0718112D8072806D8062818
:10AB000080F06B81052808BF042011E0092800F0BF
:10AB10007281C0F05C810B2814BF002001207047B7
:10AB2000132808D8122880F05881102808BF022066
:10AB300018BF00207047142800F05D8118380328E2
:10AB40008CBF0020012070472F280DD82B2880F0C3
:10AB50005881292800F24F81272880F03E8125283E
:10AB60008CBF002010207047352807D8342880F08B
:10AB70004881322834BF002002207047382840F234
:10AB80003A813928BFE7882800F03B8124D846283D
:10AB900000F021810BD8412804D83C288CBF10201C
:10ABA00020207047452834BF01201B207047822891
:10ABB00000F01F8108D8802800F00F8100F21B816F
:10ABC000472808BF2820B3E7832800F01A8185288A
:10ABD00094BF002001207047992812D8982880F04F
:10ABE0001081952800F0058104D8892800F00381A0
:10ABF0008B2888E7962800F00481972808BF082052
:10AC000096E7B0F5807F00F0F48006D89B2800F02E
:10AC1000EC80C0F0DE809C287EE7B0F5817F00F0FC
:10AC2000E480C0F0D88040F2031398420CBF0820A3
:10AC300000207047B0F5CE7F5CD8B0F5CD7F00F234
:10AC4000D280B0F5BD7F26D8B0F5BC7F00F2D380AE
:10AC5000B0F58E7F0DD8B0F58D7F00F2CC8080F0FE
:10AC6000BC80B0F58C7F80F0C68040F2171398420C
:10AC700052E7B0F5A97F06D8B0F5A87F00F2B780FB
:10AC8000B0F5947F48E740F25313984200F0B38048
:10AC9000A0F5B27053E7B0F5CA7F16D2B0F5C97F00
:10ACA00080F0AD80B0F5C87F00F2AB80B0F5C77F13
:10ACB00000F29380B0F5C67F00F0978040F28D13CC
:10ACC00098420CBF04200020704740F2971398422E
:10ACD00000F09780B0F5CC7F06D240F295139842F1
:10ACE0000CBF122001207047B0F5CD7F34BF072084
:10ACF00001207047B0F5E17F71D02CD840F2AB1342
:10AD000098426ED0B0F5D67F15D2B0F5D17F09D874
:10AD1000B0F5D07F75D8A0F5CF7001288CBF00208A
:10AD20000720704740F2A31398425CD0B0F5D57F5E
:10AD300008BF4020FCE6B0F5E07F08D2B0F5DF7F29
:10AD400053D2B0F5D77F56D3B0F5D97FE4E658D0CB
:10AD500040F2C1138BE7B0F5EC7F19D2B0F5EB7F71
:10AD60004FD2B0F5E97F42D008D840F2C3139842E1
:10AD70003FD0B0F5E27F08BF0320D9E6B0F5EA7F07
:10AD80003FD040F2D51398420CBF072000207047F7
:10AD9000B0F5F07F2FD00DD840F2D91398422CD0C7
:10ADA000B0F5EC7F29D940F2DD1398420CBF0220A8
:10ADB00000207047B0F5F27F21D0B0F5704F20D061
:10ADC00040F2E31398420CBF2E2000207047102061
:10ADD0007047062070470E207047022070471120F0
:10ADE000704748207047052070470C2070470320AB
:10ADF000704708207047012070470A2070470720DD
:10AE00007047042070470088472807D845280AD291
:10AE1000063803288CBF002001207047A0F19A0358
:10AE2000584258417047012070470388802B03D156
:10AE3000081C18BF01207047012070470388222B8F
:10AE400019D8212B2FD2102B2DD009D8052B26D382
:10AE5000092B28D90B3B012B8CBFFF20002070470A
:10AE6000182B20D002D8123B022BF5E71B2B0CBF6E
:10AE70000020FF2070473C2B08D83B2B13D2272BF8
:10AE80000DD32F2B0FD9323B072BE5E7962B08D09C
:10AE900001D8423BE8E79A2B05D09C2BE7E7FF203F
:10AEA0007047012070470020704703883C2B1FD853
:10AEB0003B2B3DD21B2B11D8182B39D20C2B07D88A
:10AEC0000B2B35D2053B042B8CBFFF200020704795
:10AED000102B2DD02AD3123B022BF5E72F2B04D8B1
:10AEE000272B25D2213B012BEEE7323B072BEBE74B
:10AEF0008B2B1FD00BD8832B03D8802B1AD2423B2D
:10AF0000EAE7873B012B8CBFFF2001207047982B7D
:10AF100008D8972B0CD2952B0CD0962B0CBF022067
:10AF2000FF207047992B05D09C2BCDE7FF20704761
:10AF3000002070470120704738B50C4D2C78BFF3C6
:10AF40005B8F14F001040ED1284622F0BBFD50B1F6
:10AF5000074B24222146184624F0F4FC80F82440B4
:10AF6000284622F0BBFD024838BD00BF5028002013
:10AF70002828002010B50B4C2378BFF35B8FDB072C
:10AF80000ED4204622F09EFD50B1074800F024F870
:10AF9000204622F0A3FD054A0549034822F031FE70
:10AFA000014810BDC0280020542800208023002024
:10AFB00049BD020010B50446FFF7DCFF2178BDE86B
:10AFC000104000F0A7BC08B5FFF7D4FFBDE808406B
:10AFD00000F097BCFFF7F7BF1849194B0360002337
:10AFE000C0E907134FF6FF72C0E90C134FF0090CCC
:10AFF0000221C0E90E12C0E909C20122A0F84420D2
:10B0000000F14702037180F82C3080F8403080F85E
:10B010004630C0F8473053601372C0E91833C0E9B6
:10B02000143380F8583080F85E30836600F15001A8
:10B0300002F8013B8A42FBD1704700BF200D05009A
:10B040009C0F05002DE9F843421D0F460B460446B0
:10B05000103153F8040B42F8040B8B42F9D11B78E2
:10B0600013708E4B8E4D01221A60D5F8083543F0CF
:10B070000303C5F80835D5F8103523F00F03C5F8DC
:10B080001035D4F812304FEA13794FEA0318B9F1AA
:10B09000010F08BFB8F1000F04D3824940F2B1207C
:10B0A00014F03CFAC5F84085D5F804357C487E4E4E
:10B0B000DFF8189223F00303C5F80435D5F8003201
:10B0C00043F00103C5F800324FF4A07100F09AFE7E
:10B0D0004FF4A2717248754D00F094FE4FF4A471C4
:10B0E0006F4800F08FFE4FF4A6716D4800F08AFEA5
:10B0F0000C23A3756E4BC6F87035A3F504533C3B87
:10B10000C6F8743503F540530433C6F84039A37DBF
:10B110004FF0010808FA03F3C6F80435C9F80080B7
:10B12000D5F8083543F00303C5F808356279C8231C
:10B13000B3FBF2F303EB8303C5F84035D5F80435D0
:10B1400023F0030343EA0803C5F804354FF4A07164
:10B15000284600F057FE4FF4A271284600F052FE38
:10B160004FF4A471284600F04DFE4FF4A671284616
:10B1700000F048FED5F800324E4843F48073C5F81D
:10B1800000320023E376C6F80038E37EA27D9B0000
:10B1900003F1804303F5F833D3F800180A43C3F8EA
:10B1A0000028E37EE27D9B0003F1804303F5F83342
:10B1B000D3F800180A43C3F80028E37E227E9B00E0
:10B1C00003F1804303F5F833D3F800180A43C3F8BA
:10B1D00000280E236376384BC6F8803503F5A73375
:10B1E000C433C6F88435637E08FA03F3C6F8043521
:10B1F0000F232376314BC6F888056022C6F88C955C
:10B20000C6F84C5983F80A2393F80A235109EC2213
:10B210000A4112F0010F064606D0294A916859BB2F
:10B220004FF480621A6005E0264AD92142F20200FA
:10B2300014F009F94FF48033C5F804330D23E37596
:10B24000194B214AC3F878653946C3F87C25204656
:10B2500000F03EF818B11B4AED2114F0F4F8A61DD9
:10B2600000256379AB420CDD3246E9B2204600F09E
:10B27000B3F801350636F4E7136843F480631360CE
:10B28000D8E7114B0122C3F80025204600F056F8FC
:10B29000204602F019FC0020BDE8F8830C90004025
:10B2A00000900040590E050000F0014000A0004051
:10B2B000409100400471004040A1004000E100E0E6
:10B2C00088750020AE0E0500007000400CA0004004
:10B2D00010B5174C00230222C4F80035C4F8F0253D
:10B2E000C4F8F435C4F8F8356FF00043C4F80833F7
:10B2F0004FF4827000F07AFD0E4B4022802083F8DC
:10B300000723C3F8800193F807235109EC220A416F
:10B31000D20705D5084A916839B113680343136011
:10B320000223C4F80433002010BD1860F8E700BF02
:10B330000070004000E100E088750020F7B5456B23
:10B34000044615B1262003B0F0BD0121008F24F082
:10B350005FFA60630028F5D0276A65874FF6FF76AD
:10B360000125E66384F84050002FEBD12946A08CDC
:10B3700024F04EFA20620028E4D084F82C50E784B0
:10B38000A662FFF7D9FD90F8243005467BB9061F69
:10B3900000F120074FF4C87024F08EFA0028D1D0B5
:10B3A00046F8040FB742F5D1012385F82430FFF7A2
:10B3B000C3FD00238DF807301C340DF10701204632
:10B3C00000F000FC9DF807300133DBB2082B8DF84C
:10B3D0000730F2D90020B6E72DE9F8431378072BA0
:10B3E00081460D46904604D9642B02D001200EF010
:10B3F0009BF898F80530083BDBB2F62B02D8012009
:10B400000EF092F8D8F80140962C35D9B4F5967F15
:10B4100034D9B4F5167F33D9B4F5966F32D9B4F573
:10B42000E16F31D9B4F5166F30D940F6B8339C428C
:10B430008CBF0024012498F80510FF2928D0484625
:10B4400000F082FB0126074698F80010484600F0FD
:10B450007BFB2B01360503F1804303F5E04346EA0D
:10B46000042444F40034C3F81845C3F81475C3F831
:10B4700010050020BDE8F8830724DCE70624DAE79E
:10B480000524D8E70424D6E70324D4E70224D2E72E
:10B4900000273E46D8E7016570470000F8B590F8F0
:10B4A00045300446002B4AD0002380F8453000F098
:10B4B0005DFAE37D224A2348012505FA03F3C2F829
:10B4C0000835237E05FA03F3C2F808351E4B1D60CC
:10B4D000A3F580534FF4A0711D6000F093FC1B4B4B
:10B4E0001D6094F8463083B904F1300704F11C065E
:10B4F000E38FDBB1616B658F38460D4400F0A5FB2F
:10B500002946304600F077FBF2E7022384F8463004
:10B510004FF48A7000F06AFC0D4B2022C3F804231C
:10B520009D6094F84630002BFBD1DDE74FF482702C
:10B5300000F05CFC2046BDE8F84000F02BBAF8BDF6
:10B5400000F001400090004004A000400C9000403A
:10B550000070004010B590F84530012B044615D01E
:10B5600000F004FA204600F015FA134BD3F800243B
:10B57000D3F83436237913B1204600F01BF9204666
:10B5800000F022F818B1022384F8453010BDE27DA6
:10B590000A4940F20113A4F84430012303FA02F2ED
:10B5A000C1F80425064A1360227E03FA02F2C1F8AC
:10B5B0000425044A1360E9E70070004000F00140F0
:10B5C0000CA000400090004038B5044600F0CEF9D1
:10B5D000204600F007F80546204600F0DBF9284633
:10B5E00038BD000038B590F84630022B04460CD028
:10B5F00000F11C05638D6BB9E28F238F9A4219D13C
:10B600000D4B01221A60002003E00B4B01221A604F
:10B61000282038BDE38C226A2046D15C00F00EF869
:10B620002628E9D0292801D00028F2D1284600F0A8
:10B630000CFBDFE72520ECE704A0004038B504460A
:10B640000D4600F093F92946204600F007F805461C
:10B65000204600F09FF9284638BD00002DE9F3414F
:10B66000C38F8DF80710012B054643D800F1300633
:10B670000DF10701304600F0CFFA4FF6FF73984204
:10B680003AD1FFF759FC9DF8073050F8238095F820
:10B69000463003F0FF04C3B1012C2FD10DF1070197
:10B6A000304600F08FFA164A1368002BFCD04FF496
:10B6B000807000F09BFB134BC822C3F82C8600203F
:10B6C000C3F8302602B0BDE8F081012785F8467046
:10B6D0000DF107010B4D304600F074FAC823C5F890
:10B6E0002C864FF48070C5F8303600F07FFB2F6059
:10B6F0002046E7E72620E5E72920E3E72820E1E7E1
:10B70000007100400070004013B504468DF807102A
:10B7100000F02CF99DF807302344002283F84720DD
:10B720000DF1070104F11C0000F065FA204600F05D
:10B7300031F994F84530022B02D12046FFF70AFF79
:10B7400002B010BD41657047072998BF0C4B426697
:10B7500098BF33F8113080F8581088BF4FF4AA739F
:10B760000729A0F85A3096BF064B4FF4A87333F858
:10B770001130A0F85C30012380F85E3000F05AB838
:10B78000540F0500640F050043798B420FD901EB7C
:10B79000410100EB410113788B71D2F80130C1F8FF
:10B7A00007305379CB72012303710020704760206A
:10B7B000704700001A4B70B500240546C3F80045D9
:10B7C000861D6B79A34207DD3246E1B22846FFF7BA
:10B7D00003FE01340636F4E7114B124C0122C3F884
:10B7E000002500232B712378BFF35B8FDB070ED47A
:10B7F000204622F067F950B10B480DF0EFFB2046D0
:10B8000022F06CF9094A0A49074822F0FAF96A1D40
:10B8100011234CF2B4310448BDE870400DF099BCDE
:10B8200000700040242700200827002080230020EB
:10B830002F84020070B5164D90F85810B0F964309E
:10B8400005EB01111B0443F47843C1F81C3590F853
:10B850005860072E044604D90E4940F2B92013F06F
:10B860005DFE7600802303FA06F6C5F8086394F8B7
:10B870005840072C04D9074940F2B92013F04EFE76
:10B880004023640003FA04F4014BC3F8044370BD81
:10B8900000700040FE0E050070B5174D90F858106E
:10B8A000B0F8643005EB011143F07F6343F470237B
:10B8B000C1F81C3590F85860072E044604D90F498A
:10B8C00040F2B92013F02AFE7600802303FA06F630
:10B8D000C5F8046394F85840072C04D9074940F28E
:10B8E000B92013F01BFE4023640003FA04F4024B5A
:10B8F000C3F8084370BD00BF00700040FE0E050095
:10B90000704710B50446FFF7C9FD2046BDE810405A
:10B91000FFF720BE30B5036D89B004460D460BB36A
:10B9200090F84430B3B140F27F13ADF8003070228C
:10B93000002368460193ADF80830ADF80A308DF861
:10B940000C30ADF810200593ADF81830ADF81C3070
:10B9500002F056F8002384F844302846236D9847B7
:10B9600009B030BDFFF7D0FEFAE7000010B5836ED6
:10B97000632B044602DD01200DF0D6FDA36E13B942
:10B98000034AC2F80833A36E0133A36610BD00BF9B
:10B990000070004010B5836E013B002B04468366A7
:10B9A00002DA01200DF0C0FDA36E13B9014AC2F8FE
:10B9B000043310BD00700040002108B5064A084657
:10B9C00013F088FC30B1054A40F26731BDE8084009
:10B9D00013F039BD08BD00BFD5AF0200AE0E0500A3
:10B9E000F7B5444B1B680446002B58D04FF48270C7
:10B9F00000F0FCF994F84650EDB2012D0ED1E18F24
:10BA000071B9022384F846303B4A084613F062FCC1
:10BA100020B13A4A40F2853113F015FD03B0F0BD74
:10BA2000668F676B04F1300000F00FF9BB5D344A9C
:10BA30008DF8073029460DF1070013F04BFC20B1BB
:10BA40002E4A4FF4637113F0FEFC2E4BD3F83436BC
:10BA50009DF807302344012583F84750E68FC6B987
:10BA6000294B2A481D604FF4A07100F0CBF9284BF8
:10BA7000214A1D60022384F846303146304613F0D7
:10BA800029FC0028CAD01D4A4FF4687113F0DBFC72
:10BA9000C4E72379002BC1D12046FFF7A3FD1D4B3E
:10BAA0001B683BB14FF48A7000F0A0F9002384F8C2
:10BAB0004630B3E794F85E30002BAFD0B4F85A00AC
:10BAC00000F1804303F5E0431B6823B100F08EF9D9
:10BAD0002046FFF7AFFEB4F85C0000F1804303F5A9
