:020000022000DC
:1060000000F70020993C0400C13C0400C15B04007F
:10601000C53C0400C73C0400C93C0400000000006B
:10602000000000000000000000000000CB3C040065
:10603000CD3C040000000000CF3C0400D13C040033
:10604000D33C0400D33C040075EB0200D33C0400B5
:10605000D33C0400D33C0400D33C040069D70200C5
:10606000D33C04007BD70200D33C0400D33C0400A3
:10607000D33C0400D33C0400D33C0400D33C0400D4
:10608000D33C0400953B05000D750400D562040067
:10609000813C0500D33C0400ED600400D33C0400C7
:1060A000D33C0400D33C0400F9BF040009E702001C
:1060B000D33C0400D33C04000000000000000000BA
:1060C000D33C0400D33C0400D33C0400D33C040084
:1060D000D33C0400D33C0400D33C04000000000087
:1060E00000000000000000000000000000000000B0
:1060F00000000000000000000000000000000000A0
:10610000000000000000000000000000000000008F
:10611000000000000000000000000000000000007F
:10612000000000000000000000000000000000006F
:10613000000000000000000000000000000000005F
:10614000000000000000000000000000000000004F
:10615000000000000000000000000000000000003F
:10616000000000000000000000000000000000002F
:10617000000000000000000000000000000000001F
:10618000000000000000000000000000000000000F
:1061900000000000000000000000000000000000FF
:1061A00000000000000000000000000000000000EF
:1061B00000000000000000000000000000000000DF
:1061C00000000000000000000000000000000000CF
:1061D00000000000000000000000000000000000BF
:1061E00000000000000000000000000000000000AF
:1061F000000000000000000000000000000000009F
:1062000010B5054C237833B9044B13B10448AFF3F0
:1062100000800123237010BD002B0020000000002F
:1062200004A9050008B5034B1BB103490348AFF3AC
:10623000008008BD00000000042B002004A9050018
:10624000154B002B08BF134B9D46A3F5803A002148
:106250008B460F461348144A121A30F0AFF80F4B12
:10626000002B00D098470E4B002B00D09847002001
:10627000002104000D000D48002802D00C482FF02A
:10628000FCFF30F031F8200029001DF0C5FB30F094
:1062900017F800BF0000080000F700200000000011
:1062A00000000000002B00209C8900207B6205007C
:1062B00000000000FF20704700207047002070475A
:1062C0000E2070477047704710B5182104462EF015
:1062D000D5F9204610BDF8B50B680446DB680846C2
:1062E0000E4698470023C4E90033A3600546B0B1C9
:1062F0002EF00CF903465F19C4E90033A7602DB1F5
:1063000018462A46002130F059F803466760326883
:106310001946976830462A46B8472046F8BD0346D6
:10632000E9E7407970470831034603C983E8030071
:10633000184670471031034603C983E80300184626
:10634000704710B50C46002C0AD001DA6442FAE717
:10635000002806DA21464042FFF7F3FF00B1201A79
:1063600010BD90FBF4F304FB1300F9E72DE9F04FA7
:1063700000F108090E46824699E8030087B00DF146
:10638000080888E80300404616F09FFE0AF110074F
:10639000009097E8030004AC84E80300204616F060
:1063A00094FE072101903248B6FBF0F00430B0FBB8
:1063B000F1F5C5EBC505401B012585404FF0FF30C9
:1063C000FFF7BFFF05FA00F05FFA85FB10F07F05CD
:1063D00008BFC0F3C61532464FF00001204618BF73
:1063E000EDB216F03AFE204616F06FFEDDE90032FF
:1063F0009342064621D397E8030084E80300204631
:1064000016F063FEB04208D99AF807301D4214BF57
:106410000120002007B0BDE8F08F99E8030084E870
:106420000300204616F051FEB04201D90020F1E7EA
:106430009AF807301BEA030FE9E79AF807301BEADE
:10644000030FF3D099E8030088E80300404616F0F4
:106450003CFEB042EAD897E8030084E803002046F7
:1064600016F033FEB04294BF00200120D2E700BFF7
:106470008051010010B50C1A134605D00146224682
:1064800018462FF081FF0346181910BD7FB5054649
:106490000B798DF8083002A80C4618F05DFE2A46EC
:1064A0000DF105018DF8040001A8FFF7E3FF064692
:1064B000601D18F051FE32460DF109018DF80800FB
:1064C00002A8FFF7D7FF0646A01D18F045FE32468A
:1064D0000DF109018DF8080002A8FFF7CBFF064671
:1064E000E01D18F039FE32468DF808000DF1090163
:1064F00002A8FFF7BFFF04F10801064602A816F044
:1065000075FD32460DF10D0102A8FFF7B3FF04F14E
:106510001001064602A816F069FD32460DF10D0184
:1065200002A8FFF7A7FF284604B070BD0D2A1FB5CB
:106530000C460BD901466846FFF7A8FF22460DF12D
:106540000E016846FFF796FF04B010BD0020FBE780
:1065500084B02DE9F04786B00FAD044685E80E0003
:106560002846012118F0EEFD012182460DF13D0083
:1065700018F0E8FD012181460DF13E0018F0E2FD22
:10658000012180460DF13F0018F0DCFD04AE074606
:1065900032460DF14501281DFFF76CFF6D4696E868
:1065A000060002A816F061FD2A460DF14A010DF120
:1065B0004500FFF75FFF95E80600304616F055FDF1
:1065C0009DF808209DF810300A4922722374039A1E
:1065D000059B2160204684F804A084F8059084F887
:1065E0000680E771E260636106B0BDE8F04704B081
:1065F000704700BFD06E0500704710B50C210446EF
:106600002EF03CF8204610BD70B50846154611B96D
:106610000024204670BD00230A4A0B492DF097FF45
:1066200004460028F4D02946FFF7A0FE0028EFD04A
:10663000236829461E6A2046DDE90423B047002866
:10664000E7D1E5E7C46F0500B46E05002DE9F04F12
:106650009946037A85B082460F46904600256BB96D
:106660008DF80D509DF80C30002063F307009DF865
:106670000D3063F30F2005B0BDE8F08F0029EFD097
:106680002C46CDE900891A4B3A46E9585046FFF7A7
:10669000BBFF06462CB370B10146204600F0D5FE84
:1066A000B0B13046FFF73DFE83462046FFF739FE86
:1066B000834538BF34460435C82DE2D19CB120460D
:1066C000FFF72FFE01238DF80C008DF80D30C9E780
:1066D00021463A46304600F021FF002818BF3446D4
:1066E000E9E70446E7E74FF48073ADF80C30B9E70B
:1066F000582B002030B5037A85B004462BB9C279F7
:1067000002B1C371012005B030BD16F045FA05464F
:1067100068460CF06FF99DF80830002BF2D0DDE9E7
:10672000002329462046FFF791FFE080EAE70000BA
:106730002DE9F04F4C69BDB082460F4624B91023B5
:106740003B823DB0BDE8F08F0B8B702B01D812233C
:10675000F6E716F021FA804606A80CF04BF9964BA6
:10676000C4F800804FF4E142CDE90423934D2B7827
:10677000BFF35B8FD9070ED428462DF0D7FE50B15A
:106780008F4812F0F5FF28462DF0DCFE8D4A8E4929
:106790008B482DF06EFF0823952104AA884813F03A
:1067A0004FFB049B6360059BA3609AF80830237439
:1067B00000210B46881D04EBC000013108294370FD
:1067C0008370C370037143718371C3710372F1D11C
:1067D0009DF82090B9F1000F00F0EA80DDE9062372
:1067E00004F1110604F119054FF0000BC4F835301F
:1067F000C4F8312084F811B0C82286F801B086F8B8
:1068000002B086F803B086F804B086F805B086F8C2
:1068100006B086F807B06D4984F819B00AA885F863
:1068200001B085F802B085F803B085F804B085F8AA
:1068300005B085F806B085F807B084F821B084F873
:1068400022B084F823B084F824B084F825B084F80A
:1068500026B084F827B084F828B084F829B084F8EA
:106860002AB084F82BB084F82CB084F82DB084F8CA
:106870002EB084F82FB084F830B02FF077FD0AAB3B
:10688000019318465B4650F8042B72B10122D4F8EC
:1068900011E0D4F815109A404FEAE27C4EEA020E5D
:1068A00062461143C6F800E071600133322BEAD131
:1068B0009AF80830002B77D0B8F1000F74D0B9F1F6
:1068C000000F71D00026019B53F8049B0193B9F18E
:1068D000000F66D000233E4A3E4948462DF037FE61
:1068E000824668B303684146D3F820B0DDE9062349
:1068F000D84728B34FF0010B0BFA06FB5A46D317C3
:10690000D4F81900D4F81D10CDE90223039B40EA06
:106910000B020B432A606B60504600F066FF0028B4
:1069200008BF4FF0000BD4F82900D4F82D105A46B8
:10693000D31740EA0B0B0B43C4F829B0C4F82D3031
:106940000023254A234948462DF001FE80B190F8E6
:1069500060300BB10123B340D4F821C0D4F8252016
:10696000D9170A434CEA0303C4F82130C4F82520A0
:1069700000231A4A174948462DF0E9FD88B14146DF
:10698000FFF7F4FC68B10123D4F819C0D4F81D2036
:10699000B340D9170A434CEA0303C4F81930C4F8CA
:1069A0001D200136322E8ED17123BB830023C7E612
:1069B0004A464B4614E700BF300B01001C2B002059
:1069C000202B0020002A002001970300582B0020D4
:1069D000C46F0500B46E0500706F050010700500EF
:1069E00030B40B8840F2AF15AB42024618D0B3F575
:1069F000D87F03D2962B0DD030BC704740F2B11136
:106A00008B4203D040F2C1118B42F5D1104630BC0D
:106A1000FFF770BE4B681B78C3F300030372F6E701
:106A200030BCFFF785BEC3888380DAB2002062F3F2
:106A300007001B0A82B063F30F2002B0704700000A
:106A400070B50B4D0E46322455F8040B18B9013CB5
:106A5000FAD120460BE003689B6998470028F6D0DE
:106A6000314655F8040CFFF781FC0028EFD070BDCB
:106A7000582B002010B50B4C2378BFF35B8FDB073E
:106A80000ED420462DF052FD50B1074812F070FE92
:106A900020462DF057FD054A054903482DF0E9FD34
:106AA000014810BD1C2B0020202B0020002A0020B4
:106AB00001970300F8B54B681D78312D0C4603D8BB
:106AC000164E56F8250010B925232382F8BD036819
:106AD0001B69984763690BB91023F6E756F8250040
:106AE000278B0368DB6898470130874201D2122365
:106AF000EBE756F825000368DB68984763690130C7
:106B0000A0831D7056F82500228B61690368013A45
:106B10009B68013198470023D7E700BF582B00201E
:106B20002DE9FF474B690C4623B91023238204B09B
:106B3000BDE8F0870B8BF92B01D81223F6E700256F
:106B4000DFF850802E4658F8043BE3B163695E5588
:106B500001A858F8041CFFF7BEFB58F8040CDDF838
:106B600004A00368DB689847002201465046D4F829
:106B7000149018F075FA6F1C49F80700019808B1D5
:106B80002DF0E3FC05350136F6B2322EDBD1A583BC
:106B90000023CBE7582B002000B589B040F2B11399
:106BA000ADF800307022002368460193ADF808303C
:106BB000ADF80A308DF80C30ADF810200593ADF823
:106BC0001830ADF81C3009F05FFA09B05DF804FB2D
:106BD0007FB50024194D8DF803409DF80330312B0B
:106BE00028D855F82330FBB1224601210DF10300CE
:106BF00018F036FA9DF80330064655F8231001A820
:106C0000FFF769FB9DF80330019C55F823000368EA
:106C1000DB68984732460146204618F021FA0446C0
:106C2000019808B12DF091FC9DF8033001338DF8E7
:106C30000330D2E7204604B070BD00BF582B0020BF
:106C400073B50C461E461546FFF7C2FF0190FFF7CD
:106C500011FF04230DEB0302992113F0C3FB3368EA
:106C6000228901339A4204D020232382002002B0DB
:106C700070BD312D01D92123F7E70120F7E707B5D2
:106C8000FFF7A6FF0190FFF7F5FE04230DEB0302CB
:106C9000992113F0A7FB03B05DF804FB3129F7B588
:106CA00007460C4631D81A4D55F82100B8B1036893
:106CB0005B699847064655F8240010B103685B6885
:106CC00098470023012E45F8243016D016F0FF0F08
:106CD00007D0022E15D03846FFF7D1FF002003B0B1
:106CE000F0BDFFF7C7FE4523ADF80630224603236B
:106CF0000DF1060113F0C5FBEDE7FFF7BBFE4623E0
:106D0000F2E7FFF7B7FE4723EEE72120E7E700BFF2
:106D1000582B002038B54B681D780C462946FFF7E4
:106D2000BDFF6369208253B1228B042A07D91D70ED
:106D30006569FFF74DFF0523C5F80100A38338BD42
:106D400038B505460024E1B228460134FFF7A6FF16
:106D5000322CF8D138BD000010B5034B0360044657
:106D6000FFF7EEFF204610BD646F050010B5044626
:106D7000FFF7F2FF204604212DF080FC204610BDD5
:106D800010B513460C4629B10A46014618462FF0A5
:106D9000FBFA0346181910BD2DE9F0470B89012BAA
:106DA00092B080460C4604D820230B8212B0BDE876
:106DB000F0874B681D785B78012B5CD023B1022BE8
:106DC00000F09980212346E008AF1B263B462A4667
:106DD0000896FFF735FF00283ED029464046FFF7CA
:106DE0005DFF4020D4F804A02DF090FB2389013BE7
:106DF0001A2B814605D93A4631460AF10100FFF7C0
:106E0000BFFF0BAB0FCB6E4607C626F8023B1B0C31
:106E1000337097E80E00484600F09AFD564B4846FE
:106E200043F8259000F0D2FC63688DF822505A1C7C
:106E30002389CDF823204521013BADF82010ADF882
:106E40002730FFF717FE0322394613F0A3FA404616
:106E5000FFF715FF002323826369002BA6D0228B46
:106E6000042AA3D91D706569FFF7B2FE0523C5F892
:106E70000100A3839AE708AE4FF00E0933462A4675
:106E8000CDF82090FFF7DCFE0028E5D029464046EB
:106E9000FFF704FF1820D4F804A02DF037FB238956
:106EA000013B0D2B074605D9324649460AF1010040
:106EB000FFF766FFBDF82C30ADF8003096E80E0005
:106EC000384600F0A5FD2C4B384643F8257000F0FD
:106ED0007BFD63688DF822505A1C2389CDF823204E
:106EE0004621013BADF82010ADF82730FFF7C2FD79
:106EF00003223146A9E70DF1200928264B462A46F0
:106F00000896FFF79DFE0028A6D029464046FFF7C9
:106F1000C5FE702067682DF0F9FA2389013B272B05
:106F2000824604D94A463146781CFFF729FF0BAF49
:106F30000FCF6E460FC697E8070086E80700504659
:106F400099E80E0000F0F4FB0B4B504643F825A0E7
:106F500000F052FB63688DF822505A1C2389CDF84B
:106F600023204721013BADF82010ADF82730FFF773
:106F700081FD0322494668E7582B00202DE9F04F98
:106F800091B002AF894600238246BB60FFF772FDD5
:106F900007F10802494613F0BEF8002842D1BB6849
:106FA000224ED3E90053EB463B6007F118083B68DB
:106FB0009D4233D015F8014B312CF8D80E23FB74C9
:106FC0000023A7F80C90BC73C7F80F803B75FFF740
:106FD00051FD032207F10C0112F0ADFE0028E6D1AD
:106FE00056F8240010B103685B68984718202DF00C
:106FF0008DFA07F128031A4678600E214046FFF704
:10700000BFFEBA8EADF8002007F128030ECB7868DA
:1070100000F0FEFC7B6846F82430C8E75046FFF7D6
:107020002EFEDD463C37BD46BDE8F08F582B0020D4
:107030002DE9F04F9BB008AF8B46002378603B6191
:10704000FFF718FD07F11002594613F064F8002805
:107050004ED13B69C7F80CD0D3E900638AB0DFF8A2
:107060009880BB600DF1200A3860BB689E423AD020
:1070700016F8014B312CF8D84FF02803FB763B680B
:10708000A7F814B0BC75C7F817A03B77FFF7F2FC60
:10709000032207F1140112F04EFE0028E5D158F842
:1070A000240010B103685B68984770202DF02EFA19
:1070B00007F1200581462A4628215046FFF760FE49
:1070C00007F12C0EBEE80F00EC46ACE80F009EE87E
:1070D00007008CE80700484695E80E0000F028FB02
:1070E00048F82490C1E77868FFF7C9FDD7F80CD0BD
:1070F0004C37BD46BDE8F08F582B00202DE9F04FEE
:1071000095B004AF8B46002378607B61FFF7B2FC3B
:1071100007F11402594612F0FEFF002850D17B6996
:10712000C7F80CD0D3E9006388B0DFF89C80BB605F
:107130000DF1100A3860BB689E423CD016F8014B36
:10714000312CF8D84FF01B03FB773B68A7F818B039
:10715000BC76C7F81BA087F82030FFF78BFC032212
:1071600007F1180112F0E7FD0028E4D158F82400D7
:1071700010B103685B68984740202DF0C7F907F10C
:10718000240581462A461B215046FFF7F9FD07F1E9
:10719000400313E90F00EC46ACE807002CF8023B73
:1071A0001B0C8CF8003095E80E00484600F0D0FB30
:1071B00048F82490BFE77868FFF761FDD7F80CD056
:1071C0004437BD46BDE8F08F582B002010B545214F
:1071D0000446FFF793FF20464621FFF7CFFE4721E5
:1071E0002046FFF725FF10BD2DE9F04F814695B0F1
:1071F0000E469A461546002A00F0AE800A78574996
:10720000002351F8044B0993DFB20133002CF8D16D
:10721000012A46D04FFA82FBBBF1000F05D0022AAB
:1072200074D0212015B0BDE8F08F1B2D40F0948064
:1072300040202DF06BF90DF12808044642462946FE
:107240003046FFF79DFD0DAB0FCBEC46ACE80700D9
:107250002CF8023B1B0C8CF8003098E80E002046FE
:1072600000F076FB099A3D4B204643F8224000F09F
:10727000ADFA4523ADF828308DF82A70CDF82B6093
:107280008DF82F508DF830B0FFF7F4FB0322414604
:1072900013F080F848468AF80070FFF7F0FC584673
:1072A000C0E70E2D58D118202DF030F90DF1280827
:1072B0008346424629463046FFF762FDBDF834302A
:1072C000ADF8003098E80E00584600F0A1FB234BC3
:1072D000099A584643F822B000F076FB4623ADF8F1
:1072E00028308DF82A70CDF82B608DF82F508DF84E
:1072F0003040FFF7BFFB0322414613F04BF84846EE
:107300008AF80070FFF7BBFC20468BE7282D23D1BD
:1073100070202DF0FBF80DF12808834642462946DF
:107320003046FFF72DFD0DF1340EBEE80F00EC46A0
:10733000ACE80F009EE807008CE80700584698E884
:107340000E0000F0F5F9054B099A584643F822B0B3
:1073500000F052F94723C2E7202063E7582B0020B2
:107360002DE9FF414FF6FF73DFF88C800B82074653
:107370000C468DF80330002558F8040B58B3036809
:107380002689DB689847864225D1666858F8041C30
:1073900001A8FEF7A0FF3046228901992EF0D8FF00
:1073A0000646019808B12DF0D0F8A6B98DF8035023
:1073B0002682636963B1228B042A09D99DF80320D0
:1073C0001A706569FFF704FC0523C5F80100A38363
:1073D00004B0BDE8F0810135EDB2322DCCD1238A65
:1073E000002BE6D00DF10303228961683846FFF7D0
:1073F000FBFE2082DDE700BF582B00200B88A3F5A1
:10740000D57310B50446062B1ED8DFE803F0040B35
:107410000E11151D1900FFF7A3FF2046BDE810400F
:10742000FFF7BABBFFF7B8FCF7E7FFF773FCF4E729
:10743000BDE81040FFF73EBBBDE81040FFF770BB52
:10744000BDE81040FFF77CBC10BD70B50D4688B09C
:10745000044610B9002008B070BD0029FAD00146DA
:107460006846FEF760FF684615F02FFE294606467F
:1074700002A8FEF758FF02A815F027FE8642E9D1C0
:10748000214604A8FEF756FF04A815F01EFE294663
:10749000044606A8FEF74EFF06A815F016FE231AAE
:1074A00058425841D7E710B50C4631B1002805DAEB
:1074B0004042FFF7F8FF00B1201A10BDB0FBF1F316
:1074C00001FB1300F9E700002DE9F041069D0C4691
:1074D000401B114916469846FFF7E5FF0E4907463F
:1074E000701BFFF7E0FF0C490646601BFFF7DBFF50
:1074F00009490446A8EB0500FFF7D5FFB74206D8B7
:1075000007D184428CBF00200120BDE8F08101201A
:10751000FBE70020F9E700BF805101002DE9F041B1
:107520008CB00C460546014602A89046FEF7FBFECD
:1075300002A815F0CAFD2946064604A8FEF7FAFE81
:1075400004A815F0C2FD2146054606A8FEF7EBFE8D
:1075500006A815F0BAFD2146074608A8FEF7EAFE80
:1075600008A815F0B2FD4246044600210AA815F00D
:1075700074FD0AA815F0A9FD234600903A46294655
:107580003046FFF7A1FF0CB0BDE8F0810220704744
:1075900028207047704710B5702104462DF06EF812
:1075A000204610BD90F8603013B120300BF05DB96B
:1075B0004830FBE790F8603013B120300BF05CB935
:1075C0004830FBE770B506460C46154662B92A46B8
:1075D0002146304600F0A8F90022014606F140009D
:1075E000BDE870400BF0F4B821B10368DB68984740
:1075F000A842ECD9204670BD13B5044600F0E6F869
:1076000094F8683023B1626E0021684615F025FDBC
:1076100002B010BDF8B5044616461F46FEF7A6FE9A
:1076200048B132463B46204600F0F8F8054684F85B
:1076300060002846F8BD94F860300BB90025F8E7E3
:1076400032463B4604F140000BF074F8054650B159
:1076500015F0A2FA94F868306066002BE9D1012396
:1076600084F86830E5E794F868607EB115F086FA32
:10767000A36D626EC31A984205D9934206D8904210
:1076800004D93546D5E79342FBD9F8E794F868204A
:10769000002384F86030002AD0D0E1E7F0B54B79C0
:1076A00043711746CB88C38001F1080204460D469A
:1076B00000F1080392E8030005F1100283E80300DB
:1076C00092E8030004F1100383E8030005F12003AE
:1076D0000FCBDFF858C0C4F818C004F1200686E8C4
:1076E0000F00383555F8083C236395E8030004F192
:1076F000380383E803000C4B236007F10803C4F848
:1077000040C00FCB04F1480585E80F00BB69A365B5
:107710000023C4E9193384F8603084F86830022308
:1077200023712046F0BD00BFA06F05008C830500CB
:1077300084B0F0B5A1B0064627A880E80E0008AADC
:1077400003462DAF154618685968144603C408331C
:10775000BB422246F7D119889B78A37021800BABDE
:107760000FCB6C4607C424F8023B1B0C237095E832
:107770000E0010A800F0ECF804AA0DF1B7030DF10B
:10778000BF0C174618685968144603C4083363458C
:107790002246F7D1186820601B7923719DF81C30B0
:1077A0008DF8003097E80E0028460AF0C7FF2A46F9
:1077B00010A93046FFF772FF304621B0BDE8F04017
:1077C00004B07047002070471B2070477047704717
:1077D00020300BF04AB820300BF04EB810B54021E5
:1077E00004462CF04BFF204610BD38B590F83C40C5
:1077F00005467CB115F06CF82B6BAA6BC31A984246
:1078000006D9934208D8904234BF0024012401E0F5
:107810009342F8D8204638BD0024FBE7F8B51F4650
:1078200003689B6904461646984798B1236820462A
:107830009B69984748B332463B4604F118000AF06A
:1078400079FF054678B115F043F80123A06384F869
:107850003C3006E023682046DB6998470028E5D1E4
:1078600001252846F8BD94F83C300BB90025F8E70F
:107870002046FFF7BAFF05460028F1D194F83C30C6
:10788000002BF3D084F83C00EBE723682046DB694B
:1078900098470028E4D032463B4604F118000AF02D
:1078A00049FF054628B915F013F80123A06384F8B1
:1078B0003C3094F83C30002BD3D02046FFF795FFA6
:1078C0000028D3D194F83C50002DC9D084F83C0056
:1078D000C7E7D0B5044616461F46FEF747FD30B150
:1078E00032463B462046BDE8D040FFF797BFD0BDAB
:1078F00030B585B0044668460D46FEF7C7FD224602
:107900000DF10E016846FEF7B5FD05F11801684658
:107910000AF042FF04F10E020DF10D016846FEF778
:10792000A9FD204605B030BD10B51A2A88B00C4616
:107930000BD9014601A8FFF7DBFF22460DF11F011D
:1079400001A8FEF797FD08B010BD0020FBE700007E
:1079500084B070B586B0054602AC0BA880E80E0076
:1079600022460DF13A01FEF785FDBDF81430ADF861
:10797000003094E80E002E462846FEF7E9FD0F4B36
:1079800046F8183B22460DF147010DF13A00FEF78B
:1079900071FD9DF814308DF8003094E80E003046EB
:1079A0000AF0CCFE00232846C5E90E3385F83C30AA
:1079B00006B0BDE8704004B0704700BFEC6F050032
:1079C000012070470E2070477047704710B518218E
:1079D00004462CF053FE204610BDF0B5036885B078
:1079E000DB68174606460C469847B84205460CD851
:1079F00031466846FEF74AFD25B12A4669462046CB
:107A00002EF0B4FC601905B0F0BD0020FBE70000CB
:107A100084B037B507AC84E80E00BDF82830ADF867
:107A2000003094E80E000546FEF792FD034B2B60F4
:107A3000284603B0BDE8304004B0704738700500F8
:107A4000704710B5082104462CF018FE204610BDE2
:107A50002DE9F04F837987B0894673B900238DF8FB
:107A600011309DF81030002063F307009DF81130AD
:107A700063F30F2007B0BDE8F08F0029EED00A466F
:107A800004A8002115F0E9FA04A815F01EFB002552
:107A90000390FF24A8462F46234BE85878B30023D1
:107AA000224A23492CF053FD064640B34946FEF7CF
:107AB0005DFC20B3314604A8FEF735FC04A815F0A0
:107AC00004FB3146824604A8FEF734FC04A815F0F6
:107AD000FCFAFF2C834608D1BA451AD03046FEF78F
:107AE00020FCD8460446574609E0039B0093014614
:107AF00043463A465046FFF7E7FC0028ECD10435F0
:107B0000C82DC9D1FF2C08BF64248DF81040012373
:107B1000A5E7C345E2D13046FEF703FC844228BF07
:107B20000446E4B2EBE700BF582B002010700500BC
:107B3000B46E050013B5044615F02EF80146204634
:107B4000FFF786FF6379ADF80400C0F30720984281
:107B50000CD12BB123799DF804001B1A18BF012307
:107B6000BDF80420A280184602B010BD0123F7E73B
:107B70000B8810B440F2B114A34202460BD040F27D
:107B8000C114A34207D0962B0AD14B681B78C3F3CC
:107B90000003837100E010465DF8044BFFF7CABF95
:107BA0005DF8044B704783880020DAB262F3070067
:107BB0001B0A82B063F30F2002B0704770B5114EFC
:107BC0003478BFF35B8F14F0010418D130462CF0E9
:107BD000ADFCA0B10C4D0D4B2B6030462C71C5E9AE
:107BE00002442C82AC74C5E90544AC8385F8284076
:107BF0002CF0A8FC064A074928462CF03AFD02481A
:107C000070BD00BFC02C0020942C0020689505009A
:107C1000002A00204B830200274B2DE9F04100256C
:107C200003604FF07F43C0E90153244E0573A02346
:107C3000C381012700F15003044605854564836430
:107C400080F82A7000F14808304600F0ABFB4FF096
:107C5000000332183146404600F0E6FAC4E93755D1
:107C6000C4E93955A4F8D850154D84F8FC702B7828
:107C7000BFF35B8FDB070ED428462CF057FC50B1C6
:107C8000104803F02FF928462CF05CFC0E4A0F49EF
:107C90000C482CF0EEFC0B4B636000232046C4F82C
:107CA000EC30A4F8F030C4F8F430A4F8F83000F068
:107CB00026F82046BDE8F08120720500A671050077
:107CC000902C0020202C0020002A002049AF020028
:107CD00010B5037A04468BB901221146406803F0BF
:107CE00011FA58B101232046237204F1480100F033
:107CF00027F82046BDE8104008F038BA10BD038AC6
:107D000003F47C4343F001034FF4807203828284C6
:107D10000023C2894361826183837047A1F12003FC
:107D20009BB243F6E072934210B508D8C181FFF7C9
:107D3000E6FF037A1BB1BDE8104000F06BB910BD3F
:107D40002DE9F04100F148078F4288B004460E4605
:107D50001FD0826C4D6800F150039A4214BF016D30
:107D60000F218D420BD902A8029500F0F7FA804648
:107D7000384600F050FA029BC4F84880236525B1CC
:107D80002A463168A06C00F071FAA36CE564002209
:107D90005A55237AD3B1E56C04AB0293CDB91A4C92
:107DA000204600F0FFFA4FF000032218214602A8F7
:107DB00000F03AFA1123BDF80C2002998DF8043036
:107DC00001A800F0EDFA02A800F025FA08B0BDE81D
:107DD000F081A46C14B90D482CF0CBFF0F2D019548
:107DE00006D9002101A800F0B9FA019B0290049382
:107DF0002A462146029800F039FA019B029A039321
:107E00000021D154D6E700BFA6710500AB71050073
:107E100090F90C308B421AD011F10C0F09D010DC04
:107E200011F1140F05D011F1100F02D011F1280F2C
:107E30000DD1037A017353B1C37AFF2B07D000F041
:107E40002EB80B1DF5D003DC11F1080FF1D07047EF
:107E50000029EED00429FAD1EBE713B50446FEF76A
:107E600009FE01230DF107022A2111F0E9FF9DF916
:107E700007102046FFF7CCFF02B010BD13B5044633
:107E8000FEF7F8FD01230DF107020B2111F0D8FFD9
:107E90009DF907102046FFF7BBFF02B010BD037A23
:107EA0003BB1C17AFF2904D090F90C20012000F0E9
:107EB00075BA704710B5044600F005F82046BDE8D5
:107EC000104000F0D7B82DE9F04104464164154652
:107ED000002A44D100F160063C22002130462EF0F9
:107EE0006DFA002D3ED14FF4C06373804FF003084C
:107EF00004F138070C22002138462EF05FFA4CF2CC
:107F000001032387606C02F0CDFA2064606C02F0FC
:107F1000CBFA0122A087B76286F82C2094F83C3077
:107F20003270063358FA83F3DBB21F2B98BFC3F1CC
:107F30001F0394F84C2094BFDBB20023934228BF68
:107F4000134603B9337073702946204600F010F8C9
:107F500018B101234DB184F8D930BDE8F08100F1AA
:107F60009C06B9E74FF00008C2E784F8D830F4E780
:107F700010B539B900F1DC04236833B1636863B12B
:107F8000012010BD00F1E404F6E71F2101202EF0CE
:107F90007BF920600028F1D1F3E71F2101202EF0AA
:107FA00073F96060003018BF0120EAE738B501239B
:107FB0008372037A0446BBB1C57A00F1100200F166
:107FC000EC010B3000F0E4F970B9FF2D02D120462E
:107FD000FFF765FF002384F828300121E07A00F0E4
:107FE000D9F908B90123637238BD10B50023837233
:107FF000037A044623B1C07A00F0CEF900B960726A
:1080000010BD10B50446FFF7F0FF2046BDE8104054
:10801000FFF7CCBF38B5437A04460BB9837A43B334
:10802000237A33B3606803F0F9F894F82A506DB9F5
:10803000002394F82820E2B1B3B10123237484F81B
:1080400029302046BDE83840FFF7DBBF606803F009
:1080500031FB0028ECD194F82930002BE9D1012321
:1080600084F828302B46E4E70522227484F829306E
:10807000E7E738BD38B5037A0446002B41D090F8C5
:10808000FC5090F8D830013505F0010580F8FC501F
:1080900033BB94F8D9307BB138351F2304EB850509
:1080A000A4F8F8306968C4F8F41004F1F80204F197
:1080B0009C001CF087F920BBE37AFF2B07D000223D
:1080C00004F1EC0104F10B0000F062F9C8B9637A25
:1080D000BBB9A37AABB12046BDE83840FFF766BF15
:1080E0001F23A0F8F03005F1360300EB830300F105
:1080F000F0025968C0F8EC1060301CF063F90028F9
:10810000C7D038BD837A002205214272017480F8FD
:1081100029200BB1FFF74ABF7047427A32B10522DE
:108120000274002280F82920FFF76BBF704730B53A
:108130000B8840F20712934289B005460C463BD0AB
:10814000B3F5847F0ED20C2B5DD003D80B2B54D00B
:1081500009B030BD3C2B3ED0B3F5827FF8D1FFF79C
:1081600089FFF5E740F2F112934228D0B3F5F97F89
:1081700019D2B3F5847F1BD040F209129342E7D1A4
:108180004B681B788DF80830002B41D0FFF70EFFAD
:10819000FFF714FD0323009302AA01234CF2503190
:1081A00016F0B5FCD4E70FD040F2F3129342CFD1D2
:1081B0002846FFF72FFFCBE7FFF7A4FFC8E7FFF73D
:1081C000ACFF00232382C3E74B681B88002BBFD082
:1081D000FFF720FFBCE74968228904AB0A440293F9
:1081E00002A84FF0000300F01FF8284602A9FFF78D
:1081F000A7FD02A800F00FF8AAE74B6893F900105A
:10820000FFF706FEA4E74B681988FFF787FD9FE795
:10821000FFF7EBFEBCE7034653F8080B984201D08A
:108220002CF093B97047000073B505460E4619B996
:1082300012B10D482CF09DFD941B0F2C019406D912
:10824000002101A800F08AF8019B2860AB6022465B
:108250003146286800F00AF8019B2A686B6000210B
:10826000D15402B070BD00BFAB710500012A30B41B
:1082700003D10B78037030BC7047002AFBD030BCB0
:108280002EF074B80B680360014B8360704700BF29
:108290002C720500024B83600B680360704700BFBF
:1082A0002C7205000B6803607047704700487047E8
:1082B000C070050010B50446084604492CF0CBFCFC
:1082C000002814BF2046002010BD00BFC07005006C
:1082D0000B680360014B8360704700BF4472050068
:1082E000024B83600B680360704700BF4472050057
:1082F0000B68036070477047004870478C7005003A
:1083000010B50446084604492CF0A5FC002814BF0B
:108310002046002010BD00BF8C70050010B5044B36
:10832000044640F8483BFFF776FF204610BD00BFEB
:108330002072050010B50446FFF7F0FF20464FF409
:1083400080712CF09BF9204610BD704710B52C2190
:1083500004462CF093F9204610BD000008B50368D0
:10836000002B02DA09482CF007FD8B4208D949009E
:108370008B4205D20029B6BF6FF000430160036055
:108380000068BDE8084001302CF0C0B8D571050088
:1083900072DF704773DF704774DF704777DF7047B5
:1083A0007CDF70472EF046B938B50E4C2378BFF30A
:1083B0005B8FDB0705460ED420462CF0B7F850B192
:1083C000094800F017F820462CF0BCF8074A084985
:1083D00005482CF04EF929460348BDE8384000F026
:1083E0004BB900BFB42F0020C42C0020002A00206D
:1083F0009F8C0200064A07490260C16000221721D3
:1084000042600281A0F8DC1280F8DE22704700BFD3
:10841000E07205000000FFFFF8B5002380F8D732B6
:1084200080F8D8324FF6FF730446A0F8DA321C48C1
:108430001BF0DCFD18B11B4A26211DF0D8FC1A4F99
:108440001A4D3E78BFF35B8F16F001060ED1384609
:108450002CF06CF850B138462E60AE80AE712CF026
:1084600071F8134A134928462CF003F92B6813B10D
:108470006360AB882381FEF7FDFA04F538720223AE
:10848000272111F0DDFCFEF7F5FA022304F2E222C7
:10849000282111F0D5FC2046BDE8F84007F066BE63
:1084A000A98302005C720500B02F0020A82F0020D5
:1084B000002A0020C58C02002DE9F04190F8DE3240
:1084C00094B0054688461646002B75D13C4C23785F
:1084D000BFF35B8FD9070ED420462CF027F850B19C
:1084E000384802F0FFFC20462CF02CF8364A374979
:1084F00034482CF0BEF8334803F0DCF800285DD196
:10850000EC894FF6FF739C4258D140F2F11104A858
:1085100000F0E0FB04A807F0B7FDBDF820706FB1D4
:1085200040F2F3110CA800F0D5FB0CA807F0ACFD4D
:10853000BDF82040204614B0BDE8F0810622414637
:108540000DF101002DF012FF9DF8003098F8062083
:108550000E9767F3000362F347038DF80030BDF810
:1085600030301B4A8DF83C7003F0E00343F4827313
:10857000ADF830300A23B6FBF3F3ADF83630B5F87A
:10858000E032ADF83230092EB5F8E232ADF83430D1
:108590009CBF0123ADF836304FF4C803CDE9022368
:1085A0000CA9012302AA684600F084FB0028C1D16F
:1085B000012485F8DE42BDE72724BBE72824B9E77C
:1085C000902C0020202C0020002A002049AF02001F
:1085D0000600100038B590F8DE12054611B12B22C6
:1085E00000F067F9E8894FF6FF74A0420ED013211E
:1085F00000F05EFB082809D043F20203984205D040
:1086000030B9022385F8DE32012038BD0020FCE7B6
:108610002046FAE773B590F8DE3205462BBBC089D9
:108620004FF6FF73984222D00C4601EB8206B4420B
:1086300010D0204603F080F9019001A81BF0EEFC59
:1086400030B104284FF6FF7008BF262002B070BD7D
:108650000434ECE7E98905F110001BF001FD40B995
:10866000032385F8DE320120F0E72720EEE72820FB
:10867000ECE74FF6FF70E9E72DE9F0410F46097886
:10868000012992B052D04CB224B1032954D012B077
:10869000BDE8F08179686846CDE9004403F01CF933
:1086A0000823ADF810304FF4FA76702302A8ADF825
:1086B0000860CDF80CD0ADF812408DF81440ADF83C
:1086C00018300794ADF82040ADF8244007F0DCFCEA
:1086D0004FF012083B7AE5B2AB42D8D908FB0575DA
:1086E0000AA8D5F80E1003F0F7F80A9B0093EB8A5E
:1086F000ADF804302B8BADF806300823ADF83030E0
:10870000702200230AA8ADF82860CDF82CD0ADF86F
:1087100032308DF83430ADF838200F93ADF840305A
:10872000ADF84430013407F0AFFCD3E74FF6FF72E9
:10873000032100F0BEF8AAE7002200F0BAF8A6E78D
:1087400091F8DE321BB100230360838070470B89F0
:108750004A680260B3F5807F28BF4FF4807383803E
:108760007047F0B51E4690F8DE320F4685B00546DC
:108770001146002B36D1C2894FF6FF739A4233D08F
:10878000A7B3A9B30389B34234D34068884202D067
:1087900032462DF0F9FDB5F8DC32023BB34207DC7E
:1087A000AE8100223946284600F026F805B0F0BD1B
:1087B00000230193ADF8083001246B68E8898DF837
:1087C000044001A9ADF80670ADF80A60039300F00B
:1087D00075FA20B9052385F8DE322046E6E74FF624
:1087E000FF70E3E72720E1E72820DFE72120DDE72E
:1087F0001020DBE71220D9E730B58389934285B09A
:10880000044621D9B0F8DC02ADF808209B1A0538DF
:108810008342A8BF0346ADF80A306368ADF806107E
:1088200004251A44ADF80450039201A9E08900F030
:1088300045FA98B143F202024FF6FF73904214BF1B
:108840001846212005B030BD40F20513ADF80430C4
:108850000023ADF80610CDE90233E6E7052384F8DE
:10886000DE320120EEE738B590F8DE2205466AB91F
:10887000C0894FF6FF74A0420AD059B100F01CFA2B
:1088800050B9042385F8DE32012038BD2720FCE7EB
:108890002820FAE72120F8E72046F6E707B502236B
:1088A000ADF806200DF10602FFF75BFF03B05DF89F
:1088B00004FB7FB5ADF80620052909D8DFE801F0F3
:1088C000030303030B0302230DF1060200F012F869
:1088D00007B05DF804FBBDF80630ADF80C3000239E
:1088E0000493ADF814300C230DEB0302042100F0C7
:1088F00001F8EDE7F0B5044695B00D4604A8002157
:1089000017461E4600F0E6F994F8DE12A94201F17E
:10891000FF3146D0042944D8DFE801F00343222880
:108920003D002823ADF804304FF4F973ADF8303032
:1089300001AB0D930223ADF83830002370220CA94F
:108940002046ADF83A308DF83C30ADF84020119318
:10895000ADF84830ADF84C3000F04FF815B0F0BD30
:108960002823ADF8043040F2F513DFE72822ADF8F4
:1089700004204FF4FB72ADF8302001AA00230D92C1
:108980000C22CDF80630ADF80E300293ADF80C3065
:10899000ADF83820D2E72823ADF8043040F2F713C1
:1089A000C4E70597ADF81860042908D8DFE801F09E
:1089B0000307161B20004FF4F973ADF8103004A91B
:1089C000204600F01AF8022DC8D140F2F3110CA88D
:1089D00000F080F90CA807F057FBBFE740F2F51351
:1089E000ADF81030EBE74FF4FB73ADF81030E6E76D
:1089F00040F2F713ADF81030E1E7002380F8DE32E3
:108A00000B8813B1084607F03FBB704710B5D37908
:108A1000022B044608460BD1E181452100F050F9B4
:108A200030B1204600220121BDE81040FFF741BFD0
:108A300010BD0A78022A06D14FF6FF72C2810121C9
:108A40002A22FFF736BF7047C1894FF6FF72914265
:108A500005D00023C28102211A46FFF74BBF7047A1
:108A600019B180220121FFF724BF1288A0F8DC226F
:108A70000A460121FFF71DBF7FB540F20713994257
:108A8000054614460DD10023019303934268638881
:108A90000292ADF80C3001AA0C230421FFF72AFF43
:108AA00004E029B180220421FFF703FF04B070BD68
:108AB000928863881AB9019203924268E8E70689AE
:108AC0009918B14204DD12220421FFF7F2FEEDE70E
:108AD0004068A11D18442DF049FC6288A3882188B4
:108AE000E8891A4492B200F0E7F80028DED052225A
:108AF00004212846FFF7DDFED8E710B513460446EB
:108B000029B180220521BDE81040FFF7D2BE92783E
:108B1000042A0AD0052A01D0012A16D120460022B3
:108B20000521BDE81040FFF7C4BED9889A880A44E1
:108B300092B21988FFF760FE0128024605D0204650
:108B40000521BDE81040FFF7B4BE10BD00B58DB0E3
:108B500011BB9378012B1FD11388ADF80430938893
:108B6000ADF80C304FF4FC73ADF8103001AB059349
:108B70000C230632ADF8183004A870230292ADF829
:108B80001A108DF81C10ADF820300991ADF828109E
:108B9000ADF82C1007F078FA0DB05DF804FB112940
:108BA00007D01B2908D0102909D132F8041BFFF780
:108BB0002DBF111DFFF748BF111DFFF73ABF7047CA
:108BC00010B40B461488C1898C421CD1363B5188A5
:108BD000042B18D8DFE803F008170D120300063243
:108BE0005DF8044BFFF73CBF06325DF8044BFFF71E
:108BF00043BF06325DF8044BFFF77FBF06325DF8D6
:108C0000044BFFF7A3BF5DF8044B704738B50C4623
:108C1000054600F1100120461BF038FA2188A1F129
:108C200010031F2B05D8221D2846BDE83840FFF74A
:108C3000B6BFA1F130031F2B05D8221D2846BDE881
:108C40003840FFF7BDBF38BD10B50B88A3F5F673EC
:108C50000C46042B09D8DFE803F003090D141A00B1
:108C600049680A89FFF728FC208210BDFFF7B2FC93
:108C70002082FAE74B681A791968FFF7CBFC20824B
:108C8000F3E74B681988FFF7EEFD2082EDE74968AE
:108C90000B894A680988FFF764FD2082E5E7704781
:108CA00010B54FF4397104462BF0E8FC204610BD96
:108CB00076DF70478CDF7047A1DF7047A3DF704716
:108CC000A5DF704710B50446006808B12DF038FBE9
:108CD000204610BD002201807021C0E901220273EC
:108CE00001824261028382837047C187704708B561
:108CF00000F0C6FA006808BDC08F7047808F7047CB
:108D0000A0F840107047B0F84000704710B5094B0C
:108D1000044640F8043B02F0DBFD0023A360C4F8E6
:108D20000E30C4F81230A3612377236284F8243014
:108D3000204610BD8874050038B5037FDB07044664
:108D40000D4605D5034A182102F1570016F068F9BF
:108D5000A56038BD547305002DE9F047044698B06E
:108D600000250CAEA1611C220F460EA829460C95C9
:108D700075602DF023FB1C2229460EA80DF1540925
:108D8000ADF854508DF85650ADF85A508DF85C50EF
:108D90002DF014FB07A9204600F0B4F80322294661
:108DA00048462DF00BFB9DF85630CDF84C9023F043
:108DB000070343F0030341F2111A201D8DF85630CA
:108DC000ADF854A002F0B8FD14222946009007A87F
:108DD0002DF0F4FA2368CDF81CD01B69ADF82650AD
:108DE000204698472368ADF824009B6820469847A2
:108DF000ADF82800204600F071FB0DF15A080B90E9
:108E00000322404629462DF0D9FA9DF85C30D4F86B
:108E10000890CDF8208023F0070343F005030DF1FF
:108E20000C08ADF85AA08DF85C300F951295CDF86E
:108E30000480B9F1000F5DD048462DF0FBFB0F28F0
:108E4000054604D901302BF061FB03950190012DFB
:108E5000019848D199F800300370019B02950021D8
:108E60005955029BC3B1019A0F920DF15D059BB25A
:108E700003222846ADF84230ADF840302DF09EFA7E
:108E800011238DF85D30BDF85E30129503F4784300
:108E900043F44073ADF85E302368002511955B6B99
:108EA00031462046984710B1ADF83250119604F182
:108EB0000E0307AA0EA9388D00F0E6FA18B10F4A82
:108EC00087211CF094FF0021204600F03BF8237F0F
:108ED000019843F001034045237701D02BF035FB87
:108EE00018B0BDE8F087002DB7D02A4649462DF0CE
:108EF0003DFAB2E702482BF03CFF00BF5473050077
:108F0000D57305000B7F23F0030343F002030B77B7
:108F1000037F0A7FC3F3800363F3C3020A77037FEF
:108F2000D2B2C3F3400363F304120A77037FD2B2D1
:108F3000C3F3001363F345120A77437B81F83F3094
:108F4000704700002DE9F043036889B0DB690446EF
:108F5000884698470546204600F0C0FA237F06461B
:108F6000980672D594F82430FD2B6ED841462846D9
:108F700006F0BFFE236807469B6820469847B84224
:108F800041D300F08BFA236881465B6920469847FD
:108F9000CDF8088094F82430ADF81C700193079B3D
:108FA0000490ADF81450009304AA334606CA48460C
:108FB000069606F05DFD054638B33A460021304678
:108FC0002DF0FCF9236820462A4CDB6800219847E5
:108FD0002378BFF35B8FD9070ED420462BF0A6FA77
:108FE00050B1254801F07EFF20462BF0ABFA234A12
:108FF000234921482BF03DFB1F4802F039FB28464E
:1090000009B0BDE8F0831225D7E723683946DB684D
:1090100020469847236820461B6998470023ADF8EF
:109020001A30A369ADF8180007969B68E189D88BC0
:1090300006AA00F02BFA18B1124AF6211CF0D7FE4E
:10904000237F9A0707D40020DAE723682946DB68E4
:1090500020469847DEE7A369986802F032FB0028B3
:10906000F1D0237F1B07EED5236820465B6A984723
:10907000C6E700BF902C0020202C0020002A0020F2
:1090800049AF02005473050070B5037F9A0786B09C
:10909000044603D40825284606B070BD8369986845
:1090A00002F00FFB0028F5D0237F1B07F2D52368C1
:1090B00020461B699847E389ADF8083001238DF8F5
:1090C0000A3000260DF10603CDE90436A369ADF898
:1090D00006009B68ADF80C6002A9D88B00F0D8F9A7
:1090E0000828054615D008D80028D4D00B4A4FF4DC
:1090F000987128461CF07BFECDE7132804D043F27C
:1091000001439842C7D0F1E7237F43F04003237720
:10911000C1E7237F66F386132377BCE7547305000A
:109120002DE9F04F037F9A0791B0044605D44FF024
:10913000080B584611B0BDE8F08F8369986802F0BB
:10914000C0FA0028F3D0237F1B07F0D52368204600
:109150001B6998478046204600F0C0F9257FC5F37B
:10916000801582460DB1B4F842504FF0000B0DF15E
:109170001809A845DDD9A8EB05071422132F4FF0D5
:1091800000014846BB46A8BF4FF0130B2DF016F95F
:10919000132FCABF1322FF22B5FBF2F20AEB050719
:1091A000C8BFD2B21FFA8BF68DF8182039461FFAC5
:1091B0008BF20DF119002DF0D9F8721C92B23946DC
:1091C0000BA8ADF806202DF0D1F8E389ADF80830F2
:1091D00001238DF80A300DF10603CDE90439A369A6
:1091E0009B68002202A9D88BADF80C2000F050F942
:1091F0008346E0B113284FF0000206D1227FA4F885
:10920000425042F04002227793E7082806D1217F9E
:10921000A4F8422062F3861121778AE743F20142E3
:10922000904204D0064A4FF4CC711CF0E0FDBDF82A
:1092300006200BA9384635442DF098F8ADB298E7D2
:109240005473050010B5037F5B06044607D5036819
:109250005B6A984718B9237F60F38613237710BDA4
:1092600010B5037F5B06044609D503685B6A98471F
:1092700028B9237FA4F8420060F38613237710BD3A
:1092800080B483B000AF78607B68283318460C3711
:10929000BD465DF8047B704710B5044B044640F8AA
:1092A0002C3B636BDB689847204610BDF4720500C9
:1092B00010B50446FFF7F0FF204644212BF0DEF9FD
:1092C000204610BD704710B5182104462BF0D6F982
:1092D000204610BDF0B58BB00E46044600F0DEF817
:1092E00006F01BFD0546002846D123683146DB68A1
:1092F00020469847C9238DF81730237F13F0200F9D
:10930000236866D094F82420FD2A62D81B69204681
:109310009847294606F0F9FC236801469B692046D8
:10932000984700F0BBF80746204600F0D7F82368BE
:1093300006461B692046984723680696ADF81C0030
:109340005B692046984723680646DB6920469847B4
:109350000DF11703ADF824000193099B00930295CA
:1093600006AA334606CA3846089606F015FC28B108
:1093700000F094F806F0D8FC0BB0F0BD194D2B7836
:10938000BFF35B8FDB0709D428462BF0CFF828B159
:10939000154806F01FFD28462BF0D4F89DF817203D
:1093A00094F82410104806F01CFD0028E0D0204658
:1093B0009DF81760FFF764FF23680746DB692046C6
:1093C0009847A56B03463A46314604F12C00A8475E
:1093D000D2E7FE228DF817209B6931462046984738
:1093E000E5E700BFE82F0020D02F0020F8B5036A82
:1093F000044653BB037FDB0920D0144F144E3D7845
:10940000BFF35B8F15F001050ED138462BF08EF8B7
:1094100050B138463560B580B5712BF093F80D4AE0
:109420000D4930462BF025F9336803B12362236AD6
:109430005BB90120BDE8F84015F058BE03689B6891
:10944000984701212CF020FF2062F8BDB02F0020AA
:10945000A82F0020002A0020C58C020038B5044641
:10946000006A20B1237FDD0902D00023236238BDCA
:109470002CF066FF2562FAE700230120CB8040F242
:109480001B1308710B807047AADF7047ACDF704771
:10949000AEDF7047704770470020704710B50B4C27
:1094A0002378BFF35B8FDB070ED420462BF03EF80A
:1094B00050B1074806F0D2FA20462BF043F8054A8F
:1094C000054903482BF0D5F8014810BDEC2F0020CA
:1094D000B82F0020002A0020C5920200037F9B06BF
:1094E00003D590F82430FD2B02D903685B69184737
:1094F000006A704738B503680546DB6898472B68F3
:1095000004461B6928469847201A80B238BD704728
:109510007047704710B5082104462BF0AFF820467D
:1095200010BD10B5082104462BF0A8F8204610BD48
:1095300010B5302104462BF0A1F8204610BD10B51F
:10954000044611F0B4F8204610BD10B5044611F0E1
:10955000AEF8204610BDB2F5967F38B504460D46EC
:1095600002D2012015F0C2FD6560002038BDB2F5C1
:10957000967F38B504460D4602D2012015F0B6FD9F
:109580006560002038BD10B9012015F0AFBD7047EF
:1095900010B504464068FFF7F6FF6368B3F80300B0
:1095A000053080B210BD08B54068FFF7ECFF4FF4FE
:1095B000967008BD38B50C4605464868FFF7E3FFCE
:1095C00063682B60236820461B699847A88028465B
:1095D00038BD000010B50B4C2378BFF35B8FDB0761
:1095E0000ED420462AF0A2FF50B10748FEF702FF32
:1095F00020462AF0A7FF054A054903482BF039F811
:10960000014810BDB42F0020C42C0020002A0020E7
:109610009F8C020010B50B4C2378BFF35B8FDB07E8
:109620000ED420462AF082FF50B1074811F03AF8D4
:1096300020462AF087FF054A054903482BF019F810
:10964000014810BDF02F0020F42F0020002A002038
:109650003F9502000023FF22C0E9053383830262A5
:1096600080F82A30C38580F82630038570470000D3
:1096700038B512490546043002F0B0F910490446E5
:1096800005F1080002F0AAF941F60A01044305F1C8
:109690000C0002F03DF9A4B204434FF6596105F104
:1096A000100002F035F9A4B20443A4B224B928464C
:1096B000FFF7D0FF06F05AFD204638BD947505002F
:1096C000B975050070B590F824308AB004460E468E
:1096D00015467BBB40F20122ADF808200DF10702D0
:1096E00003920122ADF8102002A870228DF8071015
:1096F000ADF812308DF81430ADF818200793ADF89E
:109700002030ADF8243006F0BFFCBDF8181099B138
:1097100001290CD12046FFF79DFF40F20113A585DA
:10972000A38484F82A606423B5FBF3F5E585084635
:109730000AB070BD2721FAE74121F8E770B590F82B
:10974000243004460E4615468BB9FFF743FF3146D9
:109750002A46FEF7B1FE0128014606D12046FFF752
:1097600079FF40F20123A585A384084670BD272117
:10977000FBE700002DE9F0431C4690F824308DB043
:10978000054689461646002B6ED1FFF723FF01469A
:1097900004A8FEF7D5FF049F1FB910200DB0BDE847
:1097A000F083FFF737FF0822014606A810F099FF63
:1097B0002E4B0893BDF81C30DDF81880B3F5967F6A
:1097C00002D2012015F092FC4046CDF82480FFF72C
:1097D000DAFE099B05221A700998FFF7D4FE099B4F
:1097E000A3F801900998FFF7CEFEB4F5947F39D223
:1097F0000CB1002ED1D0099BA3F803403CB10998CD
:109800000530864203D0224631462CF0BDFD0AAC1D
:1098100008A92046FFF7CEFE0021BDF82C0006F077
:1098200068FA2E6A8046C6B9FFF738FE02966423AE
:109830000193059B009394E80600049B06F018F939
:10984000FFF7C8FE43463A46298BFEF78AFF0128F8
:10985000A4D14FF48173AB84A0E7FFF71FFE002370
:109860000293E5E7122099E7272097E7787505002E
:10987000002383840B8813B1084606F005BC7047AB
:10988000F0B590F8245095B0002470268D4207461C
:10989000ADF810400594ADF81840ADF81A408DF8B9
:1098A0001C40ADF820600994ADF82840ADF82C407C
:1098B00003D0012D0BD0022D25D0012D0592ADF83E
:1098C000183033D0022D36D004A9384617E02823AB
:1098D000ADF8043040F2FD13ADF8303001AB0D931C
:1098E0000223ADF83830ADF83A408DF83C40ADF881
:1098F00040601194ADF84840ADF84C400CA9FFF71A
:10990000B7FF15B0F0BD2823ADF804300B4BCDF8F0
:109910000640CDF80A40029340F2FF13ADF8303014
:1099200001AB0D93ADF80E400C23DAE740F2FD13C6
:10993000ADF81030C8E740F2FF13F9E754750500A1
:109940007FB50129ADF8062004D9022908D007B057
:109950005DF804FB02230DF10602FFF791FFF6E725
:1099600000230593034B04930C23ADF80C200DEB5F
:109970000302F2E75475050008B590F8241011B100
:109980002B22FFF7DDFFFFF725FEBDE80840FEF7BD
:1099900021BE10B5036A04469BB1102B1BD1FFF703
:1099A00019FEE18AFEF75FFF0128024605D001217A
:1099B0002046BDE81040FFF7C3BF062384F82530DA
:1099C00010BDFFF707FEA18AFEF74DFF01280246F2
:1099D000EDD10523F2E746220121EAE710B503465F
:1099E0002AB193F82410FFF7ABFF002010BD90F8C8
:1099F00025208A4201D02E22F3E70120F6E708B5A0
:109A000090F82430012B03D1BDE80840FFF7E6BFF2
:109A10002E220121FFF794FF002008BD08B590F821
:109A20002430022B03D1BDE80840FFF7D7BF2E2218
:109A30000221FFF785FF002008BD2A2290F824109C
:109A4000FFF77EBF73B500220E4601210446FFF7E3
:109A5000D6FFD8B1327894F82A309A4216D1002332
:109A60000125E3850622711968468DF806502CF011
:109A70007DFCFFF7AFFDA28D6946FEF71DFDA842F4
:109A8000024605D029462046FFF75AFF02B070BDB6
:109A900040F20123A384F9E710B50A4602210446E7
:109AA000FFF7ADFFA8B1FFF795FD0422A118FEF75F
:109AB000B1FD0128024605D020460121BDE8104035
:109AC000FFF73EBF032384F825300023E38223837E
:109AD000A38310BD10B5FFF7BDFD2B2290F8241015
:109AE000BDE81040FFF72CBF73B505460C4601A832
:109AF0002E1D01F0EDFE3146204601F085FF08B134
:109B000010232B6231460F2201A801F007FF01A9A3
:109B1000204601F079FF08B1A388EB8231460C2280
:109B200001A801F0FBFE01A9204601F06DFF08B17C
:109B3000A3882B8331460D2201A801F0EFFE01A975
:109B4000204601F061FF18B1A3886B83E388AB83E3
:109B500005F108063146204601F056FF08B1002302
:109B60002B623146032201A801F0D8FE01A920464C
:109B700001F04AFF08B1A388AB8231460F2201A849
:109B800001F0CCFE01A9204601F03EFF08B1A388F8
:109B9000EB8231460C2201A801F0C0FE01A920464B
:109BA00001F032FF08B1A3882B8331460D2201A8B2
:109BB00001F0B4FE01A9204601F026FF18B1A388E8
:109BC0006B83E388AB8302B070BD10B50A460321F6
:109BD0000446FFF714FF88B1FFF7FCFC0122A18BBC
:109BE000FEF75CFE0128024605D020460121BDE8B3
:109BF0001040FFF7A5BE042384F8253010BD0000F7
:109C000070B50D460A8890F825100529044617D02E
:109C100006293DD1FFF7E2FE002838D02B890A2B18
:109C200007D0202294F824102046BDE87040FFF7AA
:109C300087BEFFF733FC696806F044F80246F1E797
:109C4000FFF7CCFE18B3144E3378BFF35B8FDB07FE
:109C500009D430462AF06AFC28B1104806F0BAF858
:109C600030462AF06FFC043595E806000B4806F0F4
:109C700035F902460028D5D1FFF7ACFCE18AFEF7A2
:109C8000F2FD01280246CDD1062384F8253070BDAF
:109C90002E2290F82410C8E7E82F0020D02F0020B3
:109CA0000A8890F8243012B11946FFF749BE012BFB
:109CB00001D1FFF7A5BF2E22F6E738B50A460546C3
:109CC00090F8244021B12146BDE83840FFF738BE66
:109CD000012C03D0022C0AD02E22F4E70421FFF736
:109CE0008EFE50B12846BDE83840FFF752BE012134
:109CF000FFF794FE08B185F8254038BD2DE9F04FF7
:109D00008C88012C8BB005468A4617467ED90B6895
:109D100093F8008090F82630434502D0B8F1FF0F49
:109D200076D1DFF814B13E4E9BF80090BFF35B8F05
:109D300019F0010911D158462AF0F8FB68B15846CC
:109D4000C6F80090A6F8049086F806902AF0FAFB70
:109D5000344A354930462AF08CFCD6F80090B9F1E7
:109D6000000F57D0013C288DB288A4B203199A4243
:109D700052DBDAF800102246013148442CF0F6FAA2
:109D800095F82630013385F826302B8D1C44A4B27B
:109D9000B8F1FF0F2C8541D1ADF81C40234CCDF814
:109DA00018902378BFF35B8FDB070ED420462AF090
:109DB000BDFB50B11E4810F075FC20462AF0C2FBD6
:109DC000184A1C491A482AF054FC0822184908A8C5
:109DD00010F087FCFFF762FB002302930DF11703DD
:109DE0000193099B009306AA089B06CA05F0D4FEBE
:109DF000034638B985F826002885BDF82420089840
:109E00003860BA8018460BB0BDE8F08F2023F9E720
:109E10002123F7E71023F5E71223F3E70123F1E706
:109E2000A82F0020002A0020C58C0200FC2F002053
:109E3000003000204B950200B02F002038B50D46B1
:109E400004464868FFF79FFB6868431D2360FFF7DF
:109E50009AFB6A68D378127943EA022340F2271208
:109E6000934228BF1346A380204638BD70B591F8B1
:109E7000243086B004461BB100230360A38021E098
:109E8000FFF7C8FB08220146684610F02AFCBDF81F
:109E90000450134B0293B5F5967F009E02D2012029
:109EA00015F024F9E02D039602A904A80DD9FFF7B7
:109EB000C5FFDDE90306C5F501750335FFF763FB53
:109EC0002660A580204606B070BDFFF7B7FFDDE92C
:109ED0000305FFF758FB256040F22713CEE700BFCC
:109EE00078750500436813B9012015F0FFB8704775
:109EF00008B5FFF7F7FF4FF4967008BD10B504469C
:109F0000FFF7F0FF6368B3F80500073080B210BDBB
:109F100038B50C4605460846FFF7E4FF63682B603A
:109F2000236820461B699847A880284638BD000052
:109F3000F0B50A88438B9A4291B0044649D1828C8D
:109F400040F202239A4244D1002301AA0431019332
:109F5000ADF80830FFF7D2FE024638B1012838D0FC
:109F600094F824102046FFF7EBFC32E0019F0FB974
:109F70001022F5E7BDF808201A4E0396B2F5967F39
:109F800002D2012015F0B2F8002503A80497CDE90C
:109F900005560797FFF7A6FF049BB3F80330012B84
:109FA00005AA18D140F2FF13ADF820300C23ADF80C
:109FB000283008A870230992ADF82A508DF82C504B
:109FC000ADF830300D95ADF83850ADF83C5006F096
:109FD0005BF811B0F0BD0C2394F824102046FFF775
:109FE0004FFCF6E75475050013B50B880C4640F29C
:109FF000F7118B4271D0B3F5FC7F1CD240F2F31104
:10A000008B4258D0B3F5FA7F08D240F2D7118B4279
:10A0100070D0B3F5F97F47D002B010BD40F2F51211
:10A02000934253D0B3F5FB7F4AD3616802B0BDE8D9
:10A030001040FFF735BEB3F5FD7F21D00ED8B3F544
:10A04000FC7F51D040F2F9129342E5D16368197850
:10A050001A8989B1FFF736FB2082DDE7B3F5FE7F71
:10A0600018D010D340F202229342D5D1616802B0D9
:10A07000BDE81040FFF7E6BC591CFFF75FFBEBE7BC
:10A08000FFF77AFCE8E761680B894A680988FFF7FF
:10A0900071FBE1E701466846FFF7E8FE0098BDF86E
:10A0A000043060612383B7E76368198802B0BDE8B4
:10A0B0001040FFF7F1BC02B0BDE81040FFF70ABD49
:10A0C000616802B0BDE81040FFF70EBD63681988F3
:10A0D00002B0BDE81040FFF778BD6368198802B090
:10A0E000BDE81040FFF7E9BD616802B0BDE810406F
:10A0F000FFF71EBFC38D002B8ED0013B9BB2C385E3
:10A10000002B89D102B0BDE81040FFF796BC49BAD8
:10A110004182704749BA8182704701F110030230D1
:10A12000994204D013F8012D00F8012BF8E770478D
:10A1300084B038B505AD85E80E0041F202530380C6
:10A1400004462946FFF7E9FF2046BDF82410FFF733
:10A15000DEFFBDF82810FFF7DDFF9DF92C30A37559
:10A16000BDE8384004B070472C30704713B5D0E9D3
:10A170000C3293420446019106D01960036B0433FC
:10A180000363204602B010BD01AA19462C3000F02E
:10A19000DCF8F6E738B500250A4B05710446036084
:10A1A00085600C3001F094FB04F11803C4E9043518
:10A1B0004FF6FF7325762385C4E90B55656320466A
:10A1C00038BD00BFC076050073B50379044613BBE4
:10A1D00081600C3001F0B0FB22464FF6FF73019016
:10A1E00022F8283F01A9012000F0EEF818B10B4A2F
:10A1F0002B211BF0FCFD236820465B6A9847D0E9C1
:10A200000056AE4205D0214655F8040BFEF7A4FDDA
:10A21000F7E70123237102B070BD00BF417605004E
:10A2200070B503685B6A0D469847D0E90046A642C0
:10A230000DD054F8040B037F65F3451303770368CF
:10A2400015B1DB6A9847F2E71B6B9847EFE770BDE3
:10A2500003460868D860184670470A88112A09D052
:10A26000502A0DD0102A10D1036801F108025B6951
:10A2700089881847036801F108029B698988184793
:10A28000036831F8062FDB691847704770470000F4
:10A29000F7B503685B6A0D46074616469847D0E94E
:10A2A00000318B4239D053F8044B2888628A90429F
:10A2B0000DD16A89022A0AD105F10C001AF04CFA74
:10A2C000237F60F3C3032377012003B0F0BDE2894D
:10A2D0009642E6D1AB795A1E022A06D823686989CC
:10A2E0001B6A204698470120EFE7062B17D1002371
:10A2F000CDE90033BB686A463146D88B00F066F87A
:10A3000018B1084AA1211BF072FD2368BDF80010A6
:10A310001B6A204698470120D7E70020D5E7012097
:10A32000D3E700BF4176050070B503685B6A0D4650
:10A330009847D0E90046B44206D054F8040B0368AD
:10A3400029469B6A9847F6E770BD2DE9F84FD0E99A
:10A35000007AAAEB0704A41014BF23460123E418D3
:10A36000804689469346A1EB070526D2B4F1804F7B
:10A3700023D224BB2646DBF800307351B94504D004
:10A380002A46394630462BF0FFFF0435D145354487
:10A39000AAEB090B04D05A46494628462BF0E6FFA3
:10A3A0005D4417B138462AF0D0F806EB8404C8E9BA
:10A3B0000065C8F80840BDE8F88F6FF04044A00081
:10A3C0002AF0A4F80646D6E7A8DF7047ADDF70474D
:10A3D0004CDF70477047704710B5782104462AF06B
:10A3E0004DF9204610BD000010B5094C2378BFF38D
:10A3F0005B8FDB0709D420462AF098F828B105487E
:10A4000005F05EFE20462AF09DF8024810BD00BF10
:10A41000703000207430002010B50B4C2378BFF34F
:10A420005B8FDB070ED420462AF080F850B1074836
:10A4300014F03CF820462AF085F8054A05490348FF
:10A440002AF017F9014810BD083000200C30002018
:10A45000002A0020D7A3020070B5114B036000252D
:10A4600000F1280312260446456232462946184662
:10A470002BF0A4FF4FF4FA71FF22C4E91412658790
:10A48000E587C4E91055E56484F85850E5656566CC
:10A4900084F86850324629462BF090FF204670BD64
:10A4A00078770500283070471220704770B5274D27
:10A4B0002B78BFF35B8FDA0794B0044609D42846A3
:10A4C0002AF034F828B1224805F084FC28462AF006
:10A4D00039F810AE1023324665211D4805F09BFC6B
:10A4E000002831D01B4D2B78BFF35B8FDB0709D4DD
:10A4F00028462AF01BF828B1174805F0B9F8284675
:10A500002AF020F81022ADF82420ADF83420ADF860
:10A510003C202A340DF11E0205920E940EA903C9A7
:10A5200003AA00230896ADF82C300C9482E80300AF
:10A530000CA903C901AA82E803000B9A009208AA99
:10A5400006CA054805F096F814B070BDE82F002043
:10A55000D02F00203430002038300020062380F82F
:10A56000283090F83B3080F82B3090F83C3080F861
:10A570002C3090F83E3080F82D3090F83F3080F845
:10A580002E307D22036C93FBF2F3A0F82F30836C06
:10A59000C0F831300021C36D80F82A1080F83530C2
:10A5A000042236302BF00ABF072380F8283000231E
:10A5B00080F82A3090F83A3080F82B3090F83B3011
:10A5C00080F82C3090F83C3080F82D30C38FC38554
:10A5D0007D22036C93FBF2F30386436CC0F83230A8
:10A5E000C36D49B999B290F83D3080F83830FA23FC
:10A5F000C18680F83930704789B2F4E7072380F8C4
:10A600002830012380F82A3090F83A3080F82B3037
:10A61000836CC362C36C036390F83C3080F83430C1
:10A6200090F83E3080F83530C36D39B999B2036C7B
:10A63000C1867D2293FBF2F30387704789B2F6E768
:10A6400010B5044660300AF09EFB30B1014610227E
:10A6500004F12A002BF08AFE012010BD30B585B030
:10A6600004460D46FCF706FA04230DEB030299217C
:10A670000FF0E6FB072384F82830042384F82A30FF
:10A6800094F83A3084F82B3094F83B3084F82C302E
:10A6900094F83C3084F82D30BDF80630E385002373
:10A6A000ADF80830FCF7E6F9062302AA9F210FF067
:10A6B000C7FBBDF808302386DDF80A30C4F8323015
:10A6C000E36D35B99DB24FF47A43E586238705B033
:10A6D00030BDADB2F7E72DE9F04F426D85B00446CD
:10A6E0000D460523002A64D1062284F82A3094F806
:10A6F0003A3084F8282084F82B30FFF78DFE13F0D1
:10A7000026FF90F800B0FFF787FE13F022FF002627
:10A71000437884F82C6003F0010AC3F34009C3F3C3
:10A720008008C3F3C007FFF777FE13F009FF94F822
:10A730002C3060F3000384F82C30FFF76DFE13F02B
:10A7400001FF94F82C300BF0010B60F341036BF325
:10A7500082036AF3C30369F3041368F3451367F3D1
:10A76000861384F82C30FFF757FE13F0F2FE0246F2
:10A770000068516801AB03C31189927A9A701980FD
:10A780009DF80430012B04F12D004FF0090212D185
:10A790000DF106012BF0EAFDE36D85B99DB20023B2
:10A7A00084F83830FA23E58684F8393005B0BDE8FE
:10A7B000F08F072299E731462BF000FEECE7ADB2AF
:10A7C000EDE710B5034690F8680088B1062283F8DB
:10A7D0002A2003F12B0103F16902753352F8044B6F
:10A7E00041F8044B9A42F9D113880B8093788B700F
:10A7F00010BD73B50E460546FCF73CF901230DF17B
:10A8000007029D210FF01CFB9DF807304BB1284635
:10A810003146FFF760FF686D003018BF012002B0BD
:10A8200070BD6C6D2CB928463146FFF797FE204667
:10A83000F5E7EB6DDA0709D5E86D00F00F04012CA0
:10A840001BD131462846FFF709FF05E0AA6C2AB163
:10A8500031462846FFF7D2FE0120E0E79B0705D0EE
:10A860002846FFF7EDFE0028E6D0F5E731462846FA
:10A87000FFF7A7FF0028F3D0EEE731462846FFF7A1
:10A8800093FEE9E72DE9F04704468AB004F1240875
:10A890000F4604F045FE414604F094FEE36D01339B
:10A8A000E36512F06BF90546FCF7E4F88B2104230D
:10A8B00004F148020FF0C4FA2A1C94F83C3018BF87
:10A8C000012262F30413A26C002A14BF01210021AB
:10A8D00061F3820384F83C3062D1E264DFF8DC90FB
:10A8E00029462046FFF785FF99F80050BFF35B8F9C
:10A8F00015F00105824618D1484629F017FEA0B18F
:10A900002A4E2B4B336048463571C6E902553582D5
:10A91000B574C6E90555B58386F8285029F012FEAE
:10A92000244A2549304629F0A4FE03250095122328
:10A9300004F1280242F212711C4814F0E8F8BAF14E
:10A94000000F09D0FCF796F82A4619210FF089FA72
:10A9500010B12046FFF7AAFDBFB94FF48273ADF8DE
:10A96000083070230397ADF81070ADF812708DF8B1
:10A970001470ADF818300797ADF82070ADF824705A
:10A98000FFF732FD02A905F09FFB04F0C9FD234645
:10A990004FF48042414604F001FE0AB0BDE8F08762
:10A9A000E36C002B9AD0E56498E700BF942C00205C
:10A9B00068950500002A00204B830200C02C00206F
:10A9C00073B50D460446FCF755F801230DF102025C
:10A9D00086210FF035FA9DF80230102B04D000F2DA
:10A9E0009E80022B00F29E806365002604F16000C9
:10A9F0000AF030F984F83C60FCF73CF80322362179
:10AA00000FF02FFA94F83C3060F3410384F83C30A7
:10AA1000FCF730F8032237210FF023FA94F83C308A
:10AA200060F3C30384F83C30FCF724F80322382198
:10AA30000FF017FA94F83C3060F3451384F83C307B
:10AA4000FCF718F8032243210FF00BFA94F83C307E
:10AA500084F83D6060F3861384F83C30FCF70AF814
:10AA60000DF103029D2101230FF0EAF99DF8033057
:10AA7000B34218BF072584F82950FBF7FBFF0123D9
:10AA80006A4681210FF0DCF99DF8003084F83B30F4
:10AA900001A8FFF79DFC18B1234A19211BF0A7F963
:10AAA000019B002BB8BF03339B1084F83E30636DCD
:10AAB000102B12D1FBF7DEFF012301AA22210FF098
:10AAC000BFF99DF8043084F83A3084F87430FA23E2
:10AAD00084F87730002384F86930231D184620223B
:10AAE00000212BF06BFC254645F8240F04F018FDDF
:10AAF0000E4A294604F042FD01212046FFF7C2FE1E
:10AB000004F00EFD23464FF48042294604F046FD32
:10AB1000FFF76AFC214605F003FB02B070BDFF2B76
:10AB20003FF462AFFF235FE7EC76050031AB020034
:10AB30000021FFF7A7BEF0B591B004460E4612F013
:10AB40001DF801238DF80D3000230546ADF80E30B9
:10AB50008DF810300593002E6DD040F20513ADF83E
:10AB60000E3094F83E308DF80430636CCDF805302B
:10AB7000E36D002D63D19BB2ADF8093009238DF848
:10AB80000C300723ADF818304FF4C673ADF8203001
:10AB900014237022ADF8283001AF002303AEADF8C6
:10ABA0002A308DF82C30ADF830200D93ADF83830C8
:10ABB000ADF83C3007970996FFF716FC08A905F099
:10ABC00083FA94F83B308DF8043094F83C308DF8DB
:10ABD000053094F83F308DF806307D22236C93FBCE
:10ABE000F2F3ADF80730E36D5DBB9DB208238DF83D
:10ABF0000C300723ADF818304FF4C673ADF8203091
:10AC000014237022ADF828300023ADF82A308DF8D7
:10AC10002C30ADF830200D93ADF83830ADF83C3025
:10AC2000ADF8095007970996FFF7DEFB08A905F074
:10AC30004BFA11B0F0BD03238DF80E3091E7ABB2A3
:10AC40009AE7ADB2D2E7000070B50B888B2B0446B3
:10AC500000F0A48032D8432B00F0E68016D8362BC3
:10AC600000F0CE8003D8222B00F0A48070BD372BDB
:10AC700000F0D080382BF9D14B6890F83C201B783D
:10AC8000003318BF012363F3451290E0822B00F0DC
:10AC9000968008D8812BE9D14B681B7880F83B302F
:10ACA00003230365E2E7832B00F09280872BDDD13D
:10ACB0004B6893F9003080F83E30D7E7B3F5947FC6
:10ACC00000F094801CD89D2B00F0F2800AD8962BBF
:10ACD000CCD14B681A7890F83D3062F3000380F8CD
:10ACE0003D30C3E740F20712934253D0B3F5847F5F
:10ACF000BCD1002180F85810BDE87040FFF7C2BDFC
:10AD0000B3F5EB7F6BD00CD8B3F5D97F00F096800C
:10AD1000B3F5E17FAAD149686030BDE8704009F021
:10AD2000C0BF40F2D712934200F0928040F2EB1283
:10AD300093429BD14D682B78002B97D12B89002B08
:10AD400094D06B88A0F86A3000F16C0608220021CC
:10AD500030462BF033FB2A896968082A28BF08226D
:10AD600030462BF003FB11F009FFE36D002840F0A3
:10AD7000A88098B294F83C3094F86920A4F8750043
:10AD8000C3F3001363F30002012384F8692084F8FD
:10AD900068306BE7012380F8583067E74B6890F81C
:10ADA0003C201B68003318BF012363F3820284F840
:10ADB0003C205BE74B681B7880F83A3056E74968DF
:10ADC000414AD1E9000100232BF04CF860644DE7C3
:10ADD0004B681B6803647F2380F83F3046E790F898
:10ADE0003C3043F0100380F83C303FE74B6890F86C
:10ADF0003C201B78003318BF012363F30002D6E721
:10AE00004B6890F83C201B78003318BF012363F394
:10AE10004102CCE74B6890F83C201B78003318BF08
:10AE2000012363F3C302C2E74B6890F83C201B7810
:10AE3000003318BF012363F38612B8E74B6890F81C
:10AE40003C201B78003318BF012363F3C712AEE721
:10AE50004B686030196809F0BEFF236D5A1E2265E9
:10AE6000002B7FF403AF19480378BFF35B8FDB0738
:10AE700008D429F05BFB28B1154803F011FD1348F5
:10AE800029F060FB124803F05DFD44F6206358434F
:10AE9000FF23B0FBF3F000F5434050306423002162
:10AEA000B0FBF3F020652046BDE87040FFF743BEDD
:10AEB0004B681B78002B3FF4D9AE072380F829306C
:10AEC000D4E680B256E700BF0090D003683000207F
:10AED0006C30002010B52821044629F0CFFB204615
:10AEE00010BD000038B500230446C0E90033C0E9B6
:10AEF0000233142029F00AFB0546606808B129F0E6
:10AF000024FB4FF6FF73E38304F14803C4E90155C2
:10AF1000A36614351F23E560A4F86C30002504F106
:10AF2000240384F820502022294618462BF046FAA4
:10AF3000044A60644FF4C803C4E90523257720461A
:10AF400038BD00BF0600100010B500230446037092
:10AF5000406808B129F0F9FA204610BD13B503780E
:10AF60000446D3B90DF1070000F02AFC18B10C4AD1
:10AF700039211AF03CFF9DF8073033B100F01EFC78
:10AF800018B1074A3D211AF032FF012000F002FCFF
:10AF90000E2000F001FC0123237002B010BD00BFA1
:10AFA0008477050008B51AF0E3FE1BF075F81BF076
:10AFB00079F81AF0F3FF08280AD018B1054A6A2177
:10AFC0001AF015FF1BF068F810B91AF0D1FEF9E776
:10AFD00008BD00BF847705001FB5037804464BB356
:10AFE00043783BBB144B01A91B68019301201BF064
:10AFF000B9F818B1114A9A211AF0F9FE01A81BF00C
:10B0000019F918B10D4AB1211AF0F1FE002302938B
:10B01000ADF80C3002A80C23ADF80A3000F0CAFBE2
:10B0200018B1064AB7211AF0E2FE012363702046E8
:10B0300000F0A0FB04B010BD642A00208477050056
:10B0400038B5437805464BB3154C2378BFF35B8F77
:10B05000DB070ED4204629F069FA50B111480FF0F1
:10B0600021FB204629F06EFA0F4A10490D4829F0BD
:10B0700000FB0F4B0B481C8821460FF020FBFEF70E
:10B08000C9FA21460FF01BFBD5E90145AC4205D0BA
:10B0900054F8040B03689B689847F7E738BD00BF76
:10B0A000FC2F002000300020002A00204B950200D9
:10B0B0006CA5050070B54378044673B1837863B915
:10B0C000D0E90156B54206D055F8040B0368214675
:10B0D000DB689847F6E70123A37070BD13B5D0E98C
:10B0E000023293420446019106D01960836804330A
:10B0F0008360204602B010BD01AA1946043000F05A
:10B10000F9FAF6E7012906D019B1022905D0002085
:10B11000704700787047407870478078704700002B
:10B1200010B543788CB00446002B44D0027F002A2F
:10B1300041D1BDF80030ADF8062003F0E00343F440
:10B140008273ADF8003002928DF80C20FBF792FC70
:10B1500002230DEB030227210EF072FEFBF78AFC9F
:10B160002821022301AA0EF06BFE04F16801684653
:10B1700000F01AFB20B1114A40F23F111AF037FEDD
:10B180000123237740F20513ADF81030702200231D
:10B190000593ADF81830ADF81A308DF81C30ADF8C5
:10B1A00020200993ADF82830ADF82C30FFF71CF9BA
:10B1B00004A904F089FF0CB010BD00BF847705001E
:10B1C00010B5437888B004461BB3037F0BB300F07F
:10B1D000EDFA20B1104A40F251111AF008FE002396
:10B1E0004FF48372ADF80020237770220193ADF8FD
:10B1F0000830ADF80A308DF80C30ADF8102005930A
:10B20000ADF81830ADF81C30FFF7EEF8694604F0E1
:10B210005BFF08B010BD00BF84770500007F70475A
:10B2200070B5D0E901460D46A64205D0294654F82E
:10B23000040BFEF7F5FFF7E770BD000038B50B888B
:10B24000112B0C4630D01ED8012B26D0102B28D025
:10B250001F4D2B78BFF35B8FDB070ED4284629F0F8
:10B2600065F950B11B48FDF7C5F8284629F06AF981
:10B27000194A1A49174829F0FCF921461548BDE832
:10B280003840FDF7C3BC522B11D0572B1DD0502B8B
:10B29000DED1063100F038F9DAE7898800F016F9D6
:10B2A000D6E700F05FF9D3E700F082F9D0E700229B
:10B2B00003231146C08B00F07BFA0028C8D0084A4F
:10B2C0004FF4C9711AF093FDC2E700F005FABFE729
:10B2D000B42F0020C42C0020002A00209F8C0200E4
:10B2E0008477050010B504468CB0C11C06220DF110
:10B2F00001002BF03BF8A378CDF814D003F0010245
:10B30000C3F346038DF80830E37C8DF80030237DCD
:10B310008DF80930A38B8DF80A30A369CDF80B3076
:10B3200040F20113ADF810300F238DF80720ADF86F
:10B33000183070220023ADF81A308DF81C30ADF8AB
:10B3400020200993ADF82830ADF82C30FFF74CF8E9
:10B3500004A904F0B9FE0CB010BD00F12502826111
:10B36000FFF7C0BF70B50B881D2B92B006460C4688
:10B370002BD10D7AC5F341153DBB08313AB32422D8
:10B3800001A82AF0F3FF94F82420216A8DF82820E0
:10B390000DF129002AF0EAFF0F4A0795442101A880
:10B3A0001AF06CFC20B10D4A40F2DD111AF01FFDBD
:10B3B00006F16801002000F0F7F9082805D020B157
:10B3C000064A4FF4F7711AF012FD12B070BD08462C
:10B3D000FFF788FFECE700BF5BB30200847705004E
:10B3E00010B50D4C2378BFF35B8FDB070ED42046DE
:10B3F00029F09CF850B10948FFF774FD204629F068
:10B40000A1F8074A0749054829F033F90348BDE880
:10B41000104000F02DB900BF902C0020202C0020FF
:10B42000002A002049AF02002DE9F04104464434CF
:10B4300004F076F821460E4A04F0A0F804F070F803
:10B440000C4B1F6805464FF400464FF4FA7000217C
:10B450004FF47A720023E6FB07012AF053FD2146E0
:10B46000024600232846BDE8F04104F097B800BF2B
:10B47000E1B302005CA5050010B5044604F050F8E5
:10B4800004F14401BDE8104004F09CB82DE9F041FE
:10B49000054604F045F80C4B1F6804464FF400467F
:10B4A0004FF4FA7000214FF47A720023E6FB070193
:10B4B0002AF028FD05F14401024600232046BDE89C
:10B4C000F04104F08DB800BF5CA505001FB50C4627
:10B4D000FEF7A0F80222014602A80FF002F9029B33
:10B4E00000936946BDF80C30ADF80430204600F0FA
:10B4F00063F920B1034A40F215211AF078FC04B038
:10B5000010BD00BF84770500F7B5C37804460D462B
:10B51000CBB9FFF7BBFFAB79062B16D1FEF77AF854
:10B520000222014668460FF0DCF8D4E90147009E8C
:10B53000A74208D054F8040B328803682946DB6917
:10B5400098470028F4D003B0F0BDD4E90164A642C6
:10B55000F9D056F8040B2A8803682946DB69984716
:10B56000F5E7000038B5114B04461B788888E08366
:10B5700000220D46E27013B1114600F013F9EB7B87
:10B58000012B0AD0022B0CD094F820306BB929463D
:10B590002046BDE8384000F014B8002384F820307D
:10B5A000F2E7012384F82030EEE738BD61A50500FD
:10B5B00090F820304FF6FF72C2830BB900F02CB820
:10B5C0007047F0B5D0E9015789B004460E46BD4238
:10B5D00006D055F8040B036831461B699847F6E717
:10B5E0002046FFF721FF40F20713ADF8003070222C
:10B5F000002368460193ADF80830ADF80A308DF8A5
:10B600000C30ADF810200593ADF81830ADF81C30B3
:10B6100004F03AFD09B0F0BDF0B5D0E9015789B0AA
:10B6200004460E46BD4206D055F8040B0368314669
:10B630001B699847F6E72046FFF71EFF4FF4847317
:10B64000ADF800307022002368460193ADF8083051
:10B65000ADF80A308DF80C30ADF810200593ADF838
:10B660001830ADF81C3004F00FFD09B0F0BD00003B
:10B6700008B50346C08B4FF6FF72904214D0DA78BB
:10B6800092B90122DA70132100F088F808280BD053
:10B6900043F20202904207D030B1044A40F2A621A0
:10B6A000BDE808401AF0A3BB08BD00BF84770500C1
:10B6B000C0787047C08B4FF6FF73C01A18BF0120C7
:10B6C0007047C28B4FF6FF739A421ABF90F8200062
:10B6D00080F001000020704770B5D0E901460D1DD3
:10B6E000B44206D054F8040B036829461B6A9847F5
:10B6F000F6E770BD2DE9F84FD0E9007AAAEB070410
:10B70000A41014BF23460123E418804689469346BB
:10B71000A1EB070526D2B4F1804F23D224BB2646E5
:10B72000DBF800307351B94504D02A46394630461B
:10B730002AF02AFE0435D1453544AAEB090B04D082
:10B740005A46494628462AF011FE5D4417B138464C
:10B7500028F0FBFE06EB8404C8E90065C8F8084041
:10B76000BDE8F88F6FF04044A00028F0CFFE0646F9
:10B77000D6E7000008B5143000F012F830B1044AE2
:10B780004FF48271BDE808401AF031BB08BD00BF1C
:10B790008477050036DF704737DF704776DF704704
:10B7A0007ADF704788DF70478ADF70478BDF70472A
:10B7B000B1DF704765DF704766DF704711DF7047A4
:10B7C00012DF704762DF704763DF70470278A2F1D3
:10B7D0003003D9B2092905D9A2F16103052B11D88B
:10B7E000A2F157034278A2F13000C1B209294FEA11
:10B7F000031305D9A2F1610105290BD8A2F1570065
:10B8000018437047A2F14103052B94BFA2F13703FF
:10B810000023E7E7A2F14101052994BFA2F1370017
:10B820000020EDE7242938B5054614464ED10F2BEC
:10B830004CDDFFF7CBFFE073A81CFFF7C7FFA07339
:10B84000281DFFF7C3FF6073A81DFFF7BFFF20731C
:10B8500005F10900FFF7BAFFE07205F10B00FFF7F1
:10B86000B5FFA07205F10E00FFF7B0FF607205F1A1
:10B870001000FFF7ABFF207205F11300FFF7A6FFE2
:10B88000E07105F11500FFF7A1FFA07105F11800A7
:10B89000FFF79CFF607105F11A00FFF797FF207119
:10B8A00005F11C00FFF792FFE07005F11E00FFF7A5
:10B8B0008DFFA07005F12000FFF788FF607005F193
:10B8C0002200FFF783FF2070012038BD0020FCE735
:10B8D000002202808270704782B0016002B070471F
:10B8E000012282700180704710B5002303808370AD
:10B8F0008B78044633B9054A272107201AF077FAD6
:10B90000204610BD83700280FAE700BFE277050091
:10B910000123837001800020704700008B7833B1D1
:10B92000837002800023034AD05680B270470723F9
:10B93000F9E700BFD2770500006883B282B063F3F5
:10B940000F0002B0704702461020FFF73DBF38B528
:10B9500004460D46FFF7F7FF60B105280AD1A11C88
:10B960002846FFF72FFF28B929462046BDE8384072
:10B97000FFF7E9BF38BD000030B5002385B0038074
:10B980008370044608460D462AF054FE10230146F3
:10B990006A462846FFF746FF20B9084A19210720C2
:10B9A0001AF025FA69462046FFF7D1FF18B1034A7D
:10B9B0001D211AF01CFA204605B030BDE2770500C3
:10B9C00008B5FFF7C4FF0F289BBF034B18564FF66F
:10B9D000FF7080B208BD00BFD277050030B50546C4
:10B9E00085B008460C462AF025FE102301466A461B
:10B9F0002046FFF717FF28B169462846FFF7E0FF0A
:10BA000005B030BD2120FBE702880B889A4205D1A2
:10BA100080788B78C31A584258417047002070478D
:10BA2000427803781344021D1C3012F8011B0B44AA
:10BA300090429BB2F9D1D8B200EB1323C3F30F208D
:10BA40001844C04380B270472DE9F8431E460F46A4
:10BA500031B3052826D81C23174D434305EB0308B3
:10BA6000EB5C834220D198F80190B9F1180F1DD8F2
:10BA700091451DD8C3EBC3039C002819FFF7D0FFE5
:10BA8000B8F80230834215D104344A4629193846A1
:10BA90002AF06CFC98F8013033700020BDE8F88380
:10BAA0000520FBE70120F9E70420F7E70220F5E78E
:10BAB0000320F3E70620F1E700FF00201A4B436064
:10BAC0004FF4817343810323437341F21433C381E1
:10BAD00040F60A130383154B0364154B4364C38B71
