:020000022000DC
:10600000000001200145030029450300ED090300BC
:106010002D4503002F45030031450300000000001B
:1060200000000000000000000000000033450300F5
:1060300035450300000000003745030039450300E3
:106040003B4503003B450300A9A302003B45030079
:106050003B4503003B4503003B450300ED90020038
:106060003B450300FB900200FD9002003B4503000E
:106070003B4503003B4503003B4503003B45030014
:106080003B45030055560400257B03002D640300A7
:10609000415704003B450300596203003B450300A0
:1060A0003B4503003B450300FDD1030079A00200FE
:1060B0003B4503003B4503000000000000000000DA
:1060C0003B4503003B4503003B4503003B450300C4
:1060D0003B4503003B4503003B4503000000000037
:1060E00000000000000000000000000000000000B0
:1060F00000000000000000000000000000000000A0
:10610000000000000000000000000000000000008F
:10611000000000000000000000000000000000007F
:10612000000000000000000000000000000000006F
:10613000000000000000000000000000000000005F
:10614000000000000000000000000000000000004F
:10615000000000000000000000000000000000003F
:10616000000000000000000000000000000000002F
:10617000000000000000000000000000000000001F
:10618000000000000000000000000000000000000F
:1061900000000000000000000000000000000000FF
:1061A00000000000000000000000000000000000EF
:1061B00000000000000000000000000000000000DF
:1061C00000000000000000000000000000000000CF
:1061D00000000000000000000000000000000000BF
:1061E00000000000000000000000000000000000AF
:1061F000000000000000000000000000000000009F
:1062000010B5054C237833B9044B13B10448AFF3F0
:1062100000800123237010BDF02400200000000046
:1062200064B6040008B5034B1BB103490348AFF340
:10623000008008BD00000000F424002064B60400C3
:10624000154B002B08BF134B9D46A3F5803A002148
:106250008B460F461348144A121A21F0ECFE0F4BDE
:10626000002B00D098470E4B002B00D09847002001
:10627000002104000D000D48002802D00C4821F038
:10628000EAFD21F01FFE200029000DF0E5FF21F0BE
:1062900005FE00BF00000800000001200000000013
:1062A00000000000F0240020AC660020577E0400AF
:1062B00000000000AADF7047AEDF704710B504464B
:1062C000006808B121F02AFE204610BD704710B5C5
:1062D000902104461FF08EFE204610BD70B50E4E74
:1062E0003378BFF35B8F13F0010513D130461FF0F5
:1062F00038FE78B1094C0A4B23603046042384F8F9
:10630000505084F858301FF038FE064A064920469F
:106310001FF06BFE014870BDA82500201825002045
:10632000BC95040080230020CD620200704790F8E5
:1063300020309B0603D590F82830FD2B02D9036846
:106340005B691847406A7047704700207047A0F8A3
:106350004210704708B500F0E5FA006808BDB0F8D3
:1063600042007047B0F840007047A0F844107047F2
:10637000B0F8440070470000094A02604DF6AD6174
:106380000022426001818272C260C0F81220C0F80F
:106390001620C26180F82020426280F828207047D1
:1063A000388C040038B590F82030DB0704460D46E1
:1063B00005D5044A1B2102F150000AF0B8FAE56045
:1063C00038BD00BF0C8B04002DE9F04704469AB09D
:1063D00000250EAFE1611C22884610A829460E95C3
:1063E0007D6021F028FE1C22294610A80DF15C0AD0
:1063F000ADF85C508DF85E50ADF862508DF8645089
:1064000021F019FE09A9204600F0E0F803222946F0
:10641000504621F010FE9DF85E30CDF854A00126C4
:1064200066F34203DBB233438DF85E309DF85C3097
:1064300066F3030366F307138DF85C309DF85D3057
:1064400004F1040A66F3030366F3071350468DF85C
:106450005D3002F06DF8504602F004F80DF1680A64
:10646000142229464AF8640D09A821F0E4FD2368A6
:10647000CDF824A01B69ADF82E502046984723681C
:10648000ADF82C009B6820469847ADF830002046B8
:10649000FFF74DFF0DF162090D9003222946484692
:1064A00021F0C9FD9DF86430CDF8289003F0F80381
:1064B00043F005038DF864309DF86230119566F362
:1064C000030366F307138DF862309DF8633014956B
:1064D00066F3030366F30713E6688DF8633005ABD4
:1064E0000393002E6BD0304621F0E2FE0F2806EB1E
:1064F0000009029007D92A4602A903A820F0F8F85B
:10650000029B039005934A463146039820F044F9D4
:10651000029B039A04930025D554049B3BB3039A32
:1065200011920DF165069BB2032229463046ADF863
:106530004A30ADF8483021F07EFD9DF86730149662
:10654000012262F34203DBB213438DF867309DF8FA
:10655000653062F3030362F307138DF865309DF82D
:10656000663003F0F00365F307138DF86630236897
:10657000002513955B6B39462046984710B1ADF85E
:106580003A50139704F1120309AA10A9B8F82C0085
:10659000FFF790FE18B10B4A8C210AF0CEF90021CA
:1065A000204600F035F894F8203043F0010384F8D9
:1065B000203003A820F0B6F81AB0BDE8F0870248F2
:1065C00020F03DFA0C8B0400868B04000B7F43F017
:1065D00002036FF300030B7790F820300A7FC3F3B8
:1065E000800363F3C3020A7790F82030D2B2C3F37A
:1065F000400363F304120A7790F82030D2B2C3F359
:10660000001363F345120A77437C81F83F307047EB
:106610002DE9F043036887B0DB6904468846984754
:1066200006462046FFF783FE94F820309B06054679
:106630005FD594F82830FD2B5BD84146304605F0F5
:106640000FFA0746FFF74AFE236881465B6920463A
:10665000984794F82830CDF80880CDE90073324689
:1066600001462B46484605F033FA064688B93A46B5
:106670000146284621F0DFFC23683146DB682046CE
:106680009847FFF72BFE05F014FA032007B0BDE88A
:10669000F08323683946DB68204698472368204604
:1066A0001B699847E369618A06AA22F8020D986877
:1066B0002B46B0F8420000F0EFFE18B1114AF1216C
:1066C0000AF03BF994F82030C3F340000028DDD0F5
:1066D000E2699268B2F842104FF6FF7291420ED012
:1066E000C3F3C0000028D1D0236820465B6A9847D6
:1066F000CCE723683146DB6820469847CEE7002088
:10670000C4E700BF0C8B040030B590F820309A0726
:1067100087B0054645D5C2699268B2F842104FF677
:10672000FF7291423DD01B073BD503681B69984718
:106730006B8AADF8083001238DF80A300DF106029E
:106740000023CDE90423EA69ADF806009268ADF8AC
:106750000C3002A9B2F84200FFF7AEFD082804464B
:1067600018D007D860B1104A40F22B1120460AF029
:10677000E4F805E0132806D043F201439842F2D131
:10678000204607B030BD95F8203043F0400385F82F
:106790002030F5E795F8202063F3861285F8202055
:1067A000EEE70824ECE700BF0C8B04002DE9F04F66
:1067B00090F820309A0791B0044640F18A80C2696F
:1067C0009268B2F842104FF6FF72914200F0818059
:1067D0001B077ED503681B69984780462046FFF754
:1067E000A6FD94F82050C5F3801582460DB1B4F88B
:1067F00046504FF0000B0DF11809A84548D9A8EBF9
:1068000005071422132F4FF000014846BB46A8BFCE
:106810004FF0130B21F00FFC132FCCBF1322FF22DC
:106820000AEB0507C8BFB5FBF2F21FFA8BF68DF82D
:10683000182039461FFA8BF20DF1190021F0D7FB11
:10684000721C92B239460BA8ADF8062021F0CFFB9E
:10685000638AADF8083001238DF80A300DF1060384
:10686000CDE90439E3699B68002202A9B3F842002C
:10687000ADF80C20FFF720FD834608B313280BD199
:1068800094F82020A4F8465042F0400284F82020DA
:10689000584611B0BDE8F08F082808D194F82010B0
:1068A000A4F8462062F3861184F82010F0E743F242
:1068B0000142904204D0084A40F293110AF03DF898
:1068C000BDF806200BA93846354421F090FBADB247
:1068D00093E74FF0080BDBE70C8B040010B590F842
:1068E00020305B06044609D503685B6A984728B9DF
:1068F00094F8203060F3861384F8203010BD10B572
:1069000090F820305B0604460BD503685B6A984715
:1069100038B994F82030A4F8460060F3861384F860
:10692000203010BD80B483B000AF78607B682C331A
:1069300018460C37BD465DF8047B704710B5044B14
:10694000044640F8303BA36BDB689847204610BDF7
:10695000AC8A040010B50446FFF7F0FF204648213A
:106960001FF048FB204610BD2DE9F04387B00D46CF
:106970000446FFF7B3FC05F0A3F80646002840D113
:1069800023682946DB6820469847C9238DF81730CD
:1069900094F8203013F0200F236851D094F8282069
:1069A000FD2A4DD81B692046984705F068F82368F2
:1069B00001469B6920469847FFF790FC0546204614
:1069C000FFF7B5FC236807461B69204698472368F4
:1069D00080465B692046984723688146DB692046EC
:1069E00098470DF11703CDE9000302964B46424646
:1069F0003946284605F042F930B9FFF76FFC05F03B
:106A000058F807B0BDE8F083FFF768FC9DF8172041
:106A100094F8281005F0EBFA0028EED020469DF8F7
:106A20001760FFF77FFF23680746DB69204698471A
:106A3000E56B03463A46314604F13000A847E0E7EB
:106A4000FE228DF817209B69294620469847E5E7E6
:106A5000F8B5436A04465BBB90F82030DB0920D0D0
:106A6000144F154E3D78BFF35B8F15F001050ED125
:106A700038461FF076FA50B138463560B580B571AA
:106A80001FF07BFA0D4A0E4930461FF0AEFA33680C
:106A900003B16362636A5BB90120BDE8F84009F0A5
:106AA000B9BF03689B689847012121F0DBF9606258
:106AB000F8BD00BF142500200C25002080230020F5
:106AC000BD62020038B50446406A28B194F820300F
:106AD000DD0902D00023636238BD21F01FFA656230
:106AE000FAE700230120CB8040F21B1308710B80D2
:106AF0007047A8DF704770473030704713B5D0E952
:106B00000D3293420446019107D003B11960636BC3
:106B100004336363204602B010BD01AA1946303029
:106B200000F0ECF8F6E7000038B50E4B03600446C1
:106B300000254DF6AD630C4A057103828574C0E9EA
:106B400002551C30606111461FF026FE6369A56185
:106B50001D704FF6FF73A385C4E90C55A56320464D
:106B600038BD00BF088D0400918C040073B5037913
:106B7000044643BB00F10C058160284601F0D8FCB7
:106B8000284601F06FFC02A922464FF6FF7341F838
:106B9000040D22F82C3F0120FFF7ABFF18B10B4A80
:106BA0002D2109F0CAFE236820469B6A9847D0E948
:106BB0000056AE4205D0214655F8040BFFF704FC01
:106BC000F7E70123237102B070BD00BF928C04006F
:106BD00070B503689B6A0D469847D0E90046A64207
:106BE0000FD054F8040B90F8203065F3451380F86B
:106BF0002030036815B1DB6A9847F0E71B6B9847B4
:106C0000EDE770BD10B50C68C46000F10C038A8814
:106C10009A808A799A7110BD0A88112A09D0502A5F
:106C20000DD0102A10D1036801F108029B698988F0
:106C30001847036801F10802DB698988184703686F
:106C400031F8062F1B6A184770477047F7B503687D
:106C50009B6A0D46074616469847D0E9003199428F
:106C600037D053F8044B2888E28A90420FD16A89C2
:106C7000022A0CD105F10C000DF09DFE94F8203095
:106C800060F3C30384F82030012003B0F0BD628AB2
:106C9000B242E4D1AB795A1E022A06D82368698928
:106CA0001B6A204698470120EFE7062B13D102AA62
:106CB000B868002322F8023D3146B0F8420000F0E7
:106CC000DAFB2368BDF806101B6A204698470120AE
:106CD000DBE70020D9E70120D7E770B503689B6A9E
:106CE0000D469847D0E90046B44206D054F8040B4C
:106CF000036829469B6A9847F6E770BD2DE9F8437B
:106D0000D0E90034E41AA410914614BF22460122AF
:106D1000A41806460F46A1EB030834D2B4F1804F05
:106D200031D294BB254615EB080F18BFD9F80030B7
:106D3000D6F8009018BF45F80830B945A7EB090808
:106D400004D042464946284621F05CF9726808F1B1
:106D50000403BA422B44A2EB070805D0184642466A
:106D6000394621F044F9034603EB0807B9F1000F57
:106D700002D048461FF004F905EB8404C6E9005729
:106D8000B460BDE8F8836FF04044A0001FF0D8F86D
:106D90000546C8E77047704710B5642104461FF0E8
:106DA00029F9204610BD000010B5064B03600446CB
:106DB000C06908B11FF0E4F8206908B11FF0E0F8DD
:106DC000204610BDF0A6040010B5094C2378BFF38F
:106DD0005B8FDB0709D420461FF0C3F828B10548B4
:106DE00003F07CFE20461FF0C8F8024810BD00BF2B
:106DF000F8250020FC25002010B50B4C2378BFF3AC
:106E00005B8FDB070ED420461FF0ABF850B107486C
:106E100008F016FC20461FF0B0F8054A0549034863
:106E20001FF0E3F8014810BDC8250020CC25002044
:106E300080230020A96D020070B5114B036000256E
:106E400000F12803122604464562324629461846B8
:106E500021F0F1F84FF41671FF22C4E9131265878F
:106E6000A58784F83E50C4E91055A56484F85450B1
:106E7000A56525663246294621F0DDF8204670BD1D
:106E8000808D040080F82910704780F83A10704710
:106E900080F83B10704710B5012404FA01F190F915
:106EA0003C3049B21AB10B4380F83C3010BD23EAA4
:106EB0000103F9E780F83D10704728307047122031
:106EC000704710B55C30144605F026F928B101462C
:106ED0001022A01C21F08BF8012010BD2DE9F043F9
:106EE00004468BB004F124050E4603F07BFD2946D1
:106EF00003F0CAFD94F85430002B40F0D480A36D09
:106F00000133A365FFF778FF042305AA882108F061
:106F1000C9FDFFF771FF042306AA8B2108F0C2FD0B
:106F2000069A003218BF012202212046FFF7B3FF64
:106F3000069A8ABBA264216DA06D04F1280789B36B
:106F4000C30740F1BE80052384F82830002384F86D
:106F50002A3094F83A3084F82B3094F83B3084F897
:106F60002C3094F83C3084F82D3094F83D3084F87F
:106F70002E3094F83E3084F82F307D22236C93FB22
:106F8000F2F32386636CC4F83230059BA26D002BAC
:106F900000F0C1809BB2BFE0A36C002BCBD0059B5F
:106FA000A364C8E7062384F8283094F83B3084F8BB
:106FB0002B3094F83C3084F82C3094F83D3084F831
:106FC0002D3094F83E3084F82E304FF07D0C236C39
:106FD000C4F8312093FBFCF384F8350084F82A10C0
:106FE000A4F82F30042204F1360021F024F8DFF851
:106FF000548198F80030BFF35B8FD8070ED4404619
:107000001EF0AFFF50B1494806F004F840461EF0AC
:10701000B4FF474A474945481EF0E7FF3A46022178
:107020001223424806F052F8FFF7E6FE0322192128
:1070300008F045FD50B3236D43B3DFF80C9199F888
:107040000030BFF35B8F13F0010813D148461EF0E8
:1070500088FF78B1384F394B3B604846042387F8A6
:10706000508087F858301EF088FF314A344938463E
:107070001EF0BBFF65220221CDE9012104F12A03A4
:107080001022009219462C4804F022FD5EB940F20D
:107090001B13ADF81C300896ADF82460FFF794FE82
:1070A00007A903F01FFD236D002B39D103F09AFCD3
:1070B000234640F6CD42294603F0D2FC0BB0BDE892
:1070C000F08394F83A10F2B1052384F828300123B4
:1070D00084F82A30A36C236394F83C3084F834306D
:1070E00094F83D3084F83530059B84F82B10E2622B
:1070F0003BB983B2E3867D22236C93FBF2F32387B3
:1071000075E79BB2F6E73A462046FFF7DAFE00281D
:107110007FF46DAF17E793B2E3864FF47A43EEE75F
:1071200003F060FC23464FF40042C4E7B025002082
:1071300080230020976D020018250020BC950400D4
:10714000CD620200AC250020A82500200021FFF719
:10715000C5BE0000031D37B5202200210446184695
:1071600020F069FF254645F8240F03F03BFC284A30
:10717000294603F065FCFFF73FFE01230DF10702EE
:10718000862108F08FFC9DF80730102B02D03AD8EA
:10719000022B3AD8236504F15C0004F063FF03F08E
:1071A00021FC234629464FF4004203F059FCFFF727
:1071B00023FE0322362108F082FC012102462046EC
:1071C000FFF769FEFFF718FE0322372108F077FC6E
:1071D000032102462046FFF75EFEFFF70DFE032265
:1071E000382108F06CFC052102462046FFF753FECB
:1071F000FFF7EAFD214603F095FC01212046FFF749
:107200006DFE03B030BDFF2BC4D0FF23C2E700BF2B
:107210004D71020070B58AB00D460446FFF7ECFDD3
:1072200004230DEB0302882108F03CFC03238DF8B6
:107230001A3000238DF81B302DB105238DF81A303C
:1072400001238DF81B3094F83B308DF8083094F80A
:107250003C308DF8093094F83E308DF80A30B4F89F
:107260004030ADF80B30019BA26D002B3CD193B2A6
:10727000ADF80D3008238DF810300DEB0306072311
:10728000ADF818304FF48A73ADF81C3004AD0C2300
:10729000ADF8243005960895FFF796FD07A903F091
:1072A00021FC94F83D308DF80830636CCDF809303E
:1072B000019BA26DD3B993B2ADF80D3009238DF8BF
:1072C00010300723ADF818304FF48A73ADF81C3036
:1072D0000C23ADF8243005960895FFF775FD07A936
:1072E00003F000FC0AB070BD9BB2C1E79BB2E3E7BC
:1072F00037B50B8840F22112934204463DD0B3F5D6
:10730000917F16D2832B5BD006D8812B47D04ED8E5
:10731000222B3FD003B030BD8B2B32D0B3F58C7F06
:1073200071D0872BF6D14B6893F9003080F83D304F
:10733000F0E7B3F59A7F58D00CD8B3F5997F46D0D3
:107340004CD8B3F5917FE5D1002180F85410FFF7B8
:10735000C5FDDFE740F23D1293424DD040F23F12AF
:1073600093426CD040F235129342D3D14B681A78D5
:10737000003218BF0122032109E0012380F85430B4
:10738000C8E74B681A68003218BF01220221FFF7D4
:1073900082FDBFE74B681B7880F83A30BAE74B684C
:1073A0001B7880F83B300121FFF734FFB2E74968D2
:1073B000254AD1E90001002320F076FB6064A9E7AB
:1073C0004B681B6803647F2380F83E30A2E790F887
:1073D0003C3043F0100380F83C309BE74B681A7850
:1073E000003218BF01220021D1E74B681A78003221
:1073F00018BF01220121CAE74B681A78003218BF72
:1074000001220521C3E7C56C6B1EC364002D81D129
:1074100001210DF1070002F045FE9DF8072042F220
:1074200010735343FF2293FBF2F303F56A43603377
:1074300064222946B3FBF2F32046E364B4E74968CB
:107440005C3004F036FE65E70090D00310B50446CA
:10745000FFF7AAFC20462C211EF0CCFD204610BDD3
:1074600010B5182104461EF0C5FD204610BDACDF46
:107470007047ADDF704713B514461288ADF8002091
:107480000022ADF802206A460193FFF7F2FFBDF833
:107490000030238002B010BD13B514461288ADF839
:1074A00000200022ADF802206A460193FFF7DFFFBB
:1074B000BDF80030238002B010BD36DF704737DFE3
:1074C00070476DDF704772DF704773DF704774DF9E
:1074D000704775DF704776DF704777DF704778DF7A
:1074E00070477ADF70477CDF70478ADF70478BDF39
:1074F0007047B1DF704765DF704766DF704711DFA7
:10750000704712DF7047000010B50B4C2378BFF3B3
:107510005B8FDB070ED420461EF023FD50B10748D9
:1075200000F03CF820461EF028FD054A05490348B6
:107530001EF05BFD014810BD742800207826002055
:10754000802300209976020010B50446006808B137
:1075500020F0E4FC204610BD70B50C4E3478BFF32B
:107560005B8F14F001040FD130461EF0FAFC58B1C5
:10757000074D30462C60AC80AC711EF0FEFC054A15
:10758000054928461EF031FD014870BD80280020C5
:1075900078280020802300204975020038B500F1CA
:1075A0000C020023C0E901234FF40072044603706B
:1075B00043708370C370037382838377C0E9083399
:1075C000836214201EF0BCFC0546206A08B11EF040
:1075D000D7FCA02363864FF6FF73A4F8423084F8EB
:1075E000F03004F2D313C4E90855294AC4F8F43141
:1075F00014351F23A562E2640025E265A4F8F83182
:10760000244AE26604F18403294684F8305084F861
:107610003150A58684F83E5084F83F5084F840509D
:1076200065642565656525666566256784F874501B
:1076300084F8805084F89551C4F8A451C4F8C0511E
:107640002022184620F0F7FC04F1A803C4F8A40097
:1076500029462022184620F0EEFC04F1CC03C4F8A1
:10766000C80020222946184620F0E5FC112384F8A2
:1076700031300623E386102323870A2363874FF4E0
:10768000C873C4F8EC00A38784F8D251204638BDF3
:10769000488E0400308E040010B5044600F052F904
:1076A000E36E04F16400DB68984704F1540000F0D5
:1076B000F0FD04F1440000F0ECFD206A08B11EF07A
:1076C0005FFC201D1FF02EF8204610BD13B5037877
:1076D00004461BBB0DF10700FFF713FF18B1104A5A
:1076E000552109F02AF99DF8073033B1FFF707FF5C
:1076F00018B10B4A592109F020F90120FFF7DDFEEE
:107700000E20FFF7DCFE0023C4F86C31A4F87031C2
:10771000C4F87431A4F878310123237002B010BD8D
:10772000D98D040008B50EF0EBFB0EF06DFD0EF0E8
:1077300071FD0EF0EDFC08280AD018B1054A8D2124
:1077400009F0FBF80EF060FD10B90EF0D9FBF9E777
:1077500008BD00BFD98D040030B503788BB0044656
:10776000002B64D04378002B61D10AAD334B45F830
:10777000243D012084F8940129460EF09DFD18B1A6
:107780002F4ABE2109F0D9F828460EF0FFFD18B1A6
:107790002B4AD52109F0D1F800230293ADF80C3023
:1077A00002A80C23ADF80A30FFF7A5FE18B1244A51
:1077B000DC2109F0C2F8A368002B3AD106AB2149BD
:1077C000049304A800F02CFEBDF81420049904F1E1
:1077D0003100FFF788FE18B1194AE22109F0ADF82F
:1077E000A08BFFF77CFE18B1154AE52109F0A5F83A
:1077F00004F5E270FFF765FE18B1114AE92109F0BE
:107800009CF804F2CB10FFF75CFE18B10C4AEB2198
:1078100009F093F894F8CC31013384F8CC3101238A
:107820002046637000F0ECFD04A81EF07BFF0BB057
:1078300030BD211D04A81FF0F1F8C5E7802300200A
:10784000D98D04002A8E040090F83E3080F8D231A1
:107850000BB100F0F9B9704790F8D22122B10022A3
:1078600080F8D22100F0CAB97047A1F120039BB281
:1078700043F6E072934298BF4186704738B543782B
:10788000044615467BB1FFF7F0FF00F04DF955B106
:1078900094F83E303BB1204600F0D6F92046BDE8D2
:1078A000384000F0ABB938BD30B5044687B004307D
:1078B0000D461EF076FF6378BBB1A368BBB902AB7F
:1078C0000D490093684600F0ABFDBDF80420009917
:1078D00004F13100FFF707FE20B1084A40F23511EC
:1078E00009F02BF868461EF01DFF07B030BD294691
:1078F00068461FF093F8E8E72A8E0400D98D04004B
:1079000038B543784BB1D0E90845AC4205D054F8BE
:10791000040B0368DB689847F7E738BD70B5437818
:10792000044673B1837863B9D0E90856B54206D0EE
:1079300055F8040B036821461B699847F6E70123B5
:10794000A37070BD70B5044600F07EF9D4E9085606
:10795000B54205D055F8040B03689B689847F7E7D4
:107960000023237070BD13B5D0E909329342044659
:10797000019107D003B11960636A04336362204642
:1079800002B010BD01AA1946203000F089FCF6E7CC
:1079900011F10C0F09D010DC11F1140F05D011F109
:1079A000100F02D011F1280F0DD190F930308B4219
:1079B00009D080F8301000F00DB80B1DF5D003DCB5
:1079C00011F1080FF1D070470029EED00429FAD147
:1079D000EBE7000008B5437883B190F8F010FF2979
:1079E0000CD090F930200120FFF777FD30B1044A28
:1079F00040F28711BDE8084008F09FBF08BD00BFF6
:107A0000D98D040043780BB100F0FABC7047704781
:107A100010B53C2204460021F43020F00CFB062374
:107A200084F8F73004F13003C4F8F83010BD0000DA
:107A3000F8B500F5987604460D463C220021304604
:107A400020F0F9FA062384F83331D4F8C031012745
:107A5000002184F8307184F83211002B40D0DDB160
:107A600004F5DA750C22284620F0E5FA4CF2010301
:107A7000A4F8B431D4F8C001FFF71FFAC4F8BC0170
:107A8000D4F8C001FFF71BFAA4F8B8010430C4F819
:107A9000585184F85C71C5B2207AC5F11A05EDB26F
:107AA000854228BF054684F83151DDB1D4F86C31E8
:107AB0001F21A4F8701123B9012020F0D3F9C4F8D4
:107AC0006C0104F5B872D4F86C1130460CF0AAFDC4
:107AD00040B1054A4FF40A71BDE8F84008F02DBFE7
:107AE0001D46D9E7F8BD00BFD98D040010B5114679
:107AF0000446FFF79DFF204600F016F82046BDE83B
:107B0000104000F0D9B838B504460D46FFF780FFA5
:107B100029462046FFF78CFF204600F005F8204656
:107B2000BDE8384000F0C8B8012380F87C3190F8F7
:107B30007D3103F0FE036FF3410380F87D310023B4
:107B4000C0F880314FF48073A0F89031438EC0F8B4
:107B50008431838EA0F888317047012380F87C310E
:107B60007047052380F87C317047000038B54378B2
:107B70000446002B3ED090F83E300BB100F064F884
:107B800094F87C21092A05D80123934040F212324F
:107B9000134209D1D4F8740108B120F0BFF90023D1
:107BA000C4F87431A4F8783104F5B872D4F86C11C3
:107BB00004F598700CF036FD20B10F4A4FF42F7188
:107BC00008F0BBFE04F5BE7204F5B67104F1F000D6
:107BD000FFF779FC054640B1204600F08BF8064AD5
:107BE0004FF43171284608F0A8FE2046BDE8384021
:107BF00000F004B838BD00BFD98D040008B590F876
:107C00003E2003468AB90D490D480A680068824241
:107C1000BCBF01320A6093F8F00093F89411FFF7AB
:107C200054FC18B9012283F83E2008BD054A40F2F1
:107C3000DB21BDE8084008F080BE00BF842800209A
:107C400084230020D98D040010B590F83E300446FE
:107C500073B190F8F000FFF73AFC30F0080304D05D
:107C6000044A40F2E92108F068FE002384F83E301F
:107C700010BD00BFD98D040090F83E30D3B190F80C
:107C80004030BBB9B0F842204FF6FF739A4211D191
:107C900021B9012380F87C31FFF768BF90F8953156
:107CA0000133DBB280F89531DB07F2D4052380F88D
:107CB0007C31F1E77047000010B543780446ABB162
:107CC00090F8F030FF2B11D100F014F804F5BE72DB
:107CD00004F5B67104F1F000FFF7F5FB30B1044A8A
:107CE00040F25331BDE8104008F027BE10BD00BF80
:107CF000D98D0400F0B58BB006462122002101A8E1
:107D000020F099F900241F4F2546B6F87031A342A0
:107D100014D9D6F86C311A5D01AB5819394620F0E8
:107D20009DFA04F00703072B054405D12122002109
:107D300001A820F080F900250134E6E72122002186
:107D400001A820F078F900240E4F2546B6F87831C6
:107D5000A34214D9D6F874311A5D01AB58193946CB
:107D600020F07CFA04F00703072B054405D12122FB
:107D7000002101A820F05FF900250134E6E70BB0EF
:107D8000F0BD00BF2B8E040030B5437889B00446A7
:107D9000002B44D090F84020002A40D19DF81030AC
:107DA000ADF8162062F3000362F34103DBB243F047
:107DB000040362F3C40301258DF81030ADF81820D8
:107DC000ADF81A208DF81C208DF81150FFF714F82B
:107DD00002230DF11202272107F064FEFFF70CF8D1
:107DE0002821022305AA07F05DFE04F5FA7104A814
:107DF000FFF77BFB20B10B4A40F2A53108F09DFD57
:107E00004FF48E73ADF8043084F840500023029391
:107E1000ADF80C30FEF7D8FF01A902F063FE09B0FF
:107E200030BD00BFD98D04001FB543780446CBB1E7
:107E300090F84030B3B1FFF75AFB20B10A4A4FF433
:107E40006D7108F07AFD002340F21D1284F8403075
:107E5000ADF804200293ADF80C30FEF7B5FF01A990
:107E600002F040FE04B010BDD98D040090F840002F
:107E7000704770B5D0E908460D46A64205D02946A0
:107E800054F8040BFEF7A4FEF7E770BD13B50446E3
:107E9000FEF7B2FF01230DF107022A2107F002FECF
:107EA0009DF907102046FFF773FD02B010BD13B512
:107EB0000446FEF7A1FF01230DF107020B2107F095
:107EC000F1FD9DF907102046FFF762FD02B010BDDD
:107ED000F0B50B88502B85B004460D4663D015D8FD
:107EE000102B30D003D8012B3DD005B0F0BD112BA5
:107EF00054D01C2BF9D1D4E90864A642F5D056F829
:107F0000040B036829465B699847F6E7532B70D04A
:107F100012D8512BEFD0522BE7D100220323114668
:107F2000B0F84200FFF7E5FA0028DED0394A40F207
:107F30002F4108F002FDD8E7562BDCD0572BD4D1C7
:107F400000F072F9D1E700F001F940F22113ADF829
:107F5000043000230293ADF80C30FEF735FF01A981
:107F600002F0C0FDC1E7FFF7F7FA0268A2B183880B
:107F7000023B02329BB22146A4F87C3041F8782FB4
:107F8000B4F84200FFF7B9FA0028AED0214A4FF406
:107F90007C7108F0D2FCA8E71346ECE700F004F986
:107FA0004FF49173D3E700F0C3F82B7B062B13D16A
:107FB000FFF7D2FA066806B10236D4E9084706355B
:107FC000BC4292D054F8040B3288036829461B6ADD
:107FD00098470028F4D088E7D4E90867AC1DB74279
:107FE00083D056F8040BEA88036821461B6A984739
:107FF000F5E7D0E908369E423FF477AF53F8040B1B
:10800000E988828D9142F6D1036829465B699847D9
:108010006BE700BFD98D040010B500F1250388B0CF
:1080200004460622C11C83610DF111001FF0DFFF21
:1080300000238DF81730E37C8DF81030237D8DF808
:108040001830A38B8DF81930A369CDF81A304FF48E
:108050008F73ADF8043004AB02930E23ADF80C30EF
:10806000FEF7B2FE01A902F03DFD08B010BD000010
:1080700070B50B881D2B92B006460C462AD10D7A9E
:10808000C5F3411535BB2422083101A81FF0AFFF0D
:1080900094F82420216A8DF828200DF129001FF082
:1080A000A6FF0D4A0795442101A80DF0C3FE20B19B
:1080B0000A4A40F2A94108F040FC06F5FA71002096
:1080C000FFF713FA082805D020B1044A40F2B54161
:1080D00008F033FC12B070BD19800200D98D040085
:1080E00008B5FFF711FABDE8084000F07BB80000C2
:1080F00010B50446EC3402F075FC2146064A02F045
:108100009FFC02F06FFC214600234FF42022BDE8C3
:10811000104002F0A5BC00BFE180020010B504468B
:1081200002F060FC04F1EC01BDE8104002F0ACBCD0
:1081300010B5044602F056FC04F1EC0100234FF4A4
:108140002022BDE8104002F0ADBC0000F8B50D469D
:10815000002380F83E308377044600F13601A8887A
:10816000FFF7B7F920B10F4A40F2DC4108F0E5FB18
:10817000236D1BB1A98804F144009847D4E908672E
:10818000AB88A4F84230BE4206D056F8040B036810
:1081900029465B699847F6E72046BDE8F840FFF7B7
:1081A000A7BF00BFD98D0400F8B54FF6FF73A0F844
:1081B0004230036D04460E461BB1036E898854306D
:1081C0009847D4E90857BD4206D055F8040B036818
:1081D00031465B699847F6E72046BDE8F840FFF76F
:1081E0009DBF000008B50346B0F842004FF6FF728D
:1081F000904214D09A7F92B901229A771321FFF707
:108200006AF908280BD043F20202904207D030B13D
:10821000034A40F20A51BDE8084008F08EBB08BD91
:10822000D98D0400807F704770B5D0E908460D1DD8
:10823000B44206D054F8040B036829465B6A984799
:10824000F6E770BD1FB5CA688B6803925B68044689
:1082500068469847694604F1440000F06DF86846A6
:1082600000F017F82046FFF7CDFB04B010BD1FB596
:10827000CA688B6803925B680446684698476946FB
:1082800004F1540000F058F8684600F002F804B019
:1082900010BD10B583680446DB689847204610BDC2
:1082A0002DE9F843D0E90034E41AA410914614BF34
:1082B00022460122A41806460F46A1EB030834D239
:1082C000B4F1804F31D294BB254615EB080F18BF8F
:1082D000D9F80030D6F8009018BF45F80830B945F5
:1082E000A7EB090804D04246494628461FF08AFEFB
:1082F000726808F10403BA422B44A2EB070805D0C8
:108300001846424639461FF072FE034603EB080743
:10831000B9F1000F02D048461DF032FE05EB84048F
:10832000C6E90057B460BDE8F8836FF04044A00090
:108330001DF006FE0546C8E730B58B6885B00446DB
:108340001B6801A80D469847A368214628461B686C
:108350009847039B01A91B6820469847E368EA6891
:10836000E260EB6005B030BD0B680360014B8360D9
:10837000704700BF488E0400024B83600B680360A7
:10838000704700BF488E04000B6803607047704759
:1083900000487047A48D040010B5044608460449FF
:1083A0001EF017F9002814BF2046002010BD00BFA2
:1083B000A48D04000B680360014B8360704700BF0D
:1083C000308E0400024B83600B680360704700BF6F
:1083D000308E04000B680360704770470048704798
:1083E0008C8D040010B50446084604491EF0F1F8CF
:1083F000002814BF2046002010BD00BF8C8D040053
:1084000008B53630FFF76DF830B1044A40F2A911D3
:10841000BDE8084008F091BA08BD00BFD98D04003E
:1084200037B50D4BCB1A0F2B04460D46019306D9D9
:10843000002201A91EF05CF9019B2060A3602A467E
:10844000054920681EF0A8F9019B2268636000219D
:10845000D15403B030BD00BF208E040062DF7047EE
:1084600063DF704782B0838882798DF80620002010
:1084700063F30F00BDF8063063F31F4002B070478E
:108480002DE9F84F0024DFF898A0DFF8A0B080466F
:108490008946264625462746D9F80030DB5DABB332
:1084A0000F2D2FDC2D2B1ED0202B1CD0A3F1300242
:1084B000D2B2092A05D9A3F14102052A15D8373BC2
:1084C000DAB202EB0413F20748BFC5F10F0203F062
:1084D000FF0406F1010341BF08F802401E460135C2
:1084E000002458BF1E460137D6E7A3F16102052AD2
:1084F00001D8573BE4E752464821584608F017FA9E
:108500000022DEE7064A0748582104E00F2D04DC6C
:10851000034A0548562108F00AFA4046BDE8F88F9C
:108520008E8E0400F68E0400E68E0400D48E0400C5
:1085300010B50268837986B004465AB3D3B90146B0
:1085400002A8FFF79DFF01AA02A91020FFF788FFEC
:10855000052812D1A11D02A8FFF780FF18B1104A0B
:108560001B2108F0EAF99DF815209DF8143043EA24
:108570000223A380A07906B010BD28B99DF806306B
:10858000A371BDF80430F4E7054A0648222108F03B
:10859000CEF9EFE7002BEDD1014A03482521F6E79C
:1085A0008E8E0400608E0400748E04004FF4C1634C
:1085B0008380072383710223437201238372144B48
:1085C000C36009230374437C03F0F00343F0090301
:1085D00003F0CF036FF386134374032383740D4BAF
:1085E00083610D4B436140F2C97240F2BC73C0E934
:1085F00007234FF45B614FF49663C0E90913C3622C
:10860000064B4363064B8363EC2380F8303070479E
:108610000314130ACDCC4C3EE02D903B5C8F423FBF
:1086200085EBD13E154B164AC0E90123154BC360BB
:1086300007230374437C03F0C00343F061034374D6
:1086400003238374104B8361104B43614FF4FA7121
:108650006FF07C03C0E907134FF0000C4FF4E163A7
:10866000C0E909C34FF41673C362094B4363094B56
:108670008363EC2380F83030704700BF05060100AB
:10868000080E0D0402141306378981BE1EA7E83BAD
:108690003333333F9A99993E4FF4C1638380072364
:1086A000837102234372154BC36009230374437C17
:1086B00003F0F00343F0090303F0CF036FF38613D5
:1086C00043740F4B836101220E4B827282744361AB
:1086D00040F2D37240F2CD73C0E9072340F2DC517F
:1086E0004FF49663C0E90913C362074B4363074B1A
:1086F0008363EC2380F83030704700BF0314130A03
:10870000CDCC4C3EBC74933B5C8F423F85EBD13E5D
:108710004FF4C163838007238371022343720023D4
:10872000C3720323037314234373132383730A2332
:10873000C37309230374437C03F0C00343F069034C
:1087400043740F4B83610F4B43616FF0620301224F
:10875000C361AB3B82728274036242F228324FF4EF
:108760009663C0E909234FF41673C362064B436353
:108770004FF07A538363EC2380F83030704700BFAA
:10878000A01A2F3E48507C3B3333333F40F6113321
:1087900083800C238371022383720423C372082312
:1087A0004373062383731323C37314230374437C1B
:1087B00003F0FE0343F01E03002203F0DF0362F325
:1087C000861343740023836143614FF47A73C0E9D5
:1087D00007334FF46163C0E90A334FF080434363CA
:1087E0004FF07E5301218363D82341720273817459
:1087F000426280F83030704710B5FFF7C7FF04239E
:10880000837410BD192343731A238373437C03F0CD
:10881000F8036FF3C303437402238374EC2380F8DB
:108820003030704738B54FF010230546D3F88440F8
:10883000631C30D0B4F57B7F13D8B4F57A7F25D292
:10884000642C2ED008D8A4F12803012B2CD928465B
:10885000FFF722FF072038BDC82CF8D1FFF7CCFF67
:1088600016E040F2DE539C420AD840F2DC539C42B0
:1088700013D240F2EF339C42E9D1FFF7D3FE07E079
:10888000B4F5BC6FE3D8FFF743FF01E0FFF78EFEBE
:108890002C600020DFE740F2DE542846FFF7FCFEA4
:1088A000F6E7FFF7AFFFF3E7FFF770FFF0E776DFDC
:1088B00070478FDF704790DF7047B5DF70477047B4
:1088C0001FB540F22313ADF804300D4C0023029382
:1088D000ADF80C302378BFF35B8FDB0709D420465B
:1088E0001DF03FFB28B1074802F0F8F820461DF0C4
:1088F00044FB01A9034802F0F5F804B010BD00BF25
:10890000F8250020FC250020012808B50BD1002106
:10891000054A08460DF08EFA28B1044A3F21BDE809
:10892000084008F00AB808BDC1880200318F040071
:1089300010B50446FEF7E8FD2146BDE81040FFF7FC
:10894000C7BA000013B50388212B044646D019D8B6
:10895000112B0FD8102B02D2013B012B10D8314A1A
:10896000302120460DF066FA50B12F4A682107F0F9
:10897000E4FF05E01B2BF2D01D2B29D0152BEED0E8
:1089800002B010BD522BEAD011D83B2B34D0502B63
:10899000E5D0232BF4D1002211468088FFF78BFF0E
:1089A0000028EDD0204A842107F0C7FFE8E7562BC6
:1089B0002DD0572BD3D0552BE2D145218088FFF7FE
:1089C0007CFF0028DCD0184A8A2107F0B6FFD7E7E1
:1089D000FEF79AFD2146FFF74BFBD1E702A90023E2
:1089E00021F8043D8088FFF764FF0028C8D00E4AB4
:1089F000732107F0A2FFC3E713218088FFF757FF19
:108A00000028BDD0084A792107F097FFB8E7132165
:108A10008088FFF74CFF0028B2D0034A7F2107F07F
:108A20008CFFADE731890200318F0400704710F0F0
:108A300081BF000038B50E4C2378BFF35B8FDB0796
:108A400005460ED420461DF08CFA50B1094801F0BD
:108A50000FFD20461DF091FA074A084905481DF010
:108A6000C4FA29460348BDE8384001F0ADBE00BF56
:108A7000B02800208828002080230020A58A02003A
:108A800008B5064A14210DF0D5F928B1044AC621CB
:108A9000BDE8084007F051BF08BD00BF358A02009D
:108AA000318F040010B5044B03600446C06908B15F
:108AB0001DF066FA204610BD108F040010B5044664
:108AC000FFF7F0FF204628211DF094FA204610BD44
:108AD00000F1804000F5E040002382B003600368AD
:108AE0000193019B02B070470023435082B043586A
:108AF0000193019B02B070477047704710B5402149
:108B000004461DF077FA204610BD0000FF21C17613
:108B1000017701210D4A81770D490260002202711F
:108B20004277C27780F8202080F8302080F8362005
:108B3000C0E90E22C0E90A220A6080F8212080F8EC
:108B4000222080F8232080F8242070479090040091
:108B5000B428002010B50B4C2378BFF35B8FDB07E4
:108B60000ED420461DF0FDF950B10748FFF7CEFFA7
:108B700020461DF002FA054A054903481DF035FA62
:108B8000014810BDC4280020C828002080230020F0
:108B9000FB8A0200164A022310B5C2F8F035002302
:108BA000C2F8F4356FF00043C2F808334FF4827016
:108BB000FFF78EFF0F4B4021802483F80713C3F883
:108BC000804193F807134809EC210141C90705D5F5
:108BD0000949886850B10B6823430B600223C2F82F
:108BE00004330123C2F80035002010BD1C60F5E7F6
:108BF0000070004000E100E0746600208162704770
:108C000070B5C37F0246002B39D01D4D1D49022689
:108C1000C5F808630023C377C37D012404FA03F376
:108C2000C1F80835837E184804FA03F3C1F8083503
:108C3000164B1C60A3F580534FF4A0711C60FFF726
:108C400053FF134B1C6092F8203073B182F8206000
:108C50004FF48A70FFF73CFF2023C5F804330D4B17
:108C60001C6092F82030002BFBD1002353774FF487
:108C70008270FFF72DFF024B0222C3F8042370BD60
:108C80000070004000F001400090004004A000404F
:108C90000C90004008700040F8B5431893F821305C
:108CA00023B1294A40F2C91111200CE0274A0224BD
:108CB000C2F80843437F012B09D9C2F80443224A72
:108CC00040F2D5111320BDE8F84007F036BE204D24
:108CD00055F8216090F8205005F0FF07FDB1012FF5
:108CE0001CD1057FFF2D05D0C2F804434FF4F0716D
:108CF000154AD9E70133174A017743771368002BE8
:108D0000FCD04FF48070FFF7E3FE104BC822C3F88D
:108D10002C66C3F830260222C3F80423F8BD0125CF
:108D20002B44C1764377FF21C82380F82050017778
:108D3000C2F804434FF48070C2F82C66C2F8303693
:108D4000FFF7C6FE1560E9E7DE8F04000070004003
:108D5000B42800200071004038B5C37F013B012BCF
:108D600004460DD900F121020023253012F8011B21
:108D7000002918BF0B468242F8D113B10223E377D2
:108D800038BDE17E0123FF29E37722D0257FFF2D27
:108D9000204617D0FFF780FF29462046FFF77CFFCB
:108DA000E27D0F49012303FA02F2A377C1F80425FB
:108DB0000C4A1360A27E03FA02F2C1F804250A4AA3
:108DC0001360DDE7FFF768FFE17E013101F0030189
:108DD000E3E7064A40F2B911082007F0AEFDDFE7ED
:108DE00000F001400CA0004000900040DE8F040025
:108DF00010B54218002482F82140C47F022C05D10E
:108E00000322C277FFF7A8FF012010BD012CFBD180
:108E1000023101F00301FFF73FFF014B1C60F3E754
:108E200004A00040C162704743798B420FD901EB27
:108E3000410100EB410113788B71D2F80130C1F888
:108E400007305379CB7201230371002070476020F3
:108E50007047000070B5164D90F83010B0F93C30F6
:108E600005EB01111B0443F47843C1F81C3590F85D
:108E70003060072E044604D90E4940F2B92007F0AD
:108E80006CFD7600802303FA06F6C5F8086394F8B3
:108E90003040072C04D9074940F2B92007F05DFDA6
:108EA0004023640003FA04F4014BC3F8044370BD8B
:108EB000007000409E8F0400072998BF0B4BC263CF
:108EC00098BF33F8113080F8301088BF4FF4AA7380
:108ED0000729438696BF064B4FF4A87333F8113029
:108EE0008386012380F83630FFF7B4BF7E8F0400FD
:108EF0008E8F040070B5164D90F83010838F05EBFF
:108F0000011143F07F6343F47023C1F81C3590F8DE
:108F10003060072E044604D90E4940F2B92007F00C
:108F20001CFD7600802303FA06F6C5F8046394F866
:108F30003040072C04D9074940F2B92007F00DFD55
:108F40004023640003FA04F4014BC3F8084370BDE6
:108F5000007000409E8F04002DE9F0410546194E37
:108F6000FFF7C8FFD5F82C80D6F80475B8F1000FCC
:108F700024D0D6F80825AC6B013200234FF418201A
:108F800000211EF0E1FD4FF47A7200231EF0DCFD9B
:108F90003C1B24F07F44844210D9D6F808250023D6
:108FA00001324FF4282000211EF0CEFD4FF47A72DA
:108FB00000231EF0C9FD844200D2C047AF63BDE864
:108FC000F08100BF00B0004010B50446FFF718FE66
:108FD0002046BDE81040FFF7BFBE08B5FFF7BAFD59
:108FE000BDE80840FFF7F0BFFFF7F7BF002108B565
:108FF000064A08460CF01EFF30B1054A4FF42D71A9
:10900000BDE8084007F099BC08BD00BFE98F020029
:10901000DE8F040013B52F4B1B68044613B34FF4C7
:109020008270FFF755FDE37E8DF807302A4BD3F8A9
:10903000343694F82010C9B201291DD1637F013B59
:109040006377237FFF2B19D10223002184F820307E
:10905000224A08460CF0EEFE20B1214A40F2D5210A
:1090600007F06BFC1F4B1B68B3B14FF48A70FFF71E
:109070002FFD002384F8203002B010BDE376FF23DB
:109080002377194A0DF107000CF0D4FE0028E9D02F
:10909000134A40F2E121E3E794F83630002BEBD09D
:1090A000608E00F1804303F5E0431B6823B1FFF7B6
:1090B0000FFD2046FFF7CEFEA08E00F1804303F5A2
:1090C000E0431B68002BD7D0FFF702FD2046FFF7D7
:1090D00043FFD1E70471004000700040DB8F0200C5
:1090E000DE8F0400147100403995020008B5FFF7C7
:1090F00031FDBDE80840FFF78DBF704708B5FFF7A9
:1091000029FDFFF773FF4FF4A0710248BDE8084046
:10911000FFF7EABC00A00040042918D008D80129B4
:109120000FD01CD302290ED003290ED00020704787
:10913000062910D00DD307290FD06429F6D10920B4
:1091400070470220704703207047042070470520B5
:10915000704706207047072070470820704701209D
:109160007047F8B51378072B07460C46164604D906
:10917000642B02D0012007F04DFC7379083BDBB271
:10918000F62B02D8012007F045FCD6F80130962BCB
:1091900032D9B3F5967F31D9B3F5167F30D9B3F50F
:1091A000966F2FD9B3F5E16F2ED9B3F5166F2DD980
:1091B00040F6B83293428CBF002301237179FF2916
:1091C00026D03846FFF7A8FF0122054631783846F9
:1091D000FFF7A2FF1B0243F4003343EA02532201CC
:1091E00002F1804202F5E042C2F81835C2F8145587
:1091F000C2F810050020F8BD0723DFE70623DDE7EE
:109200000523DBE70423D9E70323D7E70223D5E7C8
:1092100000252A46DAE700002DE9F843421D0F46F3
:109220000B460446103153F8040B42F8040B8B42F2
:10923000F9D11B7813707F4B7F4D01221A60D5F84E
:10924000083543F00303C5F80835D5F8103523F089
:109250000F03C5F81035D4F812304FEA13794FEAEE
:109260000318B9F1010F08BFB8F1000F04D3734917
:1092700040F2B12007F071FBC5F84085D5F8043500
:109280006D48DFF8E08123F00303C5F80435D5F815
:10929000003243F00103C5F800324FF4A071FFF72C
:1092A00023FC4FF4A2716448654DFFF71DFC4FF499
:1092B000A4716148FFF718FC4FF4A6715E48FFF7F0
:1092C00013FC0C23A3755F4BC5F87035A3F504534D
:1092D0003C3BC5F8743503F540530433C5F84039B9
:1092E000A37D594A012606FA03F3C5F80435C8F8E8
:1092F0000060D2F8083543F00303C2F808356179FD
:10930000C82393FBF1F3023BC2F84035D2F8043591
:1093100023F003033343C2F8043510464FF4A07121
:10932000FFF7E2FB4FF4A271FFF7DEFB4FF4A471ED
:10933000FFF7DAFB4FF4A671FFF7D6FBD2F8003245
:1093400043F48073C2F800320E2363763F4BC5F8B6
:109350008035A3F589531C3BC5F88435637E9E4058
:109360000F23C5F80465A376394B3A4EC5F88865D6
:109370006021C5F88C85C5F84C2983F80A1393F849
:109380000A134809EC21014111F0010F154606D0DE
:10939000314A916869BB4FF480621A6005E02F4A38
:1093A000C02142F2020007F0C8FA4FF48033C5F83A
:1093B00004330D23E375224B294AC3F878653946F7
:1093C000C3F87C252046FFF7E5FB18B1234AD421DA
:1093D00007F0B3FA002506266279AA4205F10105D5
:1093E0000CDD691E06FB0542C9B22046FFF7B9FE37
:1093F000F2E7136843F480631360D6E70025DFF8D3
:10940000688004F121072E464FF4C8701DF021F842
:1094100048F825000135042D07F8016BF4D101232C
:109420002377E676FDF7D0FC214601F07BFB002098
:10943000BDE8F8830C9000400090004027900400A5
:1094400000F001404091004000A0004040A10040D9
:1094500000E100E00471004074660020DE8F04002B
:10946000007000400CA00040B428002070B50446F5
:10947000002506266279AA4205F1010507DD691E6D
:1094800006FB0542C9B22046FFF76BFEF2E70F4D1F
:109490002B78BFF35B8FDB070ED428461CF061FDF1
:1094A00050B10B4803F0B6FD28461CF066FD094A92
:1094B000094907481CF099FD1123621D42F274719D
:1094C000034803F003FE0023237170BDAC25002088
:1094D000B025002080230020976D020030B5836AFC
:1094E00085B004460D4623B34318012283F821209A
:1094F000837F63B14FF49F73ADF804300023029370
:10950000ADF80C30FDF760FC01A901F0EBFA002387
:10951000A377237943B12046FFF772FB2046FFF77C
:10952000A5FF2046FFF718FCA36A2846984705B018
:1095300030BDFFF75DFCFAE710B50446FFF70AFB04
:109540002178BDE81040FFF7C9BF036800791847CC
:10955000704700000000000030B52DED028BB4EE26
:10956000E00AF1EE10FA85B005460C46F0EE408AAE
:10957000B0EE608A04DB504A2221212007F0DDF999
:109580004E4BD3F80435AB6018EE900A1DF02EFE5A
:1095900043A3D3E900231EF011F9002862D0DFEDC8
:1095A000487A68EEA77A17EE900A1DF01FFE3EA3D8
:1095B000D3E900231DF0BCFC3DA3D3E900231DF03B
:1095C00097FF00223F4B1DF0B1FC1EF03FF9C5B2E2
:1095D00018EE100A1DF00AFE31A3D3E900231EF095
:1095E000EDF8C0B1DFED367A68EE277A17EE900A13
:1095F0001DF0FCFD2CA3D3E900231DF099FC2CA346
:10960000D3E900231DF074FF00222E4B1DF08EFCC9
:109610001EF01CF9C0B2002304210622072C8DF88D
:1096200004108DF806308DF807508DF808008DF87D
:1096300009308DF80A308DF80B308DF80D2013D9D4
:109640001D4A3B21212007F078F91F4901A80CF0A1
:1096500005FF18B1184A592107F06FF905B0BDECA4
:10966000028B30BD0546B3E7013C062C06D8DFE887
:1096700004F004080A0C0F11140001238DF80C30BB
:10968000E3E70223FAE70323F8E78DF80C10DCE7A1
:109690000523F3E78DF80C20D7E70723EEE700BF9B
:1096A000666666666666AA3F666666666666FA3FD0
:1096B0006666666666660A409C90040000B00040DC
:1096C000000080420000F03F859702000139032925
:1096D0000ED8DFE801F002070A0A4FF48470002177
:1096E0000CF044BF4FF48270F9E74FF48670F6E750
:1096F00070470CF059BF000038B50B88A3F5807394
:1097000004460C2B36D8DFE803F00935353507352C
:10971000353531353535330002232371236823B3C2
:10972000154BD3F80455D3F80825A3680132ED1A78
:109730004FF44810002300211EF006FA4FF47A720D
:1097400000231EF001FA25F07F45854209D90B4A16
:10975000082120460CF06EFB18B1094AA02107F041
:10976000ECF8054BD3F80435A36038BD0123D4E7EA
:109770000423D2E70023D0E700B000404B9502005D
:109780009C90040013B50B4CADF806002378BFF392
:109790005B8FDB0706D420461CF0E3FB10B12046AC
:1097A0001CF0EBFB0DF106010348FFF7A5FF02B02B
:1097B00010BD00BF082900200C2900201F2810B56B
:1097C000044604D905494FF4F37007F0C6F80120A8
:1097D0004FF0A043A040C3F80C0510BD3E9104001B
:1097E0001F2810B5044604D905494FF4F37007F05B
:1097F000B4F801204FF0A043A040C3F8080510BD05
:109800003E91040038B50A4D2C78BFF35B8F14F0FD
:1098100001040AD128461CF0A4FB30B1054B2846B0
:109820001C765C769C761CF0A8FB024838BD00BF15
:109830001829002020290020002202764276827614
:109840007047000008B5094A012313604376837E00
:109850005BB10021064A08460CF0ECFA28B1054A33
:10986000BF21BDE8084007F068B808BD00B001405E
:109870008F9D0200F590040008B5817609B9FFF7C5
:10988000E1FF002008BD0000064B00221A6082B0F4
:109890001B680193019B044B4FF40012C3F804238F
:1098A00002B0704754B1014000B001402DE9F84FBB
:1098B000037E8246002B00F08F80437E3BB9837E7F
:1098C000002B00F08980BDE8F84FFFF7BBBF434B8A
:1098D00001221A60D3F80025D0F81CB056424FF090
:1098E00000035C464FF0000563EB430769104FEA45
:1098F0003400404261EB4101864277EB010103DA1B
:10990000BBEB020665EB0307DAE914014FF47A7248
:10991000801B61EB0701ABFB02238946824273EB9C
:109920000901804655DBCAE91489DAE9140152427B
:1099300063EB43039042994101DACAE91423DAF850
:1099400044300A210133CAF84430B3FBF1F201FB81
:109950001233CAE91267002B3ED14FF47A7200230A
:10996000DAE914011EF0A0F84FF4C8728046894667
:109970000023204629461EF097F802460B46404633
:1099800049461EF091F8164A80464FF0FF332046B4
:1099900029461EF089F802460B46304639461EF02D
:1099A00083F8002308EB00062946204678221EF0A3
:1099B0007BF88642A8BF06464042B042ACBF58443E
:1099C0000BEB0600CAF820005046BDE8F84FFFF741
:1099D0005BBFCAE91423A8E7BDE8F88F4CB001408B
:1099E00070FEFFFF08448AB190F83B30890001F116
:1099F000804101F5C0411B05D1F8142503F4801303
:109A000022F480121343C1F81435704790F83D30AA
:109A1000ECE70000052908B50AD9012006F0FAFF95
:109A20000C4A40F21321072006F087FF002008E0CF
:109A300001390429FAD8DFE801F0030507090B0012
:109A4000012008BD0220FCE70320FAE70420F8E724
:109A50000520F6E7F590040010B51446FFF7DAFF8D
:109A6000024B00F5A87043F8204010BD00B0014043
:109A7000026A0521FFF7F0BF072908B50AD90120BE
:109A800006F0C8FF0F4A40F22B21072006F055FFD1
:109A9000002009E001390629FAD8DFE801F00406C0
:109AA000080A0C0E1000042008BD0820FCE70C205A
:109AB000FAE71020F8E71420F6E71820F4E71C2056
:109AC000F2E700BFF59004002DE9F74F1346027E40
:109AD00005460C4622B1427E2AB900EB810463623E
:109AE00003B0BDE8F08F0FFA81FB00EB8B07642B0E
:109AF000D7F81090984603F1FF3228BF4FF0640862
:109B0000B9F1000F02D0B9F1640F6DD192B2622A9F
:109B10000AD9632B94BF0022012221462846FFF771
:109B200061FFC7F81080DBE7EB69DFF848A2642229
:109B300003FB08F3B3FBF2F3FB6295F83830012620
:109B400006FA03F3CAF8083595F8393006FA03F334
:109B5000CAF808352146FA6A2846FFF77DFF95F8CE
:109B60003A3003F5007300224AF8232095F83A3082
:109B70009B0005EB4B0B03F1804303F5F8339BF897
:109B80003420D3F8001806FA02F20A43C3F800287A
:109B900095F83A309BF835209B0003F1804303F59C
:109BA000F83306FA02F2D3F800180A43C3F8002883
:109BB000B9F1000F95F8383018BF05245034A400CF
:109BC000DB00A4B203F1804303F5F83304F18044D1
:109BD00004F5D834C3F81045C3F814A595F8383007
:109BE0009E40CAF804659CE790F838C0DFF884A16D
:109BF00092B20126622A06FA0CFC4CD90193CAF8EB
:109C000008C590F8392006FA02F2CAF80825FA6A5F
:109C1000FFF722FF95F83A2002F5007200214AF87A
:109C2000221095F83A20019B920005EB4B0B02F1B4
:109C3000804202F5F8329BF83410D2F8000806FA98
:109C400001F10143C2F8001895F83A209BF835104D
:109C5000920002F1804202F5F83206FA01F1D2F8E0
:109C600000080143C2F80018002B95F8382018BFEF
:109C700005245034D300A400A4B203F1804303F5BB
:109C8000F83304F1804404F5D834394AC3F8104558
:109C9000C3F81425A2E7C369642203FB08F3B3FBEE
:109CA000F2F3FB62CAF808C590F8393006FA03F3FC
:109CB000CAF8083590F83A3003F5007300224AF8E4
:109CC000232090F83A3090F83820DFF8ACA09B00C1
:109CD00003F1804303F5F83306FA02F2D3F80018D3
:109CE0000A43C3F8002890F8382004F110039B00C1
:109CF000D200DBB202F1804202F5F83203F1804378
:109D000003F5D833C145C2F810A5C2F8143522D9DD
:109D1000611C90F83990C9B2FFF7AEFE4FEAC90353
:109D200003F1804303F5F83300F1804000F5C040B3
:109D3000C3F810A5C3F8140595F83A3095F8391012
:109D40009B0003F1804303F5F8338E40D3F80028DD
:109D50001643C3F80068FA6A04212846FFF77CFE20
:109D600095F83A20034B012143F83210D9E600BFA1
:109D700004F0014000F0014050B10140426A036923
:109D8000934203D092B20021FFF79EBE704708B500
:109D9000FFF738FDBDE80840FFF7F0BF0F2910B509
:109DA0000C4602D9012006F035FE013CE4B20E2C2F
:109DB00096BF024B0020185D10BD00BFE690040066
:109DC0002DE9F84F0EB2B40000EB0409074699F8EC
:109DD0000830B9F806000D469246002B00F0888046
:109DE000FFF7FEFC4FF00008C9F81080C9F8248086
:109DF0009AF8023007EB050983F0010189F83B105E
:109E000004F1804404F5C0449AF8023089F83D30EA
:109E1000D4F81425BAF8003022F4981222F4F8523B
:109E20001B02C4F8142503F4F853D4F8142543F4A2
:109E3000403343EA01534FEA450A13435FFA8AFA73
:109E4000C4F8143551463846FFF7A8FF760007EBF3
:109E5000060B0AF101018BF83400C9B23846FFF74E
:109E60009DFF01363E44AB0086F8340001359BF877
:109E700034A0DFF888B0EDB2294638469B44FFF79E
:109E8000FBFD4FEACA0303F1804303F5F83300F109
:109E9000804000F5C040C3F810B5C3F8140596F82B
:109EA000346029463846FFF7E7FDF30003F18043AD
:109EB00003F5F83300F1804000F5C0400E4AC3F8C6
:109EC0001025C3F8140599F83D30D4F814251B0566
:109ED00022F4801203F480131343C4F81435D4F829
:109EE000143543F00303C4F814354046BDE8F88F39
:109EF000FFF764FC76E700BF54B1014040B1014078
:109F0000F0B504460FC984E80F004F4B4F4D0122B6
:109F10001A60D5F8083543F00303C5F80835D5F8BD
:109F2000103523F00F0343F00203C5F81035236802
:109F300019011A0F8E089F0F46EA8276012F08BF7B
:109F4000002E87B004D3424940F2B12006F005FD4F
:109F5000E661C5F85465D5F804353E4A23F003039D
:109F6000C5F80435D5F8003243F02003C5F80032B7
:109F70000023136012680592059A374A136012682D
:109F80000492049A354A136012680392039A344A81
:109F9000136012680292029A324A136012680192A8
:109FA000019A314A136012680092009A2279D9B25C
:109FB0008A4203F1010507D904EB810206322046EB
:109FC000FFF7FEFE2B46F1E7510001F0FE012046AF
:109FD000FFF7E4FE217984F8380049000131C9B265
:109FE0002046FFF7DBFE002384F83A301F4B84F84D
:109FF0003900402283F81B2393F81B235109EC22DC
:10A000000A41D20706D51A4A9168B9B94FF00062E1
:10A010001A6005E0174A582142F2020006F08DFC52
:10A02000E3692362002200230020C4E91423C4E969
:10A03000122301236064237607B0F0BD136843F058
:10A0400000631360ECE700BF0CB0014000B00140BA
:10A050002790040040B1014044B1014048B10140A3
:10A060004CB1014050B1014054B1014000E100E069
:10A0700074660020F590040008B5054B4FF40012FB
:10A08000C3F80823FFF7BEFBBDE80840FFF7F0BCAC
:10A0900000B0014030DF704731DF704700230360BC
:10A0A00070470000F7B502AC002304F8013D0E4FE5
:10A0B00006460D469DF80730AB4209D22046FFF711
:10A0C000E9FF0028F6D03A46142106F036FCF1E705
:10A0D00029463046FFF7E0FF18B1034A172106F082
:10A0E0002CFC03B0F0BD00BF7D91040073B502AD40
:10A0F000002305F8013D124E04469DF80730012B60
:10A1000009D82846FFF7C6FF0028F6D0324634218A
:10A1100006F013FCF1E702212046FFF7BDFF18B15E
:10A12000074A392106F009FC23784FF0000063F359
:10A130000700637863F30F2080B202B070BD00BFE8
:10A140007D91040010B50B4C2378BFF35B8FDB07C8
:10A150000ED420461BF005FF50B1074802F05AFF0D
:10A1600020461BF00AFF054A054903481BF03DFF46
:10A17000014810BDAC250020B02500208023002020
:10A18000976D0200024B1870024B1970704700BFA8
:10A190007C2900207D29002008B5134B1A7812BBBA
:10A1A00001221A70FFF7CEFF02F042FF0F4B602230
:10A1B00083F8022393F802235109EC220A41D207C3
:10A1C00005D50B4A916851B904221A600BE0094A7F
:10A1D000512142F20200BDE8084006F0AEBB136810
:10A1E00043F00403136008BD7829002000E100E07B
:10A1F00074660020C69104000A4B1A7882B90122C5
:10A200001A70094B1A78094BC3F81425084A1278BA
:10A21000C3F80C25074AC3F824250422C3F80025F7
:10A22000704700BF7B2900207C29002000200040CF
:10A230007D29002000B0AF03044A137823B1002326
:10A240001370034AC2F80035704700BF7B29002015
:10A2500000200040064B1A7842B901211970054BC5
:10A260000420C3F804031960C3F80821704700BF35
:10A270007929002000200040084B1A786AB100229A
:10A280001A70074B0749C3F808130121D960C3F8B6
:10A290000821C3F82421C3F84421704779290020FC
:10A2A0000020004004020200044B1A782AB9012160
:10A2B0001970034B9960C3F81C2170477A2900205C
:10A2C00000200040054B1A7832B100221A70044B6E
:10A2D0000121D960C3F81C21704700BF7A290020F2
:10A2E00000200040114B10B504461870FFF754FFD2
:10A2F000012C0BD002D3032C10D010BDFFF7BCFFF4
:10A30000FFF7E0FFBDE81040FFF796BFFFF774FFCF
:10A31000FFF7A0FFBDE81040FFF7D4BFFFF76CFFC9
:10A32000FFF798FFBDE81040FFF7BEBF7E29002071
:10A33000FFF7D8BF014B1878704700BF7E29002077
:10A34000054B0022C3F81C21C3F81C05D3F81C21BF
:10A35000012AFBD1704700BF00200040F8B50C4B2C
:10A360001B7806460F4693B10546AB1B9F420EDD98
:10A3700015F8014B5C2C01D07E2C04D15C20FFF73A
:10A38000DFFF84F040042046FFF7DAFFEDE7F8BD79
:10A390007A29002008B5034B1B7813B17E20FFF704
:10A3A000CFFF08BD7A29002013B5144BD3F8242120
:10A3B0001AB1D3F8043398050AD4114A0F4B116827
:10A3C00019B1D3F80413490704D4D3F8442192B93E
:10A3D00002B010BD0021116012680192094C019A6F
:10A3E000D3F818352370FFF7ADFE217802B0BDE831
:10A3F000104002F07FBED3F80433E9E700200040AC
:10A40000082100407F2900202F2816D821282ED28D
:10A410000C2806D80B282AD248B3431F042B25D872
:10A420007047142804D8122821D210281ED1704752
:10A43000A0F11703042B19D8704783280AD8802865
:10A4400015D2322812D3392811D9A0F13B03052B9C
:10A450000CD870478B280AD004D8A0F18503042BB0
:10A4600004D87047A0F580733F2B00D900207047B7
:10A4700010B5094B03600023044603718360037326
:10A480000376C0E907334362FCF79EFC214600F0E7
:10A4900049FB204610BD00BF108F040008B50BF02B
:10A4A000B3FE08480BF0BAF818B10E2806D9702090
:10A4B00008BD0BF0C9F80028FAD0F6E7024B185C8B
:10A4C000F6E700BF818A02001292040081607047A3
:10A4D00038B50446D0E9070290420DD005888D4278
:10A4E00000F1020309D19A4203D0D21A19461DF095
:10A4F00089FD236A023B236238BD1846ECE710B59C
:10A50000037B63B9037E53B9D0E907249442104614
:10A5100005D00088884202F10202F7D101231846D3
:10A5200010BD037B33B9037E23B9D0E907301B1A72
:10A5300018BF01231846704710B5037904465BB174
:10A540000BF062FE2046FFF7ECFF38B90BF034FA4F
:10A5500008B90123237310BD4320FCE70E20FAE75E
:10A5600008B5FFF7E9FF0E2896BF024B7020185C74
:10A5700008BD00BF12920400F8B50A88D41C24F06C
:10A580000304A4B2A21A20460E4695B21DF0BEFCEA
:10A59000074630882A46FF2138441DF04CFD3480A0
:10A5A0003846F8BD10B5037904467BB1FFF7B9FF13
:10A5B00070B908460BF0DAF920B901232376054B70
:10A5C000185C10BD0E28FAD97020FAE74320F8E78E
:10A5D0002720F6E7129204000822002110301DF017
:10A5E0002ABD2DE9F843089C054699460F4690463A
:10A5F000FFF7F2FF00232370103501262B464A4651
:10A60000414638460BF0FCF920B92378002BF5D1F0
:10A610002670F3E70020BDE8F88300002DE9F04341
:10A62000037987B0064689461746002B38D0B2F822
:10A6300000804146FFF763FF0446002832D13046D0
:10A64000FFF7CAFF0A251036334603AA414648469B
:10A650000BF0D6F9D8B901A903A80BF0FBF8054611
:10A660000028F1D13A890199D31C23F003034988CA
:10A670009BB2B3EB810F08D1029978681DF0B7FC4B
:10A6800003A80BF021F90546DEE72024F8E71CB902
:10A690000E2D09D8054B5C5D204607B0BDE8F08360
:10A6A0004324F9E72724F7E77024F5E71292040022
:10A6B00030B50C4685B0C9890546FFF709FF6368C8
:10A6C0009BB9E389ADF8023040F23713ADF804309E
:10A6D0000DF1020302930223ADF80C30FCF774FB7A
:10A6E00001A900F0FFF905B030BDAD68002DFAD02A
:10A6F000E089FFF789FEA18902460120A847F2E719
:10A7000030B50C4685B0C9890546FFF7E1FE6368A0
:10A710009BB9E389ADF802304FF49C73ADF8043077
:10A720000DF1020302930223ADF80C30FCF74CFB51
:10A7300001A900F0D7F905B030BDAD68002DFAD001
:10A74000E089FFF761FEA18902460220A847F2E7EF
:10A750001FB5002202764B68A3B98B89ADF8023091
:10A7600040F23913ADF804300DF1020302930223D5
:10A77000ADF80C30FCF728FB01A900F0B3F905B0E7
:10A780005DF804FB8368002BF9D089890320984782
:10A79000F5E71FB5002202734B6873B94FF49D7241
:10A7A000ADF804200293ADF80C30FCF70DFB01A9C5
:10A7B00000F098F905B05DF804FB8368002BF9D030
:10A7C000114604209847F5E71FB50B78052B14D8E0
:10A7D000DFE803F0031616191C1F4B686BB9012242
:10A7E00002714FF49B72ADF804200293ADF80C3067
:10A7F000FCF7EAFA01A900F075F905B05DF804FB71
:10A80000FFF756FFF9E7FFF77BFFF6E7FFF7A0FF3B
:10A81000F3E7FFF7BEFFF0E72DE9F843D0E9003496
:10A82000E41A6410914614BF22460122A418064679
:10A830000F46A1EB030804D2002C02DB03D125460E
:10A8400005E06FF0004460001BF07AFB054615EB55
:10A85000080F18BFB9F80030D6F8009018BF25F8D7
:10A8600008304F45A7EB090804D042464946284620
:10A870001DF0C8FB726808F1020397422B44A2EB5B
:10A88000070805D01846424639461DF0B0FB03467E
:10A8900003EB0807B9F1000F02D048461BF070FB2C
:10A8A00005EB4404C6E90057B460BDE8F8830A46E6
:10A8B000D0E90113994210B5044606D009B11288B7
:10A8C0000A8063680233636010BDFFF7A5FFFBE7F2
:10A8D000F0B503798BB005460F461446002B3CD0EB
:10A8E00016883146FFF70BFE002834D163680593C4
:10A8F00023898DF80D000333C3F38D0306930DF107
:10A900000D030093394607AB32462846ADF8107068
:10A91000ADF81260FFF765FE9DF80D3004A907A899
:10A9200043B10AF0F7FF044638B107280DD020469E
:10A930000BB0F0BD0AF0EAFFF5E70AA905F11C002B
:10A9400021F81A6DFFF7B3FFF1E72846FFF708FE7D
:10A9500004460028EBD10E24E9E74324E7E7000092
:10A9600008B5FFF7B5FF0E2896BF024B7020185CA4
:10A9700008BD00BF129204002DE9FF41037905468E
:10A980000F4616462BB31146FFF7B9FD18BB2846F4
:10A99000FFF722FE0A2405F11008434601AA3146BA
:10A9A00038460BF02DF878B901A80AF0BBFF044631
:10A9B00040B90DF1020105F11C00ADF80260FFF78E
:10A9C00076FFEAE70E2808D8054B185D04B0BDE80D
:10A9D000F0814320FAE72720F8E77020F6E700BF70
:10A9E0001292040010B5074C2378BFF35B8FDB078E
:10A9F00006D420461BF0B5FA10B120461BF0BDFA74
:10AA0000014810BD802900208429002008B51AF0D3
:10AA1000E1FF18B1084A152105F08FFF074A2021F0
:10AA200094200BF0E3F928B1034A1621BDE8084051
:10AA300005F083BF08BD00BF2192040088290020D3
:10AA400008B5084600211BF01FF828B1034A1B2156
:10AA5000BDE8084005F071BF08BD00BF21920400A9
:10AA6000042A084608B511460AD91A4600681BF0A0
:10AA70001DF828B1034A2321BDE8084005F05DBF59
:10AA800008BD00BF2192040008B508681BF052F809
:10AA900028B1034A2721BDE8084005F04EBF08BD94
:10AAA0002192040070B508680C4615461E461BF03E
:10AAB00041F818B1084A2B2105F03FFF32462946DC
:10AAC00020681AF0F3FF28B1034A2C21BDE870403A
:10AAD00005F033BF70BD00BF219204000022A0F832
:10AAE0007820704770B50B880A89053B9BB2B3F597
:10AAF0009D7F0D469ABF0A49CB5C00239A420646C9
:10AB00000CD10024B6F87830A34207DD56F82400B3
:10AB1000036829469B6898470134F3E770BD00BF7E
:10AB20006C92040008B5B0F878301C2B06D90420CC
:10AB3000064A252105F001FF002008BD5A1CA0F897
:10AB4000782040F823100120F7E700BFA793040006
:10AB5000F0B500241C609C80561EA64212DD0D5DDF
:10AB60000F1905EB040C62457F780BDD874206D197
:10AB700002342144013D19609D800020F0BD013563
:10AB80002C44EAE72520F9E7704710B51021044668
:10AB90001BF030FA204610BD034A026000224260DA
:10ABA0000272C273704700BF2494040010B50446BB
:10ABB000FCF722F904F10F022121012304F072FFB6
:10ABC000FCF702F92146BDE81040FFF7ABBF0000DB
:10ABD0002DE9F0478EB08846169F3968154600F17A
:10ABE000040904220646114448461C461DF0F0F9AB
:10ABF00020B9012420460EB0BDE8F0876A785209DA
:10AC0000042A15D8DFE802F0031816141A000025EC
:10AC1000FBF764FB2379BA8803932368CDE90153DA
:10AC20001023009339680AAB01F0F0F8044638B9F4
:10AC30000024DFE70225EBE70125E9E76425E7E7E4
:10AC4000DDF828A0FCF7D8F8042304AA882104F032
:10AC500029FF204B9A45EBD1337A9DF82CA07BBB82
:10AC600039680422114448461DF0C1F9BAF1010FB8
:10AC7000C0D10F2308F101013372062206F1090049
:10AC80001DF0B5F923238DF814300DF12D03CDF807
:10AC900015300B238DF8193000238DF81A304FF43E
:10ACA0008973ADF81C3005AB089308238DF81B5051
:10ACB000ADF82430FCF788F807A9FFF713FF99E7F0
:10ACC000062208F1010106F109001DF081F90028B2
:10ACD000C6D08EE7BEBAFECAF0B58BB01F460C4692
:10ACE000164603ADFBF7FAFA042200922B463946CA
:10ACF00001F0CCF840B33278CDF81250C2F38203A1
:10AD0000D9B2012908BF8DF81030737803F01F0302
:10AD1000DB0043EA52138DF8113004238DF816300E
:10AD2000631CCDF8173023788DF81B3040F21913CF
:10AD3000ADF81C3004AB08930C23ADF82430FCF7BD
:10AD400043F807A9FFF7CEFE0BB0F0BD2DE9F041A7
:10AD50008EB006460D464A7AD1F80A1006AB03209B
:10AD6000FFF7F6FE002862D108AF3B466A7AD5F8B5
:10AD70000A100720FFF7ECFE002858D1BDF81C3060
:10AD8000072B54D9ADF80C00049004464FF001088D
:10AD9000069B1B5BADF83030990B0EAA0A4402F8F3
:10ADA000288CCAB2022A4DD0032A58D0012A41D099
:10ADB0009DF80C2061F30102D91261F384028DF831
:10ADC0000C20BDF80C20D91061F34C12ADF80C200A
:10ADD000C2F3072263F347128DF80D200CA902225B
:10ADE0000AA802341DF003F9082CD1D1002304AACB
:10ADF000995CE1B10133042BFAD1BDF80C30F27B40
:10AE0000C3F34713934212D10AAB0C930823ADF856
:10AE1000343000970CAB03AA29463046FFF7D8FE22
:10AE200028B105AB03AA29463046FFF755FF0EB0FF
:10AE3000BDE8F0811B03ADF8143002220CA90DF11E
:10AE40002A00CEE7BDF81400C3F38B0101449B0335
:10AE5000ADF81410ADF816300CA90BA8C1E7BDF879
:10AE60001620C3F30D031344ADF8163002220CA9CB
:10AE70000DF12E00B5E70B88B3F58C7F05D0B3F547
:10AE80008F7F06D14968FFF761BF037A0BB1013BA1
:10AE9000037270473CDF70473DDF704710B50B4CC5
:10AEA0002378BFF35B8FDB070ED420461BF059F8E5
:10AEB00050B1074801F0CCFB20461BF05EF8054A74
:10AEC000054903481BF091F8014810BD303E0020B1
:10AED000F83D00208023002067B7020010B50B4C1E
:10AEE0002378BFF35B8FDB070ED420461BF039F8C5
:10AEF00050B1074801F0FAFD20461BF03EF8054A24
:10AF0000054903481BF071F8014810BDE43E0020DC
:10AF1000343E00208023002077B7020010B50B4C90
:10AF20002378BFF35B8FDB070ED420461BF019F8A4
:10AF300050B1074806F05CFF20461BF01EF8054A9A
:10AF4000054903481BF051F8014810BD8C3F002013
:10AF50004C3F002080230020A7B7020010B5FF213E
:10AF600004680020FFF798FFC0B218B10D4A2621EF
:10AF700005F0E3FC21460020FFF78CFFC0B218B1BA
:10AF8000084A282105F0D9FCBFF34F8F0649074B2B
:10AF9000CA6802F4E0621343CB60BFF34F8F00BF77
:10AFA000FDE700BF3094040000ED00E00400FA0566
:10AFB00037B5134D2B78BFF35B8FDB0704460ED4F8
:10AFC00028461AF0CEFF50B10E4800F021F828466E
:10AFD0001AF0D3FF0C4A0D490A481BF006F800226C
:10AFE0006388217800920748626800F081F8606801
:10AFF0001CF094FF204603B0BDE830401CF08EBF2B
:10B00000F43D0020A43D00208023002057B702001B
:10B010000B4B70B5002503602026031D0446C56454
:10B020003246294618461DF006F804F128036062EE
:10B030003246294618461CF0FEFFA064204670BD2B
:10B040002095040010B50446C164FBF7BDFE2146FF
:10B05000FFF768FDFFF7C6FC04F12401054AFFF77E
:10B06000EFFCFFF7BFFC04F14801034ABDE81040C4
:10B07000FFF7E6BCB1AF02005DAF02002DE9F04181
:10B08000144C2378BFF35B8FDB0705460F4616464B
:10B0900008D420461AF065FF20B10F4B20461F70E0
:10B0A0001AF06BFFFFF79EFC4FF4004704460021A7
:10B0B0004FF4FA704FF47A720023E6FB07011CF09C
:10B0C00043FD05F148010246034B2046BDE8F0412F
:10B0D000FFF7C6BC903F0020943F002007B5002337
:10B0E00000931A4600F004F803B05DF804FB00007A
:10B0F000F0B587B00F461C469DF8303001931546D9
:10B100000646FBF7EBF8232F98BF814A019B98BFB7
:10B11000D15D019388BFC9211A4600F068FF00285D
:10B1200000F0EF80019B232F00F2E980DFE807F0B9
:10B13000A59F49151D42716B25122CE73CE712545F
:10B14000ABE7128D93EB659981B75B87BDC3C9CF20
:10B15000D5DBE1B1412007B0F0BD30464FF4FA62D3
:10B160004221FFF78BFF0020F5E730464FF4FA62EB
:10B170000121FFF783FF0020EDE7012C40F0C5809F
:10B18000284600F018FBE6E7012C40F0BE802B7843
:10B1900006AD05F80C3DFBF72FFE23462A461A2183
:10B1A00004F0C5FD0020D6E722462946304600F0CF
:10B1B000B1F8D0E7042C40F0A880284600F01EFB30
:10B1C000C9E7042C40F0A1802C68FFF787FE2146D8
:10B1D00001F006FC0020BEE70C2C40F296802846C9
:10B1E00000F034FBB7E7002C00F08F802C78FFF7DD
:10B1F00075FE214601F0C7FCADE7FCF785F9FCF7C9
:10B2000056FE0020A7E722462946304600F0D0F837
:10B21000A1E7042C79D14FF49373ADF80C30049569
:10B22000ADF81440FBF7D0FD03A9FFF75BFC00204D
:10B2300091E722462946304600F0CBF88BE72246BC
:10B240002946304600F0E4F885E7FCF75DF9FCF7A5
:10B25000C9FF00207FE722462946304600F016F954
:10B2600079E7042C51D1284600F0FAFA73E7224618
:10B270002946304600F040F96DE72246294630461F
:10B2800000F057F967E722462946304600F066F994
:10B2900061E722462946304600F0B0F95BE72246D6
:10B2A0002946304600F075F955E7224629463046D2
:10B2B00000F0D4F94FE7012C27D1284600F0EAFA34
:10B2C00049E7012C21D1284600F021FB43E7224623
:10B2D0002946304600F044F83DE7012C15D12846B8
:10B2E00000F03DFB37E784B12146284600F054FBCF
:10B2F00031E7012C09D1284600F076FB2BE724200A
:10B3000029E7302027E7002025E7202023E700BF9A
:10B31000C694040013B5032A0B788DF807301DD1AD
:10B32000BBB1B1F801407CB1FFF7B8FD214601F097
:10B3300024FAFBF761FD01230DF107021B2104F044
:10B34000F6FC002002B010BDFFF7A8FD01F00CFADA
:10B35000EFE7FFF7A3FD01F034FAEAE72020F1E779
:10B3600070B50F4C2378BFF35B8FDB070D46164695
:10B370000ED420461AF0F5FD50B10A4801F016FC33
:10B3800020461AF0FAFD084A084906481AF02DFE30
:10B39000324629460348BDE8704001F017BC00BFA3
:10B3A000483F0020403F00208023002097B7020044
:10B3B0001FB540F225130024ADF804300294ADF817
:10B3C0000C40FBF701FD01A9FFF78CFB204604B000
:10B3D00010BD10B586B003238DF80A3007238DF811
:10B3E00000304FF48A730024ADF80C300C23ADF814
:10B3F0001430ADF808408DF80B400194CDF810D012
:10B40000FBF7E2FC03A9FFF76DFB204606B010BD79
:10B410002DE9F0430E4687B01146304602F030F871
:10B4200070B3002534464FF001082F4640F215193D
:10B43000F378AB4228DDB6F80120ADF80720627939
:10B4400023798DF80430FF2A07BF8DF805708DF839
:10B4500006708DF805808DF8062073B1BDF80730B1
:10B460005BB101AB04930523ADF80C90ADF814303B
:10B47000FBF7AAFC03A9FFF735FB01350234D7E738
:10B48000222007B0BDE8F0830020FAE738B5C06C91
:10B49000447C250729D4022A29D10A784B78012A2D
:10B4A0000CBF057CC57BE20648BF83F00103012485
:10B4B0006BB11F2D04D90F494FF4F37005F04DFA0D
:10B4C0004FF0A043AC40C3F80845002038BD1F2D05
:10B4D00004D908494FF4F37005F03FFA4FF0A04348
:10B4E000AC40C3F80C450020F0E74020EEE72020F8
:10B4F000ECE700BF8794040010B5C36C9B7C03F09D
:10B50000FD03012B0FD1012A0FD10C78FFF706FDA7
:10B5100006F0D0FD84420AD0FFF700FD214606F078
:10B52000ABFD002010BD4020FCE72020FAE7002002
:10B53000F8E710B5C36C9B7C03F0FD03012B0C46B0
:10B5400008D1012A08D1FFF7E9FC217806F0DEFDD9
:10B55000002010BD4020FCE72020FAE710B5C36CA6
:10B560009B7C03F0FD03012B0FD1012A0FD10C7836
:10B570002CB9FFF7D3FC06F0B5FD204610BDFFF750
:10B58000CDFC06F09BFD0020F8E74020F6E72020E8
:10B59000F4E72DE9FF410E463046114601F05EFF0B
:10B5A00030B3354600244FF48B774FF0040873789E
:10B5B000A34221DDEB788DF8013004EB84033344A2
:10B5C000A9788DF800101A795B7942EA0323ADF867
:10B5D000023051B1ADF80470CDF808D0ADF80C8050
:10B5E000FBF7F2FB01A9FFF77DFA01340535DEE731
:10B5F000222004B0BDE8F0810020FAE72DE9FF41E8
:10B600000E460978012303EB41039A421FD300251C
:10B6100034462F464FF48B783378AB421BDD63788A
:10B62000A2788DF800308DF80120ADF802705BB182
:10B630000423ADF80480CDF808D0ADF80C30FBF74A
:10B64000C3FB01A9FFF74EFA01350234E4E72220DB
:10B6500004B0BDE8F0810020FAE70000F0B5022A4E
:10B6600087B00C461F4650D90B787BB94B786BB925
:10B670008B785BB9062A48D9B1F80550AB1D9342C7
:10B6800043DAC978022906D0152901D041202FE0DC
:10B690001DB120202CE0042DFBD11D4B5E5CFAF780
:10B6A0001DFE3A46314600F0A2FC60B300218DF841
:10B6B0000B10E1780322022904F107038DF80A2018
:10B6C00018D01529E2D104228DF800200193ADF89D
:10B6D00008504FF48A73ADF80C300C23ADF81430D9
:10B6E000CDF810D0FBF770FB03A9FFF7FBF90020A2
:10B6F00007B0F0BD019305238DF80020ADF8085088
:10B700008DF80A30E5E73020F2E71220F0E700BFBD
:10B71000C694040013B50B88B3F5847F04D0B3F549
:10B72000897F0DD002B010BD0B89032BFAD14B6875
:10B73000B3F80120197802B0BDE81040FFF79EBCB5
:10B740004C68B4F80530D4F801202178E4790094ED
:10B75000FFF7CEFCE6E7704710B5502104461AF01B
:10B7600049FC204610BD704710B5382104461AF038
:10B7700041FC204610BD704710B5B02104461AF0B8
:10B7800039FC204610BD704710B5542104461AF00C
:10B7900031FC204610BD704710B5082104461AF050
:10B7A00029FC204610BD704710B5402104461AF010
:10B7B00021FC204610BD30B585B004AC037804F8F8
:10B7C0000E3D0546FBF718FB22461821012304F025
:10B7D000AEFA2B788DF803304FF48573ADF8043052
:10B7E0000DF1030302930123ADF80C30FBF7ECFAE3
:10B7F00001A9FFF777F9002005B030BD38B50F4C2F
:10B8000005682378BFF35B8FDB070ED420461AF060
:10B81000A8FB50B10A4800F0ABFC20461AF0ADFB83
:10B82000084A094906481AF0E0FB2946044800F096
:10B8300093FD00280CBF2120002038BD3C3F002094
:10B84000E83E00208023002087B7020010B50446A0
:10B85000FFF744FB621C2178BDE8104001F07AB983
:10B8600013B50446FBF7C8FA04230DEB03028B2142
:10B8700004F018F92268019B23EA02030193FBF705
:10B88000BBFA04230DEB03028B2104F050FA0020D5
:10B8900002B010BD1FB503788DF80230F3B1FBF78D
:10B8A000ABFA0322372104F00AF9B8B104AC002343
:10B8B00004F80D3DFBF7A0FA37210123224604F0DE
:10B8C00036FA40F23513ADF8043001230294ADF896
:10B8D0000C30FBF779FA01A9FFF704F90DF1020426
:10B8E000FBF78AFA22463621012304F020FA4FF4AE
:10B8F0009A73ADF804300123ADF80C300294FBF7D5
:10B9000063FA01A9FFF7EEF8002004B010BD1FB5DF
:10B9100003788DF80330C3B90DF10304FBF76CFA1B
:10B9200022463721012304F002FA40F23513ADF824
:10B9300004300123ADF80C300294FBF745FA01A95D
:10B94000FFF7D0F8002004B010BDFBF755FA032232
:10B95000362104F0B4F80028DED04020F3E71FB50C
:10B9600004AC037804F80D3DFBF746FA2246382173
:10B97000012304F0DCF940F23D13ADF8043001235B
:10B98000ADF80C300294FBF71FFA01A9FFF7AAF8F3
:10B99000002004B010BD000070B50F4C2378BFF339
:10B9A0005B8FDB0705460E460ED420461AF0D9FA07
:10B9B00050B10A4801F02EFB20461AF0DEFA084A80
:10B9C000084906481AF011FB33462A46032103486A
:10B9D00001F07CFB002070BDAC250020B0250020CC
:10B9E00080230020976D020013B502AC037804F8A1
:10B9F000013DFBF701FA224601233B2104F097F9B0
:10BA0000044618B99DF80700FEF792FC204602B0E4
:10BA100010BD46DF704712DF7047000013B50F4BB3
:10BA200043650446FBF7D0F92146FFF77BF8FBF7A7
:10BA3000E3F901230DF10702862104F033F89DF8A4
:10BA40000730102B02D004D8022B04D8636002B058
:10BA500010BDFF2BFAD0FF23F8E700BFBEBAFECA25
:10BA600001290AD8031D13F00F031CBFC3F11003F3
:10BA70009BB20830184480B27047102070470828E5
:10BA800086BF083880B20020704710B50A8840F29F
:10BA900021139A4204460BD1FBF7AEF90322192178
:10BAA00004F00DF820B12046BDE8104000F060BA67
:10BAB00010BD08B5FBF728FDBDE80840FCF792BBB8
:10BAC00008B5FBF721FDBDE80840FCF7ABBB000063
:10BAD0002DE9F04F87B004469DF848A0BDF840908E
