:020000022000DC
:1060000000000120457C03006D7C030039950300EE
:10601000717C0300737C0300757C030000000000AA
:10602000000000000000000000000000777C03007A
:10603000797C0300000000007B7C03007D7C030072
:106040007F7C03007F7C030081BF02007F7C030014
:106050007F7C03007F7C03007F7C03001DAA02007D
:106060007F7C03002BAA02002DAA02007F7C030084
:106070007F7C03007F7C03007F7C03007F7C030028
:106080007F7C0300C16F0400D5AC0300E59B0300D7
:10609000AD7004007F7C0300FD9903007F7C03004A
:1060A0007F7C03007F7C030091F50300D1BA0200DE
:1060B0007F7C03007F7C03000000000000000000E4
:1060C0007F7C03007F7C03007F7C03007F7C0300D8
:1060D0007F7C03007F7C03007F7C030000000000C6
:1060E00000000000000000000000000000000000B0
:1060F00000000000000000000000000000000000A0
:10610000000000000000000000000000000000008F
:10611000000000000000000000000000000000007F
:10612000000000000000000000000000000000006F
:10613000000000000000000000000000000000005F
:10614000000000000000000000000000000000004F
:10615000000000000000000000000000000000003F
:10616000000000000000000000000000000000002F
:10617000000000000000000000000000000000001F
:10618000000000000000000000000000000000000F
:1061900000000000000000000000000000000000FF
:1061A00000000000000000000000000000000000EF
:1061B00000000000000000000000000000000000DF
:1061C00000000000000000000000000000000000CF
:1061D00000000000000000000000000000000000BF
:1061E00000000000000000000000000000000000AF
:1061F000000000000000000000000000000000009F
:1062000010B5054C237833B9044B13B10448AFF3F0
:1062100000800123237010BD5824002000000000DE
:10622000A0CF040008B5034B1BB103490348AFF3EB
:10623000008008BD000000005C240020A0CF040006
:10624000154B002B08BF134B9D46A3F5803A002148
:106250008B460F461348144A121A23F03BFA0F4B91
:10626000002B00D098470E4B002B00D09847002001
:10627000002104000D000D48002802D00C4823F036
:1062800088F923F0BDF92000290011F029FB23F043
:10629000A3F900BF0000080000000120000000007A
:1062A000000000005824002034660020939504006C
:1062B00000000000FF20704700207047002070475A
:1062C0000E2070477047704710B51821044621F022
:1062D000E7FB204610BDF8B50B680446DB680846AE
:1062E0000E4698470023C4E90033A3600546B0B1C9
:1062F00021F022FB03465F19C4E90033A7602DB1EA
:1063000018462A46002123F0E5F903466760326803
:106310001946976830462A46B8472046F8BD0346D6
:10632000E9E74079704700002DE9F0410546072371
:106330003148B1FBF0F00430B0FBF3F3C3EBC3031F
:10634000C01A0126EB7906FA00F018408CB00C4612
:106350003DD005F1080797E803006B4683E803008A
:1063600018460EF0D4FA1035804695E8030002ABCB
:1063700083E8030018460EF0CAFA804597E8030048
:1063800004AB83E80300184624D20EF0C0FA22467C
:106390000646002106A80EF082FA06A80EF0B7FA0B
:1063A000864226D82246002108A80EF078FA08A8CE
:1063B0000EF0ADFA044695E803000AAB83E803004B
:1063C00018460EF0A4FA84422CBF002001200CB025
:1063D000BDE8F0810EF09BFA22460746002106A890
:1063E0000EF05DFA06A80EF092FA8742DAD830462F
:1063F000EDE70020EBE700BF8051010010B50C1A5B
:10640000134605D001462246184623F049F90346B3
:10641000181910BD7FB505460B798DF8083002A814
:106420000C460EF005FB2A460DF105018DF804001F
:1064300001A8FFF7E3FF0646601D0EF0F9FA3246A9
:106440000DF109018DF8080002A8FFF7D7FF0646F5
:10645000A01D0EF0EDFA32460DF109018DF808008D
:1064600002A8FFF7CBFF0646E01D0EF0E1FA324628
:106470008DF808000DF1090102A8FFF7BFFF04F134
:106480000801064602A80EF0D3F932460DF10D01BF
:1064900002A8FFF7B3FF04F11001064602A80EF0B0
:1064A000C7F932460DF10D0102A8FFF7A7FF2846F4
:1064B00004B070BD0D2A1FB50C460BD901466846C5
:1064C000FFF7A8FF22460DF10E016846FFF796FF81
:1064D00004B010BD0020FBE784B02DE9F04786B082
:1064E0000FAD044685E80E00284601210EF096FA0D
:1064F000012182460DF13D000EF090FA0121814606
:106500000DF13E000EF08AFA012180460DF13F00A8
:106510000EF084FA04AE074632460DF14501281DFF
:10652000FFF76CFF6D4696E8060002A80EF0BFF973
:106530002A460DF14A010DF14500FFF75FFF95E88E
:10654000060030460EF0B3F99DF808209DF8103093
:106550000A4922722374039A059B2160204684F81D
:1065600004A084F8059084F80680E771E260636116
:1065700006B0BDE8F04704B0704700BFF0A10400CA
:10658000704710B50C21044621F08AFA204610BD50
:106590002DE9F04F87B0CDE90223037A884673B91D
:1065A00000238DF815309DF81430002063F30700A8
:1065B0009DF8153063F30F2007B0BDE8F08F002978
:1065C000EED00024DFF868B0DFF86890DFF868A04C
:1065D0000194254654F80B00C8B100234A465146A1
:1065E00021F0CBF9064690B14146FFF79DFE336896
:1065F0001B6A41461F463046DDE90223B84730B1E9
:10660000019B304673B1FFF78CFEA842C8D1043419
:10661000C82CDFD1019B002B08BF00258DF814503A
:106620000123BEE7FFF77DFE012305460193EEE758
:10663000B0240020E4A20400D4A1040030B5037A01
:1066400085B004462BB9C27902B1C371012005B0EF
:1066500030BD0EF0B9F80546684606F073FB9DF8AC
:106660000830002BF2D0DDE9002329462046FFF751
:106670008FFFE080EAE700002DE9F04FBBB00C6926
:1066800001900E4624B91023B3813BB0BDE8F08FD2
:106690008B8A702B01D81223F6E70EF095F880460E
:1066A00004A806F04FFB7F4BC4F800804FF4E14292
:1066B000CDE902237C4D2B78BFF35B8FD9070ED435
:1066C000284621F049F950B178480BF0A9FA28463C
:1066D00021F04EF9764A7749744821F0DCF9082315
:1066E0000DEB0302952171480BF0F9FD029B6360ED
:1066F000039BA360019B00211B7A23740B46881D1A
:1067000004EBC0000131082943708370C37003712A
:1067100043718371C3710372F1D19DF81890B9F17F
:10672000000F00F0BC80DDE9042304F111074FF0F5
:10673000000BC4F83530C4F8312084F811B008AD2E
:1067400087F801B087F802B087F803B087F804B083
:1067500087F805B087F806B087F807B0C82284F834
:1067600019B084F81AB084F81BB084F81CB084F80F
:106770001DB084F81EB084F81FB084F820B084F8EF
:1067800021B084F822B084F823B084F824B084F8CF
:1067900025B084F826B084F827B084F828B084F8AF
:1067A00029B084F82AB084F82BB084F82CB084F88F
:1067B0002DB084F82EB0404984F82FB008A884F892
:1067C00030B022F05FFF009528465B464FF0010E87
:1067D00050F8042B6AB10EFA03FCD4F81110D4F867
:1067E00015204FEAEC7B5D4641EA0C012A433960F3
:1067F0007A600133322BEBD1019B1B7A002B4AD0FC
:10680000B8F1000F47D0B9F1000F44D0DFF8B0B0B5
:10681000DFF8B0A00027009B53F8049B0093B9F168
:10682000000F35D000235A465146484621F0A5F8BE
:10683000A8B103681B6A41461D46DDE90423A84749
:1068400068B10123D4F819C0D4F81D20BB40D91772
:106850000A434CEA0303C4F81930C4F81D2000238E
:10686000164A5146484621F088F888B14146FFF75C
:106870005BFD68B10123D4F819C0D4F81D20BB40DA
:10688000D9170A434CEA0303C4F81930C4F81D2091
:106890000137322FBFD1712333830023F4E64A46F8
:1068A0004B4642E7300B010074240020782400207E
:1068B00080230020B11B0300B024002030A304007B
:1068C000E4A20400D4A1040010B40B88B3F59C7FAB
:1068D000024615D004D8962B0ED05DF8044B7047B5
:1068E00040F239118B4202D0B3F5A67FF5D11046A4
:1068F0005DF8044BFFF7A2BE4B681B780372F7E705
:106900005DF8044BFFF7B8BEC3888380DAB200207D
:1069100062F307001B0A82B063F30F2002B07047D6
:1069200070B50B4D0E46322455F8040B18B9013CD6
:10693000FAD120460BE003689B6998470028F6D0FF
:10694000314655F8040CFFF7EFFC0028EFD070BD7E
:10695000B024002070B5074B074E03600546322473
:1069600056F8040B10B103685B689847013CF7D1F7
:10697000284670BD84A20400B024002010B504464F
:10698000FFF7E8FF2046042121F08AF8204610BDD9
:1069900010B50B4C2378BFF35B8FDB070ED420467A
:1069A00020F0DAFF50B107480BF03AF9204620F00A
:1069B000DFFF054A0549034821F06DF8014810BD85
:1069C000742400207824002080230020B11B0300C1
:1069D0001B6808890133984203D020238B81002053
:1069E0007047312A01D92123F8E70B6913B18B8A4B
:1069F000042B01D81223F1E701207047F8B54B684A
:106A00001D78312D0C4603D8164E56F8250010B9C6
:106A10002523A381F8BD03681B69984723690BB937
:106A20001023F6E756F82500A78A0368DB68984725
:106A30000130874201D21223EBE756F825000368A4
:106A4000DB6898472369013020831D7056F82500C4
:106A5000A28A21690368013A9B68013198470023A3
:106A6000D7E700BFB02400202DE9FF470B690C4693
:106A700023B91023A38104B0BDE8F0878B8AF92BDA
:106A800001D81223F6E70025DFF850802E4658F88B
:106A9000043BE3B123695E5501A858F8041CFFF7D5
:106AA0001AFC58F8040CDDF804A00368DB6898476A
:106AB000002201465046D4F810900DF057FF6F1C8D
:106AC00049F80700019808B120F055FF0535013657
:106AD000F6B2322EDBD125830023CBE7B024002091
:106AE00010B5002488B040F239130E2221460DF172
:106AF0001200ADF804300294ADF80C4022F0EAFD2B
:106B0000702301A8ADF81030ADF8184005F066FF0D
:106B100008B010BD3129F7B50D4636D81C4E56F8D1
:106B2000210000B303685B699847074656F82500C3
:106B300010B103685B6898470024012F46F8254090
:106B400013D07EB21EB1022F1BD020460BE0FFF700
:106B50001FFF4523ADF806302A4603230DF1060139
:106B60000BF0D7FE304603B0F0BDFFF711FF462310
:106B7000ADF806302A4603230DF106010BF0C9FEDD
:106B8000E3E7FFF705FF4723F2E72120EBE700BF2C
:106B9000B02400207FB50024194D8DF803409DF8E6
:106BA0000330312B28D855F82330FBB12246012180
:106BB0000DF103000DF0DAFE9DF80330064655F89E
:106BC000231001A8FFF787FB9DF80330019C55F8BF
:106BD00023000368DB6898473246014620460DF0E3
:106BE000C5FE0446019808B120F0C5FE9DF80330AB
:106BF00001338DF80330D2E7204604B070BD00BFEA
:106C0000B024002038B54B681D780C462946FFF7A4
:106C100081FF2369A08113B1A28A042A02D812231A
:106C2000A38138BD1D702569FFF7B4FF0523C5F8A2
:106C300001002383F5E710B513460C4629B10A4637
:106C40000146184622F02CFD0346181910BD00001D
:106C50002DE9F0430B89012B93B081460C4604D8F3
:106C600020238B8113B0BDE8F0834B681D785B78DF
:106C7000012B54D023B1022B00F09180212343E05B
:106C800008AF1B263B462A460896FFF7A1FE0028C0
:106C90003BD029464846FFF73DFF4020D4F80490FA
:106CA00020F04AFE2389013B1A2B804605D93A463B
:106CB000314609F10100FFF7BEFF0BAB0FCB6E466B
:106CC00007C626F8023B1B0C337097E80E004046BF
:106CD00000F0ECFC524B404643F8258000F016FCD7
:106CE00063688DF822505A1C2389CDF82320452152
:106CF000013BADF82010ADF82730FFF749FE032225
:106D000039460BF095FD0023A38123691D70256989
:106D1000FFF740FF0523C5F801002383A2E708AE73
:106D20004FF00E0833462A46CDF82080FFF750FE7C
:106D30000028EAD029464846FFF7ECFE1820D4F890
:106D4000049020F0F9FD2389013B0D2B074605D95E
:106D50003246414609F10100FFF76DFFBDF82C30C6
:106D6000ADF8003096E80E00384600F0FFFC2C4BE2
:106D7000384643F8257000F0D5FC63688DF8225042
:106D80005A1C2389CDF823204621013BADF8201061
:106D9000ADF82730FFF7FCFD03223146B1E70DF1D6
:106DA0002008282643462A460896FFF711FE0028A9
:106DB000ABD029464846FFF7ADFE7020676820F04B
:106DC000BBFD2389013B272B814604D9424631462E
:106DD000781CFFF730FF0BAF0FCF6E460FC697E85A
:106DE000070086E80700484698E80E0000F040FBE0
:106DF0000B4B484643F8259000F0A1FA63688DF8E4
:106E000022505A1C2389CDF823204721013BADF89D
:106E10002010ADF82730FFF7BBFD0322414670E795
:106E2000B02400202DE9F04F91B002AF0023894635
:106E3000BB60FFF7ADFD07F1080249460BF0B0FB60
:106E4000BB68002B40D0D3E90063EA467B6007F1C2
:106E500018087B689E4236D016F8014B312CF8D8C2
:106E60000E23FB740023A7F80C90BC73C7F80F80A7
:106E70003B75FFF78DFD032207F10C010BF0B1F913
:106E80000028E6D1124B53F8240010B103685B6868
:106E90009847182020F050FD07F1280B05465A4668
:106EA0000E214046FFF7C7FEBA8EADF800209BE8E2
:106EB0000E00284600F05AFC054B284643F82450A3
:106EC00000F030FCC5E7D5463C37BD46BDE8F08F45
:106ED000B02400202DE9F04F9BB008AF8B46002472
:106EE0003C61FFF755FD07F1100259460BF058FBC6
:106EF0003B69002B4DD0D3E90083C7F808D0DFF8F9
:106F00009C90FB608AB00DF1200A7C60FB6898457C
:106F10003DD018F8014B312CF8D84FF02803FB7600
:106F20007B68A7F814B0BC75C7F817A03B77FFF7CC
:106F30002FFD032207F114010BF053F90028E5D1CE
:106F400059F8240010B103685B689847702020F05E
:106F5000F3FC07F1200506462A4628215046FFF794
:106F60006AFE07F12C0EBEE80F00EC46ACE80F00FD
:106F70009EE807008CE80700304695E80E0000F018
:106F800077FA304649F8246000F0D9F9BEE7D7F81F
:106F900008D04C37BD46BDE8F08F00BFB0240020BC
:106FA0002DE9F04F95B004AF8B4600247C61FFF7CC
:106FB000EFFC07F1140259460BF0F2FA7B69002B43
:106FC0004ED0D3E90083C7F808D0DFF89C90FB606F
:106FD00088B00DF1100A7C60FB6898453ED018F827
:106FE000014B312CF8D81B23FB777B68A7F818B02E
:106FF000BC76C7F81BA087F82030FFF7C9FC032236
:1070000007F118010BF0EDF80028E5D159F824003C
:1070100010B103685B689847402020F08DFC07F1B1
:10702000240506462A461B215046FFF704FE07F1B9
:10703000400313E90F00EC46ACE807002CF8023BD4
:107040001B0C8CF8003095E80E00304600F02EFB4B
:10705000304649F8246000F059FABDE7D7F808D067
:107060004437BD46BDE8F08FB024002010B545215F
:107070000446FFF795FF20464621FFF7D3FE472140
:107080002046FFF727FF10BD2DE9F04F0E4693B0C5
:1070900099461546002A00F0A5800A785249002337
:1070A00051F8044BDFB29A460133002CF8D1012A83
:1070B00042D04FFA82FBBBF1000F05D0022A6CD000
:1070C000212013B0BDE8F08F1B2D40F08B804020B5
:1070D00020F032FC0DF12008044642462946304695
:1070E000FFF7A9FD0BAB0FCBEC46ACE807002CF883
:1070F000023B1B0C8CF8003098E80E00204600F094
:10710000D5FA394B204643F82A4000F0FFF94523D1
:10711000ADF820308DF82270CDF823608DF827501F
:107120008DF828B0FFF734FC032241460BF080FBBA
:1071300089F800705846C4E70E2D53D1182020F06E
:10714000FBFB0DF120088346424629463046FFF7F7
:1071500072FDBDF82C30ADF8003098E80E005846AE
:1071600000F004FB204B584643F82AB000F0DAFA4E
:107170004623ADF820308DF82270CDF823608DF8CD
:1071800027508DF82840FFF703FC032241460BF0FF
:107190004FFB89F80070204693E7282D22D17020FC
:1071A00020F0CAFB0DF120088346424629463046AE
:1071B000FFF741FD0DF12C0EBEE80F00EC46ACE8E8
:1071C0000F009EE807008CE80700584698E80E007C
:1071D00000F04EF9044B584643F82AB000F0AFF8DF
:1071E0004723C6E720206CE7B02400202DE9FF41AB
:1071F0004FF6FF73DFF890808B8107460C468DF8C1
:107200000330002558F8040B18B303682689DB689F
:10721000984786421DD1666858F8041C01A8FFF7FC
:107220005AF830462289019922F01EFA0646019842
:1072300008B120F0A0FB66B98DF80350A681236940
:1072400013B1A28A042A14D81223A38104B0BDE882
:10725000F0810135EDB2322DD4D1A389002BEED0CF
:107260000DF10303228961683846FFF70DFFA08105
:10727000E5E79DF803201A702569FFF78BFC0523CD
:10728000C5F801002383E1E7B02400200B886FF4E8
:107290009972134410B50446042B19D8DFE803F0A3
:1072A000030A0D101400FFF7A1FF2046BDE81040AF
:1072B000FFF716BCFFF7CCFCF7E7FFF7A3FCF4E7FA
:1072C000BDE81040FFF79ABBBDE81040FFF7CCBB0C
:1072D00010BD0220704728207047704710B57021FC
:1072E000044620F0DDFB204610BD90F8603013B15D
:1072F000203005F07EBC4830FBE790F8603013B1D9
:10730000203005F07DBC4830FBE770B506460C46E2
:10731000154662B92A462146304600F0B4F90022EB
:10732000014606F14000BDE8704005F015BC21B1F2
:107330000368DB689847A842ECD9204670BD13B5B6
:10734000044600F0E3F894F8683023B1626E00213F
:1073500068460DF0A4FA02B010BDF8B50446164612
:107360001F46FEF7E1FF48B132463B46204600F09B
:10737000EDF8054684F860002846F8BD94F86030C2
:107380000BB90025F8E732463B4604F1400005F012
:1073900095FB054650B10DF011FA94F8683060661F
:1073A000002BE9D1012384F86830E5E794F86860A0
:1073B0007EB10DF003FAA36D626EC31A984205D92F
:1073C000934206D8904204D93546D5E79342FBD97B
:1073D000F8E794F86820002384F86030002AD0D0C1
:1073E000E1E70000F0B517464B68436001F1080281
:1073F00004460D4600F1080392E8030005F110026F
:1074000083E8030092E8030004F1100383E803001B
:1074100005F120030FCBDFF854C0C4F818C004F105
:10742000200686E80F00383555F8083C236395E8B8
:10743000030004F1380383E803000B4B236007F1DA
:1074400008030FCB04F14805C4F840C085E80F00DD
:10745000BB69A3650023C4E9193384F8603084F85C
:1074600068302046F0BD00BFC0A20400C0AF0400D9
:1074700084B0F0B5A1B0064627A880E80E0008AA9F
:1074800003462DAF154618685968144603C40833DF
:10749000BB422246F7D119889B78A37021800BABA1
:1074A0000FCB6C4607C424F8023B1B0C237095E8F5
:1074B0000E0010A800F0FAF804AA0DF1B7030DF1C0
:1074C000BF0C174618685968144603C4083363454F
:1074D0002246F7D1186820601B7923719DF81C3073
:1074E0008DF8003097E80E00284605F0EBFA2A46A2
:1074F00010A93046FFF776FF304621B0BDE8F040D6
:1075000004B07047002070471B20704770477047D9
:10751000203005F06EBB203005F072BB10B5402165
:10752000044620F0BDFA204610BDD0E90030834269
:1075300006D28B4208D8884234BF00200120704711
:107540008B42F8D80120704700207047F0B51F46E5
:10755000036885B09B69044616469847A0B1236826
:1075600020469B699847002834D032463B4604F1B8
:10757000180005F0A3FA054680B10DF02BF90123A0
:10758000A06384F83C3006E023682046DB69984716
:107590000028E4D10125284605B0F0BD94F83C3020
:1075A0000BB90025F7E70DF015F9236BA16BC31A92
:1075B0000122CDE9013001A88DF80C20FFF7B5FFBD
:1075C00005460028E6D194F83C30002BE9D084F839
:1075D0003C00E0E723682046DB6998470028D9D0C3
:1075E00032463B4604F1180005F068FA054628B912
:1075F0000DF0F0F80123A06384F83C3094F83C309F
:10760000002BC8D00DF0E6F8236BA16BC31A012242
:10761000CDE9013001A88DF80C20FFF786FF002886
:10762000BFD194F83C50002DB4D084F83C00B2E7B0
:10763000D0B5044616461F46FEF776FE30B13246F8
:107640003B462046BDE8D040FFF780BFD0BD30B5F7
:1076500085B0044668460D46FEF7DCFE22460DF175
:107660000E016846FEF7CAFE05F11801684605F0EE
:1076700057FA04F10E020DF10D016846FEF7BEFE49
:10768000204605B030BD10B51A2A88B00C460BD97B
:10769000014601A8FFF7DBFF22460DF11F0101A8FB
:1076A000FEF7ACFE08B010BD0020FBE784B070B55B
:1076B00086B0054602AC0BA880E80E0022460DF10C
:1076C0003A01FEF79BFEBDF81430ADF8003094E8A7
:1076D0000E002E462846FEF7FFFE0F4B46F8183BDD
:1076E00022460DF147010DF13A00FEF787FE9DF8A5
:1076F00014308DF8003094E80E00304605F0E2F9C1
:1077000000232846C5E90E3385F83C3006B0BDE8B5
:10771000704004B0704700BF0CA304000120704704
:107720000E2070477047704710B51821044620F0AE
:10773000B7F9204610BDF0B5036885B0DB68174681
:1077400006460C469847B84205460CD8314668466E
:10775000FEF760FE25B12A466946204621F092FFD9
:10776000601905B0F0BD0020FBE7000084B037B51C
:1077700007AC84E80E00BDF82830ADF8003094E87E
:107780000E000546FEF7A8FE034B2B60284603B00B
:10779000BDE8304004B0704758A30400704710B5EE
:1077A0000821044620F07CF9204610BD2DE9F04761
:1077B000104FDFF84480DFF844900E460025642423
:1077C000E85988B100234246494620F0D6F882465F
:1077D00050B13146FEF7A8FD30B15046FEF7A1FD8D
:1077E000844228BF0446E4B20435C82DE8D12046BF
:1077F000BDE8F087B024002030A30400D4A1040029
:1078000010B504460CF0E0FF014608B9002010BD99
:107810002046FFF7CBFF23798342F7D02071012068
:10782000F5E70B8840F23912934202D0B3F5A67FF8
:1078300001D1FFF7E5BF704700797047F8B5274BD6
:107840000360274EFF230025837300F118030446CD
:1078500005718581036100F11007304600F0E6FBF9
:107860004FF0000332183146384600F027FB4FF442
:1078700000732385A023E362C4E93255C4E934557B
:107880004FF4807384F82A50A36484F84C50C4F8F1
:1078900004510123134D84F8E8302B78BFF35B8F3C
:1078A000D9070ED4284620F057F850B10E4801F001
:1078B000D3FC284620F05CF80C4A0D490A4820F019
:1078C000EAF8094BA3600023C4F8D830A4F8DC30F0
:1078D000C4F8E030A4F8E4302046F8BD8CA50400DC
:1078E000C6A404009C260020F4250020802300204C
:1078F000E192020038B5037904464BBB01221146E0
:10790000806801F0D7FD18B30123124D23712B7845
:10791000BFF35B8FDB0709D4284620F01DF828B1A0
:107920000D4805F077F8284620F022F821460A484D
:1079300005F08CF804F11001204600F027F82046ED
:10794000218D00F071F82046BDE8384000F02FB9D5
:1079500038BD00BFA026002078250020A1F120031B
:107960009BB243F6E072934298BF8185704710B591
:107970000379044643B1FFF7F1FF00F018F9204600
:10798000BDE8104000F062B910BD000070B50446BB
:1079900088B010300E4600F06AFA2379FBB16269B4
:1079A00004AB0293EAB91D4C204600F03FFB4FF0B8
:1079B00000032218214602A800F080FA1123BDF826
:1079C0000C2002998DF8043001A800F02DFB18B1AD
:1079D000134A612111F093FE02A800F040FA08B0AA
:1079E00070BDD6E900541DB914B10E4820F0DFFB7C
:1079F0000F2C019406D9002101A800F0F1FA019B97
:107A00000290049322462946029800F079FA019BDD
:107A1000029A03930021D154D0E700BFC6A404000A
:107A2000F5A40400CBA4040008B5037953B1018583
:107A3000084600F0F7FA28B1034A6821BDE808407B
:107A400011F05DBE08BD00BFF5A4040011F10C0FDC
:107A500009D010DC11F1140F05D011F1100F02D074
:107A600011F1280F0DD190F92A308B4209D080F8FE
:107A70002A1000F02FB80B1DF5D003DC11F1080F10
:107A8000F1D070470029EED00429FAD1EBE713B505
:107A90000446FEF77DFF01230DF107022A210AF0BB
:107AA0001EFC9DF907102046FFF7D0FF02B010BD65
:107AB00013B50446FEF76CFF01230DF107020B21FD
:107AC0000AF00DFC9DF907102046FFF7BFFF02B03A
:107AD00010BD000008B5037973B1817BFF290BD07D
:107AE00090F92A20012000F09BFA28B1034A9F2137
:107AF000BDE8084011F003BE08BD00BFF5A40400B6
:107B0000F8B505460C461746002A3DD100F150064F
:107B10003C220021304621F0DDFD0123337017B9EE
:107B20004FF4C0637380D5F8043183B3F4B105F129
:107B3000F8040C220021204621F0CCFD4CF2010378
:107B4000A5F8F830D5F8040101F01AF8C5F80001DD
:107B5000D5F8040101F016F80123A5F8FC00B46281
:107B600086F82C3095F8FC400434E4B22B7DC4F147
:107B70001A04E4B29C4228BF1C4674701CB1012355
:107B80003FB185F84C30F8BD00F18C06C0E71C46CB
:107B9000ECE785F84B30F6E710B5114604460022B5
:107BA000FFF7AEFF2046BDE8104000F081B8038E1D
:107BB00003F47C4343F001030386002343634FF443
:107BC0008073A0F84430838D8363C38D83877047AF
:107BD00070B50379012604464673D3B1037BD3B94C
:107BE00000F1300200F1D8010E3000F013FA054622
:107BF00020B1204600F0D0F8284670BD84F8480037
:107C00003146A07B00F008FA05460028F4D126731F
:107C1000F2E70825F0E70025EEE7000010B50023A5
:107C200043730379044673B1037B63B1807B00F037
:107C3000F5F930F0080304D0034A4FF49D7111F0B8
:107C40005EFD0023237310BDF5A4040038B5037B4B
:107C500004460BB9437B53B3237943B3A06801F0C7
:107C600097FC94F8495075B9002394F84820F2B174
:107C7000BBB1012384F8303084F84A302046BDE897
:107C8000384000F07DB8A06801F04CFE0028EBD130
:107C900094F84A30002BE8D1012384F848302B4671
:107CA000E3E7052284F8302084F84A30E6E738BD5F
:107CB00070B503790446002B5FD090F8E85090F837
:107CC0004B30013505F0010580F8E850E3B11F2184
:107CD00000EB8506A0F8DC10D6F8C83023B90120E7
:107CE00021F05EFCC6F8C800D6F8C810C4F8D81059
:107CF00004F1DC0204F1500010F03CF820B11F4AFE
:107D000040F2811111F0FBFC94F84C30E3B11F21DB
:107D100004EB8505A4F8E410D5F8D03023B9012090
:107D200021F03EFCC5F8D000D5F8D010C4F8E01022
:107D300004F1E40204F18C0010F01CF820B10F4AA9
:107D400040F28B1111F0DBFCA37BFF2B0CD0002247
:107D500004F1D80104F10E0000F05CF920B1074AEB
:107D600040F2911111F0CBFC237B33B9637B23B13B
:107D70002046BDE87040FFF72BBF70BDF5A404009E
:107D800010B5037B04460BB1FFF748FF2046BDE862
:107D90001040FFF71DBF0000F0B58BB00646212252
:107DA000002101A821F096FC00241F4F2546B6F8BB
:107DB000DC30A34214D9D6F8D8301A5D01AB58197B
:107DC000394621F099FD04F00703072B054405D13E
:107DD0002122002101A821F07DFC00250134E6E7E5
:107DE0002122002101A821F075FC00240E4F254618
:107DF000B6F8E430A34214D9D6F8E0301A5D01ABEE
:107E00005819394621F078FD04F00703072B054483
:107E100005D12122002101A821F05CFC00250134BC
:107E2000E6E70BB0F0BD00BF3FA50400027B42B106
:107E300000220521027380F8301080F84A20FFF7F5
:107E4000C7BE70470B88B3F5A37F04D040F247123A
:107E5000934202D07047FFF7E9BFFFF7F7BE034632
:107E600053F8080B984201D01FF085BD7047884237
:107E7000F7B504460E461ED003464D6853F8082B4E
:107E80009A4214BF81680F21A9420AD201A8019524
:107E900000F0A6F807462046FFF7E1FF019B2760A8
:107EA000A36025B12A463168206800F029F82368CC
:107EB000656000225A5503B0F0BD000073B5054659
:107EC0000E4619B912B10D4820F071F9941B0F2C10
:107ED000019406D9002101A800F082F8019B2860D6
:107EE000AB6022463146286800F00AF8019B2A68F8
:107EF0006B600021D15402B070BD00BFCBA4040060
:107F0000012A30B403D10B78037030BC7047002ACB
:107F1000FBD030BC21F0B6BB0B680360014B836023
:107F2000704700BF98A50400024B83600B68036094
:107F3000704700BF98A504000B6803607047704746
:107F400000487047E0A3040010B504460846044901
:107F500020F093F8002814BF2046002010BD00BF79
:107F6000E0A304000B680360014B8360704700BF0F
:107F7000B0A50400024B83600B680360704700BF2C
:107F8000B0A504000B680360704770470048704755
:107F9000ACA3040010B504460846044920F06DF86F
:107FA000002814BF2046002010BD00BFACA3040071
:107FB00010B5044B044640F8103BFFF750FF204635
:107FC00010BD00BF8CA5040010B50446FFF7F0FFFC
:107FD00020464FF484711FF063FD204610BD000061
:107FE00008B50368002B02DA094820F0E3F88B4259
:107FF00008D949008B4205D20029B6BF6FF0004373
:10800000016003600068BDE8084001301FF094BCC7
:1080100044A5040072DF704773DF704774DF704758
:1080200077DF704778DF70477CDF704721F08EBCC8
:10803000A0F84210704708B500F0C6FA006808BD05
:10804000B0F842007047B0F840007047A0F8441004
:108050007047B0F844007047094A02604DF6AD61C0
:108060000022426001818272C260C0F81220C0F812
:108070001620C26180F82020426280F828207047D4
:108080005CA7040038B590F82030DB0704460D46A5
:1080900005D5044A1B2102F14E000CF04BFCE560B3
:1080A00038BD00BF30A604002DE9F047044698B063
:1080B00000250CAEE1611C220F460EA829460C9546
:1080C000756021F007FB1C2229460EA80DF154090A
:1080D000ADF854508DF85650ADF85A508DF85C50AC
:1080E00021F0F8FA07A9204600F0BAF80322294641
:1080F000484621F0EFFA9DF85630CDF84C9023F029
:10810000070304F1040943F0030341F2111A48463E
:108110008DF85630ADF854A001F08AFD484601F0C4
:1081200020FD14222946009007A821F0D3FA2368E5
:10813000CDF81CD01B69ADF826502046984723681F
:10814000ADF824009B6820469847ADF828002046EB
:1081500000F062FB0DF15A080B90032240462946BD
:1081600021F0B8FA9DF85C30D4F80C90CDF820805E
:1081700023F0070343F005030DF10C08ADF85AA0F6
:108180008DF85C300F951295CDF80480B9F1000F91
:108190005FD0484621F0DAFB0F28054604D90130AC
:1081A0001FF0CAFB03950190012D01984AD199F85F
:1081B00000300370019B029500215955029BC3B109
:1081C000019A0F920DF15D059BB203222846ADF88E
:1081D0004230ADF8403021F07DFA11238DF85D304A
:1081E000BDF85E30129503F4784343F44073ADF864
:1081F0005E302368002511955B6B31462046984719
:1082000010B1ADF83250119604F1120307AA0EA96D
:10821000B88D00F0C0FA18B10F4A8C2111F06FFA36
:108220000021204600F03EF894F82030019843F0F9
:108230000103404584F8203001D01FF09CFB18B0AA
:10824000BDE8F087002DB5D02A46494621F01AFA3C
:10825000B0E702481FF0ABFF30A60400A8A6040058
:108260000B7F23F0030343F002030B7790F82030D9
:108270000A7FC3F3800363F3C3020A7790F82030C8
:10828000D2B2C3F3400363F304120A7790F82030AC
:10829000D2B2C3F3001363F345120A77437C81F82B
:1082A0003F3070472DE9F043036887B0DB6904462F
:1082B000884698470546204600F0AEFA94F82030EC
:1082C0009B06074667D594F82830FD2B63D84146B6
:1082D000284606F057F9236806469B6820469847CB
:1082E000B04242D300F070FA236881465B692046B1
:1082F000984794F82830CDF80880CDE9006301460E
:108300003B462A46484606F073F9002840D02368C9
:108310003146DB6820469847236820461B6998470A
:10832000E369ADF816009868618AC08B3B460DF191
:10833000160200F053FF20B11B4A4FF4807111F078
:10834000DEF994F82030C3F34000F0B1E26992689E
:10835000D18B4FF6FF72914223D0C3F3C000A0B17E
:10836000236820465B6A98470FE0122532460021B9
:10837000384621F0AFF923680021DB682046984792
:1083800000F022FA06F026F9284607B0BDE8F0838F
:108390004FF6FF75EAE723682946DB6820469847D1
:1083A000BAE70020F1E700BF30A6040070B590F8EE
:1083B00020309A0786B0054643D5C2699268D18BB2
:1083C0004FF6FF7291423CD01B073AD503681B69F8
:1083D00098476B8AADF8083001238DF80A300026E3
:1083E0000DF10603CDE90436EB69ADF806009B6894
:1083F000ADF80C6002A9D88B00F0CFF9082804462C
:1084000018D007D860B1104A4FF49D71204611F082
:1084100076F905E0132806D043F201439842F2D1E1
:10842000204606B070BD95F8203043F0400385F833
:108430002030F5E795F8203066F3861385F8203074
:10844000EEE70824ECE700BF30A604002DE9F04F6A
:1084500090F820309A0791B0044640F18C80C269B0
:108460009268D18B4FF6FF72914200F084801B0717
:1084700040F1818003681B6998478046204600F0E0
:10848000CBF994F82050C5F3801582460DB1B4F8AD
:1084900046504FF0000B0DF11809A8454AD9A8EB3A
:1084A00005071422132F4FF000014846BB46A8BF12
:1084B0004FF0130B21F00EF9132FCABF1322FF2226
:1084C000B5FBF2F20AEB0507C8BFD2B21FFA8BF672
:1084D0008DF8182039461FFA8BF20DF1190021F0A2
:1084E000D1F8721C92B239460BA8ADF8062021F0E3
:1084F000C9F8638AADF8083001238DF80A300DF110
:108500000603CDE90439E3699B68002202A9D88BF0
:10851000ADF80C2000F041F9834618B313284FF052
:1085200000020BD194F82020A4F8465042F04002FB
:1085300084F82020584611B0BDE8F08F082808D1F3
:1085400094F82010A4F8462062F3861184F82010D5
:10855000F0E743F20142904204D0084A4FF4D1714F
:1085600011F0CDF8BDF806200BA93846354421F0AE
:1085700089F8ADB291E74FF0080BDBE730A60400B5
:1085800010B590F820305B06044609D503685B6A95
:10859000984728B994F8203060F3861384F8203087
:1085A00010BD10B590F820305B0604460BD503686B
:1085B0005B6A984738B994F82030A4F8460060F315
:1085C000861384F8203010BD80B483B000AF78608B
:1085D0007B682C3318460C37BD465DF8047B70472A
:1085E00010B5044B044640F8303BA36BDB6898475A
:1085F000204610BDD0A5040010B50446FFF7F0FFDB
:10860000204648211FF04CFA204610BD2DE9F043CA
:1086100087B00D46044600F0D7F805F0E2FF0646A5
:10862000002840D123682946DB6820469847C923A3
:108630008DF8173094F8203013F0200F236851D0B4
:1086400094F82820FD2A4DD81B692046984705F04C
:10865000A8FF236801469B692046984700F0B4F8BC
:108660000546204600F0D8F8236807461B692046D7
:108670009847236880465B6920469847236881466F
:10868000DB69204698470DF11703CDE900030296F8
:108690004B4642463946284606F07EF830B900F08F
:1086A00093F805F097FF07B0BDE8F08300F08CF871
:1086B0009DF8172094F8281006F0A8FA0028EED0AC
:1086C00020469DF81760FFF77FFF23680746DB69A8
:1086D00020469847E56B03463A46314604F13000A0
:1086E000A847E0E7FE228DF817209B69294620461F
:1086F0009847E5E7F8B5436A04465BBB90F820303D
:10870000DB0920D0144F154E3D78BFF35B8F15F079
:1087100001050ED138461FF01FF950B138463560BB
:10872000B580B5711FF024F90D4A0E4930461FF08F
:10873000B2F9336803B16362636A5BB90120BDE8D3
:10874000F8400CF059B903689B689847012120F064
:1087500027FF6062F8BD00BF40270020A42600204C
:1087600080230020A987020038B50446406A28B15A
:1087700094F82030DD0902D00023636238BD20F078
:108780006BFF6562FAE700230120CB8040F21B13E8
:1087900008710B807047AADF7047AEDF70477047E3
:1087A000704770470020704710B50446006808B154
:1087B00020F052FF204610BD10B5902104461FF056
:1087C0006FF9204610BD000070B50E4E3378BFF330
:1087D0005B8F13F0010513D130461FF0BDF878B15F
:1087E000094C0A4B23603046042384F8505084F827
:1087F00058301FF0BDF8064A064920461FF04BF9D5
:10880000014870BD3C270020AC26002098B1040030
:10881000802300209F87020090F820309B0603D51C
:1088200090F82830FD2B02D903685B691847406A2D
:1088300070473030704713B5D0E90D32934204468B
:10884000019106D01960436B04334363204602B0A4
:1088500010BD01AA1946303000F0E0F8F6E700003C
:108860000A4901604DF6AD610022018200F11C0150
:10887000C0E905124FF6FF710271C0E9022282744D
:1088800002778185C0E90C228263704728A8040022
:1088900073B5037904463BBB00F10C0581602846A3
:1088A00001F0C6F9284601F05CF922464FF6FF7345
:1088B000019022F82C3F01A9012000F0EEF818B138
:1088C0000A4A2D2110F01BFF236820465B6A984757
:1088D000D0E90056AE4205D0214655F8040BFFF70B
:1088E000E3FBF7E70123237102B070BDB5A70400D5
:1088F00070B503685B6A0D469847D0E90046A6420A
:108900000FD054F8040B90F8203065F3451380F82D
:108910002030036815B1DB6A9847F0E71B6B984776
:10892000EDE770BD10B50C68C46000F10C038A88D7
:108930009A808A799A7110BD0A88112A09D0502A22
:108940000DD0102A10D1036801F108025B698988F3
:108950001847036801F108029B6989881847036872
:1089600031F8062FDB69184770477047F7B5036881
:108970005B6A0D46074616469847D0E90031994292
:1089800037D053F8044B2888E28A90420FD16A8985
:10899000022A0CD105F10C000FF0B6FB94F8203040
:1089A00060F3C30384F82030012003B0F0BD628A75
:1089B0009642E4D1AB795A1E022A06D82368698907
:1089C0001B6A204698470120EFE7062B13D1B868B1
:1089D00000230DF106023146C08BADF8063000F0E1
:1089E000ECFB2368BDF806101B6A2046984701205F
:1089F000DBE70020D9E70120D7E770B503685B6AA1
:108A00000D469847D0E90046B44206D054F8040B0E
:108A1000036829469B6A9847F6E770BD2DE9F84F31
:108A2000D0E9007AAAEB0704A41014BF234601235F
:108A3000E418804689469346A1EB070526D2B4F197
:108A4000804F23D224BB2646DBF800307351B94552
:108A500004D02A463946304620F022FE0435D1455E
:108A60003544AAEB090B04D05A464946284620F063
:108A700009FE5D4417B138461EF07DFF06EB840405
:108A8000C8E90065C8F80840BDE8F88F6FF04044B9
:108A9000A0001EF051FF0646D6E7A8DF70477047DA
:108AA000704710B5642104461EF0FAFF204610BD41
:108AB00010B5094C2378BFF35B8FDB0709D4204640
:108AC0001EF04AFF28B1054803F0A4FF20461EF01F
:108AD0004FFF024810BD00BFA026002078250020CF
:108AE00070B5104B0360002500F1280312260446E0
:108AF000456232462946184620F0ECFD4FF41671C7
:108B0000FF22C4E913126587C4E90F55C4E9115562
:108B100084F85450A56525663246294620F0DAFDD2
:108B2000204670BD84A8040080F82910704780F8A2
:108B30003A10704780F83B107047012303FA01F1A7
:108B400010B549B290F93C4022B12143C9B280F836
:108B50003C1010BD24EA0101F8E7012303FA01F1FA
:108B600010B549B290F93D4022B12143C9B280F815
:108B70003D1010BD24EA0101F8E780F83E1070476F
:108B8000283070471220704710B55C30144606F04C
:108B9000D2F828B101461022A01C20F073FD01205C
:108BA00010BD00002DE9F04304468FB004F1240508
:108BB0000E4603F097FE294603F0E6FEA36D01334F
:108BC000A365FDF7E5FE042305AA882109F087FBCC
:108BD000FDF7DEFE042306AA8B2109F080FB069A2E
:108BE000003218BF012202212046FFF7A6FF069A95
:108BF000002A34D1A264216DA06D04F12807002958
:108C000033D0C30740F1CE80072384F828300023F7
:108C100084F82A3094F83A3084F82B3094F83B30BA
:108C200084F82C3094F83C3084F82D30E38FE385C1
:108C30007D22236C93FBF2F32386636CC4F83230FD
:108C4000059BA26D002B40F0D78093B2E38694F889
:108C50003D3084F83830FA2384F839302AE0A36CA8
:108C6000002BC8D0059BA364C5E7062384F82830F1
:108C700094F83B3084F82B3094F83C3084F82C3056
:108C800094F83E3084F82D3094F83F3084F82E303C
:108C90004FF07D0C236CC4F8312093FBFCF384F877
:108CA000350084F82A10A4F82F30042204F136008D
:108CB00020F010FDDFF8708198F80030BFF35B8F73
:108CC000D8070ED440461EF047FE50B1504806F07B
:108CD000E9FE40461EF04CFE4E4A4F494C481EF0FD
:108CE000DAFE3A4602211223494806F035FFFDF725
:108CF0004FFE0322192109F003FB60B3236D002B03
:108D000000F08280DFF8249199F80030BFF35B8F88
:108D100013F0010813D148461EF01EFE78B13F4FF4
:108D20003F4B3B604846042387F8508087F8583013
:108D30001EF01EFE374A3B4938461EF0ACFE652247
:108D40000221CDE9012104F12A03102200921946E3
:108D5000324805F04DFCBEB9002640F243133146BF
:108D60000E220DF12A00ADF81C300896ADF82460F3
:108D700020F0B0FC7023ADF82830ADF83060FFF77C
:108D800097FE07A903F04AFE236D002B36D103F0AE
:108D9000A9FD23464FF48042294603F0E1FD0FB0C0
:108DA000BDE8F08394F83A10F2B1072384F8283034
:108DB000012384F82A30A36C236394F83C3084F8B0
:108DC000343094F83E3084F83530059B84F82B100D
:108DD000E2623BB983B2E3867D22236C93FBF2F31C
:108DE000238767E79BB2F6E73A462046FFF7CCFEBB
:108DF00000287FF45FAF07E79BB227E703F072FD1F
:108E000023464FF40042C7E7002EC0D1A4E700BFBD
:108E10004827002080230020A18A0200AC260020E1
:108E200098B104009F870200442700203C270020BF
:108E30000021FFF7B7BE0000031D37B52022002137
:108E40000446184620F046FC254645F8240F03F05A
:108E500049FD2D4A294603F073FDFDF799FD0123D5
:108E60000DF10702862109F03AFA9DF80730102B20
:108E700002D045D8022B45D8236504F15C0005F0EB
:108E8000FFFE03F02FFD234629464FF4004203F076
:108E900067FDFDF77DFD0322362109F031FA01213E
:108EA00002462046FFF749FEFDF772FD03223721F7
:108EB00009F026FA032102462046FFF73EFEFDF7A1
:108EC00067FD0322382109F01BFA052102462046DE
:108ED000FFF733FEFDF75CFD0322432109F010FA92
:108EE000062102462046FFF728FEFFF7E1FD214656
:108EF00003F0ACFD01212046FFF754FE03B030BD66
:108F0000FF2BB9D0FF23B7E7318E020070B58EB0CA
:108F10000D460446FDF73CFD04230DEB03028821BA
:108F200009F0DDF94FF4403306931DB140F205130B
:108F3000ADF81A3094F83E308DF80830636CCDF8F7
:108F40000930019BA26D002B5ED193B2ADF80D30BC
:108F500009238DF810300723ADF8183040F22D1397
:108F60000E220021ADF81C3002AE0C2304AD0DF131
:108F70002A00ADF824300596089520F0ABFB70234D
:108F8000ADF828300023ADF83030FFF791FD07A988
:108F900003F044FD94F83B308DF8083094F83C30F1
:108FA0008DF8093094F83F308DF80A307D22236C1B
:108FB00093FBF2F3ADF80B30019BA26D33BB93B280
:108FC000ADF80D3008238DF810300723ADF81830B8
:108FD00040F22D130E22ADF81C3000210C230DF1B0
:108FE0002A00ADF824300596089520F073FB702315
:108FF000ADF828300023ADF83030FFF759FD07A950
:1090000003F00CFD0EB070BD9BB29FE79BB2D7E79B
:1090100037B50B88872B044600F08D8023D8382B7A
:1090200000F0B18008D8362B00F09F8000F2A480B9
:10903000222B6BD003B030BD812B6CD008D8432BD2
:10904000F8D14B681A78003218BF012206211EE0C1
:10905000822B67D0832BEDD14B681B6803647F2381
:1090600080F83F30E6E740F23F1293426FD0B3F50D
:10907000A07F0FD2962B64D0B3F5867F6ED08B2B5A
:10908000D8D14B681A68003218BF01220221FFF7BD
:1090900054FDCFE7B3F5A17F7CD026D840F2411232
:1090A0009342C7D14B685C30196805F06CFEE56CE3
:1090B0006B1EE364002DBDD10DF10700012102F00C
:1090C000DDFD9DF8072042F210735343FF22B3FBEE
:1090D000F2F303F56A43642260332946B3FBF2F3EB
:1090E0002046E364FFF712FFA4E7B3F5A37F09D09E
:1090F00040F2471293429DD1002180F85410FFF7AF
:1091000051FD97E7012380F8543093E74B681B78B3
:1091100080F83A308EE74B681B7880F83B300323A9
:10912000C36487E749681E4AD1E90001002320F0A3
:1091300057F860647EE74B6893F9003080F83E3062
:1091400078E74B6800211A78FFF707FD72E790F87F
:109150003C3043F0100380F83C306BE74B681A78E2
:10916000003218BF0122002191E74B681A780032C3
:1091700018BF012201218AE74B681A78003218BF14
:109180000122032183E74B681A78003218BF0122BD
:1091900005217CE749685C3005F099FD4AE700BF8E
:1091A0000090D00310B5182104461EF079FC20462B
:1091B00010BDACDF7047ADDF704713B514461288A1
:1091C000ADF800200022ADF802206A460193FFF7B7
:1091D000F2FFBDF80030238002B010BD13B5144675
:1091E0001288ADF800200022ADF802206A460193F3
:1091F000FFF7DFFFBDF80030238002B010BD10B5CF
:10920000044609F07CFC204610BD10B5044609F068
:1092100076FC204610BD000010B50B4C2378BFF340
:109220005B8FDB070ED420461EF096FB50B107483B
:1092300009F060FC20461EF09BFB054A05490348E7
:109240001EF029FC014810BD742700206C27002067
:10925000802300200B92020038B500230446C0E9A9
:109260000033C0E9023314201EF066FB0546606837
:1092700008B11EF080FB4FF6FF73E383144BA3622B
:10928000A363144BA36404F18103C4E90155C4F83A
:10929000A03014351F23E560A4F8A430002504F1A4
:1092A0005C0325772562E5622563E5632564E56453
:1092B00084F8505020222946184620F00BFA064A1E
:1092C000064BE067C4E9052384F88050204638BD8A
:1092D0003CA9040024A90400060010000A00900123
:1092E00010B50023044600F8403BA36CDB689847A8
:1092F00004F1300000F04FFB04F1200000F04BFBC4
:10930000606808B11EF037FB204610BD13B5037826
:109310000446D3B90DF1070000F00CFC18B10C4A5B
:10932000452110F0ECF99DF8073033B100F000FC56
:1093300018B1074A492110F0E2F9012000F0E6FBDC
:109340000E2000F0E5FB0123237002B010BD00BF2A
:10935000DDA8040008B510F093F910F025FB10F01B
:1093600029FB10F0A3FA08280AD018B1054A762183
:1093700010F0C5F910F018FB10B910F081F9F9E7F9
:1093800008BD00BFDDA804001FB50378044643B341
:10939000437833BB144B019301A9012010F06AFB01
:1093A00018B1124AA62110F0AAF901A810F0CAFBC0
:1093B00018B10E4ABD2110F0A2F900230293ADF8B6
:1093C0000C3002A80C23ADF80A3000F0ADFB18B148
:1093D000064AC32110F093F901236370204600F080
:1093E00085FB04B010BD00BF80230020DDA8040071
:1093F0007047704738B5437805464BB3154C237812
:10940000BFF35B8FDB070ED420461EF0A5FA50B1E8
:10941000114809F06FFB20461EF0AAFA0F4A1049C6
:109420000D481EF038FB4FF496710B4809F06FFBA6
:10943000FFF7F2FE4FF4967109F069FBD5E901459B
:10944000AC4205D054F8040B03689B689847F7E7D3
:1094500038BD00BF6827002060270020802300203F
:10946000FF91020070B54378044673B1837863B905
:10947000D0E90156B54206D055F8040B03682146E1
:10948000DB689847F6E70123A37070BD13B5D0E9F8
:10949000023293420446019106D019608368043376
:1094A0008360204602B010BD01AA1946043000F0C6
:1094B00079FAF6E7012906D019B1022905D0002072
:1094C0007047007870474078704780787047000098
:1094D00010B543788CB00446B3B3027FA2BBBDF88D
:1094E0000430ADF80A2003F0E00343F48273ADF8D2
:1094F000043003928DF81020FDF74AFA02230DF193
:109500000602272108F0EBFEFDF742FA282102238C
:1095100002AA08F0E4FE04F1A00101A800F0FEFA9E
:1095200020B10A4A40F2571110F0E9F801232377DD
:1095300000234FF4A2711A4605A800F0FDFAFFF7C8
:10954000B7FA05A903F06AFA0CB010BDDDA8040053
:1095500010B5437888B00446B3B1037FA3B100F0DF
:10956000DFFA20B1094A4FF4B37110F0C8F80023B4
:1095700040F2451123771A4601A800F0DDFAFFF703
:1095800097FA01A903F04AFA08B010BDDDA804005B
:10959000007F704770B5D0E901460D46A64205D060
:1095A000294654F8040BFFF7A3F9F7E770BD000054
:1095B000F0B50B88502B8BB005460C4661D015D802
:1095C000102B2FD003D8012B3BD00BB0F0BD112BAB
:1095D00050D01C2BF9D1D5E90165AE42F5D056F833
:1095E000040B036821461B699847F6E7532B71D09B
:1095F00011D8512BEFD0522BE7D100220323114673
:10960000C08B00F08FFA0028DFD03A4A4FF4E371A4
:1096100010F075F8D9E7562BDDD0572BD5D100F0D7
:1096200088F9D2E700F023F900231A464FF4A3711A
:1096300003A800F081FAFFF73BFA03A903F0EEF963
:10964000C3E7FFF7E9FD0222014603A809F071FA1A
:10965000039B019301A9BDF81030A088ADF8083034
:1096600000F064FA0028B0D0224A40F2911110F0C4
:1096700046F8AAE700F017F900231A4640F247110E
:10968000D6E700F0E7F8237B062B16D1FFF7C4FDE1
:109690000222014603A809F04CFAD5E90157039EBE
:1096A0000634AF4291D055F8040B32880368214646
:1096B000DB6998470028F4D087E7D5E90167A51D45
:1096C000B74282D056F8040BE28803682946DB696A
:1096D0009847F5E7D0E901369E423FF476AF53F85C
:1096E000040BE188828D9142F6D1036821461B6903
:1096F00098476AE7DDA8040010B58CB00446C11C89
:1097000006220DF105001FF0BDFF00238DF80B3080
:10971000E37C8DF80430237D8DF80C30A38B8DF81D
:109720000D30A369CDF80E3001AA0E2340F20111CD
:1097300005A800F001FAFFF7BBF905A903F06EF9DF
:109740000CB010BD00F125028261FFF7D5BF00000B
:1097500070B50B881D2B92B006460C462BD10D7AA6
:10976000C5F341153DBB08313AB3242201A81FF0CF
:1097700089FF94F82420216A8DF828200DF1290012
:109780001FF080FF0F4A0795442101A80FF012FF38
:1097900020B10D4A40F23B210FF0B1FF06F1A001CC
:1097A000002000F0BBF9082805D020B1064A4FF48C
:1097B00013710FF0A4FF12B070BD0846FFF79CFFB5
:1097C000ECE700BF45970200DDA8040010B50D4C82
:1097D0002378BFF35B8FDB070ED420461EF0BCF866
:1097E00050B10948FFF738FD20461EF0C1F8074A7E
:1097F000074905481EF04FF90348BDE8104000F046
:109800006FB800BF9C260020F42500208023002094
:10981000E192020010B504467C3403F063F821465F
:10982000064A03F08DF803F05DF8214600234FF45B
:109830002022BDE8104003F093B800BFCD9702008E
:1098400010B5044603F04EF804F17C01BDE8104069
:1098500003F09AB810B5044603F044F804F17C0113
:1098600000234FF42022BDE8104003F09BB8F8B568
:109870008B88C3830023C370C36A04460D4613B1AB
:10988000898820309847D4E90167BE4206D056F84F
:10989000040B036829461B699847F6E72046BDE894
:1098A000F840FFF7B7BFF8B54FF6FF73C383C36A3D
:1098B00004460E461BB1C36B898830309847D4E903
:1098C0000157BD4206D055F8040B036831461B69A9
:1098D0009847F6E72046BDE8F840FFF7B1BF000023
:1098E00008B50346C08B4FF6FF72904214D0DA7869
:1098F00092B90122DA70132100F00CF908280BD07C
:1099000043F20202904207D030B1044A40F2A12152
:10991000BDE808400FF0F3BE08BD00BFDDA804009D
:10992000C0787047C08B4FF6FF73C01A18BF012074
:10993000704770B5D0E901460D1DB44206D054F809
:10994000040B036829461B6A9847F6E770BD1FB5EC
:10995000CA688B6803925B68044668469847694604
:1099600004F1200000F05DF8684600F014F804B03F
:1099700010BD1FB5CA688B6803925B6804466846D1
:109980009847694604F1300000F04BF8684600F053
:1099900002F804B010BD10B583680446DB68984730
:1099A000204610BD2DE9F84FD0E9007AAAEB070454
:1099B000A41014BF23460123E41880468946934629
:1099C000A1EB070526D2B4F1804F23D224BB264653
:1099D000DBF800307351B94504D02A463946304689
:1099E0001FF05EFE0435D1453544AAEB090B04D0C7
:1099F0005A46494628461FF045FE5D4417B1384691
:109A00001DF0B9FF06EB8404C8E90065C8F80840FA
:109A1000BDE8F88F6FF04044A0001DF08DFF0646B2
:109A2000D6E730B58B6885B004461B6801A80D46A3
:109A30009847A368214628461B689847039B01A9BD
:109A40001B6820469847E368EA68E260EB6005B06F
:109A500030BD00000B680360014B8360704700BF9E
:109A60003CA90400024B83600B680360704700BF91
:109A70003CA904000B6803607047704700487047BA
:109A8000A8A8040010B50446084604491EF0F5FADB
:109A9000002814BF2046002010BD00BFA8A8040065
:109AA0000B680360014B8360704700BF24A904006A
:109AB000024B83600B680360704700BF24A9040059
:109AC0000B680360704770470048704790A8040017
:109AD00010B50446084604491EF0CFFA002814BF0A
:109AE0002046002010BD00BF90A8040008B5143027
:109AF00000F012F830B1044A4FF48F71BDE808400D
:109B00000FF0FDBD08BD00BFDDA8040036DF7047C3
:109B100037DF704776DF70477ADF70478ADF70473C
:109B20008BDF7047B1DF704765DF704766DF7047D6
:109B300011DF704712DF704710B5044601804260A4
:109B40000381102200210C301FF0C4FD7023A3817B
:109B50000023A3822383204610BD62DF704763DFAA
:109B6000704782B0837982888DF80630002362F3D3
:109B70000F03BDF8062062F31F43184602B070477A
:109B80002DE9F84F0024DFF898A0DFF8A0B0804658
:109B90008946264625462746D9F80030DB5DABB31B
:109BA0000F2D2FDC2D2B1ED0202B1CD0A3F130022B
:109BB000D2B2092A05D9A3F14102052A15D8373BAB
:109BC000DAB202EB0413F20748BFC5F10F0203F04B
:109BD000FF0406F1010341BF08F802401E460135AB
:109BE000002458BF1E460137D6E7A3F16102052ABB
:109BF00001D8573BE4E75246482158460AF09AFEFE
:109C00000022DEE7064A0748582104E00F2D04DC55
:109C1000034A054856210AF08DFE4046BDE8F88FFC
:109C200082A90400E8A90400D8A90400C6A9040078
:109C300010B50268837986B004465AB3D3B9014699
:109C400002A8FFF79DFF01AA02A91020FFF787FFD6
:109C5000052812D1A11D02A8FFF77FFF18B1104AF5
:109C60001B210FF04CFD9DF815209DF8143043EAA0
:109C70000223A380A07906B010BD28B99DF8063054
:109C8000A371BDF80430F4E7054A064822210AF022
:109C900051FEEFE7002BEDD1014A03482521F6E7FD
:109CA00082A9040054A9040068A90400184B436069
:109CB0004FF481734381174B4363174B8363032333
:109CC000437341F21433C3810369DFF860C003F4C6
:109CD0000002124B13430361114B4361114B83612B
:109CE00040F2C97240F2BC73C0E907234FF45B61D4
:109CF0004FF49663C0E90913C362EC2380F8303057
:109D0000094BC0E90FC3DD2380F84430704700BF22
:109D1000080B06075C8F423F85EBD13E0A09090319
:109D2000E02D903BCDCC4C3EF0490200400D0300AD
:109D3000164B4363164B174A8363174BC0E9012345
:109D4000164BC360036903F40002154B1343036110
:109D5000144B4361144B83614FF4FA716FF07C0331
:109D6000C0E907134FF0000C4FF4E163C0E909C3E9
:109D70004FF41673C362EC2380F830300B4BC0E90C
:109D80000F33DD2380F84430704700BF3333B33ED8
:109D90009A99993E080A0E0D040506010002141353
:109DA000060761051EA7E83B378981BE80841E0037
:109DB000184B43604FF481734381174B4363174B38
:109DC00083630323437341F21433C3810369DFF8D0
:109DD00060C003F40002124B13430361114B436153
:109DE000114B836140F2D37240F2CD73C0E9072377
:109DF00040F2DC514FF49663C0E90913C362EC23CF
:109E000080F83030094BC0E90FC3DD2380F84430BF
:109E1000704700BF080B06075C8F423F85EBD13EC1
:109E20000A090901BC74933BCDCC4C3EF0490200B9
:109E3000400D0300174B4360174B43634FF07A53B9
:109E400083634FF481734381144BC36003691449E6
:109E500003F40002134B13430361134B4361134B91
:109E600083616FF06203C361AB3B036242F228324D
:109E70004FF49663C0E909234FF41673C362EC23D1
:109E800080F830300A4BC0E90F13DD2380F84430EE
:109E9000704700BF080B06073333333F000314132A
:109EA000400D03000A09690148507C3BA01A2F3E6F
:109EB000F0490200144B43604FF0804343634FF07E
:109EC0007E53836340F201234381104BC3600369D7
:109ED00003F400020E4B13430361002343618361CB
:109EE0004FF47A73C0E9073300224FF46163C0E98D
:109EF0000923C362D82380F83030064BC0E90F3302
:109F0000DD2380F84430704711160B0C040008065E
:109F100013141E0180841E0008B5FFF7CBFF042335
:109F2000C37408BD41F61923C381438A03F0F003CB
:109F300043F400734382EC2380F83030014BC0E9D6
:109F40000F33704780841E0038B54FF0102305464C
:109F5000D3F88440631C30D0B4F57B7F13D8B4F5BC
:109F60007A7F25D2642C2ED008D8A4F12803012BA7
:109F70002CD92846FFF71CFF072038BDC82CF8D184
:109F8000FFF7CAFF16E040F2DE539C420AD840F2C7
:109F9000DC539C4213D2A4F2EF33012BE9D8FFF734
:109FA000C7FE07E0B4F5BC6FE3D8FFF743FF01E05D
:109FB000FFF77CFE2C600020DFE740F2DE542846ED
:109FC000FFF7F6FEF6E7FFF7ADFFF3E7FFF772FFE7
:109FD000F0E7000010B50B4C2378BFF35B8FDB0775
:109FE0000ED420461DF0B8FC50B10748FFF734F9F5
:109FF00020461DF0BDFC054A054903481DF04BFDF8
:10A00000014810BD9C260020F4250020802300205C
:10A01000E192020010B50368022B88B02CD0032B0C
:10A020002FD0012B26D100244FF4A47321460E22F9
:10A030000DF11200ADF804300294ADF80C401FF0A1
:10A0400049FBADF818407023104CADF81030237860
:10A05000BFF35B8FDB0709D420461DF07DFC28B1E0
:10A060000B4802F0D7FC20461DF082FC01A90848ED
:10A0700002F0D4FC08B010BD00F0D0F802F030FBC4
:10A08000F8E700F0CBF802F02DFBF3E7A026002064
:10A090007825002007B501900138022804D8042152
:10A0A0000DEB0100FFF7B6FF03B05DF804FB10B540
:10A0B0000446FFF78FFF2146BDE81040FFF778BA4E
:10A0C00013B50388212B044641D013D8112B09D88E
:10A0D000102B02D2013B012B0AD830212046FFF77A
:10A0E000E6FF05E01B2BF8D01D2B29D0152BF4D053
:10A0F00002B010BD522BF0D011D83B2B35D0502BD5
:10A10000EBD0232BF4D100221146808800F080F898
:10A110000028EDD0204AAC210FF0F1FAE8E7562BE9
:10A120002ED0572BD9D0552BE2D14521808800F075
:10A1300071F80028DCD0184AB2210FF0E0FAD7E716
:10A14000FFF748FF00222146FFF702FBD0E700237C
:10A1500001A98088ADF8043000F058F80028C7D075
:10A160000D4A9B210FF0CBFAC2E71321808800F043
:10A170004BF80028BCD0084AA1210FF0C0FAB7E77D
:10A180001321808800F040F80028B1D0024AA721AE
:10A190000FF0B5FAACE700BF21AA0400704712F037
:10A1A00017BB10B5044600F039F82146BDE8104051
:10A1B00002F060BAFFF7F5BF08B5064A14210FF0A8
:10A1C000F9F928B1044AFF21BDE808400FF097BA19
:10A1D00008BD00BFB5A1020021AA040010B5044BC0
:10A1E00003600446C06908B11DF0C5FB204610BDE0
:10A1F00000AA040010B50446FFF7F0FF2046302106
:10A200001DF04EFC204610BD76DF70478FDF704793
:10A2100090DF7047B5DF70477047000010B50B4CFA
:10A220002378BFF35B8FDB070ED420461DF094FB31
:10A2300050B1074801F0DEFE20461DF099FB054AAB
:10A24000054903481DF027FC014810BDA827002040
:10A250007827002080230020DDA102002F281FD8AE
:10A2600027280ED210280CD00CD8092803D804288F
:10A2700098BF00207047A0F10B039BB2022B28BFB0
:10A28000002070471B2806D81728FAD2A0F1120325
:10A290009BB2032BF3E7A0F121039BB2052BEEE762
:10A2A00089280FD88628ECD2472806D83B28E8D240
:10A2B000A0F132039BB2082BE1E7A0F180039BB22F
:10A2C000042BDCE7962805D89528DAD28B2818BF0E
:10A2D00000207047A0F580739BB24D2BCFE70000A4
:10A2E0000388053B9BB2B3F5A47F3ABF014AD05C1B
:10A2F000002070476CAA04000088453802288CBFF3
:10A300000020012070470388802B03D1081C18BF50
:10A3100001207047012070470388222B1AD8212B77
:10A320002DD2102B2BD009D8052B26D3092B26D9BB
:10A330000B3B012B8CBFFF2000207047182B1ED039
:10A3400002D8123B022BF5E71B2B08BF002018BFD9
:10A35000FF2070473C2B08D83B2B10D2272B0CD367
:10A360002F2B0CD9323B072BE4E7422B05D3442B90
:10A3700005D9962B08BF0120E9E7FF207047002090
:10A38000704703882F2B1CD8272B39D2142B11D8B8
:10A39000122B35D20C2B07D80B2B31D2053B042BBB
:10A3A0008CBFFF2000207047102B08BF002018BF73
:10A3B000FF207047182B21D31B2B21D9213B012BC8
:10A3C000EEE7832B0BD8802B1CD23C2B04D83B2BE5
:10A3D00016D2323B072BE3E7423B022BE0E78B2B05
:10A3E00010D005D8873B012B8CBFFF200120704780
:10A3F000952B07D0962B08BF0220D8E7FF20704787
:10A40000002070470120704700F1804000F5E040D7
:10A41000002382B0036003680193019B02B0704780
:10A420000023435082B043580193019B02B0704710
:10A430007047704710B5402104461DF031FB20469F
:10A4400010BD0000FF21C17601F580310B4AC161CA
:10A450000B4902600022027180F8202080F8302031
:10A4600080F83620C0E90E22C0E90A220A6080F88E
:10A470002120428480F82420704700BFF0AC040003
:10A48000AC27002010B50B4C2378BFF35B8FDB07A4
:10A490000ED420461DF060FA50B10748FFF7D2FFF6
:10A4A00020461DF065FA054A054903481DF0F3FAF8
:10A4B000014810BDBC270020C027002080230020B9
:10A4C00033A40200164A0023022110B5C2F8003559
:10A4D000C2F8F015C2F8F4356FF00043C2F8083343
:10A4E0004FF48270FFF790FF0E4B4021802483F8D9
:10A4F0000713C3F8804193F807134809EC21014181
:10A50000C90705D50849886838B10B6823430B6033
:10A510000223C2F80433002010BD1C60F8E700BF1E
:10A520000070004000E100E0F065002081627047AB
:10A5300070B5C37F0246002B39D01D4D1D49022640
:10A54000C5F808630023C377C37D012404FA03F32D
:10A55000C1F80835837E184804FA03F3C1F80835BA
:10A56000164B1C60A3F580534FF4A0711C60FFF7DD
:10A5700057FF134B1C6092F8203073B182F82060B3
:10A580004FF48A70FFF740FF2023C5F804330D4BCA
:10A590001C6092F82030002BFBD1002353774FF43E
:10A5A0008270FFF731FF024B0222C3F8042370BD13
:10A5B0000070004000F001400090004004A0004006
:10A5C0000C90004008700040F8B5431893F8213013
:10A5D00023B1294A40F2CD1111200CE0274A022470
:10A5E000C2F80843437F012B09D9C2F80443224A29
:10A5F00040F2D9111320BDE8F8400FF080B8204D8B
:10A6000055F8216090F8205005F0FF07FDB1012FAB
:10A610001CD1057FFF2D05D0C2F804434FF4F27121
:10A62000154AD9E70133174A017743771368002B9E
:10A63000FCD04FF48070FFF7E7FE104BC822C3F840
:10A640002C66C3F830260222C3F80423F8BD012586
:10A650002B44C1764377FF21C82380F8205001772F
:10A66000C2F804434FF48070C2F82C66C2F830364A
:10A67000FFF7CAFE1560E9E729AC0400007000404E
:10A68000AC2700200071004038B5C37F013B012B8F
:10A6900004460DD900F121020023253012F8011BD8
:10A6A000002918BF0B468242F8D113B10223E37789
:10A6B00038BDE17E0123FF29E37722D0257FFF2DDE
:10A6C000204617D0FFF780FF29462046FFF77CFF82
:10A6D000E27D0F49012303FA02F2A377C1F80425B2
:10A6E0000C4A1360A27E03FA02F2C1F804250A4A5A
:10A6F0001360DDE7FFF768FFE17E013101F0030140
:10A70000E3E7064A40F2BD1108200EF0F8FFDFE74C
:10A7100000F001400CA000400090004029AC040073
:10A7200010B54218002482F82140C47F022C05D1C4
:10A730000322C277FFF7A8FF012010BD012CFBD137
:10A74000023101F00301FFF73FFF014B1C60F3E70B
:10A7500004A00040C162704743798B420FD901EBDE
:10A76000410100EB410113788B71D2F80130C1F83F
:10A7700007305379CB7201230371002070476020AA
:10A780007047000070B5164D90F83010B0F93C30AD
:10A7900005EB01111B0443F47843C1F81C3590F814
:10A7A0003060072E044604D90E4940F2B9200FF05C
:10A7B00011F87600802303FA06F6C5F8086394F8CA
:10A7C0003040072C04D9074940F2B9200FF002F8B5
:10A7D0004023640003FA04F4014BC3F8044370BD42
:10A7E00000700040D4AB0400072998BF0B4BC26334
:10A7F00098BF33F8113080F8301088BF4FF4AA7337
:10A800000729438696BF064B4FF4A87333F81130DF
:10A810008386012380F83630FFF7B4BFB4AB040061
:10A82000C4AB040070B5164D90F83010838F05EB63
:10A83000011143F07F6343F47023C1F81C3590F895
:10A840003060072E044604D90E4940F2B9200EF0BC
:10A85000C1FF7600802303FA06F6C5F8046394F876
:10A860003040072C04D9074940F2B9200EF0B2FF5E
:10A870004023640003FA04F4014BC3F8084370BD9D
:10A8800000700040D4AB04002DE9F0410546194E9C
:10A89000FFF7C8FFD5F82C80D6F80475B8F1000F83
:10A8A00024D0D6F80825AC6B013200234FF41820D1
:10A8B00000211EF0E5FC4FF47A7200231EF0E0FC4C
:10A8C0003C1B24F07F44844210D9D6F8082500238D
:10A8D00001324FF4282000211EF0D2FC4FF47A728E
:10A8E00000231EF0CDFC844200D2C047AF63BDE818
:10A8F000F08100BF00B0004010B50446FFF718FE1D
:10A900002046BDE81040FFF7BFBE08B5FFF7BAFD0F
:10A91000BDE80840FFF7F0BFFFF7F7BF002108B51B
:10A92000064A08460EF046FE30B1054A40F2B9210B
:10A93000BDE808400EF0E3BE08BD00BF19A9020043
:10A9400029AC040013B52F4B1B68044613B34FF416
:10A950008270FFF759FDE37E8DF807302A4BD3F85C
:10A96000343694F82010C9B201291DD1637F013B10
:10A970006377237FFF2B19D10223002184F8203035
:10A98000224A08460EF016FE20B1214A40F2DA2192
:10A990000EF0B5FE1F4B1B68B3B14FF48A70FFF782
:10A9A00033FD002384F8203002B010BDE376FF238E
:10A9B0002377194A0DF107000EF0FCFD0028E9D0BD
:10A9C000134A40F2E621E3E794F83630002BEBD04F
:10A9D000608E00F1804303F5E0431B6823B1FFF76D
:10A9E00013FD2046FFF7CEFEA08E00F1804303F555
:10A9F000E0431B68002BD7D0FFF706FD2046FFF78A
:10AA000043FFD1E704710040007000400BA9020031
:10AA100029AC0400147100408FAE020008B5FFF7A6
:10AA200031FDBDE80840FFF78DBF704708B5FFF75F
:10AA300029FDFFF773FF4FF4A0710248BDE80840FD
:10AA4000FFF7EEBC00A00040042914D00AD8012969
:10AA500013D0A1B1022914D0032908BF042018BFC4
:10AA60000020704706290ED00FD307290FD0642984
:10AA700008BF0920F3E70520704702207047012036
:10AA80007047032070470720704706207047082052
:10AA900070472DE9F0411378072B80460C46174686
:10AAA00004D9642B02D0012009F0A6FF7B79083B72
:10AAB000DBB2F62B02D8012009F09EFFD7F8013057
:10AAC000962B33D9B3F5967F32D9B3F5167F31D9AA
:10AAD000B3F5966F30D9B3F5E16F2FD9B3F5166F93
:10AAE0002ED940F6B83293428CBF002301237979E6
:10AAF000FF2927D04046FFF7A7FF012506463978F2
:10AB00004046FFF7A1FF22012D0502F1804202F528
:10AB1000E04245EA032343F40033C2F81835C2F893
:10AB20001465C2F810050020BDE8F0810723DEE7B8
:10AB30000623DCE70523DAE70423D8E70323D6E777
:10AB40000223D4E700263546D9E700002DE9F84373
:10AB5000421D0F460B460446103153F8040B42F8D1
:10AB6000040B8B42F9D11B7813707F4B7F4D012270
:10AB70001A60D5F8083543F00303C5F80835D5F851
:10AB8000103523F00F03C5F81035D4F812304FEA12
:10AB900013794FEA0318B9F1010F08BFB8F1000F9C
:10ABA00004D3734940F2B1200EF014FEC5F840857D
:10ABB000D5F804356D48DFF8E48123F00303C5F8C8
:10ABC0000435D5F8003243F00103C5F800324FF4E4
:10ABD000A071FFF725FC4FF4A2716448654DFFF7A3
:10ABE0001FFC4FF4A4716148FFF71AFC4FF4A671E3
:10ABF0005E48FFF715FC0C23A3755F4BC5F8703555
:10AC0000A3F504533C3BC5F8743503F540530433B6
:10AC1000C5F84039A37D594A012606FA03F3C5F861
:10AC20000435C8F80060D2F8083543F00303C2F8D1
:10AC300008356179C823B3FBF1F3033BC2F8403513
:10AC4000D2F8043523F003033343C2F80435104629
:10AC50004FF4A071FFF7E4FB4FF4A271FFF7E0FBA4
:10AC60004FF4A471FFF7DCFB4FF4A671FFF7D8FB9C
:10AC7000D2F8003243F48073C2F800320E236376B8
:10AC80003F4BC5F88035A3F589531C3BC5F8843587
:10AC9000637E9E400F23C5F80465A376394B3A4E78
:10ACA000C5F888656021C5F88C85C5F84C2983F8FE
:10ACB0000A1393F80A134809EC21014111F0010F1E
:10ACC000154606D0314A916859BB4FF480621A602C
:10ACD00005E02F4ABE2142F202000EF010FD4FF4B3
:10ACE0008033C5F804330D23E375224B294AC3F89A
:10ACF00078653946C3F87C252046FFF7E3FB18B199
:10AD0000234AD2210EF0FBFCA61D00256379AB423D
:10AD10000CDD3246E9B22046FFF7BBFE01350636B0
:10AD2000F4E7136843F480631360D8E7194B1A4FB4
:10AD30000122C3F8002504F1210504F125080026AD
:10AD40004FF4C8701DF0D9F847F8040B05F8016BF3
:10AD5000A845F5D101232046E676237701F090FE41
:10AD60000020BDE8F88300BF0C9000400090004038
:10AD700070AC040000F001404091004000A0004091
:10AD800040A1004000E100E004710040F0650020B7
:10AD900029AC040000700040AC2700200CA000404B
:10ADA0001A4B70B500240546C3F80045861D6B7923
:10ADB000A34207DD3246E1B22846FFF76AFE0134BE
:10ADC0000636F4E7114B124C0122C3F80025237814
:10ADD000BFF35B8FDB070ED420461CF0BDFD50B1E6
:10ADE0000C4804F05FFE20461CF0C2FD0A4A0B49E5
:10ADF00008481CF050FE11236A1D42F27471054888
:10AE000004F0AAFE00232B7170BD00BF007000404B
:10AE1000442700204827002080230020A18A020028
:10AE200070B5836A88B004460E466BB3431801229E
:10AE300083F82120837FABB1002540F24B130E2213
:10AE400029460DF11200ADF804300295ADF80C5012
:10AE50001EF040FC702301A8ADF81030ADF818507A
:10AE600001F0BCFD0023A377237943B12046FFF70F
:10AE70005FFB2046FFF794FF2046FFF705FCA36A1F
:10AE80003046984708B070BDFFF74AFCFAE710B5A6
:10AE90000446FFF7F7FA2178BDE81040FFF7C0BF7E
:10AEA000036800791847704730B52DED028BB4EE7A
:10AEB000E00AF1EE10FA85B005460C46F0EE408A45
:10AEC000B0EE608A04DB504A222121200EF017FCEC
:10AED0004E4BD3F80435AB6018EE900A1DF022FDFE
:10AEE00043A3D3E900231EF005F8002860D0DFED6E
:10AEF000487A68EEA77A17EE900A1DF013FD3EA37C
:10AF0000D3E900231DF0B0FB3DA3D3E900231DF0DE
:10AF10008BFE00223F4B1DF0A5FB1EF033F8C5B29F
:10AF200018EE100A1DF0FEFC31A3D3E900231DF03A
:10AF3000E1FFC0B1DFED367A68EE277A17EE900AAE
:10AF40001DF0F0FC2CA3D3E900231DF08DFB2CA3F6
:10AF5000D3E900231DF068FE00222E4B1DF082FB7A
:10AF60001EF010F8C0B2002304210622072C8DF831
:10AF700004108DF806308DF807508DF808008DF814
:10AF80000930ADF80A308DF80D2013D91E4A3B2147
:10AF900021200EF0B4FB204901A80EF03BFE18B1B1
:10AFA000194A59210EF0ABFB05B0BDEC028B30BD48
:10AFB0000546B5E7013C062C06D8DFE804F0040896
:10AFC0000A0C0F11140001238DF80C30E3E7022363
:10AFD000FAE70323F8E78DF80C10DCE70523F3E725
:10AFE0008DF80C20D7E70723EEE700BFAFF3008012
:10AFF000666666666666AA3F666666666666FA3F67
:10B000006666666666660A4004AD040000B00040ED
:10B01000000080420000F03FC9B002000139CBB20D
:10B02000032B05D8034A002132F813000EF07ABE34
:10B03000704700BFFCAC04000EF092BE38B50B8820
:10B04000A3F5807304460C2B36D8DFE803F00935EE
:10B050003535073535353135353533000223237124
:10B06000236823B3154BD3F80455D3F80825A368F8
:10B070000132ED1A4FF44810002300211EF000F9B0
:10B080004FF47A7200231EF0FBF825F07F458542CD
:10B0900009D90B4A082120460EF08CFA18B1094A4A
:10B0A000A0210EF02CFB054BD3F80435A36038BD6E
:10B0B0000123D4E70423D2E70023D0E700B0004007
:10B0C000A1AE020004AD040013B50B4CADF80600B0
:10B0D0002378BFF35B8FDB0706D420461CF03CFCD3
:10B0E00010B120461CF044FC0DF106010348FFF7A7
:10B0F000A5FF02B010BD00BF0028002004280020DA
:10B1000010B5094C2378BFF35B8FDB0709D42046C9
:10B110001CF022FC28B1054800F0DEF820461CF0A7
:10B1200027FC024810BD00BF10280020182800206E
:10B1300070B5012343710B6803604C7904711F2CB7
:10B1400086B006460D4604D91A494FF4F3700EF046
:10B1500041FB04F5E0744FF0A043032243F82420A0
:10B1600034791F2C04D913494FF4F3700EF032FBDD
:10B1700001264FF0A04306FA04F4C3F80C45FBF790
:10B1800007FC04230DEB0302052107F0A8F8019B3F
:10B1900002932B79ADF80E30AB7C8DF80C60C3F3C5
:10B1A00040038DF81030FFF7ABFF02A900F0D6FB8B
:10B1B00006B070BD4CAD040038B5437905460C4669
:10B1C00013B9012009F018FCE87900B934B9FFF788
:10B1D00097FF2246002100F0A5F9012038BD0000AC
:10B1E00038B50368B3F57B7F04461CD8B3F57A7F86
:10B1F00005D2642B03D005D8283B012B04D80123AA
:10B20000E37138BDC82BFAD025791F2D04D90A491E
:10B210004FF4F3700EF0DEFA01234FF0A042AB4082
:10B22000C2F80835EBE740F2EF329342E7D0EBD3B8
:10B23000A3F2DC53042BE1E74CAD040073B5437972
:10B24000044613B9012009F0D7FBA579ADB9012651
:10B250002046A671FFF7C4FFFBF79AFB33460DF1BA
:10B260000702422107F03BF82368283BB34206D887
:10B27000FFF746FF294600F04DF802B070BDFFF71A
:10B280003FFF9DF80710003118BF0121F3E70000D0
:10B290001F2810B5044604D905494FF4F3700EF089
:10B2A00099FA01204FF0A043A040C3F80C0510BD4F
:10B2B0004CAD04001F2810B5044604D905494FF4CD
:10B2C000F3700EF087FA01204FF0A043A040C3F8BE
:10B2D000080510BD4CAD0400002202838276704741
:10B2E00008B5094A012313604376837E5BB10021D0
:10B2F000064A08460EF05EF928B1054AC221BDE8AB
:10B3000008400EF0FCB908BD00B00140EBB70200E8
:10B31000BDAD040038B5037E04460D4613B90120C7
:10B3200009F06AFBA57615B92046FFF7D9FF002082
:10B3300038BD0000064B00221A6082B01B680193E2
:10B34000019B044B4FF40012C3F8042302B0704772
:10B3500054B1014000B001402DE9F84F037E04468E
:10B36000002B00F08480437E33B9837E002B7ED097
:10B37000BDE8F84FFFF7B4BF3E4B01221A60D3F887
:10B380000025C56956424FF000034FEA550063EBB4
:10B3900043074FF00009404269EB4901864277EBD1
:10B3A0000101A84602DAAE1A69EB0307D4E91432A8
:10B3B000B3EB060A62EB070B4FF47A72A5FB02238C
:10B3C000524573EB0B01B4BFC4E91423C4E914ABB9
:10B3D000D4E91401524263EB430390429941B8BF50
:10B3E000C4E91423636C0A2101336364B3FBF1F2F3
:10B3F00001FB1233C4E91267CBBB4FF47A7200230E
:10B40000D4E914011DF0ECFE4FF4C87282468B465D
:10B410000023404649461DF0E3FE02460B465046D7
:10B4200059461DF0DDFE144A82464FF0FF33404678
:10B4300049461DF0D5FE02460B46304639461DF002
:10B44000CFFE00230AEB00064946404678221DF055
:10B45000C7FE8642A8BF06464042B042ACBF2D1888
:10B46000AD1925622046BDE8F84FFFF763BFBDE880
:10B47000F88F00BF4CB0014070FEFFFF08448AB156
:10B4800090F83B30890001F1804101F5C0411B0576
:10B49000D1F8142503F4801322F480121343C1F869
:10B4A0001435704790F83D30ECE70000052908B5E9
:10B4B0000AD9012009F0A0FA0720054A40F2162116
:10B4C0000EF01DF9002008BD024B585CFBE700BFE1
:10B4D000BDAD0400A0AD040010B51446FFF7E6FFB3
:10B4E000024B00F5A87043F8204010BD00B00140A9
:10B4F000026A0521FFF7F0BF072908B50AD9012024
:10B5000009F07AFA0720054A40F22E210EF0F7F8EA
:10B51000002008BD024B585CFBE700BFBDAD040036
:10B52000A6AD04002DE9F74F1346027E05460C46F2
:10B5300022B1427E2AB900EB8104636203B0BDE808
:10B54000F08F0FFA81FB00EB8B07642BD7F810907C
:10B55000984603F1FF3228BF4FF06408B9F1000F9D
:10B5600002D0B9F1640F6DD192B2622A0AD9632B6D
:10B5700094BF0022012221462846FFF77FFFC7F82B
:10B580001080DBE7EB69DFF848A2642203FB08F3D5
:10B59000B3FBF2F3FB6295F83830012606FA03F3A9
:10B5A000CAF8083595F8393006FA03F3CAF80835B1
:10B5B0002146FA6A2846FFF78FFF95F83A3003F5DF
:10B5C000007300224AF8232095F83A309B0005EBDF
:10B5D0004B0B03F1804303F5F8339BF83420D3F889
:10B5E000001806FA02F20A43C3F8002895F83A3028
:10B5F0009BF835209B0003F1804303F5F83306FAEE
:10B6000002F2D3F800180A43C3F80028B9F1000F7A
:10B6100095F8383018BF05245034A400DB00A4B2DC
:10B6200003F1804303F5F83304F1804404F5D83482
:10B63000C3F81045C3F814A595F838309E40CAF8F1
:10B6400004659CE790F838C0DFF884A192B2012627
:10B65000622A06FA0CFC4CD90193CAF808C590F886
:10B66000392006FA02F2CAF80825FA6AFFF734FF11
:10B6700095F83A2002F5007200214AF8221095F858
:10B680003A20019B920005EB4B0B02F1804202F540
:10B69000F8329BF83410D2F8000806FA01F10143A1
:10B6A000C2F8001895F83A209BF83510920002F184
:10B6B000804202F5F83206FA01F1D2F8000801439F
:10B6C000C2F80018002B95F8382018BF0524503414
:10B6D000D300A400A4B203F1804303F5F83304F1CE
:10B6E000804404F5D834394AC3F81045C3F814250A
:10B6F000A2E7C369642203FB08F3B3FBF2F3FB6226
:10B70000CAF808C590F8393006FA03F3CAF80835C4
:10B7100090F83A3003F5007300224AF8232090F89D
:10B720003A3090F83820DFF8ACA09B0003F180435A
:10B7300003F5F83306FA02F2D3F800180A43C3F807
:10B74000002890F8382004F110039B00D200DBB2EF
:10B7500002F1804202F5F83203F1804303F5D83359
:10B76000C145C2F810A5C2F8143522D9611C90F861
:10B770003990C9B2FFF7C0FE4FEAC90303F1804315
:10B7800003F5F83300F1804000F5C040C3F810A580
:10B79000C3F8140595F83A3095F839109B0003F179
:10B7A000804303F5F8338E40D3F800281643C3F8DE
:10B7B0000068FA6A04212846FFF78EFE95F83A20C1
:10B7C000034B012143F83210D9E600BF04F00140D9
:10B7D00000F0014050B10140426A0369934203D036
:10B7E00092B20021FFF79EBE704708B5FFF788FCB4
:10B7F000BDE80840FFF7F0BF0F2910B50C4602D98D
:10B80000012009F0F9F8013CE4B20E2C96BF024B7E
:10B810000020185D10BD00BFAEAD04002DE9F84F4B
:10B820000EB2B40000EB0409074699F80830B9F8E5
:10B8300006000D469246002B00F08880FFF73AFD87
:10B840004FF00008C9F81080C9F824809AF8023037
:10B8500007EB050983F0010189F83B1004F18044EE
:10B8600004F5C0449AF8023089F83D30D4F8142524
:10B87000BAF8003022F4981222F4F852C4F81425D1
:10B88000D4F814251B0203F4F853134343EA01537D
:10B890004FEA450A43F440335FFA8AFAC4F8143594
:10B8A00051463846FFF7A8FF760007EB060B0AF172
:10B8B00001018BF83400C9B23846FFF79DFF01360D
:10B8C0003E44AB0086F8340001359BF834A0DFF825
:10B8D00088B0EDB2294638469B44FFF70DFE4FEA8B
:10B8E000CA0303F1804303F5F83300F1804000F50B
:10B8F000C040C3F810B5C3F8140596F83460294663
:10B900003846FFF7F9FDF30003F1804303F5F83300
:10B9100000F1804000F5C0400E4AC3F81025C3F87E
:10B92000140599F83D30D4F814251B0522F4801233
:10B9300003F480131343C4F81435D4F8143543F0DA
:10B940000303C4F814354046BDE8F88FFFF7A0FCA8
:10B9500076E700BF54B1014040B10140F0B5044664
:10B960000FC984E80F004E4B4E4D01221A60D5F8E6
:10B97000083543F00303C5F80835D5F8103523F032
:10B980000F0343F00203C5F81035236819011A0F9D
:10B990008E089F0F46EA8276012F08BF002E87B0DF
:10B9A00004D3414940F2B1200DF014FFE661C5F81F
:10B9B0005465D5F804353D4A23F00303C5F8043532
:10B9C000D5F8003243F02003C5F800320025156099
:10B9D00012680592059A364A156012680492049A14
:10B9E000344A156012680392039A334A156012684C
:10B9F0000292029A314A156012680192019A304A05
:10BA0000156012680092009A2379E9B28B4207D937
:10BA100004EB810206322046FFF700FF0135F3E711
:10BA2000590001F0FE012046FFF7E6FE217984F877
:10BA3000380049000131C9B22046FFF7DDFE00237E
:10BA400084F83A301F4B84F83900402283F81B23D6
:10BA500093F81B235109EC220A41D20706D51A4A52
:10BA60009168B9B94FF000621A6005E0174A582191
:10BA700042F202000DF043FEE3692362002200233C
:10BA80000020C4E91423C4E912230123606423764F
:10BA900007B0F0BD136843F000631360ECE700BF2C
:10BAA0000CB0014000B0014070AC040040B1014056
:10BAB00044B1014048B101404CB1014050B1014096
:10BAC00054B1014000E100E0F0650020BDAD04008C
:10BAD00008B5054B4FF40012C3F80823FFF710FB1D
