:020000022000DC
:1060000000000120F9490300214A0300750D030037
:10601000254A0300274A0300294A03000000000024
:106020000000000000000000000000002B4A0300F8
:106030002D4A0300000000002F4A0300314A0300EC
:10604000334A0300334A030089A30200334A0300A2
:10605000334A0300334A0300334A0300CD90020061
:10606000334A0300DB900200DD900200334A030054
:10607000334A0300334A0300334A0300334A030020
:10608000334A03008D600400A17F030025690300EB
:1060900079610400334A030051670300334A030067
:1060A000334A0300334A03003DDA030059A00200DB
:1060B000334A0300334A03000000000000000000E0
:1060C000334A0300334A0300334A0300334A0300D0
:1060D000334A0300334A0300334A03000000000040
:1060E00000000000000000000000000000000000B0
:1060F00000000000000000000000000000000000A0
:10610000000000000000000000000000000000008F
:10611000000000000000000000000000000000007F
:10612000000000000000000000000000000000006F
:10613000000000000000000000000000000000005F
:10614000000000000000000000000000000000004F
:10615000000000000000000000000000000000003F
:10616000000000000000000000000000000000002F
:10617000000000000000000000000000000000001F
:10618000000000000000000000000000000000000F
:1061900000000000000000000000000000000000FF
:1061A00000000000000000000000000000000000EF
:1061B00000000000000000000000000000000000DF
:1061C00000000000000000000000000000000000CF
:1061D00000000000000000000000000000000000BF
:1061E00000000000000000000000000000000000AF
:1061F000000000000000000000000000000000009F
:1062000010B5054C237833B9044B13B10448AFF3F0
:1062100000800123237010BDF02400200000000046
:1062200084C1040008B5034B1BB103490348AFF315
:10623000008008BD00000000F424002084C1040098
:10624000154B002B08BF134B9D46A3F5803A002148
:106250008B460F461348144A121A22F04CFC0F4B7F
:10626000002B00D098470E4B002B00D09847002001
:10627000002104000D000D48002802D00C4822F037
:1062800048FB22F07DFB200029000EF057FA22F097
:1062900063FB00BF000008000000012000000000B8
:1062A00000000000F024002038670020138904005B
:1062B00000000000AADF7047AEDF704710B504464B
:1062C000006808B122F088FB204610BD704710B569
:1062D0009021044620F0ECFB204610BD70B50E4E18
:1062E0003378BFF35B8F13F0010513D1304620F0F4
:1062F00096FB78B1094C0A4B23603046042384F89E
:10630000505084F8583020F096FB064A0649204643
:1063100020F0C9FB014870BDA825002018250020E9
:1063200080A0040080230020CD620200704790F816
:1063300020309B0603D590F82830FD2B02D9036846
:106340005B691847406A7047704700207047A0F8A3
:106350004210704708B500F0E5FA006808BDB0F8D3
:1063600042007047B0F840007047A0F844107047F2
:10637000B0F8440070470000094A02604DF6AD6174
:106380000022426001818272C260C0F81220C0F80F
:106390001620C26180F82020426280F828207047D1
:1063A000F896040038B590F82030DB0704460D4617
:1063B00005D5044A1B2102F150000AF07CFCE5607F
:1063C00038BD00BFCC9504002DE9F04704469AB0D3
:1063D00000250EAFE1611C22884610A829460E95C3
:1063E0007D6022F088FB1C22294610A80DF15C0A72
:1063F000ADF85C508DF85E50ADF862508DF8645089
:1064000022F079FB09A9204600F0E0F80322294692
:10641000504622F070FB9DF85E30CDF854A0012666
:1064200066F34203DBB233438DF85E309DF85C3097
:1064300066F3030366F307138DF85C309DF85D3057
:1064400004F1040A66F3030366F3071350468DF85C
:106450005D3002F061F8504601F0F8FF0DF1680A76
:10646000142229464AF8640D09A822F044FB236847
:10647000CDF824A01B69ADF82E502046984723681C
:10648000ADF82C009B6820469847ADF830002046B8
:10649000FFF74DFF0DF162090D9003222946484692
:1064A00022F029FB9DF86430CDF8289003F0F80322
:1064B00043F005038DF864309DF86230119566F362
:1064C000030366F307138DF862309DF8633014956B
:1064D00066F3030366F30713E6688DF8633005ABD4
:1064E0000393002E6BD0304622F042FC0F2806EBBF
:1064F0000009029007D92A4602A903A820F056FEF7
:10650000029B039005934A463146039820F0A2FE71
:10651000029B039A04930025D554049B3BB3039A32
:1065200011920DF165069BB2032229463046ADF863
:106530004A30ADF8483022F0DEFA9DF86730149604
:10654000012262F34203DBB213438DF867309DF8FA
:10655000653062F3030362F307138DF865309DF82D
:10656000663003F0F00365F307138DF86630236897
:10657000002513955B6B39462046984710B1ADF85E
:106580003A50139704F1120309AA10A9B8F82C0085
:10659000FFF790FE18B10B4A8C210AF092FB002104
:1065A000204600F035F894F8203043F0010384F8D9
:1065B000203003A820F014FE1AB0BDE8F08702488E
:1065C00020F09BFFCC950400469604000B7F43F01F
:1065D00002036FF300030B7790F820300A7FC3F3B8
:1065E000800363F3C3020A7790F82030D2B2C3F37A
:1065F000400363F304120A7790F82030D2B2C3F359
:10660000001363F345120A77437C81F83F307047EB
:106610002DE9F043036887B0DB6904468846984754
:1066200006462046FFF783FE94F820309B06054679
:106630005FD594F82830FD2B5BD84146304605F0F5
:1066400077FA0746FFF74AFE236881465B692046D2
:10665000984794F82830CDF80880CDE90073324689
:1066600001462B46484605F09BFA064688B93A464D
:106670000146284622F03FFA23683146DB6820466F
:106680009847FFF72BFE05F07CFA032007B0BDE822
:10669000F08323683946DB68204698472368204604
:1066A0001B699847E369618A06AA22F8020D986877
:1066B0002B46B0F8420000F0F1FE18B1114AF1216A
:1066C0000AF0FFFA94F82030C3F340000028DDD030
:1066D000E2699268B2F842104FF6FF7291420ED012
:1066E000C3F3C0000028D1D0236820465B6A9847D6
:1066F000CCE723683146DB6820469847CEE7002088
:10670000C4E700BFCC95040030B590F820309A075C
:1067100087B0054645D5C2699268B2F842104FF677
:10672000FF7291423DD01B073BD503681B69984718
:106730006B8AADF8083001238DF80A300DF106029E
:106740000023CDE90423EA69ADF806009268ADF8AC
:106750000C3002A9B2F84200FFF7AEFD082804464B
:1067600018D007D860B1104A40F22B1120460AF029
:10677000A8FA05E0132806D043F201439842F2D16B
:10678000204607B030BD95F8203043F0400385F82F
:106790002030F5E795F8202063F3861285F8202055
:1067A000EEE70824ECE700BFCC9504002DE9F04F9C
:1067B00090F820309A0791B0044640F18A80C2696F
:1067C0009268B2F842104FF6FF72914200F0818059
:1067D0001B077ED503681B69984780462046FFF754
:1067E000A6FD94F82050C5F3801582460DB1B4F88B
:1067F00046504FF0000B0DF11809A84548D9A8EBF9
:1068000005071422132F4FF000014846BB46A8BFCE
:106810004FF0130B22F06FF9132FCCBF1322FF227E
:106820000AEB0507C8BFB5FBF2F21FFA8BF68DF82D
:10683000182039461FFA8BF20DF1190022F037F9B2
:10684000721C92B239460BA8ADF8062022F02FF93F
:10685000638AADF8083001238DF80A300DF1060384
:10686000CDE90439E3699B68002202A9B3F842002C
:10687000ADF80C20FFF720FD834608B313280BD199
:1068800094F82020A4F8465042F0400284F82020DA
:10689000584611B0BDE8F08F082808D194F82010B0
:1068A000A4F8462062F3861184F82010F0E743F242
:1068B0000142904204D0084A40F293110AF001FAD2
:1068C000BDF806200BA93846354422F0F0F8ADB2E9
:1068D00093E74FF0080BDBE7CC95040010B590F878
:1068E00020305B06044609D503685B6A984728B9DF
:1068F00094F8203060F3861384F8203010BD10B572
:1069000090F820305B0604460BD503685B6A984715
:1069100038B994F82030A4F8460060F3861384F860
:10692000203010BD80B483B000AF78607B682C331A
:1069300018460C37BD465DF8047B704710B5044B14
:10694000044640F8303BA36BDB689847204610BDF7
:106950006C95040010B50446FFF7F0FF204648216F
:1069600020F0A6F8204610BD2DE9F04387B00D4673
:106970000446FFF7B3FC05F00BF90646002840D1AA
:1069800023682946DB6820469847C9238DF81730CD
:1069900094F8203013F0200F236851D094F8282069
:1069A000FD2A4DD81B692046984705F0D0F823688A
:1069B00001469B6920469847FFF790FC0546204614
:1069C000FFF7B5FC236807461B69204698472368F4
:1069D00080465B692046984723688146DB692046EC
:1069E00098470DF11703CDE9000302964B46424646
:1069F0003946284605F0AAF930B9FFF76FFC05F0D3
:106A0000C0F807B0BDE8F083FFF768FC9DF81720D9
:106A100094F8281005F0C1FB0028EED020469DF820
:106A20001760FFF77FFF23680746DB69204698471A
:106A3000E56B03463A46314604F13000A847E0E7EB
:106A4000FE228DF817209B69294620469847E5E7E6
:106A5000F8B5436A04465BBB90F82030DB0920D0D0
:106A6000144F154E3D78BFF35B8F15F001050ED125
:106A700038461FF0D4FF50B138463560B580B57147
:106A80001FF0D9FF0D4A0E49304620F00CF833684C
:106A900003B16362636A5BB90120BDE8F8400AF0A4
:106AA0007DB903689B689847012121F039FF606236
:106AB000F8BD00BF142500200C25002080230020F5
:106AC000BD62020038B50446406A28B194F820300F
:106AD000DD0902D00023636238BD21F07DFF6562CD
:106AE000FAE700230120CB8040F21B1308710B80D2
:106AF0007047A8DF704770473030704713B5D0E952
:106B00000D3293420446019107D003B11960636BC3
:106B100004336363204602B010BD01AA1946303029
:106B200000F0ECF8F6E7000038B50E4B03600446C1
:106B300000254DF6AD630C4A057103828574C0E9EA
:106B400002551C306061114620F084FB6369A56129
:106B50001D704FF6FF73A385C4E90C55A56320464D
:106B600038BD00BFC89704005197040073B503797E
:106B7000044643BB00F10C058160284601F0CCFCC3
:106B8000284601F063FC02A922464FF6FF7341F844
:106B9000040D22F82C3F0120FFF7ABFF18B10B4A80
:106BA0002D210AF08EF8236820469B6A9847D0E989
:106BB0000056AE4205D0214655F8040BFFF704FC01
:106BC000F7E70123237102B070BD00BF52970400A4
:106BD00070B503689B6A0D469847D0E90046A64207
:106BE0000FD054F8040B90F8203065F3451380F86B
:106BF0002030036815B1DB6A9847F0E71B6B9847B4
:106C0000EDE770BD10B50C68C46000F10C038A8814
:106C10009A808A799A7110BD0A88112A09D0502A5F
:106C20000DD0102A10D1036801F108029B698988F0
:106C30001847036801F10802DB698988184703686F
:106C400031F8062F1B6A184770477047F7B503687D
:106C50009B6A0D46074616469847D0E9003199428F
:106C600037D053F8044B2888E28A90420FD16A89C2
:106C7000022A0CD105F10C000EF019F994F820301D
:106C800060F3C30384F82030012003B0F0BD628AB2
:106C9000B242E4D1AB795A1E022A06D82368698928
:106CA0001B6A204698470120EFE7062B13D102AA62
:106CB000B868002322F8023D3146B0F8420000F0E7
:106CC000DCFB2368BDF806101B6A204698470120AC
:106CD000DBE70020D9E70120D7E770B503689B6A9E
:106CE0000D469847D0E90046B44206D054F8040B4C
:106CF000036829469B6A9847F6E770BD2DE9F8437B
:106D0000D0E90034E41AA410914614BF22460122AF
:106D1000A41806460F46A1EB030834D2B4F1804F05
:106D200031D294BB254615EB080F18BFD9F80030B7
:106D3000D6F8009018BF45F80830B945A7EB090808
:106D400004D042464946284621F0BCFE726808F14C
:106D50000403BA422B44A2EB070805D0184642466A
:106D6000394621F0A4FE034603EB0807B9F1000FF2
:106D700002D048461FF062FE05EB8404C6E90057C6
:106D8000B460BDE8F8836FF04044A0001FF036FE09
:106D90000546C8E77047704710B5642104461FF0E8
:106DA00087FE204610BD000010B5064B0360044668
:106DB000C06908B11FF042FE206908B11FF03EFE15
:106DC000204610BDC8B1040010B5094C2378BFF3AC
:106DD0005B8FDB0709D420461FF021FE28B1054850
:106DE00003F06CFE20461FF026FE024810BD00BFD7
:106DF000F8250020FC25002010B50B4C2378BFF3AC
:106E00005B8FDB070ED420461FF009FE50B1074808
:106E100008F04EFD20461FF00EFE054A05490348C6
:106E20001FF041FE014810BDC8250020CC250020E0
:106E300080230020A96D020070B5114B036000256E
:106E400000F12803122604464562324629461846B8
:106E500021F051FE4FF41671FF22C4E91312658729
:106E6000A58784F83E50C4E91055A56484F85450B1
:106E7000A56525663246294621F03DFE204670BDB7
:106E80004098040080F82910704780F83A10704745
:106E900080F83B10704710B5012404FA01F190F915
:106EA0003C3049B21AB10B4380F83C3010BD23EAA4
:106EB0000103F9E780F83D10704728307047122031
:106EC000704710B55C30144605F0FCF928B1014656
:106ED0001022A01C21F0EBFD012010BD2DE9F04394
:106EE00004468BB004F124050E4603F06BFD2946E1
:106EF00003F0BAFDA36D0133A365FFF77DFF042303
:106F000005AA882108F012FFFFF776FF042306AADE
:106F10008B2108F00BFF069A003218BF01220221D4
:106F20002046FFF7B8FF069A8ABBA264216DA06DC8
:106F300004F1280789B3C30740F1C080072384F810
:106F40002830002384F82A3094F83A3084F82B3023
:106F500094F83B3084F82C3094F83C3084F82D3091
:106F600094F83D3084F82E3094F83E3084F82F3079
:106F70007D22236C93FBF2F32386636CC4F83230DA
:106F8000059BA26D002B00F0C3809BB2C1E0A36CF7
:106F9000002BCBD0059BA364C8E7062384F82830D8
:106FA00094F83B3084F82B3094F83C3084F82C3043
:106FB00094F83D3084F82D3094F83E3084F82E302B
:106FC0004FF07D0C236CC4F8312093FBFCF384F864
:106FD000350084F82A10A4F82F30042204F136007A
:106FE00021F089FDDFF85C8198F80030BFF35B8FFA
:106FF000D8070ED440461FF012FD50B14B4806F0A2
:10700000E5F840461FF017FD494A4A4947481FF036
:107010004AFD3A4602211223444806F033F9FFF7AD
:10702000EBFE0322192108F08EFE58B3236D002BCE
:1070300079D0DFF8149199F80030BFF35B8F13F02B
:10704000010813D148461FF0EAFC78B13A4F3B4B98
:107050003B604846042387F8508087F858301FF07B
:10706000EAFC334A364938461FF01DFD65220221ED
:10707000CDE9012104F12A031022009219462E487D
:1070800004F08EFD66B940F21D13ADF81C300023EC
:107090000893ADF82430FFF797FE07A903F012FD1F
:1070A000236D002B39D103F08DFC234640F6CD42F1
:1070B000294603F0C5FC0BB0BDE8F08394F83A1004
:1070C000F2B1072384F82830012384F82A30A36C16
:1070D000236394F83C3084F8343094F83D3084F8DD
:1070E0003530059B84F82B10E2623BB983B2E3860E
:1070F0007D22236C93FBF2F3238773E79BB2F6E7C1
:107100003A462046FFF7DDFE00287FF46BAF15E717
:1071100093B2E3864FF47A43EEE703F053FC234641
:107120004FF40042C4E7002EBDD1ACE7B0250020EB
:1071300080230020976D02001825002080A0040005
:10714000CD620200AC250020A82500200021FFF719
:10715000C5BE0000031D37B5202200210446184695
:1071600021F0C9FC254645F8240F03F02BFC284AE2
:10717000294603F055FCFFF73FFE01230DF10702FE
:10718000862108F0D3FD9DF80730102B02D03AD8A5
:10719000022B3AD8236504F15C0005F039F803F0BE
:1071A00011FC234629464FF4004203F049FCFFF747
:1071B00023FE0322362108F0C6FD012102462046A7
:1071C000FFF769FEFFF718FE0322372108F0BBFD29
:1071D000032102462046FFF75EFEFFF70DFE032265
:1071E000382108F0B0FD052102462046FFF753FE86
:1071F000FFF7EAFD214603F085FC01212046FFF759
:107200006DFE03B030BDFF2BC4D0FF23C2E700BF2B
:107210004D71020070B58AB00D460446FFF7ECFDD3
:1072200004230DEB0302882108F080FD03238DF871
:107230001A3000238DF81B302DB105238DF81A303C
:1072400001238DF81B3094F83D308DF80830636CC5
:10725000CDF80930019BA26D002B46D193B2ADF859
:107260000D3009238DF810300723ADF8183040F2A7
:107270001513ADF81C3002AE0C2304ADADF824306C
:1072800005960895FFF7A0FD07A903F01BFC94F8ED
:107290003B308DF8083094F83C308DF8093094F884
:1072A0003E308DF80A307D22236C93FBF2F3ADF86B
:1072B0000B30019BA26DD3B993B2ADF80D3008230A
:1072C0008DF810300723ADF8183040F21513ADF8E3
:1072D0001C300C23ADF8243005960895FFF774FD9B
:1072E00007A903F0EFFB0AB070BD9BB2B7E79BB2F2
:1072F000E3E7000037B50B8840F2231293420446BF
:107300003BD0B3F5927F16D2832B58D006D8812B71
:1073100045D04BD8222B3DD003B030BD8B2B30D085
:10732000B3F58D7F6ED0872BF6D14B6893F9003083
:1073300080F83D30F0E7B3F59B7F55D00CD8B3F51E
:107340009A7F43D049D8B3F5927FE5D1002180F8E8
:107350005410FFF7C3FDDFE7B3F5A07F4BD0B3F5C3
:10736000A17F6DD040F237129342D5D14B681A7885
:10737000003218BF0122032109E0012380F85430B4
:10738000CAE74B681A68003218BF01220221FFF7D2
:1073900082FDC1E74B681B7880F83A30BCE74B6848
:1073A0001B7880F83B300323C364B5E74968274A5C
:1073B000D1E90001002321F0D5F86064ACE74B6807
:1073C0001B6803647F2380F83E30A5E790F83C30CB
:1073D00043F0100380F83C309EE74B681A78003287
:1073E00018BF01220021D2E74B681A78003218BF7B
:1073F00001220121CBE74B681A78003218BF012225
:107400000521C4E7C56C6B1EC364002D84D10DF14A
:107410000700012102F036FE9DF8072042F21073AA
:107420005343FF2293FBF2F303F56A436422603374
:107430002946B3FBF2F32046E364FFF7EBFE6BE76C
:1074400049685C3004F00BFF66E700BF0090D00392
:1074500010B50446FFF7A8FC20462C211FF028FB9E
:10746000204610BD10B5182104461FF021FB204610
:1074700010BDACDF7047ADDF704713B514461288FE
:10748000ADF800200022ADF802206A460193FFF714
:10749000F2FFBDF80030238002B010BD13B51446D2
:1074A0001288ADF800200022ADF802206A46019350
:1074B000FFF7DFFFBDF80030238002B010BD36DFDC
:1074C000704737DF70476DDF704772DF704773DFDB
:1074D000704774DF704775DF704776DF704777DF7E
:1074E000704778DF70477ADF70477CDF70478ADF4C
:1074F00070478BDF7047B1DF704765DF704766DF2D
:10750000704711DF704712DF7047000010B50B4C59
:107510002378BFF35B8FDB070ED420461FF07FFA82
:1075200050B1074800F03CF820461FF084FA054AA5
:10753000054903481FF0B7FA014810BD7428002020
:1075400078260020802300209D76020010B5044696
:10755000006808B121F040FA204610BD70B50C4E0D
:107560003478BFF35B8F14F001040FD130461FF065
:1075700056FA58B1074D30462C60AC80AC711FF004
:107580005AFA054A054928461FF08DFA014870BD90
:107590008028002078280020802300204D750200DC
:1075A00038B500F10C020023C0E901234FF400724A
:1075B0000446037043708370C370037382838377C0
:1075C000C0E90833836214201FF018FA0546206AC8
:1075D00008B11FF033FAA02363864FF6FF73A4F8B7
:1075E000423084F8F03004F2D313C4E90855294A34
:1075F000C4F8F43114351F23A562E2640025E26566
:10760000A4F8F831244AE26604F18403294684F898
:10761000305084F83150A58684F83E5084F83F50AD
:1076200084F840506564256565652566656625674F
:1076300084F8745084F8805084F89551C4F8A451AB
:10764000C4F8C0512022184621F055FA04F1A803CD
:10765000C4F8A40029462022184621F04CFA04F16F
:10766000CC03C4F8C80020222946184621F043FA6A
:10767000112384F831300623E386102323870A235D
:1076800063874FF4C873C4F8EC00A38784F8D25121
:10769000204638BD08990400F098040010B504464F
:1076A00000F052F9E36E04F16400DB68984704F1DE
:1076B000540000F0E2FD04F1440000F0DEFD206A19
:1076C00008B11FF0BBF9201D1FF08AFD204610BD38
:1076D00013B5037804461BBB0DF10700FFF713FF3A
:1076E00018B1104A552109F0ECFA9DF8073033B172
:1076F000FFF707FF18B10B4A592109F0E2FA012000
:10770000FFF7DDFE0E20FFF7DCFE0023C4F86C312E
:10771000A4F87031C4F87431A4F8783101232370CF
:1077200002B010BD9998040008B50EF065FE0EF089
:10773000E7FF0EF0EBFF0EF067FF08280AD018B144
:10774000054A8D2109F0BDFA0EF0DAFF10B90EF0EE
:1077500053FEF9E708BD00BF9998040030B50378DF
:107760008BB00446002B64D04378002B61D10AAD66
:10777000334B45F8243D012084F8940129460FF04D
:1077800017F818B12F4ABE2109F09BFA28460FF0CE
:1077900079F818B12B4AD52109F093FA0023029306
:1077A000ADF80C3002A80C23ADF80A30FFF7A5FEA7
:1077B00018B1244ADC2109F084FAA368002B3AD1DD
:1077C00006AB2149049304A800F01EFEBDF8142066
:1077D000049904F13100FFF788FE18B1194AE2213B
:1077E00009F06FFAA08BFFF77CFE18B1154AE5216E
:1077F00009F067FA04F5E270FFF765FE18B1114A67
:10780000E92109F05EFA04F2CB10FFF75CFE18B133
:107810000C4AEB2109F055FA94F8CC31013384F885
:10782000CC3101232046637000F0DEFD04A81FF078
:10783000D7FC0BB030BD211D04A81FF04DFEC5E7DD
:107840008023002099980400EA98040090F83E30C4
:1078500080F8D2310BB100F0E9B9704790F8D2212D
:1078600022B1002280F8D22100F0C4B97047A1F102
:1078700020039BB243F6E072934298BF4186704763
:1078800038B54378044615467BB1FFF7F0FF00F0AA
:107890004DF955B194F83E303BB1204600F0C6F9A1
:1078A0002046BDE8384000F0A5B938BD30B50446E3
:1078B00087B004300D461FF0D2FC6378BBB1A368DB
:1078C000BBB902AB0D490093684600F09DFDBDF8C1
:1078D0000420009904F13100FFF707FE20B1084AA7
:1078E00040F2351109F0EDF968461FF079FC07B058
:1078F00030BD294668461FF0EFFDE8E7EA9804002E
:107900009998040038B543784BB1D0E90845AC42AA
:1079100005D054F8040B0368DB689847F7E738BDD7
:1079200070B54378044673B1837863B9D0E90856DB
:10793000B54206D055F8040B036821461B699847E9
:10794000F6E70123A37070BD70B5044600F06EF930
:10795000D4E90856B54205D055F8040B03689B6876
:107960009847F7E70023237070BD13B5D0E90932BB
:1079700093420446019107D003B11960636A04334E
:107980006362204602B010BD01AA1946203000F003
:107990007BFCF6E711F10C0F09D010DC11F1140F8C
:1079A00005D011F1100F02D011F1280F0DD190F96F
:1079B00030308B4209D080F8301000F00DB80B1D2C
:1079C000F5D003DC11F1080FF1D070470029EED09B
:1079D0000429FAD1EBE7000008B5437883B190F8A9
:1079E000F010FF290CD090F930200120FFF777FD2F
:1079F00030B1044A40F28711BDE8084009F061B98E
:107A000008BD00BF9998040043780BB100F0ECBCAE
:107A10007047704710B53C2204460021F43021F035
:107A20006AF8062384F8F73004F13003C4F8F8301C
:107A300010BD0000F8B500F5987604460D463C22CE
:107A40000021304621F057F8062384F83331D4F86A
:107A5000C0310127002184F8307184F83211002BE5
:107A600040D0DDB104F5DA750C22284621F043F848
:107A70004CF20103A4F8B431D4F8C001FFF71DFAA9
:107A8000C4F8BC01D4F8C001FFF719FAA4F8B80192
:107A90000430C4F8585184F85C71C5B2207AC5F13D
:107AA0001A05EDB2854228BF054684F83151DDB193
:107AB000D4F86C311F21A4F8701123B9012020F0F3
:107AC0002FFFC4F86C0104F5B872D4F86C1130467D
:107AD0000DF024F840B1054A4FF40A71BDE8F840B2
:107AE00009F0EFB81D46D9E7F8BD00BF999804002A
:107AF00010B511460446FFF79DFF204600F016F82A
:107B00002046BDE8104000F0CBB838B504460D461D
:107B1000FFF780FF29462046FFF78CFF204600F044
:107B200005F82046BDE8384000F0BAB8012380F8D7
:107B30007C3190F87D3103F0FE036FF3410380F850
:107B40007D310023C0F880314FF48073A0F890316C
:107B5000438EC0F88431838EA0F8883170470123AA
:107B600080F87C317047052380F87C317047000035
:107B700010B543780446CBB390F83E300BB100F01B
:107B800055F894F87C21092A05D80123934040F246
:107B90001232134209D1D4F8740108B120F01CFF4D
:107BA0000023C4F87431A4F8783104F5B872D4F81D
:107BB0006C1104F598700CF0B1FF20B10C4A4FF431
:107BC0002F7109F07EF804F5BE7204F5B67104F168
:107BD000F000FFF77AFC20B12046BDE8104000F02D
:107BE0007DB82046BDE8104000F004B810BD00BFCD
:107BF0009998040008B590F83E2003468AB90949CF
:107C000009480A6800688242BCBF01320A6093F8E2
:107C1000F00093F89411FFF75AFC10B9012283F891
:107C20003E2008BD842800208423002010B590F851
:107C30003E30044673B190F8F000FFF74AFC30F094
:107C4000080304D0044A40F2F12109F03AF8002375
:107C500084F83E3010BD00BF9998040090F83E3083
:107C6000E3B190F84030CBB9B0F842204FF6FF7343
:107C70009A420DD139B190F895310133DBB280F8D9
:107C80009531DB0706D5012380F87C31FFF770BF03
:107C90000029F0D1052380F87C31F7E77047000018
:107CA00010B543780446ABB190F8F030FF2B11D1FA
:107CB00000F014F804F5BE7204F5B67104F1F0009A
:107CC000FFF703FC30B1044A4FF45671BDE8104091
:107CD00008F0F7BF10BD00BF99980400F0B58BB055
:107CE00006462122002101A820F005FF00241F4F95
:107CF0002546B6F87031A34214D9D6F86C311A5D16
:107D000001AB5819394621F009F804F00703072B95
:107D1000054405D12122002101A820F0ECFE002518
:107D20000134E6E72122002101A820F0E4FE00242E
:107D30000E4F2546B6F87831A34214D9D6F87431DF
:107D40001A5D01AB5819394620F0E8FF04F007032B
:107D5000072B054405D12122002101A820F0CBFEEC
:107D600000250134E6E70BB0F0BD00BFEB9804003E
:107D700030B5437889B00446002B44D090F84020B9
:107D8000002A40D19DF81030ADF8162062F30003B0
:107D900062F34103DBB243F0040362F3C403012541
:107DA0008DF81030ADF81820ADF81A208DF81C2091
:107DB0008DF81150FFF720F802230DF11202272150
:107DC00007F0B4FFFFF718F82821022305AA07F0EF
:107DD000ADFF04F5FA7104A8FFF789FB20B10B4A47
:107DE00040F2AA3108F06DFF4FF48F73ADF8043004
:107DF00084F8405000230293ADF80C30FEF7E4FF06
:107E000001A902F05FFE09B030BD00BF99980400DF
:107E10001FB543780446CBB190F84030B3B1FFF7BB
:107E200068FB20B10A4A40F2B93108F04AFF00234A
:107E300040F21F1284F84030ADF804200293ADF8F0
:107E40000C30FEF7C1FF01A902F03CFE04B010BDEA
:107E50009998040090F84000704770B5D0E9084642
:107E60000D46A64205D0294654F8040BFEF7B0FE95
:107E7000F7E770BD13B50446FEF7BEFF01230DF111
:107E800007022A2107F052FF9DF907102046FFF74D
:107E900081FD02B010BD13B50446FEF7ADFF01230E
:107EA0000DF107020B2107F041FF9DF90710204655
:107EB000FFF770FD02B010BDF0B50B88502B85B0F8
:107EC00004460D4663D015D8102B30D003D8012BB3
:107ED0003DD005B0F0BD112B54D01C2BF9D1D4E905
:107EE0000864A642F5D056F8040B036829465B697E
:107EF0009847F6E7532B70D012D8512BEFD0522B66
:107F0000E7D1002203231146B0F84200FFF7F3FA4D
:107F10000028DED0394A40F2354108F0D2FED8E7D9
:107F2000562BDCD0572BD4D100F072F9D1E700F0FA
:107F300001F940F22313ADF8043000230293ADF8A9
:107F40000C30FEF741FF01A902F0BCFDC1E7FFF7CD
:107F500005FB0268A2B18388023B02329BB2214634
:107F6000A4F87C3041F8782FB4F84200FFF7C7FA44
:107F70000028AED0214A40F2F63108F0A2FEA8E770
:107F80001346ECE700F004F94FF49273D3E700F0E6
:107F9000C3F82B7B062B13D1FFF7E0FA066806B176
:107FA0000236D4E908470635BC4292D054F8040B97
:107FB0003288036829461B6A98470028F4D088E76E
:107FC000D4E90867AC1DB74283D056F8040BEA88A1
:107FD000036821461B6A9847F5E7D0E908369E42B8
:107FE0003FF477AF53F8040BE988828D9142F6D1C4
:107FF000036829465B6998476BE700BF99980400BE
:1080000010B500F1250388B004460622C11C836127
:108010000DF1110020F04BFD00238DF81730E37CAB
:108020008DF81030237D8DF81830A38B8DF8193022
:10803000A369CDF81A304FF49073ADF8043004AB57
:1080400002930E23ADF80C30FEF7BEFE01A902F03C
:1080500039FD08B010BD000070B50B881D2B92B023
:1080600006460C462AD10D7AC5F3411535BB2422AC
:10807000083101A820F01BFD94F82420216A8DF816
:1080800028200DF1290020F012FD0D4A079544210A
:1080900001A80EF04BF920B10A4A40F2AF4108F0B6
:1080A00010FE06F5FA710020FFF721FA082805D026
:1080B00020B1044A40F2BB4108F003FE12B070BD8B
:1080C000018002009998040008B5FFF71FFABDE887
:1080D000084000F07BB8000010B50446EC3402F014
:1080E00071FC2146064A02F09BFC02F06BFC214623
:1080F00000234FF42022BDE8104002F0A1BC00BFD5
:10810000C980020010B5044602F05CFC04F1EC01E9
:10811000BDE8104002F0A8BC10B5044602F052FCC5
:1081200004F1EC0100234FF42022BDE8104002F0DE
:10813000A9BC0000F8B50D46002380F83E308377D7
:10814000044600F13601A888FFF7C5F920B10F4AAF
:1081500040F2E24108F0B5FD236D1BB1A98804F19E
:1081600044009847D4E90867AB88A4F84230BE427F
:1081700006D056F8040B036829465B699847F6E772
:108180002046BDE8F840FFF7A7BF00BF999804005C
:10819000F8B54FF6FF73A0F84230036D04460E4663
:1081A0001BB1036E898854309847D4E90857BD4203
:1081B00006D055F8040B036831465B699847F6E72B
:1081C0002046BDE8F840FFF79DBF000008B5034614
:1081D000B0F842004FF6FF72904214D09A7F92B9E5
:1081E00001229A771321FFF778F908280BD043F280
:1081F0000202904207D030B1034A4FF4A261BDE8B9
:10820000084008F05EBD08BD99980400807F704763
:1082100070B5D0E908460D1DB44206D054F8040BE1
:10822000036829465B6A9847F6E770BD1FB5CA68C0
:108230008B6803925B68044668469847694604F178
:10824000440000F06DF8684600F017F82046FFF78C
:10825000DBFB04B010BD1FB5CA688B6803925B6876
:10826000044668469847694604F1540000F058F8FF
:10827000684600F002F804B010BD10B583680446EB
:10828000DB689847204610BD2DE9F843D0E900345B
:10829000E41AA410914614BF22460122A4180646EF
:1082A0000F46A1EB030834D2B4F1804F31D294BB16
:1082B000254615EB080F18BFD9F80030D6F8009006
:1082C00018BF45F80830B945A7EB090804D0424665
:1082D0004946284620F0F6FB726808F10403BA42CA
:1082E0002B44A2EB070805D018464246394620F039
:1082F000DEFB034603EB0807B9F1000F02D0484646
:108300001EF09CFB05EB8404C6E90057B460BDE891
:10831000F8836FF04044A0001EF070FB0546C8E7EC
:1083200030B58B6885B004461B6801A80D46984798
:10833000A368214628461B689847039B01A91B6830
:1083400020469847E368EA68E260EB6005B030BD1C
:108350000B680360014B8360704700BF08990400FD
:10836000024B83600B680360704700BF08990400EC
:108370000B680360704770470048704764980400BA
:1083800010B50446084604491EF081FE002814BFBB
:108390002046002010BD00BF649804000B680360F5
:1083A000014B8360704700BFF0980400024B83606C
:1083B0000B680360704700BFF09804000B6803600F
:1083C00070477047004870474C98040010B5044649
:1083D000084604491EF05BFE002814BF204600201A
:1083E00010BD00BF4C98040008B53630FFF77BF88D
:1083F00030B1044A40F2A911BDE8084008F061BC60
:1084000008BD00BF9998040037B50D4BCB1A0F2B50
:1084100004460D46019306D9002201A91EF0C6FEAE
:10842000019B2060A3602A46054920681EF012FFC8
:10843000019B226863600021D15403B030BD00BFAE
:10844000E098040062DF704763DF704782B0838882
:1084500082798DF80620002063F30F00BDF8063006
:1084600063F31F4002B070472DE9F84F0024DFF896
:1084700098A0DFF8A0B080468946264625462746C4
:10848000D9F80030DB5DABB30F2D2FDC2D2B1ED0C8
:10849000202B1CD0A3F13002D2B2092A05D9A3F1B6
:1084A0004102052A15D8373BDAB202EB0413F20772
:1084B00048BFC5F10F0203F0FF0406F1010341BFFD
:1084C00008F802401E460135002458BF1E460137F9
:1084D000D6E7A3F16102052A01D8573BE4E75246EB
:1084E0004821584608F0E7FB0022DEE7064A074825
:1084F000582104E00F2D04DC034A0548562108F0FA
:10850000DAFB4046BDE8F88F4E990400B6990400A6
:10851000A69904009499040010B50268837986B086
:1085200004465AB3D3B9014602A8FFF79DFF01AA3A
:1085300002A91020FFF788FF052812D1A11D02A86B
:10854000FFF780FF18B1104A1B2108F0BAFB9DF815
:1085500015209DF8143043EA0223A380A07906B0C9
:1085600010BD28B99DF80630A371BDF80430F4E7BA
:10857000054A0648222108F09EFBEFE7002BEDD1CB
:10858000014A03482521F6E74E990400209904008A
:1085900034990400194B43604FF4817343811423D1
:1085A00083731323C3730A23037409234374837CE3
:1085B00003F0F00343F0090303F0CF036FF38613D6
:1085C00083740F4B836103220E4B4273C274436169
:1085D00040F2C97240F2BC73C0E907234FF45B61FB
:1085E0004FF49663C0E90913C362074B4363074B1B
:1085F0008363EC2380F83030704700BF080B060718
:10860000CDCC4C3EE02D903B5C8F423F85EBD13E84
:10861000154B164AC0E90123154BC36040F206739F
:108620000382837C03F0C00343F06103837405235A
:10863000C374104B8361104B43614FF4FA716FF0B8
:108640007C03C0E907134FF0000C4FF4E163C0E96D
:1086500009C34FF41673C362084B4363084B83632B
:10866000EC2380F83030704704050601080A0E0D2F
:1086700000021413378981BE1EA7E83B3333B33E93
:108680009A99993E194B43604FF4817343810323B8
:108690004373142383731323C3730A2303740923BB
:1086A0004374837C03F0F00343F0090303F0CF032A
:1086B0006FF3861383740123C3740D4B83610D4BD9
:1086C000436140F2D37240F2CD73C0E9072340F218
:1086D000DC514FF49663C0E90913C362064B436350
:1086E000064B8363EC2380F830307047080B060795
:1086F000CDCC4C3EBC74933B5C8F423F85EBD13E6E
:10870000184B43604FF4817343814FF4407383816E
:1087100041F21433C38140F60A130382837C03F0D1
:10872000C00343F0690383740123C3740E4B836158
:108730000E4B43616FF06203C361AB3B036242F2D5
:1087400028324FF49663C0E909234FF41673C362CD
:10875000074B43634FF07A538363EC2380F8303048
:10876000704700BF080B0607A01A2F3E48507C3BFD
:108770003333333F174B436040F2012343810423DB
:1087800083814FF4C163C38141F213430382837C2D
:1087900003F0FE0343F01E0303F0DF036FF38613C1
:1087A00083740123C3740023836143614FF47A739C
:1087B000C0E9073300224FF46163C0E90923C362B3
:1087C0004FF0804343634FF07E538363D82380F898
:1087D0003030704711160B0C08B5FFF7CBFF0423A0
:1087E000C37408BD41F61923C381837C03F0F803E9
:1087F0006FF3C30383740223C374EC2380F8303017
:10880000704738B54FF010230546D3F88440631CF9
:1088100030D0B4F57B7F13D8B4F57A7F25D2642CA1
:108820002ED008D8A4F12803012B2CD92846FFF715
:1088300029FF072038BDC82CF8D1FFF7CDFF16E07F
:1088400040F2DE539C420AD840F2DC539C4213D2E1
:10885000A4F2EF33012BE9D8FFF7DAFE07E0B4F515
:10886000BC6FE3D8FFF74CFF01E0FFF793FE2C60ED
:108870000020DFE740F2DE542846FFF703FFF6E76B
:10888000FFF7B0FFF3E7FFF775FFF0E776DF70471C
:108890008FDF704790DF7047B5DF7047704700008B
:1088A0001FB540F22513ADF804300D4C00230293A0
:1088B000ADF80C302378BFF35B8FDB0709D420467B
:1088C0001EF0ADF828B1074802F0F8F820461EF077
:1088D000B2F801A9034802F0F5F804B010BD00BFDA
:1088E000F8250020FC250020012808B50BD1002127
:1088F000054A08460DF01AFD28B1044A3F21BDE89B
:10890000084008F0DEB908BDA1880200F199040012
:1089100010B50446FEF7FAFD2146BDE81040FFF70A
:10892000CBBA000013B50388212B044646D019D8D2
:10893000112B0FD8102B02D2013B012B10D8314A3A
:10894000302120460DF0F2FC50B12F4A682108F08A
:10895000B8F905E01B2BF2D01D2B29D0152BEED03A
:1089600002B010BD522BEAD011D83B2B34D0502B83
:10897000E5D0232BF4D1002211468088FFF78AFF2F
:108980000028EDD0204A842108F09BF9E8E7562B17
:108990002DD0572BD3D0552BE2D145218088FFF71E
:1089A0007BFF0028DCD0184A8A2108F08AF9D7E733
:1089B000FEF7ACFD2146FFF74FFBD1E702A90023EC
:1089C00021F8043D8088FFF763FF0028C8D00E4AD5
:1089D000732108F076F9C3E713218088FFF756FF6B
:1089E0000028BDD0084A792108F06BF9B8E71321B7
:1089F0008088FFF74BFF0028B2D0034A7F2108F0A0
:108A000060F9ADE711890200F1990400704711F097
:108A100013BA000038B50E4C2378BFF35B8FDB0729
:108A200005460ED420461DF0FAFF50B1094801F06A
:108A30000FFD20461DF0FFFF074A084905481EF0BC
:108A400032F829460348BDE8384001F0ADBE00BF0A
:108A5000B02800208828002080230020858A02007A
:108A600008B5064A14210DF061FC28B1044AC6215C
:108A7000BDE8084008F025B908BD00BF158A02000E
:108A8000F199040010B5044B03600446C06908B1B5
:108A90001DF0D4FF204610BDD099040010B5044647
:108AA000FFF7F0FF204628211EF002F8204610BDF7
:108AB00000F1804000F5E040002382B003600368CD
:108AC0000193019B02B070470023435082B043588A
:108AD0000193019B02B070477047704710B5402169
:108AE00004461DF0E5FF204610BD0000FF21C176C1
:108AF000017701210D4A81770D4902600022027140
:108B00004277C27780F8202080F8302080F8362025
:108B1000C0E90E22C0E90A220A6080F8212080F80C
:108B2000222080F8232080F824207047509B0400E6
:108B3000B428002010B50B4C2378BFF35B8FDB0704
:108B40000ED420461DF06BFF50B10748FFF7CEFF53
:108B500020461DF070FF054A054903481DF0A3FF9C
:108B6000014810BDC4280020C82800208023002010
:108B7000DB8A0200164A022310B5C2F8F035002342
:108B8000C2F8F4356FF00043C2F808334FF4827036
:108B9000FFF78EFF0F4B4021802483F80713C3F8A3
:108BA000804193F807134809EC210141C90705D515
:108BB0000949886850B10B6823430B600223C2F84F
:108BC00004330123C2F80035002010BD1C60F5E716
:108BD0000070004000E100E0006700208162704703
:108BE00070B5C37F0246002B39D01D4D1D490226AA
:108BF000C5F808630023C377C37D012404FA03F397
:108C0000C1F80835837E184804FA03F3C1F8083523
:108C1000164B1C60A3F580534FF4A0711C60FFF746
:108C200053FF134B1C6092F8203073B182F8206020
:108C30004FF48A70FFF73CFF2023C5F804330D4B37
:108C40001C6092F82030002BFBD1002353774FF4A7
:108C50008270FFF72DFF024B0222C3F8042370BD80
:108C60000070004000F001400090004004A000406F
:108C70000C90004008700040F8B5431893F821307C
:108C800023B1294A40F2C91111200CE0274A0224DD
:108C9000C2F80843437F012B09D9C2F80443224A92
:108CA00040F2D5111320BDE8F84008F00AB8204D75
:108CB00055F8216090F8205005F0FF07FDB1012F15
:108CC0001CD1057FFF2D05D0C2F804434FF4F0718D
:108CD000154AD9E70133174A017743771368002B08
:108CE000FCD04FF48070FFF7E3FE104BC822C3F8AE
:108CF0002C66C3F830260222C3F80423F8BD0125F0
:108D00002B44C1764377FF21C82380F82050017798
:108D1000C2F804434FF48070C2F82C66C2F83036B3
:108D2000FFF7C6FE1560E9E79E9A04000070004058
:108D3000B42800200071004038B5C37F013B012BEF
:108D400004460DD900F121020023253012F8011B41
:108D5000002918BF0B468242F8D113B10223E377F2
:108D600038BDE17E0123FF29E37722D0257FFF2D47
:108D7000204617D0FFF780FF29462046FFF77CFFEB
:108D8000E27D0F49012303FA02F2A377C1F804251B
:108D90000C4A1360A27E03FA02F2C1F804250A4AC3
:108DA0001360DDE7FFF768FFE17E013101F00301A9
:108DB000E3E7064A40F2B911082007F082FFDFE737
:108DC00000F001400CA00040009000409E9A04007A
:108DD00010B54218002482F82140C47F022C05D12E
:108DE0000322C277FFF7A8FF012010BD012CFBD1A1
:108DF000023101F00301FFF73FFF014B1C60F3E775
:108E000004A00040C162704743798B420FD901EB47
:108E1000410100EB410113788B71D2F80130C1F8A8
:108E200007305379CB720123037100207047602013
:108E30007047000070B5164D90F83010B0F93C3016
:108E400005EB01111B0443F47843C1F81C3590F87D
:108E50003060072E044604D90E4940F2B92007F0CD
:108E600040FF7600802303FA06F6C5F8086394F8FD
:108E70003040072C04D9074940F2B92007F031FFF0
:108E80004023640003FA04F4014BC3F8044370BDAB
:108E9000007000405E9A0400072998BF0B4BC26324
:108EA00098BF33F8113080F8301088BF4FF4AA73A0
:108EB0000729438696BF064B4FF4A87333F8113049
:108EC0008386012380F83630FFF7B4BF3E9A040052
:108ED0004E9A040070B5164D90F83010838F05EB54
:108EE000011143F07F6343F47023C1F81C3590F8FF
:108EF0003060072E044604D90E4940F2B92007F02D
:108F0000F0FE7600802303FA06F6C5F8046394F8B1
:108F10003040072C04D9074940F2B92007F0E1FEA0
:108F20004023640003FA04F4014BC3F8084370BD06
:108F3000007000405E9A04002DE9F0410546194E8C
:108F4000FFF7C8FFD5F82C80D6F80475B8F1000FEC
:108F500024D0D6F80825AC6B013200234FF418203A
:108F600000211FF04FFB4FF47A7200231FF04AFBE1
:108F70003C1B24F07F44844210D9D6F808250023F6
:108F800001324FF4282000211FF03CFB4FF47A728D
:108F900000231FF037FB844200D2C047AF63BDE817
:108FA000F08100BF00B0004010B50446FFF718FE86
:108FB0002046BDE81040FFF7BFBE08B5FFF7BAFD79
:108FC000BDE80840FFF7F0BFFFF7F7BF002108B585
:108FD000064A08460DF0AAF930B1054A4FF42D7142
:108FE000BDE8084007F06DBE08BD00BFC98F020094
:108FF0009E9A040013B52F4B1B68044613B34FF41D
:109000008270FFF755FDE37E8DF807302A4BD3F8C9
:10901000343694F82010C9B201291DD1637F013B79
:109020006377237FFF2B19D10223002184F820309E
:10903000224A08460DF07AF920B1214A40F2D521A2
:1090400007F03FFE1F4B1B68B3B14FF48A70FFF768
:109050002FFD002384F8203002B010BDE376FF23FB
:109060002377194A0DF107000DF060F90028E9D0C7
:10907000134A40F2E121E3E794F83630002BEBD0BD
:10908000608E00F1804303F5E0431B6823B1FFF7D6
:109090000FFD2046FFF7CEFEA08E00F1804303F5C2
:1090A000E0431B68002BD7D0FFF702FD2046FFF7F7
:1090B00043FFD1E70471004000700040BB8F020005
:1090C0009E9A0400147100401995020008B5FFF73C
:1090D00031FDBDE80840FFF78DBF704708B5FFF7C9
:1090E00029FDFFF773FF4FF4A0710248BDE8084067
:1090F000FFF7EABC00A00040042918D008D80129D5
:109100000FD01CD302290ED003290ED000207047A7
:10911000062910D00DD307290FD06429F6D10920D4
:1091200070470220704703207047042070470520D5
:1091300070470620704707207047082070470120BD
:109140007047F8B51378072B07460C46164604D926
:10915000642B02D0012007F021FE7379083BDBB2BB
:10916000F62B02D8012007F019FED6F80130962B15
:1091700032D9B3F5967F31D9B3F5167F30D9B3F52F
:10918000966F2FD9B3F5E16F2ED9B3F5166F2DD9A0
:1091900040F6B83293428CBF002301237179FF2936
:1091A00026D03846FFF7A8FF012205463178384619
:1091B000FFF7A2FF1B0243F4003343EA02532201EC
:1091C00002F1804202F5E042C2F81835C2F81455A7
:1091D000C2F810050020F8BD0723DFE70623DDE70E
:1091E0000523DBE70423D9E70323D7E70223D5E7E9
:1091F00000252A46DAE700002DE9F843421D0F4614
:109200000B460446103153F8040B42F8040B8B4212
:10921000F9D11B7813707F4B7F4D01221A60D5F86E
:10922000083543F00303C5F80835D5F8103523F0A9
:109230000F03C5F81035D4F812304FEA13794FEA0E
:109240000318B9F1010F08BFB8F1000F04D3734937
:1092500040F2B12007F045FDC5F84085D5F804354A
:109260006D48DFF8E08123F00303C5F80435D5F835
:10927000003243F00103C5F800324FF4A071FFF74C
:1092800023FC4FF4A2716448654DFFF71DFC4FF4B9
:10929000A4716148FFF718FC4FF4A6715E48FFF710
:1092A00013FC0C23A3755F4BC5F87035A3F504536D
:1092B0003C3BC5F8743503F540530433C5F84039D9
:1092C000A37D594A012606FA03F3C5F80435C8F808
:1092D0000060D2F8083543F00303C2F8083561791D
:1092E000C82393FBF1F3023BC2F84035D2F80435B2
:1092F00023F003033343C2F8043510464FF4A07142
:10930000FFF7E2FB4FF4A271FFF7DEFB4FF4A4710D
:10931000FFF7DAFB4FF4A671FFF7D6FBD2F8003265
:1093200043F48073C2F800320E2363763F4BC5F8D6
:109330008035A3F589531C3BC5F88435637E9E4078
:109340000F23C5F80465A376394B3A4EC5F88865F6
:109350006021C5F88C85C5F84C2983F80A1393F869
:109360000A134809EC21014111F0010F154606D0FE
:10937000314A916869BB4FF480621A6005E02F4A58
:10938000C02142F2020007F09CFC4FF48033C5F884
:1093900004330D23E375224B294AC3F87865394617
:1093A000C3F87C252046FFF7E5FB18B1234AD421FA
:1093B00007F087FC002506266279AA4205F101051F
:1093C0000CDD691E06FB0542C9B22046FFF7B9FE57
:1093D000F2E7136843F480631360D6E70025DFF8F3
:1093E000688004F121072E464FF4C8701DF08FFDF0
:1093F00048F825000135042D07F8016BF4D101234D
:109400002377E676FDF7E0FC214601F07BFB0020A8
:10941000BDE8F8830C90004000900040E79A0400FB
:1094200000F001404091004000A0004040A10040F9
:1094300000E100E004710040006700209E9A0400F3
:10944000007000400CA00040B428002070B5044615
:10945000002506266279AA4205F1010507DD691E8D
:1094600006FB0542C9B22046FFF76BFEF2E70F4D3F
:109470002B78BFF35B8FDB070ED428461DF0CFFAA5
:1094800050B10B4803F0A2FE28461DF0D4FA094A59
:10949000094907481DF007FB1123621D42F2747150
:1094A000034803F0EFFE0023237170BDAC250020BC
:1094B000B025002080230020976D020030B5836A1C
:1094C00085B004460D4623B34318012283F82120BA
:1094D000837F63B140F24113ADF80430002302935F
:1094E000ADF80C30FDF770FC01A901F0EBFA002398
:1094F000A377237943B12046FFF772FB2046FFF79D
:10950000A5FF2046FFF718FCA36A2846984705B038
:1095100030BDFFF75DFCFAE710B50446FFF70AFB24
:109520002178BDE81040FFF7C9BF036800791847EC
:10953000704700000000000030B52DED028BB4EE46
:10954000E00AF1EE10FA85B005460C46F0EE408ACE
:10955000B0EE608A04DB504A2221212007F0B1FBE3
:109560004E4BD3F80435AB6018EE900A1EF09CFB0E
:1095700043A3D3E900231EF07FFE002862D0DFED75
:10958000487A68EEA77A17EE900A1EF08DFB3EA38C
:10959000D3E900231EF02AFA3DA3D3E900231EF0ED
:1095A00005FD00223F4B1EF01FFA1EF0ADFEC5B2B6
:1095B00018EE100A1EF078FB31A3D3E900231EF049
:1095C0005BFEC0B1DFED367A68EE277A17EE900ABF
:1095D0001EF06AFB2CA3D3E900231EF007FA2CA38C
:1095E000D3E900231EF0E2FC00222E4B1EF0FCF912
:1095F0001EF08AFEC0B2002304210622072C8DF83B
:1096000004108DF806308DF807508DF808008DF89D
:1096100009308DF80A308DF80B308DF80D2013D9F4
:109620001D4A3B21212007F04CFB1F4901A80DF0EA
:1096300091F918B1184A592107F043FB05B0BDEC68
:10964000028B30BD0546B3E7013C062C06D8DFE8A7
:1096500004F004080A0C0F11140001238DF80C30DB
:10966000E3E70223FAE70323F8E78DF80C10DCE7C1
:109670000523F3E78DF80C20D7E70723EEE700BFBB
:10968000666666666666AA3F666666666666FA3FF0
:109690006666666666660A405C9B040000B0004031
:1096A000000080420000F03F659702000139032965
:1096B0000ED8DFE801F002070A0A4FF48470002197
:1096C0000DF0D0B94FF48270F9E74FF48670F6E7E9
:1096D00070470DF0E5B9000038B50B88A3F580732D
:1096E00004460C2B36D8DFE803F00935353507354D
:1096F000353531353535330002232371236823B3E3
:10970000154BD3F80455D3F80825A3680132ED1A98
:109710004FF44810002300211EF074FF4FF47A72BA
:1097200000231EF06FFF25F07F45854209D90B4AC3
:10973000082120460CF0FAFD18B1094AA02107F0D3
:10974000C0FA054BD3F80435A36038BD0123D4E734
:109750000423D2E70023D0E700B000402B9502009D
:109760005C9B040013B50B4CADF806002378BFF3E7
:109770005B8FDB0706D420461DF051F910B120465F
:109780001DF059F90DF106010348FFF7A5FF02B0DE
:1097900010BD00BF082900200C2900201F2810B58B
:1097A000044604D905494FF4F37007F09AFA0120F2
:1097B0004FF0A043A040C3F80C0510BDFE9B040071
:1097C0001F2810B5044604D905494FF4F37007F07B
:1097D00088FA01204FF0A043A040C3F8080510BD4F
:1097E000FE9B040038B50A4D2C78BFF35B8F14F054
:1097F00001040AD128461DF012F930B1054B284664
:109800001C765C769C761DF016F9024838BD00BFC8
:109810001829002020290020002202764276827634
:109820007047000008B5094A012313604376837E20
:109830005BB10021064A08460CF078FD28B1054AC4
:10984000BF21BDE8084007F03CBA08BD00B00140A8
:109850006F9D0200B59B040008B5817609B9FFF73A
:10986000E1FF002008BD0000064B00221A6082B014
:109870001B680193019B044B4FF40012C3F80423AF
:1098800002B0704754B1014000B001402DE9F84FDB
:10989000037E8246002B00F08F80437E3BB9837E9F
:1098A000002B00F08980BDE8F84FFFF7BBBF434BAA
:1098B00001221A60D3F80025D0F81CB056424FF0B0
:1098C00000035C464FF0000563EB430769104FEA65
:1098D0003400404261EB4101864277EB010103DA3B
:1098E000BBEB020665EB0307DAE914014FF47A7269
:1098F000801B61EB0701ABFB02238946824273EBBD
:109900000901804655DBCAE91489DAE9140152429B
:1099100063EB43039042994101DACAE91423DAF870
:1099200044300A210133CAF84430B3FBF1F201FBA1
:109930001233CAE91267002B3ED14FF47A7200232A
:10994000DAE914011EF00EFE4FF4C8728046894613
:109950000023204629461EF005FE02460B464046DF
:1099600049461EF0FFFD164A80464FF0FF33204661
:1099700029461EF0F7FD02460B46304639461EF0DA
:10998000F1FD002308EB00062946204678221EF050
:10999000E9FD8642A8BF06464042B042ACBF5844EB
:1099A0000BEB0600CAF820005046BDE8F84FFFF761
:1099B0005BBFCAE91423A8E7BDE8F88F4CB00140AB
:1099C00070FEFFFF08448AB190F83B30890001F136
:1099D000804101F5C0411B05D1F8142503F4801323
:1099E00022F480121343C1F81435704790F83D30CB
:1099F000ECE70000052908B50AD9012007F0CEF9E7
:109A00000C4A40F21321072007F05BF9002008E020
:109A100001390429FAD8DFE801F0030507090B0032
:109A2000012008BD0220FCE70320FAE70420F8E744
:109A30000520F6E7B59B040010B51446FFF7DAFFE2
:109A4000024B00F5A87043F8204010BD00B0014063
:109A5000026A0521FFF7F0BF072908B50AD90120DE
:109A600007F09CF90F4A40F22B21072007F029F953
:109A7000002009E001390629FAD8DFE801F00406E0
:109A8000080A0C0E1000042008BD0820FCE70C207A
:109A9000FAE71020F8E71420F6E71820F4E71C2076
:109AA000F2E700BFB59B04002DE9F74F1346027E95
:109AB00005460C4622B1427E2AB900EB810463625E
:109AC00003B0BDE8F08F0FFA81FB00EB8B07642B2E
:109AD000D7F81090984603F1FF3228BF4FF0640882
:109AE000B9F1000F02D0B9F1640F6DD192B2622AC0
:109AF0000AD9632B94BF0022012221462846FFF792
:109B000061FFC7F81080DBE7EB69DFF848A2642249
:109B100003FB08F3B3FBF2F3FB6295F83830012640
:109B200006FA03F3CAF8083595F8393006FA03F354
:109B3000CAF808352146FA6A2846FFF77DFF95F8EE
:109B40003A3003F5007300224AF8232095F83A30A2
:109B50009B0005EB4B0B03F1804303F5F8339BF8B7
:109B60003420D3F8001806FA02F20A43C3F800289A
:109B700095F83A309BF835209B0003F1804303F5BC
:109B8000F83306FA02F2D3F800180A43C3F80028A3
:109B9000B9F1000F95F8383018BF05245034A400EF
:109BA000DB00A4B203F1804303F5F83304F18044F1
:109BB00004F5D834C3F81045C3F814A595F8383027
:109BC0009E40CAF804659CE790F838C0DFF884A18D
:109BD00092B20126622A06FA0CFC4CD90193CAF80B
:109BE00008C590F8392006FA02F2CAF80825FA6A80
:109BF000FFF722FF95F83A2002F5007200214AF89B
:109C0000221095F83A20019B920005EB4B0B02F1D4
:109C1000804202F5F8329BF83410D2F8000806FAB8
:109C200001F10143C2F8001895F83A209BF835106D
:109C3000920002F1804202F5F83206FA01F1D2F800
:109C400000080143C2F80018002B95F8382018BF0F
:109C500005245034D300A400A4B203F1804303F5DB
:109C6000F83304F1804404F5D834394AC3F8104578
:109C7000C3F81425A2E7C369642203FB08F3B3FB0E
:109C8000F2F3FB62CAF808C590F8393006FA03F31C
:109C9000CAF8083590F83A3003F5007300224AF804
:109CA000232090F83A3090F83820DFF8ACA09B00E1
:109CB00003F1804303F5F83306FA02F2D3F80018F3
:109CC0000A43C3F8002890F8382004F110039B00E1
:109CD000D200DBB202F1804202F5F83203F1804398
:109CE00003F5D833C145C2F810A5C2F8143522D9FE
:109CF000611C90F83990C9B2FFF7AEFE4FEAC90374
:109D000003F1804303F5F83300F1804000F5C040D3
:109D1000C3F810A5C3F8140595F83A3095F8391032
:109D20009B0003F1804303F5F8338E40D3F80028FD
:109D30001643C3F80068FA6A04212846FFF77CFE40
:109D400095F83A20034B012143F83210D9E600BFC1
:109D500004F0014000F0014050B10140426A036943
:109D6000934203D092B20021FFF79EBE704708B520
:109D7000FFF738FDBDE80840FFF7F0BF0F2910B529
:109D80000C4602D9012007F009F8013CE4B20E2C80
:109D900096BF024B0020185D10BD00BFA69B0400BB
:109DA0002DE9F84F0EB2B40000EB0409074699F80C
:109DB0000830B9F806000D469246002B00F0888066
:109DC000FFF7FEFC4FF00008C9F81080C9F82480A6
:109DD0009AF8023007EB050983F0010189F83B107E
:109DE00004F1804404F5C0449AF8023089F83D300B
:109DF000D4F81425BAF8003022F4981222F4F8525C
:109E00001B02C4F8142503F4F853D4F8142543F4C2
:109E1000403343EA01534FEA450A13435FFA8AFA93
:109E2000C4F8143551463846FFF7A8FF760007EB13
:109E3000060B0AF101018BF83400C9B23846FFF76E
:109E40009DFF01363E44AB0086F8340001359BF897
:109E500034A0DFF888B0EDB2294638469B44FFF7BE
:109E6000FBFD4FEACA0303F1804303F5F83300F129
:109E7000804000F5C040C3F810B5C3F8140596F84B
:109E8000346029463846FFF7E7FDF30003F18043CD
:109E900003F5F83300F1804000F5C0400E4AC3F8E6
:109EA0001025C3F8140599F83D30D4F814251B0586
:109EB00022F4801203F480131343C4F81435D4F849
:109EC000143543F00303C4F814354046BDE8F88F59
:109ED000FFF764FC76E700BF54B1014040B1014098
:109EE000F0B504460FC984E80F004F4B4F4D0122D7
:109EF0001A60D5F8083543F00303C5F80835D5F8DE
:109F0000103523F00F0343F00203C5F81035236822
:109F100019011A0F8E089F0F46EA8276012F08BF9B
:109F2000002E87B004D3424940F2B12006F0D9FE9A
:109F3000E661C5F85465D5F804353E4A23F00303BD
:109F4000C5F80435D5F8003243F02003C5F80032D7
:109F50000023136012680592059A374A136012684D
:109F60000492049A354A136012680392039A344AA1
:109F7000136012680292029A324A136012680192C8
:109F8000019A314A136012680092009A2279D9B27C
:109F90008A4203F1010507D904EB8102063220460B
:109FA000FFF7FEFE2B46F1E7510001F0FE012046CF
:109FB000FFF7E4FE217984F8380049000131C9B285
:109FC0002046FFF7DBFE002384F83A301F4B84F86D
:109FD0003900402283F81B2393F81B235109EC22FC
:109FE0000A41D20706D51A4A9168B9B94FF0006202
:109FF0001A6005E0174A582142F2020006F061FE9D
:10A00000E3692362002200230020C4E91423C4E989
:10A01000122301236064237607B0F0BD136843F078
:10A0200000631360ECE700BF0CB0014000B00140DA
:10A03000E79A040040B1014044B1014048B10140F9
:10A040004CB1014050B1014054B1014000E100E089
:10A0500000670020B59B040008B5054B4FF40012C3
:10A06000C3F80823FFF7BEFBBDE80840FFF7F0BCCC
:10A0700000B0014030DF704731DF704700230360DC
:10A0800070470000F7B502AC002304F8013D0E4F05
:10A0900006460D469DF80730AB4209D22046FFF731
:10A0A000E9FF0028F6D03A46142106F00AFEF1E74F
:10A0B00029463046FFF7E0FF18B1034A172106F0A2
:10A0C00000FE03B0F0BD00BF3D9C040073B502ADBF
:10A0D000002305F8013D124E04469DF80730012B80
:10A0E00009D82846FFF7C6FF0028F6D032463421AB
:10A0F00006F0E7FDF1E702212046FFF7BDFF18B1AA
:10A10000074A392106F0DDFD23784FF0000063F3A4
:10A110000700637863F30F2080B202B070BD00BF08
:10A120003D9C040010B50B4C2378BFF35B8FDB071D
:10A130000ED420461CF073FC50B1074803F046F8DB
:10A1400020461CF078FC054A054903481CF0ABFC8E
:10A15000014810BDAC250020B02500208023002040
:10A16000976D0200024B1870024B1970704700BFC8
:10A170007C2900207D29002008B5134B1A7812BBDA
:10A1800001221A70FFF7CEFF03F02EF80F4B60226A
:10A1900083F8022393F802235109EC220A41D207E3
:10A1A00005D50B4A916851B904221A600BE0094A9F
:10A1B000512142F20200BDE8084006F082BD13685A
:10A1C00043F00403136008BD7829002000E100E09B
:10A1D00000670020869C04000A4B1A7882B901228D
:10A1E0001A70094B1A78094BC3F81425084A1278DB
:10A1F000C3F80C25074AC3F824250422C3F8002518
:10A20000704700BF7B2900207C29002000200040EF
:10A210007D29002000B0AF03044A137823B1002346
:10A220001370034AC2F80035704700BF7B29002035
:10A2300000200040064B1A7842B901211970054BE5
:10A240000420C3F804031960C3F80821704700BF55
:10A250007929002000200040084B1A786AB10022BA
:10A260001A70074B0749C3F808130121D960C3F8D6
:10A270000821C3F82421C3F844217047792900201C
:10A280000020004004020200044B1A782AB9012180
:10A290001970034B9960C3F81C2170477A2900207C
:10A2A00000200040054B1A7832B100221A70044B8E
:10A2B0000121D960C3F81C21704700BF7A29002012
:10A2C00000200040114B10B504461870FFF754FFF2
:10A2D000012C0BD002D3032C10D010BDFFF7BCFF14
:10A2E000FFF7E0FFBDE81040FFF796BFFFF774FFF0
:10A2F000FFF7A0FFBDE81040FFF7D4BFFFF76CFFEA
:10A30000FFF798FFBDE81040FFF7BEBF7E29002091
:10A31000FFF7D8BF014B1878704700BF7E29002097
:10A32000054B0022C3F81C21C3F81C05D3F81C21DF
:10A33000012AFBD1704700BF00200040F8B50C4B4C
:10A340001B7806460F4693B10546AB1B9F420EDDB8
:10A3500015F8014B5C2C01D07E2C04D15C20FFF75A
:10A36000DFFF84F040042046FFF7DAFFEDE7F8BD99
:10A370007A29002008B5034B1B7813B17E20FFF724
:10A38000CFFF08BD7A29002013B5144BD3F8242140
:10A390001AB1D3F8043398050AD4114A0F4B116847
:10A3A00019B1D3F80413490704D4D3F8442192B95E
:10A3B00002B010BD0021116012680192094C019A8F
:10A3C000D3F818352370FFF7ADFE217802B0BDE851
:10A3D000104002F06BBFD3F80433E9E700200040DF
:10A3E000082100407F2900202F2816D821282ED2AE
:10A3F0000C2806D80B282AD248B3431F042B25D893
:10A400007047142804D8122821D210281ED1704772
:10A41000A0F11703042B19D8704783280AD8802885
:10A4200015D2322812D3392811D9A0F13B03062BBB
:10A430000CD870478B280AD004D8A0F18503042BD0
:10A4400004D87047A0F58073422B00D900207047D4
:10A4500010B5094B03600023044603718360037346
:10A460000376C0E907334362FCF7AEFC214600F0F7
:10A4700049FB204610BD00BFD099040008B50CF080
:10A480003FF908480BF046FB18B10E2806D970209A
:10A4900008BD0BF055FB0028FAD0F6E7024B185C1C
:10A4A000F6E700BF618A0200D29C04008160704719
:10A4B00038B50446D0E9070290420DD005888D4298
:10A4C00000F1020309D19A4203D0D21A19461EF0B4
:10A4D000F9FA236A023B236238BD1846ECE710B54F
:10A4E000037B63B9037E53B9D0E907249442104635
:10A4F00005D00088884202F10202F7D101231846F4
:10A5000010BD037B33B9037E23B9D0E907301B1A92
:10A5100018BF01231846704710B5037904465BB194
:10A520000CF0EEF82046FFF7ECFF38B90BF0C0FC5A
:10A5300008B90123237310BD4320FCE70E20FAE77E
:10A5400008B5FFF7E9FF0E2896BF024B7020185C94
:10A5500008BD00BFD29C0400F8B50A88D41C24F0C2
:10A560000304A4B2A21A20460E4695B21EF02CFA9D
:10A57000074630882A46FF2138441EF0BCFA348052
:10A580003846F8BD10B5037904467BB1FFF7B9FF33
:10A5900070B908460BF066FC20B901232376054B01
:10A5A000185C10BD0E28FAD97020FAE74320F8E7AE
:10A5B0002720F6E7D29C04000822002110301EF06C
:10A5C0009ABA2DE9F843089C054699460F469046ED
:10A5D000FFF7F2FF00232370103501262B464A4671
:10A5E000414638460BF088FC20B92378002BF5D182
:10A5F0002670F3E70020BDE8F88300002DE9F04362
:10A60000037987B0064689461746002B38D0B2F842
:10A6100000804146FFF763FF0446002832D13046F0
:10A62000FFF7CAFF0A251036334603AA41464846BB
:10A630000BF062FCD8B901A903A80BF087FB054613
:10A640000028F1D13A890199D31C23F003034988EA
:10A650009BB2B3EB810F08D1029978681EF027FAFC
:10A6600003A80BF0ADFB0546DEE72024F8E71CB994
:10A670000E2D09D8054B5C5D204607B0BDE8F08380
:10A680004324F9E72724F7E77024F5E7D29C040078
:10A6900030B50C4685B0C9890546FFF709FF6368E8
:10A6A0009BB9E389ADF8023040F23913ADF80430BC
:10A6B0000DF1020302930223ADF80C30FCF784FB8A
:10A6C00001A900F0FFF905B030BDAD68002DFAD04A
:10A6D000E089FFF789FEA18902460120A847F2E739
:10A6E00030B50C4685B0C9890546FFF7E1FE6368C1
:10A6F0009BB9E389ADF802304FF49D73ADF8043097
:10A700000DF1020302930223ADF80C30FCF75CFB61
:10A7100001A900F0D7F905B030BDAD68002DFAD021
:10A72000E089FFF761FEA18902460220A847F2E70F
:10A730001FB5002202764B68A3B98B89ADF80230B1
:10A7400040F23B13ADF804300DF1020302930223F3
:10A75000ADF80C30FCF738FB01A900F0B3F905B0F7
:10A760005DF804FB8368002BF9D0898903209847A2
:10A77000F5E71FB5002202734B6873B94FF49E7260
:10A78000ADF804200293ADF80C30FCF71DFB01A9D5
:10A7900000F098F905B05DF804FB8368002BF9D050
:10A7A000114604209847F5E71FB50B78052B14D800
:10A7B000DFE803F0031616191C1F4B686BB9012262
:10A7C00002714FF49C72ADF804200293ADF80C3086
:10A7D000FCF7FAFA01A900F075F905B05DF804FB81
:10A7E000FFF756FFF9E7FFF77BFFF6E7FFF7A0FF5C
:10A7F000F3E7FFF7BEFFF0E72DE9F843D0E90034B7
:10A80000E41A6410914614BF22460122A418064699
:10A810000F46A1EB030804D2002C02DB03D125462E
:10A8200005E06FF0004460001CF0E8F8054615EB09
:10A83000080F18BFB9F80030D6F8009018BF25F8F7
:10A8400008304F45A7EB090804D042464946284640
:10A850001EF038F9726808F1020397422B44A2EB0C
:10A86000070805D01846424639461EF020F903462F
:10A8700003EB0807B9F1000F02D048461CF0DEF8E0
:10A8800005EB4404C6E90057B460BDE8F8830A4606
:10A89000D0E90113994210B5044606D009B11288D7
:10A8A0000A8063680233636010BDFFF7A5FFFBE712
:10A8B000F0B503798BB005460F461446002B3CD00B
:10A8C00016883146FFF70BFE002834D163680593E4
:10A8D00023898DF80D000333C3F38D0306930DF127
:10A8E0000D030093394607AB32462846ADF8107089
:10A8F000ADF81260FFF765FE9DF80D3004A907A8BA
:10A9000043B10BF083FA044638B107280DD0204636
:10A910000BB0F0BD0BF076FAF5E70AA905F11C00C3
:10A9200021F81A6DFFF7B3FFF1E72846FFF708FE9D
:10A9300004460028EBD10E24E9E74324E7E70000B2
:10A9400008B5FFF7B5FF0E2896BF024B7020185CC4
:10A9500008BD00BFD29C04002DE9FF4103790546E4
:10A960000F4616462BB31146FFF7B9FD18BB284614
:10A97000FFF722FE0A2405F11008434601AA3146DA
:10A9800038460BF0B9FA78B901A80BF047FA04463B
:10A9900040B90DF1020105F11C00ADF80260FFF7AE
:10A9A00076FFEAE70E2808D8054B185D04B0BDE82D
:10A9B000F0814320FAE72720F8E77020F6E700BF90
:10A9C000D29C040010B5074C2378BFF35B8FDB07E4
:10A9D00006D420461CF023F810B120461CF02BF8BA
:10A9E000014810BD802900208429002008B51BF0F3
:10A9F0000DFD18B1084A152106F063F9074A202118
:10AA000094200BF06FFC28B1034A1621BDE80840E2
:10AA100006F057B908BD00BFE19C0400882900205A
:10AA200008B5084600211BF04BFD28B1034A1B2145
:10AA3000BDE8084006F045B908BD00BFE19C040030
:10AA4000042A084608B511460AD91A4600681BF0C0
:10AA500049FD28B1034A2321BDE8084006F031B979
:10AA600008BD00BFE19C040008B508681BF07EFD2E
:10AA700028B1034A2721BDE8084006F022B908BDE5
:10AA8000E19C040070B508680C4615461E461BF094
:10AA90006DFD18B1084A2B2106F013F932462946FC
:10AAA00020681BF01FFD28B1034A2C21BDE870402F
:10AAB00006F007B970BD00BFE19C04000022A0F8B9
:10AAC0007820704770B50B880A89053B9BB2B3F5B7
:10AAD0009F7F0D463ABF0A49CB5C00239A42064647
:10AAE0000CD10024B6F87830A34207DD56F82400D4
:10AAF000036829469B6898470134F3E770BD00BF9F
:10AB00002C9D040010B5B0F878301C2B06D9094AEA
:10AB10002521042006F0D5F8002010BD19B9054AFA
:10AB200029210E20F6E75A1CA0F8782040F82310BF
:10AB30000120F2E76A9E0400F0B500241C609C80AE
:10AB4000561EA64212DD0D5D0F1905EB040C624581
:10AB50007F780BDD874206D102342144013D196024
:10AB60009D800020F0BD01352C44EAE72520F9E75F
:10AB7000704710B5182104461BF09AFF204610BDFF
:10AB8000024A026000228275704700BFE89E0400FE
:10AB900010B50446FCF730F904F116022121012317
:10ABA00005F0C4F8FCF710F92146BDE81040FFF7A6
:10ABB000A9BF03798B4213D0837A8B4212D0037CD6
:10ABC0008B4211D10223062101FB0300417929B1F7
:10ABD000D0F80610914208BF6FF001031846704785
:10ABE0000023F0E70123EEE74FF0FF33F6E710B55F
:10ABF0005C1C06D1437923B1C37A63B1437C63B94A
:10AC00000223062404FB0303012019710F2159714B
:10AC1000C3F8062010BD0123F3E70020FAE700F196
:10AC2000120243790BB1013B437106309042F8D1D7
:10AC3000704737B515460C46FBF750FB04220092CF
:10AC40002B46214601F097F903B030BD2DE9F04FB6
:10AC500091B09178DDF868A055781C9E9B4601F074
:10AC60003F01DAF800308900144641EA95111A686C
:10AC70008046FFF79EFF10F1020F814601D10025AB
:10AC800085E0C5F3C205042DF9D801A353F825F0DA
:10AC9000A5AC02009BAD020097AD02007FAC0200A4
:10ACA0009FAD02000027FBF719FB9BF80430BAF8B0
:10ACB00004200393DBF80030CDE9017310230093E7
:10ACC000DAF800100CAB01F009F90028D7D00C9D80
:10ACD000FCF792F8042305AA882105F027F8314BE8
:10ACE0009D42CCD132461B999DF834B04046FFF7C7
:10ACF000A0FF05460028C2D0BBF1010F47D1A178C3
:10AD00006078DAF8002001F03F01890041EA9011F3
:10AD10004B4640461268FFF76AFF8046B8B39DF87D
:10AD2000203061788DF81F7003F0FE036FF3450348
:10AD30008DF8203023238DF818300DF13503CDF830
:10AD4000193000238DF81E30A37803F03F039B00D9
:10AD500043EA9113BDF8201003F5407363F38F119C
:10AD60003388ADF820101B0A8DF8223040F21313FF
:10AD70000B22ADF8243006AB8DF81D200A93ADF8F8
:10AD80002C20FCF721F809A9FFF79CFE4546284630
:10AD900011B0BDE8F08F022785E7012783E764271C
:10ADA00081E700BFBEBAFECA10B5107810F00704E4
:10ADB00086B022D15278CDF8023004238DF80630C7
:10ADC0004B1CCDF8073002F007020B788DF80B30E2
:10ADD000520140F21B1342EAD002ADF80C300C23B2
:10ADE0008DF800408DF80120CDF810D0ADF814306A
:10ADF000FBF7EAFF03A9FFF765FE06B010BD2DE9DA
:10AE0000F04190B006460D464A7AD1F80A1008ABD8
:10AE10000320FFF791FE002866D10AAF3B466A7A0D
:10AE2000D5F80A100720FFF787FE00285CD1BDF88F
:10AE30002430072B58D9ADF810008DF8120005907A
:10AE400004464FF00108089B1B5BADF838309A0BA5
:10AE500010A91144D2B2022A01F82C8C63D0032A23
:10AE60006ED0012A43D09DF81020D91261F302025E
:10AE70008DF81020BDF81020D91061F3CA02ADF88A
:10AE80001020C2F3072263F3C5028DF811200EA92A
:10AE900002220CA802341DF00AFE082CD3D1002394
:10AEA00005AA995C01B30133042BFAD1BDF8103027
:10AEB000B27DC3F3C703934216D10CAB0E930823A4
:10AEC000ADF83C3006AC07AB0293CDE900740EAB95
:10AED00004AA29463046FFF7B9FE28B1234604AA42
:10AEE00029463046FFF760FF10B0BDE8F0819DF8BD
:10AEF0001110C3F3071000F0030201F03F0141EA13
:10AF000082119DF812208DF8111022F03F0242EAC2
:10AF100090021B038DF81220ADF8183002220EA902
:10AF20000DF13200B6E7BDF81800C3F38B01014400
:10AF30009B03ADF81810ADF81A300EA90DA8A9E7BB
:10AF4000BDF81A20C3F30D031344ADF81A300222E2
:10AF50000EA90DF136009DE70B88B3F58D7F05D066
:10AF6000B3F5907F04D14968FFF749BFFFF757BE9B
:10AF700070473CDF70473DDF7047000010B50B4C59
:10AF80002378BFF35B8FDB070ED420461BF047FD11
:10AF900050B1074801F03AFC20461BF04CFD054A31
:10AFA000054903481BF07FFD014810BDDC3D002032
:10AFB000A43D00208023002035B8020010B50B4CC2
:10AFC0002378BFF35B8FDB070ED420461BF027FDF1
:10AFD00050B1074801F068FE20461BF02CFD054AE1
:10AFE000054903481BF05FFD014810BD903E00205D
:10AFF000E03D00208023002045B8020010B50B4C36
:10B000002378BFF35B8FDB070ED420461BF007FDD0
:10B0100050B1074807F046F820461BF00CFD054AE2
:10B02000054903481BF03FFD014810BD403F00208B
:10B03000F83E00208023002075B8020010B5FF21E3
:10B0400004680020FFF797FFC0B218B10D4A26210F
:10B0500005F037FE21460020FFF78BFFC0B218B184
:10B06000084A282105F02DFEBFF34F8F0649074BF4
:10B07000CA6802F4E0621343CB60BFF34F8F00BF96
:10B08000FDE700BFF49E040000ED00E00400FA05B7
:10B09000064B10B500210360031D04468162202287
:10B0A00018461DF028FD6062204610BDE49F040094
:10B0B00010B504468162FBF787FE2146FFF722FDAB
:10B0C000FFF780FC04F12401024ABDE81040FFF7BD
:10B0D000A7BC00BF3DB002002DE9F041144C23781D
:10B0E000BFF35B8FDB0705460F46164608D42046A4
:10B0F0001BF095FC20B10F4B20461F701BF09BFCF2
:10B10000FFF760FC4FF40047044600214FF4FA704B
:10B110004FF47A720023E6FB07011DF073FA05F184
:10B1200024010246034B2046BDE8F041FFF788BCEE
:10B13000443F0020483F00201FB50023ADF8002009
:10B14000120C8DF8022001931A4600F003F805B0A6
:10B150005DF804FBF0B589B00F461C469DF83C3005
:10B16000039315460646FBF7B9F8232F98BF824A8A
:10B17000039B98BFD15D039388BFC9211A4601F094
:10B180000CF8002800F0F180039B232F00F2EB80E5
:10B19000DFE807F0A59F49151D42716B25122CE9C8
:10B1A0003CE91254ABE9128D93ED659981B95B8747
:10B1B000BFC5CBD1D7DDE3B1412009B0F0BD3046EA
:10B1C0004FF4FA624221FFF787FF0020F5E730468F
:10B1D0004FF4FA620121FFF77FFF0020EDE7012C19
:10B1E00040F0C780284600F04DFBE6E7012C40F018
:10B1F000C0802B7808AD05F80C3DFBF7FDFD23461C
:10B200002A461A2104F0DBFE0020D6E72246294612
:10B21000304600F0B3F8D0E7042C40F0AA8028466E
:10B2200000F054FBC9E7042C40F0A3802C68FFF722
:10B23000C5FE214601F0B2FC0020BEE70C2C40F216
:10B240009880284600F06AFBB7E7002C00F0918058
:10B250002C78FFF7B3FE214601F073FDADE7FCF754
:10B2600055F9FCF718FE0020A7E72246294630468C
:10B2700000F0D2F8A1E7042C7BD14FF49473ADF821
:10B2800014300695ADF81C40FBF79EFD05A9FFF7AD
:10B2900019FC002091E722462946304600F0CDF8FF
:10B2A0008BE722462946304600F0E6F885E7FCF7B2
:10B2B0002DF9FCF78BFF00207FE722462946304618
:10B2C00000F018F979E7042C53D1284600F030FB40
:10B2D00073E722462946304600F042F96DE72246E0
:10B2E0002946304600F05BF967E72246294630469A
:10B2F00000F06CF961E7009322460E9B2946304628
:10B3000000F0D1F959E722462946304600F07BF992
:10B3100053E722462946304600F0FEF94DE7012C5E
:10B3200027D1284600F01EFB47E7012C21D12846F3
:10B3300000F055FB41E722462946304600F044F82C
:10B340003BE7012C15D1284600F071FB35E784B1AD
:10B350002146284600F088FB2FE7012C09D128461A
:10B3600000F0AAFB29E7242027E7302025E700206A
:10B3700023E7202021E700BF8A9F040013B5032A9A
:10B380000B788DF807301DD1BBB1B1F801407CB10D
:10B39000FFF7F4FD214601F0CEFAFBF72DFD012366
:10B3A0000DF107021B2104F00AFE002002B010BDBF
:10B3B000FFF7E4FD01F0B6FAEFE7FFF7DFFD01F07C
:10B3C000DEFAEAE72020F1E770B50F4C2378BFF3EF
:10B3D0005B8FDB070D4616460ED420461BF01FFB85
:10B3E00050B10A4801F0C0FC20461BF024FB084A7B
:10B3F000084906481BF057FB324629460348BDE87A
:10B40000704001F0C1BC00BFF43E0020EC3E0020C3
:10B410008023002065B802001FB540F227130024E6
:10B42000ADF804300294ADF80C40FBF7CDFC01A957
:10B43000FFF748FB204604B010BD10B586B00323CB
:10B440008DF80A3007238DF8003040F215130024E0
:10B45000ADF80C300C23ADF81430ADF808408DF881
:10B460000B400194CDF810D0FBF7AEFC03A9FFF719
:10B4700029FB204606B010BD2DE9F0430E4687B0EB
:10B480001146304602F0E0F870B3002534464FF024
:10B4900001082F464FF48B79F378AB4228DDB6F8DC
:10B4A0000120ADF80720627923798DF80430FF2A56
:10B4B00007BF8DF805708DF806708DF805808DF842
:10B4C000062073B1BDF807305BB101AB04930523CF
:10B4D000ADF80C90ADF81430FBF776FC03A9FFF73C
:10B4E000F1FA01350234D7E7222007B0BDE8F08336
:10B4F0000020FAE738B5806A847C250729D4022A1F
:10B5000029D10A784B78012A0CBF457C057CE206DC
:10B5100048BF83F0010301246BB11F2D04D90F49EB
:10B520004FF4F37005F0DDFB4FF0A043AC40C3F8DF
:10B530000845002038BD1F2D04D908494FF4F37089
:10B5400005F0CFFB4FF0A043AC40C3F80C45002002
:10B55000F0E74020EEE72020ECE700BF4B9F04001F
:10B5600010B5836ADB7C03F0FD00012801D0052BB8
:10B570000FD1012A0FD10C78FFF740FD06F007FF2D
:10B5800084420AD0FFF73AFD214606F0E2FE002091
:10B5900010BD4020FCE72020FAE70020F8E710B5B6
:10B5A000836ADB7C0C4603F0FD01012901D0052BE9
:10B5B00008D1012A08D1FFF721FD217806F013FFF9
:10B5C000002010BD4020FCE72020FAE710B5836A78
:10B5D000DB7C03F0FD00012801D0052B0FD1012AEF
:10B5E0000FD10C782CB9FFF709FD06F0E8FE2046D4
:10B5F00010BDFFF703FD06F0CEFE0020F8E7402067
:10B60000F6E72020F4E72DE9F043012A87B00D4644
:10B6100043D90C78002C40D1497812293DD8052314
:10B62000022013FB01039A4237D32E4627464FF0E0
:10B6300004084FF482796B78A34232DD9DF808301C
:10B64000B1788DF80A7003F0FE036FF345038DF8AF
:10B650000830F3788DF8053004EB84032B448DF823
:10B6600004101A795B7942EA0323ADF80630BDF87D
:10B67000083068F38F13ADF8083059B101AB04936B
:10B680000723ADF80C90ADF81430FBF79DFB03A930
:10B69000FFF718FA01340536CDE7222007B0BDE8E0
:10B6A000F0830020FAE72DE9F04389B00E460193BC
:10B6B0000978012303EB41039A4227D3002534463E
:10B6C0002F464FF482780DF10C093378AB4221DD1F
:10B6D000A3788DF80D30019B6278ADF810301B0C0B
:10B6E0008DF80C20ADF80E708DF812305AB107238A
:10B6F000ADF81480CDF81890ADF81C30FBF764FB62
:10B7000005A9FFF7DFF901350234DEE7222009B091
:10B71000BDE8F0830020FAE7F0B5022A87B00C46B6
:10B720001F4650D90B787BB94B786BB98B785BB9D6
:10B73000062A48D9B1F80550AB1D934243DAC978BF
:10B74000022906D0152901D041202FE01DB120206B
:10B750002CE0042DFBD11D4B5E5CFAF7BFFD3A4691
:10B76000314600F01AFD60B300218DF80B10E1782E
:10B770000322022904F107038DF80A2018D01529A5
:10B78000E2D104228DF800200193ADF8085040F278
:10B790001513ADF80C300C23ADF81430CDF810D0E3
:10B7A000FBF712FB03A9FFF78DF9002007B0F0BDEE
:10B7B000019305238DF80020ADF808508DF80A306C
:10B7C000E5E73020F2E71220F0E700BF8A9F04008F
:10B7D00037B50B8840F20912934205D040F213129C
:10B7E00093420DD003B030BD0B89032BFAD14B68C7
:10B7F000B3F80120197803B0BDE83040FFF76CBC06
:10B800004C68E579B4F80530D4F801202178019529
:10B8100034F8085FA4788DF80240ADF80050FFF7C7
:10B8200099FCDFE7704710B52C2104461BF040F966
:10B83000204610BD704710B5382104461BF038F97A
:10B84000204610BD704710B5B02104461BF030F9FA
:10B85000204610BD704710B5542104461BF028F94E
:10B86000204610BD704710B5082104461BF020F992
:10B87000204610BD704710B5482104461BF018F94A
:10B88000204610BD30B585B004AC037804F80E3DF9
:10B890000546FBF7B1FA22461821012304F08FFB7D
:10B8A0002B788DF8033040F20B13ADF804300DF116
:10B8B000030302930123ADF80C30FBF785FA01A9CD
:10B8C000FFF700F9002005B030BD000038B50F4C7F
:10B8D00005682378BFF35B8FDB070ED420461BF08F
:10B8E0009EF850B10A4800F019FD20461BF0A3F85D
:10B8F000084A094906481BF0D6F82946044800F0D2
:10B9000001FE00280CBF2120002038BDE83E0020A9
:10B91000943E00208023002055B8020010B5044654
:10B92000FFF74CFB621C2178BDE8104001F0F0B934
:10B9300013B50446FBF760FA04230DEB03028B21D9
:10B9400004F0F4F92268019B23EA02030193FBF758
:10B9500053FA04230DEB03028B2104F030FB00208B
:10B9600002B010BD1FB503788DF80230F3B1FBF7BC
:10B9700043FA0322372104F0E6F9B8B104AC0023FE
:10B9800004F80D3DFBF738FA37210123224604F075
:10B9900016FB40F23713ADF8043001230294ADF8E2
:10B9A0000C30FBF711FA01A9FFF78CF80DF1020436
:10B9B000FBF722FA22463621012304F000FB4FF464
:10B9C0009B73ADF804300123ADF80C300294FBF703
:10B9D000FBF901A9FFF776F8002004B010BD1FB5F0
:10B9E00003788DF80330C3B90DF10304FBF704FAB3
:10B9F00022463721012304F0E2FA40F23713ADF872
:10BA000004300123ADF80C300294FBF7DDF901A9F5
:10BA1000FFF758F8002004B010BDFBF7EDF9032242
:10BA2000362104F090F90028DED04020F3E71FB55E
:10BA300004AC037804F80D3DFBF7DEF9224638210B
:10BA4000012304F0BCFA4FF4A073ADF804300123D5
:10BA5000ADF80C300294FBF7B7F901A9FFF732F803
:10BA6000002004B010BD000070B50F4C2378BFF368
:10BA70005B8FDB0705460E460ED420461AF0CFFF3B
:10BA800050B10A4801F0A2FB20461AF0D4FF084A40
:10BA9000084906481BF007F833462A4603210348A5
:10BAA00001F0F0FB002070BDAC250020B025002087
:10BAB00080230020976D020013B502AC037804F8D0
:10BAC000013DFBF799F9224601233B2104F077FA67
:10BAD000044618B99DF80700FEF71AFC204602B08C
