:020000022000DC
:10600000000001203171030059710300258A03004B
:106010005D7103005F710300617103000000000007
:106020000000000000000000000000006371030099
:1060300065710300000000006771030069710300CF
:106040006B7103006B710300E9B402006B71030014
:106050006B7103006B7103006B71030081A202007E
:106060006B7103008FA2020091A202006B7103000A
:106070006B7103006B7103006B7103006B710300A4
:106080006B710300AD640400C1A10300D190030053
:10609000996504006B710300E98E03006B710300C6
:1060A0006B7103006B7103007DEA0300B9B102005C
:1060B0006B7103006B710300000000000000000022
:1060C0006B7103006B7103006B7103006B71030054
:1060D0006B7103006B7103006B7103000000000023
:1060E00000000000000000000000000000000000B0
:1060F00000000000000000000000000000000000A0
:10610000000000000000000000000000000000008F
:10611000000000000000000000000000000000007F
:10612000000000000000000000000000000000006F
:10613000000000000000000000000000000000005F
:10614000000000000000000000000000000000004F
:10615000000000000000000000000000000000003F
:10616000000000000000000000000000000000002F
:10617000000000000000000000000000000000001F
:10618000000000000000000000000000000000000F
:1061900000000000000000000000000000000000FF
:1061A00000000000000000000000000000000000EF
:1061B00000000000000000000000000000000000DF
:1061C00000000000000000000000000000000000CF
:1061D00000000000000000000000000000000000BF
:1061E00000000000000000000000000000000000AF
:1061F000000000000000000000000000000000009F
:1062000010B5054C237833B9044B13B10448AFF3F0
:1062100000800123237010BD5824002000000000DE
:10622000E0C2040008B5034B1BB103490348AFF3B8
:10623000008008BD000000005C240020E0C20400D3
:10624000154B002B08BF134B9D46A3F5803A002148
:106250008B460F461348144A121A22F0B1FC0F4B1A
:10626000002B00D098470E4B002B00D09847002001
:10627000002104000D000D48002802D00C4822F037
:10628000FEFB22F033FC2000290010F09FFD22F0DD
:1062900019FC00BF00000800000001200000000001
:1062A0000000000058240020446500207F8A04007C
:1062B00000000000FF20704700207047002070475A
:1062C0000E2070477047704710B51821044620F023
:1062D0005DFE204610BD000084B02DE9F04385B07E
:1062E0000DAD044685E80E00284601210DF060FD45
:1062F000012181460DF135000DF05AFD0121804646
:106300000DF136000DF054FD012107460DF1370067
:106310000DF04EFD291D0646052268460DF0B8FD1C
:106320000DF13D0102A805220DF0B2FD9DF80020FF
:106330009DF80830094922722374019A039B216059
:10634000204684F8049084F80580A771E671E26025
:10635000636105B0BDE8F04304B07047D096040017
:10636000F8B50B680446DB6808460E4698470023DC
:10637000C4E90033A3600546B0B120F053FD0346E5
:106380005F19C4E90033A7602DB118462A460021E1
:1063900022F016FC0346676032681946976830465B
:1063A0002A46B8472046F8BD0346E9E740797047DA
:1063B0002DE9F041054607233148B1FBF0F00430E8
:1063C000B0FBF3F3C3EBC303C01A0126EB7906FA63
:1063D00000F018408CB00C463DD005F1080797E856
:1063E00003006B4683E8030018460DF05AFC103595
:1063F000804695E8030002AB83E8030018460DF0E1
:1064000050FC804597E8030004AB83E8030018467E
:1064100024D20DF046FC22460646002106A80DF0C7
:1064200008FC06A80DF03DFC864226D82246002135
:1064300008A80DF0FEFB08A80DF033FC044695E813
:1064400003000AAB83E8030018460DF02AFC8442DF
:106450002CBF002001200CB0BDE8F0810DF021FC24
:1064600022460746002106A80DF0E3FB06A80DF022
:1064700018FC8742DAD83046EDE70020EBE700BF92
:106480008051010010B50C1A134605D00146224672
:10649000184622F07BFB0346181910BD7FB5054650
:1064A0000B798DF8083002A80C460DF0ABFC2A469B
:1064B0000DF105018DF8040001A8FFF7E3FF064682
:1064C000601D0DF09FFC32460DF109018DF80800AA
:1064D00002A8FFF7D7FF0646A01D0DF093FC324639
:1064E0000DF109018DF8080002A8FFF7CBFF064661
:1064F000E01D0DF087FC32468DF808000DF1090112
:1065000002A8FFF7BFFF04F10801064602A80DF03C
:1065100059FB32460DF10D0102A8FFF7B3FF04F15C
:106520001001064602A80DF04DFB32460DF10D019B
:1065300002A8FFF7A7FF284604B070BDF0B50368B6
:1065400085B0DB68174605460E469847B8420446B4
:106550000BD829466846FFF7A1FF32460DEB040130
:106560006846FFF78FFF05B0F0BD0020FBE77047DE
:1065700010B50C21044620F009FD204610BD000096
:106580002DE9F04F85B0CDE90023037A0F4673B9AA
:1065900000238DF80D309DF80C30002063F30700C8
:1065A0009DF80D3063F30F2005B0BDE8F08F002992
:1065B000EED00024DFF86090DFF860A0DFF860B074
:1065C0002646254654F80900B0B1002352465946E4
:1065D00020F049FC804678B13946FFF7E9FEDDE955
:1065E00000233946404600F0BBFC28B140466EB15E
:1065F000FFF7DCFEA842CBD10434C82CE2D1002E38
:1066000008BF00258DF80C500123C2E7FFF7CEFE2E
:1066100001260546F0E700BFB02400207097040073
:10662000B496040030B5037A85B004462BB9C2791C
:1066300002B1C371012005B030BD0DF08FFA0546DF
:10664000684605F001FE9DF80830002BF2D0DDE928
:10665000002329462046FFF793FFE080EAE70B88F6
:10666000962B06D009D3A3F5A473012B05D8FFF709
:10667000D9BF4B681B780372F9E77047C3888380E2
:10668000DAB2002062F307001B0A82B063F30F2026
:1066900002B0704770B50B4D0E46322455F8040B0E
:1066A00018B9013CFAD120460BE003689B69984772
:1066B0000028F6D0314655F8040CFFF779FE002883
:1066C000EFD070BDB024002070B5074B074E0360BB
:1066D0000546322456F8040B10B103685B689847EE
:1066E000013CF7D1284670BD64970400B024002017
:1066F00010B50446FFF7E8FF2046042120F046FCD1
:10670000204610BD10B50B4C2378BFF35B8FDB0721
:106710000ED4204620F096FB50B107480AF040FD09
:10672000204620F09BFB054A0549034820F029FC40
:10673000014810BD7424002078240020802300200C
:10674000311103002DE9F04F0E4685B099461546EC
:10675000002A60D0314A91F800800023924652F816
:10676000044BDFB29B460133002CF8D1B8F1000F87
:1067700006D0B8F1010F28D0212005B0BDE8F08F78
:106780001B2D48D1382020F04DFB04462A463146C7
:106790000DF0C9FB4AF82B40236820461B69984737
:1067A0004523ADF804308DF80670CDF807608DF8FC
:1067B0000B508DF80C80FFF7A5FF032201A90BF009
:1067C000F7FA89F800704046D7E70E2D23D118203C
:1067D00020F028FB80462A4631460DF0F3FA4AF8AD
:1067E0002B80D8F8003040461B6998474623ADF807
:1067F00004308DF80670CDF807608DF80B508DF8D9
:106800000C40FFF77FFF032201A90BF0D1FA89F8B2
:1068100000702046B1E72020AFE700BFB024002081
:10682000F8B54B681D78312D0C4603D8164E56F836
:10683000250010B92523A381F8BD03681B6998477B
:1068400023690BB91023F6E756F82500A78A0368D9
:10685000DB6898470130874201D21223EBE756F8F4
:1068600025000368DB6898472369013020831D7089
:1068700056F82500A28A21690368013A9B68013114
:1068800098470023D7E700BFB02400202DE9FF4739
:106890000B690C4623B91023A38104B0BDE8F0872F
:1068A0008B8AF92B01D81223F6E70025DFF85080F8
:1068B0002E4658F8043BE3B123695E5501A858F809
:1068C000041CFFF74DFD58F8040CDDF804A0036824
:1068D000DB689847002201465046D4F810900DF02E
:1068E0000FFA6F1C49F80700019808B120F0B9FAB7
:1068F00005350136F6B2322EDBD125830023CBE7F6
:10690000B024002010B5002488B04FF4A4730E22E8
:1069100021460DF11200ADF804300294ADF80C40A0
:1069200022F04EF9702301A8ADF81030ADF81840F0
:1069300005F008FB08B010BD3129F7B50D462FD87A
:10694000184E56F82100E8B103685B69984707467E
:1069500056F8250010B103685B689847002446F894
:1069600025401FB1012F0FD020460BE0FFF7CAFED4
:106970004523ADF806302A4603230DF106010BF03E
:1069800088FA384603B0F0BDFFF7BCFE4623ADF8E9
:1069900006302A4603230DF106010BF07AFAE3E7ED
:1069A0002120EFE7B02400207FB50024194D8DF899
:1069B00003409DF80330312B28D855F82330FBB124
:1069C000224601210DF103000DF09AF99DF80330E4
:1069D000064655F8231001A8FFF7C2FC9DF80330C6
:1069E000019C55F823000368DB689847324601464E
:1069F00020460DF085F90446019808B120F031FADF
:106A00009DF8033001338DF80330D2E7204604B0FF
:106A100070BD00BFB02400202DE9FF410B89012B80
:106A20000C4604D820238B8104B0BDE8F0814A686D
:106A300056781578012E45D076B22EB91C2B01D090
:106A4000202309E0312D01D9212305E00B6913B181
:106A50008B8A042B02D81223A38129E02946FFF751
:106A60006BFF6168382001F1010820F0DBF9228911
:106A70004146013A07460DF056FA294B43F8257076
:106A80003B6838461B69984763688DF806505A1C66
:106A90002389CDF807204521013BADF80410ADF85E
:106AA0000B30FFF72FFE032201A90BF081F9A6811D
:106AB00023691D702569FFF777FF0523C5F80100DD
:106AC0002383B1E70F2BBBD1312DBDD82946FFF76A
:106AD00033FF616818204F1C20F0A4F92289394641
:106AE000013A06460DF06EF90D4B43F82560336808
:106AF00030461B69984763688DF806505A1C2389F5
:106B0000CDF80720013B4621ADF80B30ADF804105D
:106B1000FFF7F8FD032201A90BF04AF900239BE7D8
:106B2000B024002038B54B681D780C462946FFF785
:106B300003FF2369A08113B1A28A042A02D8122379
:106B4000A38138BD1D702569FFF72EFF0523C5F809
:106B500001002383F5E700002DE9FF414FF6FF73A5
:106B6000DFF890808B8107460C468DF803300025B6
:106B700058F8040B18B303682689DB6898478642E7
:106B80001DD1666858F8041C01A8FFF7E9FB3046E0
:106B90002289019921F0DEFF0646019808B120F014
:106BA00060F966B98DF80350A681236913B1A28AF2
:106BB000042A14D81223A38104B0BDE8F081013562
:106BC000EDB2322DD4D1A389002BEED00DF1030309
:106BD000228961683846FFF7B5FDA081E5E79DF899
:106BE00003201A702569FFF7DFFE0523C5F80100B1
:106BF0002383E1E7B02400200B886FF4A1721344D3
:106C000010B50446042B19D8DFE803F0030A0D1071
:106C10001400FFF7A1FF2046BDE81040FFF772BE49
:106C2000FFF7FAFEF7E7FFF77DFFF4E7BDE8104056
:106C3000FFF7F6BDBDE81040FFF728BE10BD00000D
:106C40002DE9F04F8BB000AFFFF75CFD07F10802B4
:106C500045210AF065FFBB68002B37D0D3E9005A05
:106C6000E9463E4E88B0E8464FF0450B55452CD0DE
:106C700015F8014B312CF9D81B23FB770023A7F81B
:106C800018B0BC76C7F81B8087F82030FFF73AFDB4
:106C9000032207F118010AF064FD0028E6D156F836
:106CA000240010B103685B689847382020F0BAF8D8
:106CB0001B22414678600DF036F97B6846F8243097
:106CC0001A68184612699047D0E7CD460023BB608A
:106CD000FFF718FD07F1080246210AF021FFBB6803
:106CE000002B36D0D3E9005A1C4EE9464FF0460B34
:106CF00055452DD015F8014B312CF9D80E23FB74D6
:106D000007F118080023A7F80CB0BC73C7F80F8070
:106D10003B75FFF7F7FC032207F10C010AF021FD98
:106D20000028E5D156F8240010B103685B68984745
:106D3000182020F077F80E22414678600DF042F8D6
:106D40007B6846F824301A68184612699047CFE7E6
:106D5000CD462C37BD46BDE8F08F00BFB0240020E3
:106D6000002070471B20704770477047183005F0AF
:106D7000C2B9183005F0C6B910B53821044620F064
:106D800005F9204610BD000084B038B505AD0446B5
:106D900085E80E0029460E220DF0B0F82046094B7A
:106DA00040F8183B0DF122010D220DF092F800235E
:106DB000C4E90C33204684F83430BDE8384004B0D0
:106DC000704700BF98970400F0B585B00546684647
:106DD0000F4602AEFFF762FB6A462B46144603CC11
:106DE000B44218605960224603F10803F6D12068C6
:106DF0001860A2889A8007F11801684605F031F9F9
:106E00006B4605F10E021C4603CCB4421060516083
:106E1000234602F10802F6D120681060237913712D
:106E2000284605B0F0BDF0B5036889B0DB681746A9
:106E300006460C469847B84205460CD8314601A88C
:106E4000FFF7C2FF25B12A4601A9204621F090FE96
:106E5000601909B0F0BD0020FBE7D0E900308342A3
:106E600006D28B4208D8884234BF002001207047E8
:106E70008B42F8D80120704700207047F0B51F46BC
:106E8000036885B09B69044616469847A0B12368FD
:106E900020469B699847002834D032463B4604F18F
:106EA000180005F0F4F8054680B10CF05DFE0123F2
:106EB000206384F8343006E023682046DB69984775
:106EC0000028E4D10125284605B0F0BD94F83430FF
:106ED0000BB90025F7E70CF047FEA36A216BC31A34
:106EE0000122CDE9013001A88DF80C20FFF7B5FF94
:106EF00005460028E6D194F83430002BE9D084F818
:106F00003400E0E723682046DB6998470028D9D0A1
:106F100032463B4604F1180005F0B9F8054628B999
:106F20000CF022FE0123206384F8343094F83430CE
:106F3000002BC8D00CF018FEA36A216BC31A0122E3
:106F4000CDE9013001A88DF80C20FFF786FF00285D
:106F5000BFD194F83450002DB4D084F83400B2E797
:106F6000D0B5044616461F46FFF722FA30B1324626
:106F70003B462046BDE8D040FFF780BFD0BD012092
:106F800070470E2070477047704710B518210446AF
:106F90001FF0FCFF204610BDF0B5036885B0DB682C
:106FA000174606460C469847B84205460CD8314667
:106FB0006846FFF773FA25B12A466946204621F054
:106FC000D7FD601905B0F0BD0020FBE784B037B5F0
:106FD00007AC84E80E00BDF82830ADF8003094E826
:106FE0000E000546FFF778F9034B2B60284603B0E7
:106FF000BDE8304004B07047E0970400704710B51A
:10700000082104461FF0C2FF204610BD2DE9F047BD
:10701000104FDFF84480DFF844900E4600256424CA
:10702000E85988B10023424649461FF01CFF8246BA
:1070300050B13146FFF7BCF930B15046FFF7B6F911
:10704000844228BF0446E4B20435C82DE8D1204666
:10705000BDE8F087B0240020B8970400B49604007F
:1070600010B504460CF07AFD014608B9002010BDA9
:107070002046FFF7CBFF23798342F7D02071012010
:10708000F5E70B88A3F5A473012B01D8FFF7E8BF40
:107090007047007970470000F8B5274B0360274E12
:1070A000FF230025837300F11803044605718581D1
:1070B000036100F11007304600F0E6FB4FF00003DB
:1070C00032183146384600F027FB4FF40073238511
:1070D000A023E362C4E93255C4E934554FF4807308
:1070E00084F82A50A36484F84C50C4F80451012356
:1070F000134D84F8E8302B78BFF35B8FD9070ED49B
:1071000028461FF09FFE50B10E4801F0CFFC2846E4
:107110001FF0A4FE0C4A0D490A481FF032FF094B2C
:10712000A3600023C4F8D830A4F8DC30C4F8E03001
:10713000A4F8E4302046F8BD149A04004E990400E7
:107140009C260020F425002080230020358B02009F
:1071500038B5037904464BBB01221146806801F023
:10716000D3FD18B30123124D23712B78BFF35B8F2E
:10717000DB0709D428461FF065FE28B10D4804F04E
:10718000FDFE28461FF06AFE21460A4804F012FF61
:1071900004F11001204600F027F82046218D00F070
:1071A00071F82046BDE8384000F02FB938BD00BF67
:1071B000A026002078250020A1F120039BB243F6F1
:1071C000E072934298BF8185704710B503790446F9
:1071D00043B1FFF7F1FF00F018F92046BDE8104079
:1071E00000F062B910BD000070B5044688B01030E0
:1071F0000E4600F06AFA2379FBB1626904AB029390
:10720000EAB91D4C204600F03FFB4FF00003221866
:10721000214602A800F080FA1123BDF80C20029943
:107220008DF8043001A800F02DFB18B1134A61213C
:1072300011F0DBFC02A800F040FA08B070BDD6E9FE
:1072400000541DB914B10E4820F027FA0F2C0194F8
:1072500006D9002101A800F0F1FA019B02900493E5
:1072600022462946029800F079FA019B029A03937C
:107270000021D154D0E700BF4E9904007D9904004D
:107280005399040008B5037953B10185084600F00D
:10729000F7FA28B1034A6821BDE8084011F0A5BCFF
:1072A00008BD00BF7D99040011F10C0F09D010DC5E
:1072B00011F1140F05D011F1100F02D011F1280FA8
:1072C0000DD190F92A308B4209D080F82A1000F0B5
:1072D0002FB80B1DF5D003DC11F1080FF1D070476A
:1072E0000029EED00429FAD1EBE713B50446FFF7E5
:1072F00009FA01230DF107022A210AF0B0FA9DF9DB
:1073000007102046FFF7D0FF02B010BD13B50446AA
:10731000FFF7F8F901230DF107020B210AF09FFA9C
:107320009DF907102046FFF7BFFF02B010BD000017
:1073300008B5037973B1817BFF290BD090F92A201E
:10734000012000F09BFA28B1034A9F21BDE80840C4
:1073500011F04BBC08BD00BF7D990400F8B505468F
:107360000C461746002A3DD100F150063C22002170
:10737000304621F025FC0123337017B94FF4C06368
:107380007380D5F8043183B3F4B105F1F8040C220D
:107390000021204621F014FC4CF20103A5F8F8303E
:1073A000D5F8040101F01AF8C5F80001D5F8040178
:1073B00001F016F80123A5F8FC00B46286F82C3021
:1073C00095F8FC400434E4B22B7DC4F11A04E4B215
:1073D0009C4228BF1C4674701CB101233FB185F844
:1073E0004C30F8BD00F18C06C0E71C46ECE785F890
:1073F0004B30F6E710B5114604460022FFF7AEFF0A
:107400002046BDE8104000F081B8038E03F47C43B1
:1074100043F001030386002343634FF48073A0F815
:107420004430838D8363C38D8387704770B5037940
:10743000012604464673D3B1037BD3B900F1300271
:1074400000F1D8010E3000F013FA054620B12046B5
:1074500000F0D0F8284670BD84F848003146A07B83
:1074600000F008FA05460028F4D12673F2E7082553
:10747000F0E70025EEE7000010B500234373037921
:10748000044673B1037B63B1807B00F0F5F930F003
:10749000080304D0034A4FF49D7111F0A6FB0023AA
:1074A000237310BD7D99040038B5037B04460BB9E6
:1074B000437B53B3237943B3A06801F093FC94F862
:1074C000495075B9002394F84820F2B1BBB10123AB
:1074D00084F8303084F84A302046BDE8384000F067
:1074E0007DB8A06801F048FE0028EBD194F84A303E
:1074F000002BE8D1012384F848302B46E3E705222E
:1075000084F8302084F84A30E6E738BD70B5037956
:107510000446002B5FD090F8E85090F84B300135CE
:1075200005F0010580F8E850E3B11F2100EB850666
:10753000A0F8DC10D6F8C83023B9012021F0A6FA53
:10754000C6F8C800D6F8C810C4F8D81004F1DC0298
:1075500004F150000FF084FE20B11F4A40F2811167
:1075600011F043FB94F84C30E3B11F2104EB850587
:10757000A4F8E410D5F8D03023B9012021F086FA20
:10758000C5F8D000D5F8D010C4F8E01004F1E4023A
:1075900004F18C000FF064FE20B10F4A40F28B1111
:1075A00011F023FBA37BFF2B0CD0002204F1D801A8
:1075B00004F10E0000F05CF920B1074A40F291118D
:1075C00011F013FB237B33B9637B23B12046BDE865
:1075D0007040FFF72BBF70BD7D99040010B5037B91
:1075E00004460BB1FFF748FF2046BDE81040FFF707
:1075F0001DBF0000F0B58BB006462122002101A876
:1076000021F0DEFA00241F4F2546B6F8DC30A342F5
:1076100014D9D6F8D8301A5D01AB5819394621F083
:10762000E1FB04F00703072B054405D121220021CB
:1076300001A821F0C5FA00250134E6E72122002146
:1076400001A821F0BDFA00240E4F2546B6F8E4301B
:10765000A34214D9D6F8E0301A5D01AB5819394667
:1076600021F0C0FB04F00703072B054405D12122BC
:10767000002101A821F0A4FA00250134E6E70BB0AF
:10768000F0BD00BFC7990400027B42B10022052172
:10769000027380F8301080F84A20FFF7C7BE7047A9
:1076A0000B88B3F5927F04D040F22512934202D0AA
:1076B0007047FFF7E9BFFFF7F7BE034653F8080B23
:1076C000984201D01FF0CDBB70478842F7B5044601
:1076D0000E461ED003464D6853F8082B9A4214BF3D
:1076E00081680F21A9420AD201A8019500F0A6F8ED
:1076F00007462046FFF7E1FF019B2760A36025B105
:107700002A463168206800F029F823686560002265
:107710005A5503B0F0BD000073B505460E4619B9C1
:1077200012B10D481FF0B9FF941B0F2C019406D91C
:10773000002101A800F082F8019B2860AB6022467E
:107740003146286800F00AF8019B2A686B60002126
:10775000D15402B070BD00BF53990400012A30B467
:1077600003D10B78037030BC7047002AFBD030BCCB
:1077700021F0FEB90B680360014B8360704700BFC6
:10778000209A0400024B83600B680360704700BFBF
:10779000209A04000B6803607047704700487047E8
:1077A0006898040010B50446084604491FF0DBFE43
:1077B000002814BF2046002010BD00BF68980400B8
:1077C0000B680360014B8360704700BF389A040068
:1077D000024B83600B680360704700BF389A040057
:1077E0000B68036070477047004870473498040086
:1077F00010B50446084604491FF0B5FE002814BF22
:107800002046002010BD00BF3498040010B5044B82
:10781000044640F8103BFFF750FF204610BD00BF64
:10782000149A040010B50446FFF7F0FF20464FF409
:1078300084711FF0ABFB204610BD000008B5036843
:10784000002B02DA09481FF02BFF8B4208D94900B0
:107850008B4205D20029B6BF6FF000430160036080
:107860000068BDE8084001301FF0DCBACC99040084
:1078700072DF704773DF704774DF704777DF7047E0
:1078800078DF70477CDF704721F0D6BAA0F842104D
:10789000704708B500F0C6FA006808BDB0F84200AD
:1078A0007047B0F840007047A0F844107047B0F837
:1078B00044007047094A02604DF6AD610022426003
:1078C00001818272C260C0F81220C0F81620C26125
:1078D00080F82020426280F828207047E49B040052
:1078E00038B590F82030DB0704460D4605D5044A2C
:1078F0001B2102F14E000CF0E7F9E56038BD00BF36
:10790000B89A04002DE9F047044698B000250CAE63
:10791000E1611C220F460EA829460C95756021F0E6
:107920004FF91C2229460EA80DF15409ADF8545008
:107930008DF85650ADF85A508DF85C5021F040F952
:1079400007A9204600F0BAF803222946484621F04C
:1079500037F99DF85630CDF84C9023F0070304F129
:10796000040943F0030341F2111A48468DF85630DA
:10797000ADF854A001F086FD484601F01CFD14222C
:107980002946009007A821F01BF92368CDF81CD0E8
:107990001B69ADF82650204698472368ADF82400AF
:1079A0009B6820469847ADF82800204600F062FB0F
:1079B0000DF15A080B9003224046294621F000F9A8
:1079C0009DF85C30D4F80C90CDF8208023F00703AC
:1079D00043F005030DF10C08ADF85AA08DF85C30AA
:1079E0000F951295CDF80480B9F1000F5FD048468D
:1079F00021F022FA0F28054604D901301FF012FAAF
:107A000003950190012D01984AD199F80030037037
:107A1000019B029500215955029BC3B1019A0F9217
:107A20000DF15D059BB203222846ADF84230ADF85A
:107A3000403021F0C5F811238DF85D30BDF85E307F
:107A4000129503F4784343F44073ADF85E30236835
:107A5000002511955B6B31462046984710B1ADF873
:107A60003250119604F1120307AA0EA9B88D00F046
:107A7000C0FA18B10F4A8C2111F0B7F80021204646
:107A800000F03EF894F82030019843F0010340459F
:107A900084F8203001D01FF0E4F918B0BDE8F08779
:107AA000002DB5D02A46494621F062F8B0E70248D9
:107AB0001FF0F3FDB89A0400309B04000B7F23F005
:107AC000030343F002030B7790F820300A7FC3F3DF
:107AD000800363F3C3020A7790F82030D2B2C3F375
:107AE000400363F304120A7790F82030D2B2C3F354
:107AF000001363F345120A77437C81F83F307047E7
:107B00002DE9F043036887B0DB690446884698474F
:107B10000546204600F0AEFA94F820309B06074652
:107B200067D594F82830FD2B63D84146284605F0E8
:107B3000ADFF236806469B6820469847B04242D373
:107B400000F070FA236881465B692046984794F8F4
:107B50002830CDF80880CDE9006301463B462A462F
:107B6000484605F0C9FF002840D023683146DB684D
:107B700020469847236820461B699847E369ADF87B
:107B800016009868618AC08B3B460DF1160200F022
:107B90004FFF20B11B4A4FF4807111F026F894F882
:107BA0002030C3F34000F0B1E2699268D18B4FF608
:107BB000FF72914223D0C3F3C000A0B123682046D6
:107BC0005B6A98470FE0122532460021384620F0C4
:107BD000F7FF23680021DB682046984700F022FA6F
:107BE00005F07CFF284607B0BDE8F0834FF6FF752F
:107BF000EAE723682946DB6820469847BAE7002071
:107C0000F1E700BFB89A040070B590F820309A07E9
:107C100086B0054643D5C2699268D18B4FF6FF7294
:107C200091423CD01B073AD503681B6998476B8A81
:107C3000ADF8083001238DF80A3000260DF1060357
:107C4000CDE90436EB69ADF806009B68ADF80C6031
:107C500002A9D88B00F0CFF90828044618D007D81D
:107C600060B1104A4FF49D71204610F0BEFF05E050
:107C7000132806D043F201439842F2D1204606B0C1
:107C800070BD95F8203043F0400385F82030F5E7CB
:107C900095F8203066F3861385F82030EEE7082447
:107CA000ECE700BFB89A04002DE9F04F90F82030BF
:107CB0009A0791B0044640F18C80C2699268D18BDA
:107CC0004FF6FF72914200F084801B0740F18180E3
:107CD00003681B6998478046204600F0CBF994F86A
:107CE0002050C5F3801582460DB1B4F846504FF0D0
:107CF000000B0DF11809A8454AD9A8EB0507142275
:107D0000132F4FF000014846BB46A8BF4FF0130B9E
:107D100020F056FF132FCABF1322FF22B5FBF2F249
:107D20000AEB0507C8BFD2B21FFA8BF68DF81820F0
:107D300039461FFA8BF20DF1190020F019FF721C61
:107D400092B239460BA8ADF8062020F011FF638AE5
:107D5000ADF8083001238DF80A300DF10603CDE9A6
:107D60000439E3699B68002202A9D88BADF80C2086
:107D700000F041F9834618B313284FF000020BD1ED
:107D800094F82020A4F8465042F0400284F82020C5
:107D9000584611B0BDE8F08F082808D194F820109B
:107DA000A4F8462062F3861184F82010F0E743F22D
:107DB0000142904204D0084A4FF4D17110F015FFEF
:107DC000BDF806200BA93846354420F0D1FEADB2EF
:107DD00091E74FF0080BDBE7B89A040010B590F874
:107DE00020305B06044609D503685B6A984728B9CA
:107DF00094F8203060F3861384F8203010BD10B55D
:107E000090F820305B0604460BD503685B6A984700
:107E100038B994F82030A4F8460060F3861384F84B
:107E2000203010BD80B483B000AF78607B682C3305
:107E300018460C37BD465DF8047B704710B5044BFF
:107E4000044640F8303BA36BDB689847204610BDE2
:107E5000589A040010B50446FFF7F0FF2046482169
:107E60001FF094F8204610BD2DE9F04387B00D4671
:107E7000044600F0D7F805F038FE0646002840D149
:107E800023682946DB6820469847C9238DF81730B8
:107E900094F8203013F0200F236851D094F8282054
:107EA000FD2A4DD81B692046984705F0FEFD236842
:107EB00001469B692046984700F0B4F805462046E5
:107EC00000F0D8F8236807461B69204698472368C6
:107ED00080465B692046984723688146DB692046D7
:107EE00098470DF11703CDE9000302964B46424631
:107EF0003946284605F0D4FE30B900F093F805F075
:107F0000EDFD07B0BDE8F08300F08CF89DF8172078
:107F100094F8281006F0FEF80028EED020469DF8D0
:107F20001760FFF77FFF23680746DB692046984705
:107F3000E56B03463A46314604F13000A847E0E7D6
:107F4000FE228DF817209B69294620469847E5E7D1
:107F5000F8B5436A04465BBB90F82030DB0920D0BB
:107F6000144F154E3D78BFF35B8F15F001050ED110
:107F700038461EF067FF50B138463560B580B571A0
:107F80001EF06CFF0D4A0E4930461EF0FAFF3368B2
:107F900003B16362636A5BB90120BDE8F8400BF08E
:107FA000F5BE03689B689847012120F06FFD606271
:107FB000F8BD00BF40270020A42600208023002019
:107FC0000580020038B50446406A28B194F8203094
:107FD000DD0902D00023636238BD20F0B3FD656285
:107FE000FAE700230120CB8040F21B1308710B80BD
:107FF0007047AADF7047AEDF704770477047704721
:108000000020704710B50446006808B120F09AFDC2
:10801000204610BD10B5902104461EF0B7FF204643
:1080200010BD000070B50E4E3378BFF35B8F13F0B8
:10803000010513D130461EF005FF78B1094C0A4BFB
:1080400023603046042384F8505084F858301EF0E2
:1080500005FF064A064920461EF093FF014870BD01
:108060003C270020AC260020E4A50400802300204B
:10807000FB7F020090F820309B0603D590F8283053
:10808000FD2B02D903685B691847406A704730309E
:10809000704713B5D0E90D3293420446019106D0E2
:1080A0001960436B04334363204602B010BD01AA3C
:1080B0001946303000F0E0F8F6E700000A490160A8
:1080C0004DF6AD610022018200F11C01C0E90512EC
:1080D0004FF6FF710271C0E9022282740277818536
:1080E000C0E90C2282637047B09C040073B5037929
:1080F00004463BBB00F10C058160284601F0C2F943
:10810000284601F058F922464FF6FF73019022F8F5
:108110002C3F01A9012000F0EEF818B10A4A2D21E8
:1081200010F063FD236820465B6A9847D0E900564B
:10813000AE4205D0214655F8040BFFF7E3FBF7E705
:108140000123237102B070BD3D9C040070B503682B
:108150005B6A0D469847D0E90046A6420FD054F816
:10816000040B90F8203065F3451380F82030036845
:1081700015B1DB6A9847F0E71B6B9847EDE770BDD8
:1081800010B50C68C46000F10C038A889A808A7963
:108190009A7110BD0A88112A09D0502A0DD0102AD0
:1081A00010D1036801F108025B69898818470368E8
:1081B00001F108029B6989881847036831F8062F86
:1081C000DB69184770477047F7B503685B6A0D466F
:1081D000074616469847D0E90031994237D053F800
:1081E000044B2888E28A90420FD16A89022A0CD176
:1081F00005F10C000FF0FEF994F8203060F3C30392
:1082000084F82030012003B0F0BD628A9642E4D1A8
:10821000AB795A1E022A06D8236869891B6A204650
:1082200098470120EFE7062B13D1B86800230DF122
:1082300006023146C08BADF8063000F0E8FB23683B
:10824000BDF806101B6A204698470120DBE7002096
:10825000D9E70120D7E770B503685B6A0D469847F8
:10826000D0E90046B44206D054F8040B036829460E
:108270009B6A9847F6E770BD2DE9F84FD0E9007A80
:10828000AAEB0704A41014BF23460123E418804678
:1082900089469346A1EB070526D2B4F1804F23D23D
:1082A00024BB2646DBF800307351B94504D02A467A
:1082B0003946304620F06AFC0435D1453544AAEBF6
:1082C000090B04D05A464946284620F051FC5D442B
:1082D00017B138461EF0C5FD06EB8404C8E90065F9
:1082E000C8F80840BDE8F88F6FF04044A0001EF0C9
:1082F00099FD0646D6E7A8DF70477047704710B56E
:10830000642104461EF042FE204610BD10B5094C03
:108310002378BFF35B8FDB0709D420461EF092FD64
:1083200028B1054803F02AFE20461EF097FD0248BA
:1083300010BD00BFA02600207825002070B5104B8E
:108340000360002500F128031226044645623246E8
:108350002946184620F034FC4FF41671FF22C4E978
:1083600013126587C4E90F55C4E9115584F85450B8
:10837000A56525663246294620F022FC204670BDC0
:108380000C9D040080F82910704780F83A1070475F
:1083900080F83B107047012303FA01F110B549B290
:1083A00090F93C4022B12143C9B280F83C1010BD85
:1083B00024EA0101F8E7012303FA01F110B549B2FB
:1083C00090F93D4022B12143C9B280F83D1010BD63
:1083D00024EA0101F8E780F83E1070472830704722
:1083E0001220704710B55C30144605F028FF28B104
:1083F00001461022A01C20F0BBFB012010BD000094
:108400002DE9F04304468FB004F124050E4603F035
:108410001DFD294603F06CFDA36D0133A365FEF736
:1084200071F9042305AA882109F019FAFEF76AF9FF
:10843000042306AA8B2109F012FA069A003218BF0B
:10844000012202212046FFF7A6FF069A002A34D116
:10845000A264216DA06D04F12807002933D0C30761
:1084600040F1CE80072384F82830002384F82A3096
:1084700094F83A3084F82B3094F83B3084F82C3060
:1084800094F83C3084F82D30E38FE3857D22236C13
:1084900093FBF2F32386636CC4F83230059BA26D24
:1084A000002B40F0D78093B2E38694F83D3084F8F7
:1084B0003830FA2384F839302AE0A36C002BC8D076
:1084C000059BA364C5E7062384F8283094F83B3065
:1084D00084F82B3094F83C3084F82C3094F83E30FB
:1084E00084F82D3094F83F3084F82E304FF07D0C16
:1084F000236CC4F8312093FBFCF384F8350084F836
:108500002A10A4F82F30042204F1360020F058FB82
:10851000DFF8708198F80030BFF35B8FD8070ED476
:1085200040461EF08FFC50B1504806F083FD404697
:108530001EF094FC4E4A4F494C481EF022FD3A462C
:1085400002211223494806F0CFFDFEF7DBF8032293
:10855000192109F095F960B3236D002B00F082809A
:10856000DFF8249199F80030BFF35B8F13F0010816
:1085700013D148461EF066FC78B13F4F3F4B3B603D
:108580004846042387F8508087F858301EF066FC70
:10859000374A3B4938461EF0F4FC65220221CDE9FA
:1085A000012104F12A03102200921946324805F0F5
:1085B000A3FABEB9002640F21F1331460E220DF178
:1085C0002A00ADF81C300896ADF8246020F0F8FAC7
:1085D0007023ADF82830ADF83060FFF797FE07A99B
:1085E00003F0D0FC236D002B36D103F02FFC234683
:1085F0004FF48042294603F067FC0FB0BDE8F083DA
:1086000094F83A10F2B1072384F82830012384F853
:108610002A30A36C236394F83C3084F8343094F807
:108620003E3084F83530059B84F82B10E2623BB96C
:1086300083B2E3867D22236C93FBF2F3238767E703
:108640009BB2F6E73A462046FFF7CCFE00287FF4BF
:108650005FAF07E79BB227E703F0F8FB23464FF431
:108660000042C7E7002EC0D1A4E700BF4827002082
:1086700080230020FD820200AC260020E4A5040037
:10868000FB7F0200442700203C2700200021FFF749
:10869000B7BE0000031D37B520220021044618464E
:1086A00020F08EFA254645F8240F03F0CFFB2D4A23
:1086B000294603F0F9FBFEF725F801230DF1070227
:1086C000862109F0CCF89DF80730102B02D045D850
:1086D000022B45D8236504F15C0005F055FD03F03D
:1086E000B5FB234629464FF4004203F0EDFBFEF7AD
:1086F00009F80322362109F0C3F801210246204679
:10870000FFF749FEFDF7FEFF0322372109F0B8F815
:10871000032102462046FFF73EFEFDF7F3FF03224A
:10872000382109F0ADF8052102462046FFF733FE57
:10873000FDF7E8FF0322432109F0A2F806210246D3
:108740002046FFF728FEFFF7E1FD214603F032FC4B
:1087500001212046FFF754FE03B030BDFF2BB9D0F6
:10876000FF23B7E78D86020070B58EB00D46044634
:10877000FDF7C8FF04230DEB0302882109F06FF811
:108780004FF4403306931DB140F20513ADF81A3093
:1087900094F83E308DF80830636CCDF80930019BB9
:1087A000A26D002B5ED193B2ADF80D3009238DF888
:1087B00010300723ADF8183040F215130E220021B7
:1087C000ADF81C3002AE0C2304AD0DF12A00ADF85B
:1087D00024300596089520F0F3F97023ADF8283081
:1087E0000023ADF83030FFF791FD07A903F0CAFB75
:1087F00094F83B308DF8083094F83C308DF809300F
:1088000094F83F308DF80A307D22236C93FBF2F30D
:10881000ADF80B30019BA26D33BB93B2ADF80D30B8
:1088200008238DF810300723ADF8183040F21513E7
:108830000E22ADF81C3000210C230DF12A00ADF8FA
:1088400024300596089520F0BBF97023ADF8283048
:108850000023ADF83030FFF759FD07A903F092FB74
:108860000EB070BD9BB29FE79BB2D7E737B50B88C0
:10887000872B04466BD022D8382B00F0908007D885
:10888000362B7ED000F28480222B4BD003B030BD3B
:10889000812B4CD008D8432BF8D14B681A78003282
:1088A00018BF012206211CE0822B47D0832BEDD17B
:1088B0004B681B6803647F2380F83F30E6E7B3F51D
:1088C000927F2BD010D8962B47D040F21B129342A8
:1088D0006CD08B2BDAD14B681A68003218BF01229A
:1088E0000221FFF758FDD1E740F2331293423AD00C
:1088F000B3F59A7F09D240F225129342C6D10021E6
:1089000080F85410FFF77CFDC0E733D0B3F5A17FAA
:10891000BCD149685C3005F05EFCB7E7012380F804
:108920005430B3E74B681B7880F83A30AEE74B68B9
:108930001B7880F83B300323C364A7E749682D4ABE
:10894000D1E9000100231FF0C1FE60649EE74B687F
:1089500093F9003080F83E3098E74B6800211A7890
:10896000FFF729FD92E790F83C3043F0100380F8C0
:108970003C308BE74B681A78003218BF0122002187
:10898000AFE74B681A78003218BF01220121A8E72F
:108990004B681A78003218BF01220321A1E74B6807
:1089A0001A78003218BF012205219AE74B685C3023
:1089B000196805F06CFCE56C6B1EE364002D7FF418
:1089C00065AF0DF10700012102F00CFC9DF80720B6
:1089D00042F210735343FF22B3FBF2F303F56A43F1
:1089E000642260332946B3FBF2F32046E364FFF7C9
:1089F000BBFE4BE70090D00310B5182104461EF0D3
:108A0000C5FA204610BDACDF7047ADDF704713B527
:108A100014461288ADF800200022ADF802206A4604
:108A20000193FFF7F2FFBDF80030238002B010BDC4
:108A300013B514461288ADF800200022ADF80220CC
:108A40006A460193FFF7DFFFBDF80030238002B0D4
:108A500010BD10B5044609F010FB204610BD10B53E
:108A6000044609F00AFB204610BD000010B50B4C6F
:108A70002378BFF35B8FDB070ED420461EF0E2F9AC
:108A800050B1074809F0F4FA20461EF0E7F9054A0C
:108A9000054903481EF075FA014810BD74270020EF
:108AA0006C270020802300205F8A020038B5002355
:108AB0000446C0E90033C0E9023314201EF0B2F9C5
:108AC0000546606808B11EF0CCF94FF6FF73E383EA
:108AD000144BA362A363144BA36404F18103C4E9A0
:108AE0000155C4F8A03014351F23E560A4F8A43064
:108AF000002504F15C0325772562E5622563E563C3
:108B00002564E56484F8505020222946184620F058
:108B100057F8064A064BE067C4E9052384F88050FD
:108B2000204638BDC49D0400AC9D04000600100022
:108B30000A00900110B50023044600F8403BA36CE6
:108B4000DB68984704F1300000F04FFB04F120008F
:108B500000F04BFB606808B11EF083F9204610BDA1
:108B600013B503780446D3B90DF1070000F00CFCEF
:108B700018B10C4A452110F038F89DF8073033B190
:108B800000F000FC18B1074A492110F02EF801202E
:108B900000F0E6FB0E2000F0E5FB0123237002B09D
:108BA00010BD00BF659D040008B50FF0DFFF10F099
:108BB00071F910F075F910F0EFF808280AD018B123
:108BC000054A762110F011F810F064F910B90FF091
:108BD000CDFFF9E708BD00BF659D04001FB5037810
:108BE000044643B3437833BB144B019301A90120DE
:108BF00010F0B6F918B1124AA6210FF0F6FF01A83D
:108C000010F016FA18B10E4ABD210FF0EEFF002346
:108C10000293ADF80C3002A80C23ADF80A3000F036
:108C2000ADFB18B1064AC3210FF0DFFF01236370CB
:108C3000204600F085FB04B010BD00BF802300205B
:108C4000659D04007047704738B5437805464BB3BF
:108C5000154C2378BFF35B8FDB070ED420461EF044
:108C6000F1F850B1114809F003FA20461EF0F6F869
:108C70000F4A10490D481EF084F94FF496710B48C5
:108C800009F003FAFFF7F2FE4FF4967109F0FDF9CF
:108C9000D5E90145AC4205D054F8040B03689B6844
:108CA0009847F7E738BD00BF6827002060270020FD
:108CB00080230020538A020070B54378044673B1C4
:108CC000837863B9D0E90156B54206D055F8040B54
:108CD00003682146DB689847F6E70123A37070BD5F
:108CE00013B5D0E9023293420446019106D01960CF
:108CF000836804338360204602B010BD01AA194680
:108D0000043000F079FAF6E7012906D019B10229FA
:108D100005D0002070470078704740787047807811
:108D20007047000010B543788CB00446B3B3027F9F
:108D3000A2BBBDF80430ADF80A2003F0E00343F411
:108D40008273ADF8043003928DF81020FDF7DAFC41
:108D500002230DF10602272108F081FDFDF7D2FC68
:108D60002821022302AA08F07AFD04F1A00101A83B
:108D700000F0FEFA20B10A4A40F257110FF035FF19
:108D80000123237700234FF490711A4605A800F0C1
:108D9000FDFAFFF7BBFA05A903F0F4F80CB010BD1B
:108DA000659D040010B5437888B00446B3B1037FD5
:108DB000A3B100F0DFFA20B1094A4FF4B3710FF00C
:108DC00014FF002340F2211123771A4601A800F076
:108DD000DDFAFFF79BFA01A903F0D4F808B010BD43
:108DE000659D0400007F704770B5D0E901460D46CF
:108DF000A64205D0294654F8040BFFF7A7F9F7E778
:108E000070BD0000F0B50B88502B8BB005460C46AA
:108E100061D015D8102B2FD003D8012B3BD00BB02D
:108E2000F0BD112B50D01C2BF9D1D5E90165AE4214
:108E3000F5D056F8040B036821461B699847F6E7FE
:108E4000532B71D011D8512BEFD0522BE7D10022E8
:108E500003231146C08B00F08FFA0028DFD03A4A76
:108E60004FF4E3710FF0C1FED9E7562BDDD0572B3D
:108E7000D5D100F088F9D2E700F023F900231A4693
:108E80004FF4927103A800F081FAFFF73FFA03A9AB
:108E900003F078F8C3E7FFF7E9FD0222014603A8D3
:108EA00009F005F9039B019301A9BDF81030A088D2
:108EB000ADF8083000F064FA0028B0D0224A40F241
:108EC00091110FF092FEAAE700F017F900231A465D
:108ED00040F22511D6E700F0E7F8237B062B16D1E8
:108EE000FFF7C4FD0222014603A809F0E0F8D5E926
:108EF0000157039E0634AF4291D055F8040B3288D7
:108F000003682146DB6998470028F4D087E7D5E954
:108F10000167A51DB74282D056F8040BE2880368AA
:108F20002946DB699847F5E7D0E901369E423FF4D0
:108F300076AF53F8040BE188828D9142F6D1036835
:108F400021461B6998476AE7659D040010B58CB0FF
:108F50000446C11C06220DF105001FF009FE002386
:108F60008DF80B30E37C8DF80430237D8DF80C30C8
:108F7000A38B8DF80D30A369CDF80E3001AA0E2316
:108F80004FF4917105A800F001FAFFF7BFF905A9A8
:108F900002F0F8FF0CB010BD00F125028261FFF76E
:108FA000D5BF000070B50B881D2B92B006460C464D
:108FB0002BD10D7AC5F341153DBB08313AB32422BC
:108FC00001A81FF0D5FD94F82420216A8DF82820EF
:108FD0000DF129001FF0CCFD0F4A0795442101A88F
:108FE0000FF05EFD20B10D4A40F23B210FF0FDFD78
:108FF00006F1A001002000F0BBF9082805D020B13F
:10900000064A4FF413710FF0F0FD12B070BD084620
:10901000FFF79CFFECE700BF998F0200659D0400FD
:1090200010B50D4C2378BFF35B8FDB070ED42046C1
:109030001DF008FF50B10948FFF738FD20461DF02C
:109040000DFF074A074905481DF09BFF0348BDE88F
:10905000104000F06FB800BF9C260020F4250020CF
:1090600080230020358B020010B504467C3402F0CA
:10907000EDFE2146064A02F017FF02F0E7FE214608
:1090800000234FF42022BDE8104002F01DBF00BFB6
:109090002190020010B5044602F0D8FE04F17C01D4
:1090A000BDE8104002F024BF10B5044602F0CEFE29
:1090B00004F17C0100234FF42022BDE8104002F0AF
:1090C00025BFF8B58B88C3830023C370C36A0446E9
:1090D0000D4613B1898820309847D4E90167BE4214
:1090E00006D056F8040B036829461B699847F6E733
:1090F0002046BDE8F840FFF7B7BFF8B54FF6FF735D
:10910000C383C36A04460E461BB1C36B89883030E3
:109110009847D4E90157BD4206D055F8040B0368BF
:1091200031461B699847F6E72046BDE8F840FFF74F
:10913000B1BF000008B50346C08B4FF6FF729042E6
:1091400014D0DA7892B90122DA70132100F00CF908
:1091500008280BD043F20202904207D030B1044AF3
:1091600040F2A121BDE808400FF03FBD08BD00BF9F
:10917000659D0400C0787047C08B4FF6FF73C01A1E
:1091800018BF0120704770B5D0E901460D1DB442EB
:1091900006D054F8040B036829461B6A9847F6E783
:1091A00070BD1FB5CA688B6803925B680446684649
:1091B0009847694604F1200000F05DF8684600F029
:1091C00014F804B010BD1FB5CA688B6803925B68C1
:1091D000044668469847694604F1300000F04BF8B1
:1091E000684600F002F804B010BD10B5836804466C
:1091F000DB689847204610BD2DE9F84FD0E9007A8A
:10920000AAEB0704A41014BF23460123E4188046E8
:1092100089469346A1EB070526D2B4F1804F23D2AD
:1092200024BB2646DBF800307351B94504D02A46EA
:10923000394630461FF0AAFC0435D1453544AAEB27
:10924000090B04D05A46494628461FF091FC5D445C
:1092500017B138461DF005FE06EB8404C8E9006529
:10926000C8F80840BDE8F88F6FF04044A0001DF03A
:10927000D9FD0646D6E730B58B6885B004461B6835
:1092800001A80D469847A368214628461B689847C1
:10929000039B01A91B6820469847E368EA68E260DF
:1092A000EB6005B030BD00000B680360014B8360CC
:1092B000704700BFC49D0400024B83600B680360CD
:1092C000704700BFC49D04000B680360704770477F
:1092D00000487047309D040010B504460846044914
:1092E0001EF041F9002814BF2046002010BD00BF29
:1092F000309D04000B680360014B8360704700BF22
:10930000AC9D0400024B83600B680360704700BF94
:10931000AC9D04000B6803607047704700487047BD
:10932000189D040010B50446084604491EF01BF9B8
:10933000002814BF2046002010BD00BF189D040067
:1093400008B5143000F012F830B1044A4FF48F71B0
:10935000BDE808400FF049BC08BD00BF659D040092
:1093600036DF704737DF704776DF70477ADF704748
:109370008ADF70478BDF7047B1DF704765DF70476A
:1093800066DF704711DF704712DF704710B5044683
:10939000018042600381102200210C301FF010FC7C
:1093A0007023A3810023A3822383204610BD62DFA4
:1093B000704763DF704782B0837982888DF806300A
:1093C000002362F30F03BDF8062062F31F43184623
:1093D00002B070472DE9F84F0024DFF898A0DFF8BD
:1093E000A0B080468946264625462746D9F8003053
:1093F000DB5DABB30F2D2FDC2D2B1ED0202B1CD013
:10940000A3F13002D2B2092A05D9A3F14102052AFB
:1094100015D8373BDAB202EB0413F20748BFC5F1A7
:109420000F0203F0FF0406F1010341BF08F80240F8
:109430001E460135002458BF1E460137D6E7A3F16A
:109440006102052A01D8573BE4E7524648215846B5
:109450000AF03AFC0022DEE7064A0748582104E0F9
:109460000F2D04DC034A054856210AF02DFC404626
:10947000BDE8F88F0A9E0400709E0400609E040000
:109480004E9E040010B50268837986B004465AB334
:10949000D3B9014602A8FFF79DFF01AA02A9102037
:1094A000FFF787FF052812D1A11D02A8FFF77FFF54
:1094B00018B1104A1B210FF098FB9DF815209DF85C
:1094C000143043EA0223A380A07906B010BD28B966
:1094D0009DF80630A371BDF80430F4E7054A06484C
:1094E00022210AF0F1FBEFE7002BEDD1014A0348FE
:1094F0002521F6E70A9E0400DC9D0400F09D04008F
:10950000184B43604FF481734381174B4363174BF0
:1095100083630323437341F21433C3810369DFF888
:1095200060C003F40002124B13430361114B43610B
:10953000114B836140F2C97240F2BC73C0E907234A
:109540004FF45B614FF49663C0E90913C362EC23E7
:1095500080F83030094BC0E90FC3DD2380F8443078
:10956000704700BF080B06075C8F423F85EBD13E7A
:109570000A090903E02D903BCDCC4C3EF049020096
:10958000400D0300164B4363164B174A8363174B7A
:10959000C0E90123164BC360036903F40002154BB5
:1095A00013430361144B4361144B83614FF4FA710D
:1095B0006FF07C03C0E907134FF0000C4FF4E16338
:1095C000C0E909C34FF41673C362EC2380F830304E
:1095D0000B4BC0E90F33DD2380F84430704700BFE8
:1095E0003333B33E9A99993E080A0E0D04050601DD
:1095F00000021413060761051EA7E83B378981BEE8
:1096000080841E00184B43604FF481734381174BD5
:109610004363174B83630323437341F21433C381C2
:109620000369DFF860C003F40002124B13430361C7
:10963000114B4361114B836140F2D37240F2CD7301
:10964000C0E9072340F2DC514FF49663C0E90913E7
:10965000C362EC2380F83030094BC0E90FC3DD232F
:1096600080F84430704700BF080B06075C8F423F0C
:1096700085EBD13E0A090901BC74933BCDCC4C3E2D
:10968000F0490200400D0300174B4360174B436342
:109690004FF07A5383634FF481734381144BC3605B
:1096A0000369144903F40002134B13430361134B82
:1096B0004361134B83616FF06203C361AB3B036291
:1096C00042F228324FF49663C0E909234FF416732F
:1096D000C362EC2380F830300A4BC0E90F13DD235E
:1096E00080F84430704700BF080B06073333333F20
:1096F00000031413400D03000A09690148507C3B24
:10970000A01A2F3EF0490200144B43604FF08043F3
:1097100043634FF07E53836340F201234381104B38
:10972000C360036903F400020E4B1343036100237B
:10973000436183614FF47A73C0E9073300224FF429
:109740006163C0E90923C362D82380F83030064B37
:10975000C0E90F33DD2380F84430704711160B0C3D
:109760000400080613141E0180841E0008B5FFF7CC
:10977000CBFF0423C37408BD41F61923C381438A78
:1097800003F0F00343F400734382EC2380F830309D
:10979000014BC0E90F33704780841E0038B54FF08D
:1097A00010230546D3F88440631C30D0B4F57B7F8A
:1097B00013D8B4F57A7F25D2642C2ED008D8A4F122
:1097C0002803012B2CD92846FFF71CFF072038BDA2
:1097D000C82CF8D1FFF7CAFF16E040F2DE539C42D6
:1097E0000AD840F2DC539C4213D2A4F2EF33012B8F
:1097F000E9D8FFF7C7FE07E0B4F5BC6FE3D8FFF781
:1098000043FF01E0FFF77CFE2C600020DFE740F221
:10981000DE542846FFF7F6FEF6E7FFF7ADFFF3E765
:10982000FFF772FFF0E7000010B50B4C2378BFF391
:109830005B8FDB070ED420461DF004FB50B10748B8
:10984000FFF734F920461DF009FB054A0549034896
:109850001DF097FB014810BD9C260020F425002038
:1098600080230020358B020010B50368022B88B0DE
:109870002CD0032B2FD0012B26D100244FF493732F
:1098800021460E220DF11200ADF804300294ADF81D
:109890000C401FF095F9ADF818407023104CADF84E
:1098A00010302378BFF35B8FDB0709D420461DF00F
:1098B000C9FA28B10B4802F061FB20461DF0CEFA30
:1098C00001A9084802F05EFB08B010BD00F0D0F816
:1098D00002F0BAF9F8E700F0CBF802F0B7F9F3E7D5
:1098E000A02600207825002007B501900138022825
:1098F00004D804210DEB0100FFF7B6FF03B05DF8BB
:1099000004FB10B50446FFF78FFF2146BDE8104069
:10991000FFF778BA13B50388212B044641D013D83A
:10992000112B09D8102B02D2013B012B0AD8302170
:109930002046FFF7E6FF05E01B2BF8D01D2B29D0B2
:10994000152BF4D002B010BD522BF0D011D83B2B08
:1099500035D0502BEBD0232BF4D100221146808838
:1099600000F080F80028EDD0204AAC210FF03DF93E
:10997000E8E7562B2ED0572BD9D0552BE2D14521D5
:10998000808800F071F80028DCD0184AB2210FF06E
:109990002CF9D7E7FFF748FF00222146FFF702FB2B
:1099A000D0E7002301A98088ADF8043000F058F812
:1099B0000028C7D00D4A9B210FF017F9C2E71321E9
:1099C000808800F04BF80028BCD0084AA1210FF095
:1099D0000CF9B7E71321808800F040F80028B1D0D7
:1099E000024AA7210FF001F9ACE700BFA99E0400CD
:1099F000704712F063B910B5044600F039F82146FB
:109A0000BDE8104002F0EAB8FFF7F5BF08B5064A16
:109A100014210FF045F828B1044AFF21BDE80840A1
:109A20000FF0E3B808BD00BF099A0200A99E040028
:109A300010B5044B03600446C06908B11DF011FA6B
:109A4000204610BD889E040010B50446FFF7F0FFC5
:109A5000204630211DF09AFA204610BD76DF70476F
:109A60008FDF704790DF7047B5DF704770470000A9
:109A700010B50B4C2378BFF35B8FDB070ED4204669
:109A80001DF0E0F950B1074801F068FD20461DF0D7
:109A9000E5F9054A054903481DF073FA014810BD70
:109AA000A82700207827002080230020319A020078
:109AB000392823D8322843D214280FD812283FD26D
:109AC000092803D8042898BF002070470B2836D3F4
:109AD0000C2835D9102818BF00207047252808D831
:109AE00021282DD2A0F117039BB2052B28BF0020FF
:109AF0007047A0F127039BB2092BF7E78B281FD0F3
:109B00000DD8832806D880281AD2A0F13B039BB237
:109B10000C2BEBE7A0F186039BB2042BE6E7B0F534
:109B20008E7F07D8B0F5807F0AD2A0F195039BB253
:109B3000022BDBE7A0F58F739BB2302BD6E700201A
:109B4000704700000388053B9BB2B3F5A47F9ABF22
:109B5000014AD05C00207047F49E0400008845381C
:109B600001288CBF0020012070470388802B03D17F
:109B7000081C18BF01207047012070470388222B62
:109B80001AD8212B2DD2102B2BD009D8052B26D358
:109B9000092B26D90B3B012B8CBFFF2000207047DF
:109BA000182B1ED002D8123B022BF5E71B2B08BF47
:109BB000002018BFFF2070473C2B08D83B2B10D249
:109BC000272B0CD32F2B0CD9323B072BE4E7422B4E
:109BD00005D3442B05D9962B08BF0120E9E7FF20C8
:109BE00070470020704703882F2B1CD8272B39D2B1
:109BF000142B11D8122B35D20C2B07D80B2B31D2AA
:109C0000053B042B8CBFFF2000207047102B08BFA2
:109C1000002018BFFF207047182B21D31B2B21D900
:109C2000213B012BEEE7832B0BD8802B1CD23C2B46
:109C300004D83B2B16D2323B072BE3E7423B022BE7
:109C4000E0E78B2B10D005D8873B012B8CBFFF2082
:109C500001207047952B07D0962B08BF0220D8E72C
:109C6000FF207047002070470120704700F18040BE
:109C700000F5E040002382B0036003680193019B7C
:109C800002B070470023435082B043580193019BB8
:109C900002B070477047704710B5402104461DF070
:109CA00075F9204610BD0000FF21C17601F5803115
:109CB0000B4AC1610B4902600022027180F820202A
:109CC00080F8302080F83620C0E90E22C0E90A2250
:109CD0000A6080F82120428480F82420704700BF69
:109CE00078A10400AC27002010B50B4C2378BFF3FB
:109CF0005B8FDB070ED420461DF0A4F850B1074857
:109D0000FFF7D2FF20461DF0A9F8054A0549034890
:109D10001DF037F9014810BDBC270020C0270020E6
:109D200080230020979C0200164A022310B5C2F837
:109D3000F0350023C2F8F4356FF00043C2F8083361
:109D40004FF48270FFF792FF0F4B4021802483F87D
:109D50000713C3F8804193F807134809EC21014128
:109D6000C90705D50949886850B10B6823430B60C2
:109D70000223C2F804330123C2F80035002010BDCD
:109D80001C60F5E70070004000E100E00065002085
:109D90008162704770B5C37F0246002B39D01D4DDC
:109DA0001D490226C5F808630023C377C37D01243B
:109DB00004FA03F3C1F80835837E184804FA03F364
:109DC000C1F80835164B1C60A3F580534FF4A07101
:109DD0001C60FFF757FF134B1C6092F8203073B1E3
:109DE00082F820604FF48A70FFF740FF2023C5F807
:109DF00004330D4B1C6092F82030002BFBD1002364
:109E000053774FF48270FFF731FF024B0222C3F801
:109E1000042370BD0070004000F00140009000403D
:109E200004A000400C90004008700040F8B54318B2
:109E300093F8213023B1294A4FF4E47111200CE04A
:109E4000274A0224C2F80843437F012B09D9C2F8EC
:109E50000443224A4FF4EA711320BDE8F8400EF0A3
:109E6000C4BE204D55F8216090F8205005F0FF0742
:109E7000FDB1012F1CD1057FFF2D05D0C2F8044391
:109E800040F2DF11154AD9E70133174A01774377CA
:109E90001368002BFCD04FF48070FFF7E7FE104BE7
:109EA000C822C3F82C66C3F830260222C3F8042364
:109EB000F8BD01252B44C1764377FF21C82380F8E4
:109EC00020500177C2F804434FF48070C2F82C662A
:109ED000C2F83036FFF7CAFE1560E9E7B3A0040008
:109EE00000700040AC2700200071004038B5C37FEF
:109EF000013B012B04460DD900F12102002325303E
:109F000012F8011B002918BF0B468242F8D113B189
:109F10000223E37738BDE17E0123FF29E37722D0D6
:109F2000257FFF2D204617D0FFF780FF29462046CA
:109F3000FFF77CFFE27D0F49012303FA02F2A377CA
:109F4000C1F804250C4A1360A27E03FA02F2C1F89C
:109F500004250A4A1360DDE7FFF768FFE17E01315F
:109F600001F00301E3E7064A4FF4DC7108200EF02C
:109F70003CFEDFE700F001400CA0004000900040F4
:109F8000B3A0040010B54218002482F82140C47F19
:109F9000022C05D10322C277FFF7A8FF012010BDD4
:109FA000012CFBD1023101F00301FFF73FFF014B10
:109FB0001C60F3E704A00040C162704743798B4204
:109FC0000FD901EB410100EB410113788B71D2F8FD
:109FD0000130C1F807305379CB720123037100209F
:109FE000704760207047000070B5164D90F8301033
:109FF000B0F93C3005EB01111B0443F47843C1F880
:10A000001C3590F83060072E044604D90E4940F202
:10A01000B9200EF055FE7600802303FA06F6C5F847
:10A02000086394F83040072C04D9074940F2B9205E
:10A030000EF046FE4023640003FA04F4014BC3F81B
:10A04000044370BD007000405EA00400072998BF63
:10A050000B4BC26398BF33F8113080F8301088BFC3
:10A060004FF4AA730729438696BF064B4FF4A87393
:10A0700033F811308386012380F83630FFF7B4BF00
:10A080003EA004004EA0040070B5164D90F83010AC
:10A09000838F05EB011143F07F6343F47023C1F814
:10A0A0001C3590F83060072E044604D90E4940F262
:10A0B000B9200EF005FE7600802303FA06F6C5F8F7
:10A0C000046394F83040072C04D9074940F2B920C2
:10A0D0000EF0F6FD4023640003FA04F4014BC3F8CC
:10A0E000084370BD007000405EA004002DE9F041FF
:10A0F0000546194EFFF7C8FFD5F82C80D6F8047531
:10A10000B8F1000F24D0D6F80825AC6B013200233B
:10A110004FF4182000211EF029FB4FF47A7200231F
:10A120001EF024FB3C1B24F07F44844210D9D6F857
:10A130000825002301324FF4282000211EF016FBD1
:10A140004FF47A7200231EF011FB844200D2C04704
:10A15000AF63BDE8F08100BF00B0004010B5044619
:10A16000FFF718FE2046BDE81040FFF7BFBE08B558
:10A17000FFF7BAFDBDE80840FFF7F0BFFFF7F7BFF4
:10A18000002108B5064A08460EF08AFC30B1054A9F
:10A1900040F2B321BDE808400EF027BD08BD00BF66
:10A1A0007DA10200B3A0040013B52F4B1B68044629
:10A1B00013B34FF48270FFF759FDE37E8DF807303B
:10A1C0002A4BD3F8343694F82010C9B201291DD196
:10A1D000637F013B6377237FFF2B19D1022300218B
:10A1E00084F82030224A08460EF05AFC20B1214A59
:10A1F0004FF435710EF0F9FC1F4B1B68B3B14FF4EF
:10A200008A70FFF733FD002384F8203002B010BDC0
:10A21000E376FF232377194A0DF107000EF040FC87
:10A220000028E9D0134A4FF43871E3E794F8363048
:10A23000002BEBD0608E00F1804303F5E0431B68F8
:10A2400023B1FFF713FD2046FFF7CEFEA08E00F1ED
:10A25000804303F5E0431B68002BD7D0FFF706FDD2
:10A260002046FFF743FFD1E7047100400070004033
:10A270006FA10200B3A0040014710040D7A6020031
:10A2800008B5FFF731FDBDE80840FFF78DBF704707
:10A2900008B5FFF729FDFFF773FF4FF4A0710248DF
:10A2A000BDE80840FFF7EEBC00A00040042914D030
:10A2B0000AD8012913D0A1B1022914D0032908BF5B
:10A2C000042018BF0020704706290ED00FD307299D
:10A2D0000FD0642908BF0920F3E70520704702204A
:10A2E0007047012070470320704707207047062001
:10A2F0007047082070472DE9F0411378072B8046FE
:10A300000C46174604D9642B02D0012009F03EFD0B
:10A310007B79083BDBB2F62B02D8012009F036FD31
:10A32000D7F80130962B33D9B3F5967F32D9B3F5F0
:10A33000167F31D9B3F5966F30D9B3F5E16F2FD9C8
:10A34000B3F5166F2ED940F6B83293428CBF002376
:10A3500001237979FF2927D04046FFF7A7FF012580
:10A36000064639784046FFF7A1FF22012D0502F18C
:10A37000804202F5E04245EA032343F40033C2F889
:10A380001835C2F81465C2F810050020BDE8F08148
:10A390000723DEE70623DCE70523DAE70423D8E713
:10A3A0000323D6E70223D4E700263546D9E7000089
:10A3B0002DE9F843421D0F460B460446103153F871
:10A3C000040B42F8040B8B42F9D11B7813707D4BC0
:10A3D0007D4D01221A60D5F8083543F00303C5F816
:10A3E0000835D5F8103523F00F03C5F81035D4F82B
:10A3F00012304FEA13794FEA0318B9F1010F08BF81
:10A40000B8F1000F04D3714940F2B1200EF058FCAE
:10A41000C5F84085D5F804356B48DFF8DC8123F0BA
:10A420000303C5F80435D5F8003243F00103C5F83D
:10A4300000324FF4A071FFF725FC4FF4A27162487F
:10A44000634DFFF71FFC4FF4A4715F48FFF71AFC40
:10A450004FF4A6715C48FFF715FC0C23A3755D4B08
:10A46000C5F87035A3F504533C3BC5F8743503F5C6
:10A4700040530433C5F84039A37D574A012606FAF4
:10A4800003F3C5F80435C8F80060D2F8083543F086
:10A490000303C2F808356179C823B3FBF1F3053B28
:10A4A000C2F84035D2F8043523F003033343C2F831
:10A4B000043510464FF4A071FFF7E4FB4FF4A2718E
:10A4C000FFF7E0FB4FF4A471FFF7DCFB4FF4A6713C
:10A4D000FFF7D8FBD2F8003243F48073C2F80032A1
:10A4E0000E2363763D4BC5F88035A3F589531C3B9D
:10A4F000C5F88435637E9E400F23C5F80465A376B6
:10A50000374B384EC5F888656021C5F88C85C5F88D
:10A510004C2983F80A1393F80A134809EC210141E6
:10A5200011F0010F154606D02F4A916859BB4FF420
:10A5300080621A6005E02D4ABF2142F202000EF04F
:10A5400054FB4FF48033C5F804330D23E375204BDF
:10A55000274AC3F878653946C3F87C252046FFF7BB
:10A56000E3FB18B1214AD3210EF03FFBA61D0025C5
:10A570006379AB420CDD3246E9B22046FFF7BBFE01
:10A5800001350636F4E7136843F480631360D8E7B7
:10A59000184F04F1210504F1250800264FF4C87076
:10A5A0001CF021FF47F8040B05F8016BA845F5D115
:10A5B00001232046E676237701F016FD0020BDE852
:10A5C000F88300BF0C90004000900040FAA0040007
:10A5D00000F001404091004000A0004040A1004038
:10A5E00000E100E00471004000650020B3A0040019
:10A5F00000700040AC2700200CA0004070B504465D
:10A60000861D00256379AB4207DD3246E9B220465C
:10A61000FFF771FE01350636F4E70F4D2B78BFF3D7
:10A620005B8FDB070ED428461CF00CFC50B10B48A6
:10A6300004F000FD28461CF011FC094A09490748AE
:10A640001CF09FFC1123621D42F27471034804F058
:10A650004BFD0023237170BD4427002048270020B4
:10A6600080230020FD82020070B5836A88B0044612
:10A670000E466BB34318012283F82120837FABB1D0
:10A68000002540F241130E2229460DF11200ADF8CB
:10A6900004300295ADF80C501EF092FA702301A818
:10A6A000ADF81030ADF8185001F04CFC0023A37742
:10A6B000237943B12046FFF76DFB2046FFF79EFF4D
:10A6C0002046FFF713FCA36A3046984708B070BDD8
:10A6D000FFF758FCFAE710B50446FFF705FB2178B1
:10A6E000BDE81040FFF7C0BF036800791847704706
:10A6F00030B52DED028BB4EEE00AF1EE10FA85B024
:10A7000005460C46F0EE408AB0EE608A04DB504A03
:10A71000222121200EF069FA4E4BD3F80435AB60AC
:10A7200018EE900A1DF074FB43A3D3E900231DF03B
:10A7300057FE002860D0DFED487A68EEA77A17EE62
:10A74000900A1DF065FB3EA3D3E900231DF002FA39
:10A750003DA3D3E900231DF0DDFC00223F4B1DF09B
:10A76000F7F91DF085FEC5B218EE100A1DF050FB7A
:10A7700031A3D3E900231DF033FEC0B1DFED367AFB
:10A7800068EE277A17EE900A1DF042FB2CA3D3E95E
:10A7900000231DF0DFF92CA3D3E900231DF0BAFC40
:10A7A00000222E4B1DF0D4F91DF062FEC0B2002332
:10A7B00004210622072C8DF804108DF806308DF840
:10A7C00007508DF808008DF80930ADF80A308DF883
:10A7D0000D2013D91E4A3B2121200EF006FA2049F4
:10A7E00001A80EF08DFC18B1194A59210EF0FDF99F
:10A7F00005B0BDEC028B30BD0546B5E7013C062C2B
:10A8000006D8DFE804F004080A0C0F111400012335
:10A810008DF80C30E3E70223FAE70323F8E78DF81D
:10A820000C10DCE70523F3E78DF80C20D7E70723AE
:10A83000EEE700BFAFF30080666666666666AA3F15
:10A84000666666666666FA3F6666666666660A40BD
:10A850008CA1040000B00040000080420000F03FE6
:10A8600011A902000139CBB2032B05D8034A0021FC
:10A8700032F813000EF0CCBC704700BF84A1040076
:10A880000EF0E4BC38B50B88A3F5807304460C2B9E
:10A8900036D8DFE803F0093535350735353531353C
:10A8A0003535330002232371236823B3154BD3F8C6
:10A8B0000455D3F80825A3680132ED1A4FF4481067
:10A8C000002300211DF052FF4FF47A7200231DF087
:10A8D0004DFF25F07F45854209D90B4A08212046C6
:10A8E0000EF0DEF818B1094AA0210EF07EF9054BF2
:10A8F000D3F80435A36038BD0123D4E70423D2E79D
:10A900000023D0E700B00040E9A602008CA10400BB
:10A9100013B50B4CADF806002378BFF35B8FDB0754
:10A9200006D420461CF08EFA10B120461CF096FA90
:10A930000DF106010348FFF7A5FF02B010BD00BFEF
:10A9400000280020042800201F2810B5044604D940
:10A9500005494FF4F3700EF0B3F901204FF0A04316
:10A96000A040C3F80C0510BD38A204001F2810B584
:10A97000044604D905494FF4F3700EF0A1F9012003
:10A980004FF0A043A040C3F8080510BD38A2040052
:10A9900038B5094D2C78BFF35B8F14F0010409D151
:10A9A00028461CF04FFA28B1044B28461C839C769D
:10A9B0001CF054FA014838BD102800201828002047
:10A9C000002202838276704708B5094A012313608A
:10A9D0004376837E5BB10021064A08460EF060F89C
:10A9E00028B1054AC221BDE808400EF0FEB808BDF6
:10A9F00000B00140D3AE0200F1A1040038B5037EDF
:10AA000004460D4613B9012009F0C0F9A57615B921
:10AA10002046FFF7D9FF002038BD0000064B00227A
:10AA20001A6082B01B680193019B044B4FF4001223
:10AA3000C3F8042302B0704754B1014000B0014094
:10AA40002DE9F84F037E0446002B00F08480437EFE
:10AA500033B9837E002B7ED0BDE8F84FFFF7B4BF3B
:10AA60003E4B01221A60D3F80025C56956424FF0CB
:10AA700000034FEA550063EB43074FF000094042E3
:10AA800069EB4901864277EB0101A84602DAAE1A6A
:10AA900069EB0307D4E91432B3EB060A62EB070B48
:10AAA0004FF47A72A5FB0223524573EB0B01B4BF3E
:10AAB000C4E91423C4E914ABD4E91401524263EB92
:10AAC000430390429941B8BFC4E91423636C0A213F
:10AAD00001336364B3FBF1F201FB1233C4E9126783
:10AAE000CBBB4FF47A720023D4E914011DF0EEFDC4
:10AAF0004FF4C87282468B460023404649461DF0FB
:10AB0000E5FD02460B46504659461DF0DFFD144A4E
:10AB100082464FF0FF33404649461DF0D7FD0246BE
:10AB20000B46304639461DF0D1FD00230AEB0006E6
:10AB30004946404678221DF0C9FD8642A8BF064618
:10AB40004042B042ACBF2D18AD1925622046BDE889
:10AB5000F84FFFF763BFBDE8F88F00BF4CB001406E
:10AB600070FEFFFF08448AB190F83B30890001F184
:10AB7000804101F5C0411B05D1F8142503F4801371
:10AB800022F480121343C1F81435704790F83D3019
:10AB9000ECE70000052908B50AD9012009F0F6F80C
:10ABA0000720054A40F216210EF01FF8002008BDCC
:10ABB000024B585CFBE700BFF1A10400D4A10400E4
:10ABC00010B51446FFF7E6FF024B00F5A87043F8F6
:10ABD000204010BD00B00140026A0521FFF7F0BF20
:10ABE000072908B50AD9012009F0D0F80720054A3D
:10ABF00040F22E210DF0F9FF002008BD024B585CF9
:10AC0000FBE700BFF1A10400DAA104002DE9F74F32
:10AC10001346027E05460C4622B1427E2AB900EB5D
:10AC20008104636203B0BDE8F08F0FFA81FB00EB93
:10AC30008B07642BD7F81090984603F1FF3228BF9A
:10AC40004FF06408B9F1000F02D0B9F1640F6DD173
:10AC500092B2622A0AD9632B94BF002201222146B4
:10AC60002846FFF77FFFC7F81080DBE7EB69DFF8C6
:10AC700048A2642203FB08F3B3FBF2F3FB6295F8EE
:10AC80003830012606FA03F3CAF8083595F839304A
:10AC900006FA03F3CAF808352146FA6A2846FFF790
:10ACA0008FFF95F83A3003F5007300224AF823200D
:10ACB00095F83A309B0005EB4B0B03F1804303F50D
:10ACC000F8339BF83420D3F8001806FA02F20A434E
:10ACD000C3F8002895F83A309BF835209B0003F123
:10ACE000804303F5F83306FA02F2D3F800180A435A
:10ACF000C3F80028B9F1000F95F8383018BF0524C3
:10AD00005034A400DB00A4B203F1804303F5F83310
:10AD100004F1804404F5D834C3F81045C3F814A5F1
:10AD200095F838309E40CAF804659CE790F838C022
:10AD3000DFF884A192B20126622A06FA0CFC4CD9F3
:10AD40000193CAF808C590F8392006FA02F2CAF849
:10AD50000825FA6AFFF734FF95F83A2002F50072E9
:10AD600000214AF8221095F83A20019B920005EB49
:10AD70004B0B02F1804202F5F8329BF83410D2F806
:10AD8000000806FA01F10143C2F8001895F83A20CC
:10AD90009BF83510920002F1804202F5F83206FA73
:10ADA00001F1D2F800080143C2F80018002B95F811
:10ADB000382018BF05245034D300A400A4B203F1F6
:10ADC000804303F5F83304F1804404F5D834394A5C
:10ADD000C3F81045C3F81425A2E7C369642203FB36
:10ADE00008F3B3FBF2F3FB62CAF808C590F83930F8
:10ADF00006FA03F3CAF8083590F83A3003F5007301
:10AE000000224AF8232090F83A3090F83820DFF8F2
:10AE1000ACA09B0003F1804303F5F83306FA02F27D
:10AE2000D3F800180A43C3F8002890F8382004F13A
:10AE300010039B00D200DBB202F1804202F5F8322F
:10AE400003F1804303F5D833C145C2F810A5C2F819
:10AE5000143522D9611C90F83990C9B2FFF7C0FEB1
:10AE60004FEAC90303F1804303F5F83300F1804052
:10AE700000F5C040C3F810A5C3F8140595F83A30A2
:10AE800095F839109B0003F1804303F5F8338E40A9
:10AE9000D3F800281643C3F80068FA6A042128464C
:10AEA000FFF78EFE95F83A20034B012143F832104C
:10AEB000D9E600BF04F0014000F0014050B101406C
:10AEC000426A0369934203D092B20021FFF79EBE0B
:10AED000704708B5FFF75CFDBDE80840FFF7F0BF1D
:10AEE0000F2910B50C4602D9012008F04FFF013C94
:10AEF000E4B20E2C96BF024B0020185D10BD00BFBF
:10AF0000E2A104002DE9F84F0EB2B40000EB0409F1
:10AF1000074699F80830B9F806000D469246002B0E
:10AF200000F08880FFF722FD4FF00008C9F810807C
:10AF3000C9F824809AF8023007EB050983F0010173
:10AF400089F83B1004F1804404F5C0449AF80230BB
:10AF500089F83D30D4F81425BAF8003022F498125C
:10AF600022F4F852C4F81425D4F814251B0203F473
:10AF7000F853134343EA01534FEA450A43F440337D
:10AF80005FFA8AFAC4F8143551463846FFF7A8FF2D
:10AF9000760007EB060B0AF101018BF83400C9B209
:10AFA0003846FFF79DFF01363E44AB0086F834007B
:10AFB00001359BF834A0DFF888B0EDB22946384659
:10AFC0009B44FFF70DFE4FEACA0303F1804303F5EC
:10AFD000F83300F1804000F5C040C3F810B5C3F865
:10AFE000140596F8346029463846FFF7F9FDF3005A
:10AFF00003F1804303F5F83300F1804000F5C040D1
:10B000000E4AC3F81025C3F8140599F83D30D4F85A
:10B0100014251B0522F4801203F480131343C4F893
:10B020001435D4F8143543F00303C4F814354046FE
:10B03000BDE8F88FFFF788FC76E700BF54B1014008
:10B0400040B10140F0B504460FC984E80F004E4BF3
:10B050004E4D01221A60D5F8083543F00303C5F8B8
:10B060000835D5F8103523F00F0343F00203C5F877
:10B070001035236819011A0F8E089F0F46EA827651
:10B08000012F08BF002E87B004D3414940F2B12000
:10B090000DF016FEE661C5F85465D5F804353D4A55
:10B0A00023F00303C5F80435D5F8003243F020033C
:10B0B000C5F800320025156012680592059A364AD7
:10B0C000156012680492049A344A1560126803925B
:10B0D000039A334A156012680292029A314A156047
:10B0E00012680192019A304A156012680092009A23
:10B0F0002379E9B28B4207D904EB8102063220465C
:10B10000FFF700FF0135F3E7590001F0FE0120468B
:10B11000FFF7E6FE217984F8380049000131C9B211
:10B120002046FFF7DDFE002384F83A301F4B84F8F9
:10B130003900402283F81B2393F81B235109EC228A
:10B140000A41D20706D51A4A9168B9B94FF0006290
:10B150001A6005E0174A582142F202000DF045FD41
:10B16000E3692362002200230020C4E91423C4E918
:10B17000122301236064237607B0F0BD136843F007
:10B1800000631360ECE700BF0CB0014000B0014069
:10B19000FAA0040040B1014044B1014048B101406F
:10B1A0004CB1014050B1014054B1014000E100E018
:10B1B00000650020F1A1040008B5054B4FF4001212
:10B1C000C3F80823FFF7E4FBBDE80840FFF704BD20
:10B1D00000B0014030DF704731DF7047002303606B
:10B1E0007047000073B500230F4E8DF807300546F9
:10B1F0000C469DF80730A3420AD20DF10700FFF775
:10B20000E9FF0028F5D0324614210DF0EEFCF0E7FE
:10B2100021462846FFF7E0FF18B1034A17210DF039
:10B22000E4FC02B070BD00BF8CA2040037B500235F
:10B23000134D8DF8073004469DF80730012B0AD8CE
:10B240000DF10700FFF7C6FF0028F5D02A4634218C
:10B250000DF0CBFCF0E702212046FFF7BDFF18B14F
:10B26000074A39210DF0C1FC23784FF0000063F349
:10B270000700637863F30F2080B203B030BD00BFD6
:10B280008CA2040010B50B4C2378BFF35B8FDB0757
:10B290000ED420461BF0D6FD50B1074803F0CAFE7D
:10B2A00020461BF0DBFD054A054903481BF069FEFB
:10B2B000014810BD4427002048270020802300209B
:10B2C000FD820200024B1870024B1970704700BFDC
:10B2D000742800207528002008B5134B1A7812BB7B
:10B2E00001221A70FFF7CEFF03F0B0FE0F4B602271
:10B2F00083F8022393F802235109EC220A41D20772
:10B3000005D50B4A916851B904221A600BE0094A2D
:10B31000512142F20200BDE808400DF066BC1368FE
:10B3200043F00403136008BD7028002000E100E032
:10B3300000650020D3A204000A4B1A7882B90122CA
:10B340001A70094B1A78094BC3F81425084A127869
:10B35000C3F80C25074AC3F824250422C3F80025A6
:10B36000704700BF73280020742800200020004090
:10B370007528002000B0AF03044A137823B10023DE
:10B380001370034AC2F80035704700BF73280020CD
:10B3900000200040064B1A7842B901211970054B74
:10B3A0000420C3F804031960C3F80821704700BFE4
:10B3B0007128002000200040084B1A786AB1002252
:10B3C0001A70074B0749C3F808130121D960C3F865
:10B3D0000821C3F82421C3F84421704771280020B4
:10B3E0000020004004020200044B1A782AB901210F
:10B3F0001970034B9960C3F81C2170477228002014
:10B4000000200040054B1A7832B100221A70044B1C
:10B410000121D960C3F81C21704700BF72280020A9
:10B4200000200040114B10B504461870FFF754FF80
:10B43000012C0BD014B1032C10D010BDFFF7BCFFB2
:10B44000FFF7E0FFBDE81040FFF796BFFFF774FF7E
:10B45000FFF7A0FFBDE81040FFF7D4BFFFF76CFF78
:10B46000FFF798FFBDE81040FFF7BEBF7628002029
:10B47000FFF7D8BF014B1878704700BF762800202F
:10B48000054B0022C3F81C21C3F81C05D3F81C216E
:10B49000012AFBD1704700BF00200040F8B50C4BDB
:10B4A0001B7806460F468BB10025AF420EDD745D5A
:10B4B0005C2C01D07E2C04D15C20FFF7E1FF84F0EE
:10B4C00040042046FFF7DCFF0135EEE7F8BD00BF82
:10B4D0007228002008B5034B1B7813B17E20FFF7BC
:10B4E000CFFF08BD7228002013B5144BD3F82421D8
:10B4F0001AB1D3F8043398050AD4114A0F4B1168D6
:10B5000019B1D3F80413490704D4D3F8442192B9EC
:10B5100002B010BD0021116012680192094C019A1D
:10B52000D3F818352370FFF7ADFE217802B0BDE8DF
:10B53000104003F0EDBDD3F80433E9E700200040EC
:10B54000082100407728002028DF704710B500232D
:10B5500004461A46FDF71AFF204610BD10B50A4BE7
:10B560000360002304468380836043610376C0E95F
:10B570000733C0E90933C362FCF7C8FE214600F077
:10B5800019FD204610BD00BF889E040010B504467A
:10B590000DF080FC23790BB1002010BD637953B905
:10B5A00009480CF04DFE20B10E2809D94FF6FF7066
:10B5B000F3E7012363710CF06BFE0028ECD0F3E796
:10B5C000024B185680B2E8E70D9A02001DA3040052
:10B5D00081607047F0B54B1E17469BB24BF6FD726B
:10B5E000934287B00E4619D800F10C052A4603A9EC
:10B5F00030460DF006F878B901A903A80CF03CFF1D
:10B6000004460028F2D1019B9B883B8003A80CF0E4
:10B610006FFF204607B0F0BD2520FBE72120F9E7AA
:10B6200070B586B001AD85E80E00284604A9BDF8C6
:10B630002C600CF021FF0446C0B9049AF31C23F0DF
:10B64000030351889BB2B3EB810F0DD10C9B928801
:10B650001A8005990A9832461DF08AFA28460CF09D
:10B6600047FF204606B070BD2024F7E70E289BBF99
:10B67000024B1C564FF6FF74A4B2F2E71DA3040060
:10B68000F0B5054687B000F10C07394603A80CF069
:10B69000A5FF40BB01A903A80CF0EEFE38B10D28B0
:10B6A00018D00E2826D94FF6FF7007B0F0BD019BC9
:10B6B0001E889C8803A80CF01BFF3046FEF7F8F9A3
:10B6C000E11EADF80200C9B20DF10200FEF74DFA1D
:10B6D0000028DAD003A80CF039FF0028E5D00828AC
:10B6E000DFD12720E1E70CF055FF0028D9D1012355
:10B6F000AB75DAE7014B185680B2D6E71DA30400FC
:10B70000836A33B1C06A28B183428CBF0020012014
:10B71000704718467047000010B5826A88B004462A
:10B7200072B1C36A63B19A420AD80BD140F23D119B
:10B7300001A8FFF70BFFFCF7E9FD01A900F022FCCF
:10B7400008B010BDA06AFFF7FFFE1128FAD020B1A3
:10B75000044A40F26A210DF048FAA36A0133A36259
:10B76000EEE700BF2CA304002DE9F0410379064663
:10B77000E3B9FFF7C5FFC8B94FF080531C690CF05F
:10B7800075FDA0F58045B5FBF4F8B0FBF4F4A045D9
:10B79000074605D90A4A4FF4107110200DF025FA1A
:10B7A0002B68013305D10435BD42F9D14020BDE8F5
:10B7B000F0813046C6E90A84FFF7AEFF0020F6E7C5
:10B7C0002CA30400F8B50A88D41C24F00304A4B206
:10B7D000A21A20460E4695B21DF0ACF907463088F5
:10B7E0002A46FF2138441DF0EBF934803846F8BD75
:10B7F00010B50822044600210C301DF0E1F90023A9
:10B80000A38210BD2DE9F843089C054699460F46D2
:10B810009046FFF7EDFF002323700C3501262B46E1
:10B820004A46414638460CF0DFFE20B92378002B0B
:10B83000F5D12670F3E70020BDE8F88338B504465B
:10B84000D0E9070290420DD0034633F8025B8D42E7
:10B8500009D19A4203D0D21A19461DF097F9236AEA
:10B86000023B236238BD1846ECE710B5837D73B9FF
:10B87000C37D63B9037E53B9D0E9072494421046CF
:10B8800005D00088884202F10202F7D10123184650
:10B8900010BD73B5037904460D4616469BB1FFF7FC
:10B8A000E4FF90B92046FFF7A3FFA5820DF1060241
:10B8B00029462046FFF78EFE18B99DF80630033B57
:10B8C000337002B070BD4320FBE72720F9E773B562
:10B8D000037904460E4615468BB1FFF7C6FF80B9C3
:10B8E000A18AB1420FD10DF106022046FFF772FE88
:10B8F00018B99DF80630033B2B7002B070BD432091
:10B90000FBE72720F9E72820F7E72DE9F04F90F82B
:10B9100004A089B006468846BAF1000F39D08B786A
:10B92000B1F800900333ADF8123009F1FF339BB248
:10B930004BF6FD7293422ED84946FFF796FF054617
:10B9400058BB3046FFF754FF252406F10C0B05AF1A
:10B950005B463A464946BDF812000CF045FE88B9F0
:10B960000DF112030293B8F807300193D8F80330B1
:10B97000009397E80E003046FFF752FE041E08BF02
:10B980005546E5E7002D18BF0024204609B0BDE864
:10B99000F08F4324F9E72124F7E72724F5E72DE981
:10B9A000F04790F8049088B006468846B9F1000F39
:10B9B00034D0098801238029ADF8123030D198F8AD
:10B9C00002306BBBFFF751FF054658BB3046FFF70F
:10B9D0000FFF252406F10C0A05AF53463A46802195
:10B9E000BDF812000CF000FE88B90DF112030293AD
:10B9F000B8F807300193D8F80330009397E80E00A9
:10BA00003046FFF70DFE041E08BF4D46E5E7002D4A
:10BA100018BF0024204608B0BDE8F0874324F9E7AA
:10BA20002124F7E72724F5E7837D43B9C37D33B9A4
:10BA3000037E23B9D0E907301B1A18BF012318462B
:10BA4000704710B50379044663B1FFF7EDFF58B9AD
:10BA50002046FFF7CDFE2046FFF712FE08B901236E
:10BA6000237610BD4320FCE72720FAE710B50379C1
:10BA700004465BB10DF00EFA2046FFF7D5FF38B94A
:10BA80000CF088FD08B90123A37510BD4320FCE725
:10BA90000E20FAE708B5FFF7E9FF0E289BBF034B1E
:10BAA00018564FF6FF7080B208BD00BF1DA30400FA
:10BAB00030B50C4689B0C9890546FFF7BFFE227B29
:10BAC0006368E189ADF80010033AD2B28DF8022024
:10BAD0006BB94FF49C7103236A4601A8FDF756FC2D
