:020000021000EC
:10C0000000000120D5C001005DC4010075C8010019
:10C010005DC401005DC401005DC4010000000000BA
:10C020000000000000000000000000005DC40100EE
:10C030005DC40100000000005DC401005DC401009A
:10C040005DC401005DC4010029E601005DC401007A
:10C050005DC401005DC401005DC40100A5F30100E1
:10C060005DC40100B3F30100B5F301005DC401003C
:10C070005DC401005DC401005DC401005DC4010038
:10C080005DC4010031DC020059AC0200D1040300A0
:10C09000F1DC02005DC401000D1603005DC4010067
:10C0A0005DC401005DC401005DC40100F5ED010047
:10C0B0005DC401005DC401005DC401005DC40100F8
:10C0C0005DC401005DC401005DC401005DC40100E8
:10C0D0005DC401004FF0804307B50022C3F804217E
:10C0E00001221A601A46D2F800114FF0804300294D
:10C0F000F9D00222C3F8182501229A60D3F804214E
:10C10000002AFBD04FF0804301229A671749184B51
:10C11000184801930022834205D251F8042F43F8B6
:10C12000042B0122F7E702B10193019A1249134847
:10C13000114B8A4202D242F8040BF9E7002210495F
:10C14000019310468B4203D243F8040B0122F9E716
:10C1500002B1019302AB094953F8042D9A4202D26D
:10C1600042F8041BFAE713F0B5FCFEE7F0E9030020
:10C17000B8260020AC2F0020B02F0020EFBEADDE8F
:10C18000086E0020FFFFFFFFFFFFFFFFFFFFFFFF25
:10C19000FFFFFFFFFFFFFFFFFFFFFFFFFFFFFFFFAF
:10C1A000FFFFFFFFFFFFFFFFFFFFFFFFFFFFFFFF9F
:10C1B000FFFFFFFFFFFFFFFFFFFFFFFFFFFFFFFF8F
:10C1C000FFFFFFFFFFFFFFFFFFFFFFFFFFFFFFFF7F
:10C4000010B5054C237833B9044B13B10448AFF38E
:10C4100000800123237010BDB02F00200000000019
:10C42000F4E90300084B10B51BB108490848AFF305
:10C4300000800848036803B910BD074B002BFBD0F0
:10C44000BDE81040184700BF00000000B42F0020D6
:10C45000F4E90300AC2F0020000000007047FFFF4C
:10C460000823037106234371072383710223C371D9
:10C470000123837214234373132383730A23C37327
:10C4800009230374437C03F0F00343F0090303F032
:10C49000CF036FF3861343740D4B83610D4B4361E0
:10C4A00040F2C973C36140F2BC7303624FF45B6333
:10C4B00043624FF496638362C362074B4363074B47
:10C4C00083630322EC230273827480F83030704758
:10C4D000CDCC4C3EE02D903B5C8F423F85EBD13E76
:10C4E0000823037106234371072383710223C37159
:10C4F000012383720023C3721423437313238373B2
:10C500000A23C37309230374437C03F0C00343F07D
:10C51000690343740E4B83610E4B43616FF06203FA
:10C52000C361AB3B03624FF4FA5343624FF496632B
:10C5300083624FF41673C362074B43634FF07A5321
:10C5400003228363EC230273827480F830307047D7
:10C55000A01A2F3E27A0893B3333333F08230371B2
:10C56000062343714372022383720023C372142390
:10C570004373132383730A23C37309230374437C14
:10C5800003F0C00343F069034374124B8361124B01
:10C5900043616FF06203C361AB3B03624FF4FA5334
:10C5A00043624FF49663072283624FF416738271DD
:10C5B000C3620422094BC271436305224FF07A53D0
:10C5C000027283630322EC230273827480F830309A
:10C5D000704700BFA01A2F3E27A0893B3333333F5B
:10C5E0000823037106234371072383710223C37158
:10C5F0000323037314234373132383730A23C37323
:10C6000009230374437C03F0F00343F0090303F0B0
:10C61000CF036FF3861343740D4B83610D4B43615E
:10C6200040F2D373C36140F2CD73036240F2DC5336
:10C6300043624FF496638362C362074B4363074BC5
:10C6400083630122EC238272827480F83030704759
:10C65000CDCC4C3EBC74933B5C8F423F85EBD13ECE
:10C660000823037106234371072383710223C371D7
:10C670000023C372032303731423437313238373AD
:10C680000A23C37309230374437C03F0C00343F0FC
:10C69000690343740E4B83610E4B43616FF0620379
:10C6A000C361AB3B03624FF4FA5343624FF49663AA
:10C6B00083624FF41673C362074B43634FF07A53A0
:10C6C00001228363EC238272827480F830307047D9
:10C6D000A01A2F3E27A0893B3333333F1123037128
:10C6E0000B2343710C238371022383720423C372CF
:10C6F00008234373062383731323C3731423037420
:10C70000437C03F0FE0343F01E03002203F0DF032B
:10C7100062F3861343740023836143614FF47A7399
:10C72000C36103624FF461638362C3624FF080436D
:10C7300043634FF07E5301218363D823C171027399
:10C740008174426280F83030704710B5FFF7C6FF41
:10C750000423837410BD192343731A238373437C0A
:10C7600003F0F8036FF3C303437402238374EC23D1
:10C7700080F83030704738B54FF010230546D3F8B5
:10C780008440631C33D0B4F57B7F11D8B4F57A7F35
:10C7900027D2642C31D006D8A4F12803012B2FD83E
:10C7A000FFF79CFF31E0C82C2AD1FFF7CEFF2CE029
:10C7B00040F2DE539C420ED840F2DC539C4218D229
:10C7C00040F2ED339C420FD040F2EE339C4217D141
:10C7D000FFF7C4FE19E0B4F5BC6F11D8FFF740FFB6
:10C7E00013E0FFF73DFE10E0FFF77AFE0DE040F2A8
:10C7F000DE542846FFF7F4FE07E0FFF7ACFF04E045
:10C800002846FFF7EDFE072038BD2C60002038BD1C
:10C810008EB0036800934368019383680293C368F2
:10C820000393036904934369059383690693C3697A
:10C8300007930A4B1B680893094B1B680993094B24
:10C840001B680A93084B1B680B93084B1B680D93DE
:10C85000074B1B680C9300BE0EB0704728ED00E03C
:10C860002CED00E030ED00E03CED00E034ED00E0C8
:10C8700038ED00E004207146084203D0EFF3098050
:10C88000FFF7C6BFEFF30880FFF7C2BF30B5002443
:10C890001C6001380B4615685C1AA54207D910F8D0
:10C8A000015F03F8015B0578002DF4D114600846A0
:10C8B00030BD82B089B2ADF8061000BEFEE782B08E
:10C8C00089B20190ADF8021000BEFEE782B00023ED
:10C8D0000190ADF8023000BEFEE7FFFF024B1622CA
:10C8E0001A604FF0FF307047046E0020FEE7012011
:10C8F00070474FF0FF3070470020704701207047AD
:10C90000002070470020704710467047064A0749CC
:10C9100013681844884203D300BE4FF0FF307047BD
:10C9200010601846704700BFBC26002028BC0020BD
:10C930007047704710B5044614F0A6FE204610BD9F
:10C94000002200F5C2710270C0F87C11C0F880218D
:10C9500080F88421C0F89421C0F8982170473829C4
:10C960001ED8DFE801F02A1D1D1F212321212F1FC2
:10C970001D1F21251F1F212121211F1F211D313195
:10C980003131311D1D1D1D1D212F2F2F1D21212155
:10C990001F2323232323212321212323313131006A
:10C9A00024207047012B04E0022B02E0042B00E05E
:10C9B000062B0CBF002020207047202B34BF002006
:10C9C00020207047102BF4E75120704738299ABF78
:10C9D000014B585C0020704774B1030008B50B464A
:10C9E0001C2B114630D012D8192B23D006D8182B67
:10C9F0003CD100230122D0F83C0133E01A2B1ED099
:10CA00001B2B33D100231A46D0F848012AE0362BDD
:10CA10001FD006D8262B29D100231A46D0F854015E
:10CA200020E0372B1AD0382B20D100231A46D0F81B
:10CA3000780117E000230122D0F8400112E0002322
:10CA40000122D0F844010DE000231A46D0F84C0131
:10CA500008E000231A46D0F8700103E00023D0F864
:10CA600074011A4601F012FA012008BD002008BD29
:10CA7000262907B508D003D8A1F11803042B02E03A
:10CA8000A1F13603022B06D80DF10702FFF7A6FF2E
:10CA90009DF8070000E0002003B05DF804FB07B537
:10CAA0004FF4B8730093021D00F10C0306CAD0F8CE
:10CAB000940101F09DFB03B05DF804FB70B5134DCC
:10CAC0002B68DB0704460E460ED4284615F06CFC96
:10CAD00050B10F4801F0B6FA284615F081FC0D4A16
:10CAE0000D490B4814F0CAFD0948C4F894010379B4
:10CAF000C4F8986143B1221D002101F013FB2046C8
:10CB0000FFF7CDFF0123237070BD00BF4C30002024
:10CB100050300020B826002031C901007FB50446FE
:10CB20000D4616460C3001F05DF98DE860000123DA
:10CB30000293221D034606CAD4F8940101F0CAFBF1
:10CB400004B070BDF8B5164605460C461F46FFF703
:10CB50008FFFB04238D01C2C24D00ED8192C1BD0FB
:10CB600004D8182C32D105F59E7423E01A2C16D067
:10CB70001B2C2BD105F5A4741CE0362C15D004D841
:10CB8000262C23D105F5AA7414E0372C10D0382CAC
:10CB90001CD105F5BC740DE005F5A0740AE005F59F
:10CBA000A27407E005F5A67404E005F5B87401E089
:10CBB00005F5BA742146304601F066F927B1042222
:10CBC00021462846FFF7AAFF0120F8BD0020F8BD46
:10CBD00007B54FF4B8730093021D00F10C0306CAA9
:10CBE000D0F8940101F0E2FB03B05DF804FB1C22D5
:10CBF00000F17001FFF792BF094B994210B504464E
:10CC00000DD10021D0F8940101F0CEFA04F10C000E
:10CC10004FF4B872FF21BDE8104019F0A9BF10BD54
:10CC2000EFBEADDE38B50446084611461A469DF8FB
:10CC3000103063B923461D1B954208D213F8015BDF
:10CC4000FF2DF8D0214619F095FE002006E011B125
:10CC500019F090FE01E019F08BFF012080F0010037
:10CC600038BDFFFF70B58EB01D46044616469DF8D0
:10CC70004830352900F24281DFE811F036004001EA
:10CC800040014500490017014F00550059006D0053
:10CC90004001730078007D0085008A008F009500B8
:10CCA0009B00A100A700AC00B3004001400140017F
:10CCB000400140014001400140014001400140016C
:10CCC000B900BE00C400CA004001D000D500DA009F
:10CCD000DF00E900F200FB0002010901400112013E
:10CCE0001F0125012B0137018649039306A81AF07D
:10CCF000E5FB039B009306AA2B46314604F10C008A
:10CD000001F08CF8EFE000223146C06E66E04FF48F
:10CD100096723146D0F8900002E0006F0022314652
:10CD200001F0C6F8DFE000223146406FF8E7764AAE
:10CD30000393002504A906A80492ADF814508DF8B9
:10CD4000165003F053F9039B009306AA10233146B3
:10CD500004F1780014E06FF03B023146D0F888000F
:10CD600072E004223146D0F894006DE0A0223146F2
:10CD7000D0F89800D4E7654A0093314606239C30EA
:10CD8000FFF750FFAFE002223146D0F8A4005BE08D
:10CD90000A223146D0F8A80056E04FF4FA62314634
:10CDA000D0F8AC00BCE74FF47A723146D0F8B0004E
:10CDB000B6E741F658323146D0F8B400B0E74FF448
:10CDC000C8723146D0F8B800AAE74B223146D0F8F5
:10CDD000BC0039E0D0F8C0000322314601F056F81B
:10CDE00081E04FF4B4723146D0F8C40098E70022D5
:10CDF0003146D0F8D40093E7009300221023314647
:10CE0000D830BDE70093002210233146E830B7E761
:10CE10000093002210233146F830B1E7A0223146BA
:10CE2000D0F818017CE79E223146D0F81C0177E744
:10CE30000F223146D0F8200172E7D0F89821D0F8BF
:10CE4000240192F93020314601F029F84BE0D0F866
:10CE5000982194ED4A0AD2ED060A1946304640E080
:10CE6000D0F8982194ED4B0AD2ED050A19463046C8
:10CE700037E0D0F89821D0F83001D26931460CE083
:10CE8000D0F89821D0F83401126A314605E0D0F884
:10CE90009821D0F83801526A314601F01FF822E09B
:10CEA0001B4AD0F85C01314604E0D0F8600142F240
:10CEB0001072314601F007F815E04FF47A5231460E
:10CEC000D0F88C002CE74FF47A723146D0F8640128
:10CED00026E7D0F8982194ED5A0AD2ED0D0A1946AA
:10CEE000304601F019F8002009E0D0F8982194EDBF
:10CEF0005B0AD2ED0E0A19463046F2E724200EB046
:10CF000070BD00BFADB10300B3B10300D8B10300E1
:10CF10009EA641A62DE9F043382985B098BF1C4B49
:10CF200098BF5B5C02AF88BF002304460D461646DF
:10CF3000FB8043B3FFF7B3FD07F10803E84633F87E
:10CF4000022D073222F00702ADEB020D0DF10809A8
:10CF50000022009220464A462946FFF783FE0446F7
:10CF600070B97268FB88101D08D031698B4205D8F2
:10CF70005380F26849465A4319F0FCFC73681D70EF
:10CF80002046C54600E024200C37BD46BDE8F083AE
:10CF900074B1030030B585B004AC002524F8025DFF
:10CFA00000932346FFF75EFE05B030BD10B4034684
:10CFB00008461946CC1AA24208D911F8014BFF2C99
:10CFC000F8D019465DF8044B19F0D4BC5DF8044B59
:10CFD0007047FFFF2DE9F04389B01F46064688469B
:10CFE0001546BDF84030352900F2BF80DFE801F07A
:10CFF0001BBDBD2E2BA13134373ABD3D4043474ABE
:10D000004D505356595C63BDBDBDBDBDBDBDBDBD1D
:10D01000BDBD66696C6FBD777A7D80888B8E91947B
:10D020009B9EA8ABB2B504AA00F10C04029205EBDA
:10D030000309002D40F09B80B9F1000F00F09780AC
:10D04000614815F0EBF900F190047EE000F16C040A
:10D050002CE000F1700478E000F1740475E000F158
:10D06000780436E000F1880444E000F1940441E0E3
:10D0700000F1980469E000F19C0406222AE000F126
:10D08000A40437E000F1A80434E000F1AC045CE053
:10D0900000F1B00459E000F1B40456E000F1B80426
:10D0A00053E000F1BC0425E000F1C00421462878DB
:10D0B00000F0EAFE77E000F1C40446E000F1D40499
:10D0C00043E000F1D80404E000F1E80401E000F1DD
:10D0D000F804102221462846FFF768FF63E000F5B8
:10D0E0008C7432E000F58E742FE000F590742CE023
:10D0F00000F59274214695F9000000F0CEFE52E052
:10D1000000F594742BE000F5967428E000F598740F
:10D1100004E000F59A7401E000F59C74214628684B
:10D1200000F0D8FE3FE000F5AC740EE000F5AE7400
:10D1300001E000F5B0742146286800F0C0FE32E03E
:10D1400000F18C0401E000F5B2742146288800F05B
:10D15000ADFE28E000F5B47401E000F5B674204699
:10D1600095ED000A00F0C1FE1DE0242029E00F2B00
:10D17000019307D9002201A902A815F0DFF9019B4C
:10D18000029004934A462946029815F005FA019B3D
:10D19000029A03930021D15402A8214600F038FEE0
:10D1A00002A815F0F1F95FB1084B13F80820032A23
:10D1B000304698BF04222146FFF7B0FC002000E073
:10D1C000384609B0BDE8F083DFB1030074B1030055
:10D1D0002DE9F3411D46DBB206460F469046FFF7A8
:10D1E000BEFB0446D8B930460F4E9DF8203000955E
:10D1F0004246FFF7EFFE3368DB07044609D43046AA
:10D2000015F0D2F828B1094802F0A6FE304615F014
:10D21000E7F82B4642463946044802F0A1FE204674
:10D2200002B0BDE8F08100BFCC2F0020D02F00203D
:10D2300010B5044614F028FA204610BD242070478B
:10D2400010B5144642680A6003681B69984720803D
:10D2500010BD7920704710B5144642680A60036813
:10D260001B699847208010BD10B5044600F5BE70BC
:10D2700015F08AF9204610BD7047704710B5044676
:10D2800014F002FA204610BD10B5044614F0FCF963
:10D29000204610BD2D2A08B502D8012018F07CFDCB
:10D2A0004160002008BD782A08B502D8012018F096
:10D2B00073FD4160002008BD08B502F082FCC0EBA0
:10D2C000C000013080B208BD08B502F03FFD00EBA0
:10D2D00040008000013080B208BDFFFF10B50A4C4D
:10D2E0002368DB070ED4204615F05EF850B10748DE
:10D2F00000F0A8FE204615F073F8054A05490348DA
:10D3000014F0BCF9014810BD4C3000205030002012
:10D31000B826002031C90100002202704260C0F826
:10D320003821C0F83C21C0F84421C0F84821C0F899
:10D330004C21C0F85021C0F85421C0F85821C0F841
:10D340005C2180F86021C0F8642180F86821704772
:10D3500081F0800114299ABF014B585C002070476E
:10D36000BCB2030081F08001142918D801230D48B4
:10D370008B40184048B913F4866F10D00A4B5B5CA1
:10D38000934234BF0022012204E0074B5B5C9B1AEE
:10D390005A425A41002A14BF0020202070472420FE
:10D3A000704700BFCFFB1F00BCB2030007B54FF4AE
:10D3B0009073009300F1100200F1180306CA406850
:10D3C00000F016FF03B05DF804FBFFFF2DE9F04FFE
:10D3D000ADF6BC1D0546FFF781FF03796860002BA1
:10D3E00000F0EB80774C05F10802022100F09AFE74
:10D3F0002368D8070ED4204614F0D6FF50B17248E7
:10D40000FFF79EFA204614F0EBFF704A70496E4811
:10D4100014F034F926216C48FFF72AFB16A90028DE
:10D4200002A814BF4FF064084FF00008D5F808B008
:10D43000D5F80CA000F0D6FC81464FF44F7014F0E4
:10D44000C1FC00264FF6FF7706608780C680A0F8F3
:10D450000880A0F80A80C0F80CB0C0F810A0A0F8AE
:10D4600014900446FFF73AFF4FF44872A38A2060F5
:10D47000019204F11C02009204F10C0206CA00F0B1
:10D48000D7FE22463346918BB94203D0E0888842CA
:10D4900040F284800133C82B02F10402F3D12389C6
:10D4A00085F8403102A90846C5F83C41D5F808A0E6
:10D4B000D5F80C9000F096FC80466C2014F082FCAD
:10D4C00000264FF6FF7706608780C6800781478178
:10D4D000C0F80CA0C0F81090A0F814800446FFF724
:10D4E000FDFE5022A38A2060019204F11C020092EA
:10D4F00004F10C0206CA00F09BFE22463346918BD3
:10D50000B94202D0E08888424DD90133142B02F190
:10D510000402F4D1DEA9C5F8384102A8D5F8089074
:10D52000D5F80C8000F05EFC07464FF4CD6014F097
:10D5300049FC00264FF6FF73838006608660C66054
:10D540000661C0F81490C0F8188087830446FFF77E
:10D55000C5FE4FF4C862A38B2060019204F128023B
:10D56000009204F1140206CA00F062FE23469A6A91
:10D57000511C02D0A1688A421AD20136C82E03F18A
:10D580000803F4D1C5F8444105F11002012168688F
:10D5900000F0C8FD2846FFF709FF0EE0E180D18BBF
:10D5A0002181A38076E7E180D18B2181A380ACE744
:10D5B000A260DA6AE260A680DFE70DF6BC1DBDE876
:10D5C000F08F00BFC4300020C8300020B8260020F3
:10D5D00069D201007FB514460546033418300E4663
:10D5E00024F0030400F0FEFBA4B201230293019493
:10D5F000009605F11002034606CA686800F06AFE4C
:10D6000004B070BD852904D1792200F14C01FFF7E7
:10D61000E1BF7047D0F84831C0F84C317047FFFF88
:10D62000124B994210B504461ED10221406800F009
:10D63000BBFD0121606800F0B7FD4FF49072FF213F
:10D6400004F1180019F094FAD4F83C315A891A817F
:10D650000022DA80D4F8383159891981DA80D4F877
:10D6600044311969D9609A6010BD00BFEFBEADDECC
:10D6700038B544680346201D09D01D69AA4208D860
:10D68000DB6862805A4319F075F9002038BD01202B
:10D6900038BD022038BDF7B515461A4606460C4679
:10D6A0001F46FFF75FFE00284DD1A4F1800110292D
:10D6B00048D8DFE801F0161B471E242C0F09210C67
:10D6C000343E474747474200D6F8543133E096F896
:10D6D000603134E000231A462946B06900F0D6FBD9
:10D6E0002EE0D6F838311B892B8029E096F840319E
:10D6F00025E0D6F858311EE0D6F85C311BE0002456
:10D7000000943B462246294606F11C000EE0002408
:10D7100000943B462246294606F14C0006E00024D0
:10D7200000943B462246294606F1C800FFF77AFAE4
:10D7300006E0D6F864312B6002E096F868312B7071
:10D74000002000E0242003B0F0BDFFFF2DE9F043EE
:10D7500085B0A1F1800300AF0446884615460B2B27
:10D760005ED8DFE803F041065D5D08275D434306B0
:10D770005D4301263BE02D4B7B60381D4FF49673D3
:10D780006E468CB0BB81C7F808D002F01EFA204666
:10D790002E236A468421FFF77EFF044610BB381D06
:10D7A000FFF78AFD694602462846FFF761FF6B686E
:10D7B000842216E01E4B7B606E46A0B079236A4639
:10D7C0008521C7F808D0FFF766FF044650B9381D19
:10D7D000FFF77AFD694602462846FFF749FF6B6866
:10D7E00085221A70B54619E0022600E00426F31DD2
:10D7F00023F00703E946ADEB030D204633466A46A6
:10D800004146FFF748FF044638B932466946284684
:10D81000FFF72EFF6B6883F80080CD46204600E0BE
:10D8200024201437BD46BDE8F08300BF68B2030072
:10D8300088B2030070B50C1AA410002C034616DD44
:10D8400015780678AE422BD04678AE4201D1013031
:10D8500070BD8678AE4201D1023070BD043010F840
:10D86000016CAE4201D1D81C70BD013CE5E70C1A39
:10D87000022C09D0032C02D0012C10D109E005782C
:10D880001478A5420CD001331C781078844204D05F
:10D89000013318781278904201D1184670BD0846BD
:10D8A00070BD13B502AA044602F8011D4FF0000333
:10D8B000D0F84C11D0F84801FFF7BCFFD4F84C3138
:10D8C000181A18BF012002B010BDFFFF2DE9FF415B
:10D8D000154D1E462B68DB0780460C46174609D4BB
:10D8E000284614F061FD28B1104802F035FB2846A7
:10D8F00014F076FD21460D4833463A4602F030FBDF
:10D9000021464046FFF7CDFF58B10C2301AA4FF442
:10D910008B7106488DF804400297ADF80C6002F058
:10D920001FFB04B0BDE8F081CC2F0020D02F0020D9
:10D930002DE9F04186B015461A4604460F461E46AC
:10D940009DF83080FFF70EFD002840F09981A7F187
:10D950008001142900F2FE80DFE811F05600230058
:10D96000FC00680076008100380015006F001C0084
:10D970008B00A100A700AD00B300B900C500CC002A
:10D98000D700E200ED002B68C4F854312A46334634
:10D990008721DAE02B7884F860312A4633468921E2
:10D9A000D3E02F7884F8407133462A4681212046FF
:10D9B000FFF78CFFB8F1000F00F0CA80D4F83C41AB
:10D9C0002389BDB2AB4240F0C780C1E033462A464E
:10D9D000862120462F78FFF779FF00231A4605A9F4
:10D9E000A06900F070FAB8F1000F00F0B180059B5B
:10D9F0009F4200F0AD8004F118052946384600F03A
:10DA00005EFA0422294646E033462A468021204613
:10DA10002F88FFF75BFFB8F1000F00F09980D4F872
:10DA200038412389BB4240F0E28091E02B68C4F882
:10DA300058312A463346832187E02B68C4F85C318D
:10DA40002A463346882180E004F11C0732463946D5
:10DA50002846FFF7ABFA33462A46842113E03246C4
:10DA600004F14C012846FFF7A1FA33462A468521E6
:10DA70006BE004F1C807324639462846FFF796FAAC
:10DA800033462A468A212046FFF720FFB8F1000FCF
:10DA90005ED0324639462046FFF79CFD58E02B68A1
:10DAA000C4F864312A4633461BE094F864312A787E
:10DAB00062F3000310E094F864312A7862F34103C2
:10DAC0000AE094F864312A7862F3820304E094F85F
:10DAD00064312A7862F3C30384F8643104F5B272C6
:10DAE00004238B2131E02B7884F868312A463346B1
:10DAF00090212AE02A7894F8683162F3000384F8D0
:10DB000068312A46334691211FE02A7894F868311B
:10DB100062F3410384F868312A463346922114E0C7
:10DB20002A7894F8643162F3041384F864312A4645
:10DB30003346932109E02A7894F8643162F345135F
:10DB400084F864312A46334694212046FFF7BEFE0E
:10DB5000002095E0242093E0A38865830133C82644
:10DB60009BB2B3FBF6F206FB1233E288A68A9BB2A5
:10DB70000132A38092B206EB83060423E280228363
:10DB8000019305AB0093B6B204F10C07334697E856
:10DB90000600206800F04CFBBDF816304FF6FF720F
:10DBA000934213D0A18889B904F11C064FF448723E
:10DBB000FF21304618F0DCFFA369E3610122A38A4C
:10DBC00002924FF448720192009609E09B1A18BF26
:10DBD000012302930423019304F1180300933346B5
:10DBE00097E80600206800F075FB2581B0E7A38860
:10DBF0006783013314259BB2B3FBF5F205FB1233A7
:10DC0000E288A58A9BB20132A38092B205EB83051C
:10DC10000423E2802283019305AB0093ADB204F1AB
:10DC20000C062B4696E80600206800F001FBBDF8C4
:10DC300016304FF6FF72934211D0A18879B904F1E2
:10DC40001C055022FF21284618F092FFA369E361CA
:10DC50000122A38A029250220192009509E09B1AA8
:10DC600018BF012302930423019304F118030093C6
:10DC70002B4696E80600206800F02CFB278167E71A
:10DC800006B0BDE8F081802930B40AD1022B06D15C
:10DC9000146834B90124029430BCFFF749BE202037
:10DCA00000E0502030BC70472DE9F34105468DF867
:10DCB0000710002A4BD0C9B2FFF7F3FD002861D14D
:10DCC000D5F84C31D5F85021934207D09DF8072064
:10DCD00003B11A70D5F84C31013351E0D5F8482121
:10DCE0009B1A5A1C02D1294814F0B0FB002B14BF18
:10DCF0001C4601241C1901D23CB101E04FF0FF3455
:10DD0000204614F05FF8074600E02746D5F8488122
:10DD1000D5F84C619DF80730C8EB0606F74218BFEE
:10DD2000BB5526B132464146384618F0BDFE013695
:10DD30003E44B8F1000F02D0404613F0A5FC3C442D
:10DD4000C5F84871C5F84C61C5F850411AE0D0F8E3
:10DD50004C11D0F848010DF107024FF00003FFF716
:10DD600069FDD5F84C21824201460BD001318A422F
:10DD700003D0521A01D018F097FED5F84C31013B70
:10DD8000C5F84C3102B0BDE8F08100BFA0B203007D
:10DD900000F1080373B5044603600D4681B10846DF
:10DDA00019F0EEFD0F2805EB000601900BD90022BB
:10DDB00001A9204614F0C2FB019B2060A36002E091
:10DDC000074814F02BFB32462946206814F0E4FB88
:10DDD000019B2268636000212046D15402B070BDCF
:10DDE000DFB10300081A80B270471F2970B50646DC
:10DDF0000D4614460BD820220021204618F0B8FE0C
:10DE00002A4631462046BDE8704018F0B3BD70BDCB
:10DE10000A4681880068FFF7E8BFFFFF2DE9F0415F
:10DE20008CB005469DF848800E4601466846174668
:10DE30001C46FFF7ADFFB8F1000F07D1EB7FFF2BBA
:10DE400004D01049684614F021FD98B9394606A857
:10DE5000FFF79EFF079D06992A46304618F08AFD77
:10DE6000258006A814F090FB684614F08DFB0CB0DA
:10DE7000BDE8F081019D00992A46304618F07AFDF0
:10DE80002580F1E78DCC0300086070470BB9431C77
:10DE900001D10A70704708707047086070470BB96D
:10DEA000431C01D10A7070470870704708607047C2
:10DEB0000BB9431C01D10A80704708807047431C8E
:10DEC00018BF086070470BB9431C01D10A60704746
:10DED00008607047431C18BF086070470BB9431CAB
:10DEE00001D10A6070470860704782B08DED010A69
:10DEF0009DF80430FF2B0BD19DF80530FF2B07D187
:10DF00009DF80630FF2B03D19DF80730FF2B01D081
:10DF1000019B036002B0704782B08DED010A79B9B0
:10DF20009DF80430FF2B0ED19DF80530FF2B0AD150
:10DF30009DF80630FF2B06D19DF80730FF2B02D14C
:10DF4000C0ED000A01E0019B036002B0704770471A
:10DF500010B5084C2368DB0709D4204614F024FAD6
:10DF600028B1054801F0F8FF204614F039FA0248BC
:10DF700010BD00BFCC2F0020D02F002010B50A4CC0
:10DF80002368DB070ED4204614F00EFA50B1074880
:10DF90000CF0F2F8204614F023FA054A054903482C
:10DFA00013F06CFB014810BD643200206832002081
:10DFB000B82600204FDF0100B1F5827F10B504D0F4
:10DFC00040F20513994203D010BD0123437110BDE7
:10DFD00000234371C38A43B3144C2368DB070ED478
:10DFE000204614F0E1F950B11148FEF7A9FC204693
:10DFF00014F0F6F90F4A10490D4813F03FFB1821B1
:10E000000B48FEF735FD014628B1FFF7B7FFBDE825
:10E0100010400CF0E9B9094A13F066F928B1084A32
:10E02000E321BDE81040FEF74ABC10BDC43000201B
:10E03000C8300020B826002069D20100D9E40100D0
:10E0400044B30300F8B5154B0360154B83600025FE
:10E0500005234FF6FF760446038205714571C560BE
:10E0600045828682C582057680F87150FFF770FF81
:10E0700004F11C07214601F08FFF5522294638463E
:10E0800018F076FD238A052B05D8237E1BB9E7609F
:10E090006382A682E3822046F8BD00BF98B30300E6
:10E0A00024B3030008B590F8713063B1013BDBB2D3
:10E0B00080F871303BB9FFF74BFF40F22711BDE804
:10E0C000084001F064BF08BD08B510462AB1084AEF
:10E0D0002921BDE80840FEF7F2BB042901D001293F
:10E0E00005D1FFF7FBF8BDE80840FFF7DBBF08BD2F
:10E0F00044B303000A4803788B4208D0037C8B4268
:10E1000007D090F820308B4207D1022302E0002391
:10E1100000E0012300EB031070470020704700BFB0
:10E12000C026002008B5FFF7E5FF20B1043003C882
:10E1300082E80300012008BD07B5012202A8ADF85E
:10E140000620084AADF8041040F8082D194612F0D0
:10E15000E7FE20B1044A40F20D11FEF7B0FB03B018
:10E160005DF804FBC9E0010044B3030070B5054647
:10E1700012F080FE18B10A4A5121FEF7A0FB094EA9
:10E1800000243119231D3344012289892846103483
:10E19000FFF7D2FF302CF4D101232B7170BD00BFEB
:10E1A00044B30300C026002013B5FFF7A3FF0446C5
:10E1B000D0B16A460021043012F020FF20B10B4A92
:10E1C0004FF48E71FEF77BFBFFF7C2FE4FF49671A2
:10E1D00001F0DDFEA189684612F0F6FF20B1034A86
:10E1E00040F21F11FEF76BFB02B010BD44B30300F9
:10E1F0001FB58DE80600684602AA00211C4612F0F1
:10E20000FDFE20B1094A4FF49471FEF758FB00233C
:10E21000BDF8182002A9204612F08CFF20B1034A55
:10E220004FF49571FEF74BFB04B010BD44B30300EF
:10E230001FB58DE80600684602AA00211C4612F0B0
:10E24000DDFE20B1094A4FF49D71FEF738FB2346ED
:10E25000BDF81C20069802A912F06CFF20B1034AF9
:10E260004FF49E71FEF72BFB04B010BD44B30300C6
:10E2700084B070B505AC84E80E0082890189C68936
:10E28000013292B2B2FBF1F301FB1322731C9BB279
:10E2900092B299428281C38108D24389C6810133F7
:10E2A0009BB2B3FBF1F501FB15334381436802EBED
:10E2B0000212134409AD224603CAAA4218605960EB
:10E2C000144603F10803F6D1BDE8704012781A70C5
:10E2D00004B070472DE9F0478CB0044605AD02A8A4
:10E2E00080E806002A4600219846149EBDF8547026
:10E2F0009DF8589012F082FE20B12B4A40F24D1149
:10E30000FEF7DDFAFFF73AFE0BF080FF63798246F5
:10E3100003B928B3E28A238A9A4217D095E803000A
:10E3200009AB83E803008DF82C900CAB13E90300D4
:10E33000ADF822800090ADF8207007968DF804109B
:10E3400007AB0ECB04F10800FFF792FFBAF1000F04
:10E3500027D063792BBBFFF711FE0CF0BFF820E04C
:10E3600094F87130013384F87130FFF7F1FD40F219
:10E370002B1101F00CFE43463A4631462846B9F1CE
:10E38000000F06D012F09CFE58B1074A40F27B11F4
:10E3900005E012F05BFE20B1034A40F28111FEF766
:10E3A0008EFA0CB0BDE8F08744B3030010B586B018
:10E3B00004AC84E8060001220292BDF820200093FC
:10E3C0000192002394E80600FFF784FF06B010BD19
:10E3D0002DE9F041C38A88B00446002B75D0B4F80B
:10E3E00016E0BEF1000F70D0628AE16802EB021302
:10E3F0000B4403AF04F1080603F110083D4618680A
:10E400005968BC46ACE80300083343456746F6D17B
:10E410001B788CF80030218A013292B2B2FBF1F302
:10E4200001FB1322637962820EF1FF3EA4F816E02D
:10E43000002B3FD194F87130013384F8713002A879
:10E4400012F000FF029B092B05D8FFF781FD40F277
:10E450002B1101F09CFD9DF81C10BDF81230BDF889
:10E46000102021B1039905A812F02AFE03E00399B8
:10E4700005A812F0EBFD042815D108AB13E9030041
:10E4800000908DF8041095E80E003046FFF7F0FE7E
:10E4900000210F4A084612F027FFB0B10D4AB721FC
:10E4A000FEF70DFA11E0002899D00A4ABA21FEF7CA
:10E4B00006FA94E708AB13E9030000908DF8041006
:10E4C00095E80E003046FFF7D3FE08B0BDE8F081B6
:10E4D000D9E4010044B3030008B5FEF7FFFEBDE830
:10E4E0000840FFF775BF072808B502D0082800D0FC
:10E4F00008BDFEF7F3FEBDE80840FFF769BF10B5A1
:10E50000044613F0C1F8204610BD704710B50A4C00
:10E510002368DB070ED4204613F046FF50B10748AE
:10E5200006F082FD204613F05BFF054A05490348CB
:10E5300013F0A4F8014810BDC0320020C4320020FE
:10E54000B82600200BE5010070B51B4B1B4C602268
:10E550000E460421C4F8001583F8022393F8022321
:10E56000C2F34112012A05461CD8154A362142F24F
:10E570000200FEF7A4F90423C4F80433C4F81455C8
:10E58000C4F80C65FFF7C2FF06F05AFD0D4BC4F846
:10E5900024350123A36023600023C4F80831C4F8A4
:10E5A0001C3170BD084A906820B1136843F0040321
:10E5B0001360E0E71960DEE700E100E000200040C2
:10E5C000A4B3030000B0AF03F86D0020054B002298
:10E5D000C3F81C21C3F81C05D3F81C21012AFBD168
:10E5E000704700BF002000400FB4002004B0704707
:10E5F000F8B506460F460546AB1B9F420EDD15F8E3
:10E60000014B5C2C01D07E2C04D15C20FFF7DEFF97
:10E6100084F040042046FFF7D9FFEDE7F8BD08B5C8
:10E620007E20FFF7D3FF08BD38B5074C074DD4F85F
:10E6300018352B70FFF76AFF297806F067FD002375
:10E64000C4F8083138BD00BF00200040D832002097
:10E6500010B5044613F018F8204610BD800000F1F4
:10E66000804000F5C040D0F8103543F0030243F479
:10E67000F85343F00303C0F8103500BF00BF00BFDC
:10E68000C0F810257047FFFF08B5064813F08CFE50
:10E6900038B1054B034800221A765A769A7613F061
:10E6A0009FFE08BDDC320020E0320020002202760E
:10E6B000427682767047FFFF094A08B5012313604E
:10E6C0004376837E5BB10021064A084612F00CFEB9
:10E6D00028B1054ABF21BDE80840FEF7F0B808BDE3
:10E6E00000B0014079EB0100E3B3030008B5817687
:10E6F00009B9FFF7E1FF002008BDFFFF037E2DE908
:10E70000F74F0446002B00F08E80437E43B9837E92
:10E71000002B00F0888003B0BDE8F04FFFF7CCBFBE
:10E72000424B01221A60D3F80025C569D2F10008D6
:10E730004FF000032E464FF0000763EB43097910BA
:10E740004FEA3600404261EB4101804579EB01011F
:10E7500003DAB5EB020867EB0309D4E914014FF4BF
:10E760007A72B0EB0800A5FB022361EB090182423B
:10E7700073EB010E02DBC4E9140101E0C4E91423C8
:10E78000D4E91401524263EB43039042994101DA08
:10E79000C4E91423636C0A220133B3FBF2FA02FBCF
:10E7A0001A3AC4E912896364BAF1000F3BD1D4E983
:10E7B00014014FF47A72002316F052F94FF4C87224
:10E7C000CDE9000100233046394616F049F90246EA
:10E7D0000B46DDE9000116F043F9154A83464FF078
:10E7E000FF333046394616F03BF902460B464046A9
:10E7F000494616F035F978220BEB00080023304625
:10E80000394616F02DF98045A8BF8046094B404295
:10E810008045ACBF45442D184FF400122562C3F863
:10E8200000A0C3F8B02103B0BDE8F08F4CB00140A8
:10E8300070FEFFFF54B10140084412B190F83B3024
:10E8400001E090F83D30890001F1804101F5C041BF
:10E850001B05D1F8142503F4801322F4801213430E
:10E86000C1F814357047052908B502D9012017F001
:10E8700093FA013904290ED8DFE801F003050709EE
:10E880000B00012008BD022008BD032008BD0420A4
:10E8900008BD052008BD002008BDFFFF10B51446C7
:10E8A000FFF7E1FF024B00F5A87043F8204010BDD0
:10E8B00000B00140026A0521FFF7F0BF072908B543
:10E8C00002D9012017F068FA0139062913D8DFE8C8
:10E8D00001F00406080A0C0E1000042008BD0820F0
:10E8E00008BD0C2008BD102008BD142008BD18204C
:10E8F00008BD1C2008BD002008BDFFFF037E2DE9D8
:10E90000F74F04460D46002B00F02081437E1BB9D3
:10E9100000EB8104626219E10FB200EB870A642AFE
:10E92000DAF8103028BF642216460BB1642B5BD195
:10E930000EB1642E08D1A6F164035A425A41294609
:10E940002046FFF779FFFFE0E269DFF810920193BC
:10E9500064217243B2FBF1F2CAF82C2094F838100B
:10E960004FF0010808FA01F1C9F8081594F83910B8
:10E9700008FA01F1C9F8081520462946FFF78EFF6D
:10E9800094F83A20019B920002F1804202F5F8329D
:10E9900004EB47070021C2F8001897F83410D2F8AA
:10E9A000000808FA01F10143C2F8001897F8351081
:10E9B000D2F8000808FA01F10143C2F8001894F8EF
:10E9C00038106448002B4FEAC10218BF052502F138
:10E9D000804202F5F832AD002844C2F8100508FA6A
:10E9E00001F3C2F814954AE00AB1642A4AD194F8B6
:10E9F0003830DFF868914FF0010808FA03F3C9F8DE
:10EA0000083594F8393008FA03F3C9F8083529466F
:10EA1000DAF82C202046FFF741FF94F83A304D48B1
:10EA20009B0003F1804303F5F83304EB4707002212
:10EA3000C3F8002897F83420D3F8001808FA02F237
:10EA40000A43C3F8002897F83520D3F8001808FACD
:10EA500002F20A43C3F8002894F838303E49DA003D
:10EA6000002E18BF052502F1804202F5F832AD00F4
:10EA70002844C2F8100508FA03F3C2F81415C9F8BF
:10EA8000043561E0C2694FF064097243B2FBF9F9E1
:10EA9000CAF82C9090F83A7090F8381090F83980B5
:10EAA0002E4ABF004FF0010B07F180470BFA01FE21
:10EAB00007F5F8370BFA08FBC2F808E5C2F808B505
:10EAC0000022C7F80028D7F800284EEA02024FEAD1
:10EAD000850E0EF1400EC9005FFA8EFE01F18041F5
:10EAE00001F5F8310EF1804EC7F800280EF5D83E3A
:10EAF0001B4AC1F81025B342C1F814E519D9691CA5
:10EB0000C9B20192FFF7DAFE4FEAC80808F180485F
:10EB100008F5F83800F1804000F5C040019AC8F8C7
:10EB20001025C8F81405D7F800384BEA0303C7F8D6
:10EB300000384A4604212046FFF7B0FE94F83A20F8
:10EB4000064B012143F83210CAF8106003B0BDE84B
:10EB5000F08F00BF40B1014004F0014000F00140DF
:10EB600050B10140426A0369934203D092B200213E
:10EB7000FFF7C4BE7047FFFF08B5054B1B68DB07F6
:10EB800001D4FFF781FD0348BDE80840FFF7EABF65
:10EB9000DC320020E03200200F2908B502D9012024
:10EBA00017F0FAF80139C9B20E299ABF014B585C27
:10EBB000002008BD1FB403002DE9F74F0BB29C00E5
:10EBC000824620440E46C78890F808E001214FF0A5
:10EBD000A045B940BEF1000F02D1C5F80C1501E007
:10EBE000C5F808154FF00009C0F81090C0F824903F
:10EBF00092F80280DFF8F0B004F1804404F5C044DC
:10EC00000AEB060088F0010180F83B1080F83D8097
:10EC10001088D4F8142522F4981222F4F852000235
:10EC2000C4F81425090500F4F850D4F8145501F47B
:10EC3000801240F4403040EA02012943B51C6D00C7
:10EC4000EDB2C4F81415504629465F00FFF7A4FF43
:10EC50005744691C87F83400C9B25046FFF79CFF3F
:10EC6000B3000136F2B2054687F83500114697F831
:10EC70003470019250469B44FFF720FEFB0003F1E5
:10EC80008043019A03F5F83300F1804000F5C0405D
:10EC9000C3F810B51146C3F814055046FFF70EFE31
:10ECA000EB0003F1804303F5F83300F180400D4A97
:10ECB000C3F8102500F5C040C3F81405D4F8143586
:10ECC0004FEA085808F4801823F4801348EA030335
:10ECD0003046C4F81435FFF7C1FC484603B0BDE820
:10ECE000F08F00BF54B1014040B1014038B5044637
:10ECF0000FC984E80F003A4B01221A60D3F8FC24B4
:10ED000042F00302C3F8FC24D3F8042522F00F02DA
:10ED100042F00202C3F80425226812019208E2615F
:10ED2000C3F84825D3F8F82422F00302C3F8F824E6
:10ED3000D3F8F42142F02002C3F8F421294A002339
:10ED4000136053609360D360136153612279D9B229
:10ED5000914203F1010507D204EB810206322046FD
:10ED6000FFF72AFF2B46F1E7951C6D00EDB229460F
:10ED70002046FFF711FF691C84F83800C9B220460D
:10ED8000FFF70AFF002384F83A30174B84F8390064
:10ED9000402283F81B2393F81B23C2F34112012A5C
:10EDA00006D8124A582142F20200FDF788FD0AE017
:10EDB0000F4A916821B1136843F00063136002E0C9
:10EDC0004FF000621A60E3692362002200230020F2
:10EDD000C4E91423C4E9122301236064237638BDF7
:10EDE0000CB0014040B1014000E100E0E3B303009A
:10EDF000F86D002008B5084B4FF40012C3F8082343
:10EE0000064B1B68DB0701D4FFF73EFC0448BDE856
:10EE10000840FFF74FBD00BF00B00140DC320020CA
:10EE2000E03200207047704710B5044612F02CFC09
:10EE3000204610BD08B5054813F0B6FA28B10448BD
:10EE400001F08AF8014813F0CBFA08BDCC2F00205E
:10EE5000D02F0020FF210F4A0F4B0260C176002205
:10EE600001770121027142778177C27780F82020F3
:10EE700080F8302080F836208263C2638262C262EA
:10EE800080F8212080F8222080F8232080F8242098
:10EE90001A60704750B403003833002010B50A4C94
:10EEA0002368DB070ED4204613F07EFA50B10748E2
:10EEB000FFF7D0FF204613F093FA054A05490348AF
:10EEC00012F0DCFB014810BD483300204C33002019
:10EED000B826002027EE0100154B022210B56FF076
:10EEE0000041C3F8F0250022C3F8F425C3F8081345
:10EEF00010490A60104A4021802082F80713C2F8A6
:10EF0000800192F80713C1F34111012908D90B4977
:10EF10008C6824B10A6842F080020A6000E0106048
:10EF20000222C3F804230122C3F80025002010BDEB
:10EF3000007000400471004000E100E0F86D002026
:10EF400081627047C37F30B5002B2FD0184CC17D34
:10EF5000184D00220223C277C4F80833012303FAB4
:10EF600001F1C5F80815817E03FA01F1C5F808150D
:10EF700011490B60C1F83C2108310B6090F820105A
:10EF800041B90E4A002343771360094B0222C3F8AC
:10EF9000042330BD0A490A602022C4F80423094A28
:10EFA000136090F82030002BFBD1EAE730BD00BFA2
:10EFB0000070004000F001400490004004710040E7
:10EFC00014710040087000404318F0B493F82130E9
:10EFD0001BB1274A4FF4E5711FE0264B0224C3F80A
:10EFE0000843427F012A06D9C3F80443204A4FF45C
:10EFF000EB71132012E0204D55F8217090F820504D
:10F0000005F0FF0605B3012E30D1057FFF2D08D096
:10F01000174AC3F8044340F2E1111120F0BCFDF798
:10F020004EBC01324277154A01771368002BFCD0A1
:10F03000124B00221A60C822C3F82C75C3F8302581
:10F040000222C3F8042211E001252A44C176427746
:10F05000FF21C82280F820500177C3F80443C3F889
:10F060002C76C3F83026054A16601D60F0BC704748
:10F070005CB4030000700040383300200071004091
:10F0800038B5C37F013B012B04463DD900F1200276
:10F0900000F12401002312F8010F002818BF0123FA
:10F0A0009142F8D113B10223E37738BDE17E012309
:10F0B000FF29E37711D0257FFF2D204603D0FFF7EE
:10F0C00083FF294605E0FFF77FFFE17E013101F074
:10F0D00003012046FFF778FF05E00C4A4FF4DD718D
:10F0E0000820FDF7ECFBE27D0949012303FA02F257
:10F0F000A377C1F80425074A1360A27E03FA02F23F
:10F10000C1F80425044A136038BD00BF5CB4030095
:10F1100000F001400CA000400090004008B5FFF74F
:10F12000BDFEFFF70FFFFFF7B9FEBDE80840FFF790
:10F13000A7BFC162704743798B420FD901EB4101F0
:10F1400000EB410113788B71D2F80130C1F8073020
:10F150005379CB7201230371002070476020704700
:10F1600090F83010B0F93C300B4A1B0402EB01114F
:10F1700043F47843C1F81C3590F8303059008023AF
:10F180008B40C2F8083390F83030590040238B4050
:10F19000C2F80433704700BF00700040072998BFD1
:10F1A0000B4BC26398BF33F8113080F8301088BF22
:10F1B0004FF4AA730729438696BF064B4FF4A873F2
:10F1C00033F811308386012380F83630FFF7C8BF4B
:10F1D00098B40300A8B4030090F83010838F0C4A51
:10F1E00043F07F6302EB011143F47023C1F81C3537
:10F1F00090F83030590080238B40C2F8043390F8E7
:10F200003030590040238B40C2F80833704700BFAC
:10F21000007000402DE9F0410546FFF7DDFF184E74
:10F22000C76AD6F8048527B3D6F80825846B01325F
:10F2300000234FF41820002115F062FC4FF47A727D
:10F24000002315F05DFCC4EB080424F07F448442E5
:10F250000FD9D6F80825002301324FF428200021C9
:10F2600015F04EFC4FF47A72002315F049FC8442ED
:10F2700003D3C5F83880BDE8F081B847F9E700BF8F
:10F2800000B0004010B5064A0223C2F8083380F8E7
:10F290002030FFF757FEBDE81040FFF7F1BE00BF7A
:10F2A0000070004008B5FFF7F9FDBDE80840FFF722
:10F2B000E9BFFFFF002108B5064A084612F014F81E
:10F2C00030B1054A4FF43071BDE80840FDF7F7BA98
:10F2D00008BD00BFA5F201005CB403002B4B1A6807
:10F2E00013B504466AB300211960C37E8DF8073058
:10F2F000274BD3F8343690F82030DBB2012B42D1C3
:10F30000427F013A4277027FFF2A0BD1022380F825
:10F310002030204A084611F0E7FF90B11E4A40F223
:10F32000E1210CE0C276FF22027719461B4A0DF15B
:10F33000070011F0D9FF20B1174A40F2ED21FDF787
:10F34000BEFA17490A6822B100230B6084F8203006
:10F3500019E094F83630B3B1638E03F1804303F5BE
:10F36000E043196819B11A602046FFF7F9FEA38E31
:10F3700003F1804303F5E0431A6822B100221A60CA
:10F380002046FFF747FF02B010BD00BF04710040E8
:10F39000007000401DF101005CB40300D5F70100CE
:10F3A0001471004008B5FFF779FDBDE80840FFF78C
:10F3B00095BF704708B5FFF771FDFFF77BFF024B64
:10F3C00000221A6008BD00BF40A10040042916D0E9
:10F3D00008D801290FD01CD302290ED0032916D139
:10F3E0000420704706290ED00BD307290DD06429BD
:10F3F0000DD1092070470220704703207047052077
:10F40000704706207047072070470820704700208B
:10F4100070470120704773B51478072C05460E46D7
:10F4200004D9642C02D0012016F0B6FC5179A1F168
:10F430000803DBB2F62BF6D9D2F801300020962B68
:10F440008DF800008DF8010001D8072303E0B3F523
:10F45000967F03D806238DF802301BE0B3F5167FA4
:10F4600001D80523F7E7B3F5966F01D80423F2E737
:10F47000B3F5E16F01D80323EDE7B3F5166F01D8BB
:10F480000223E8E740F6B832934201D80123E2E7CD
:10F490008DF8020000230222FF298DF803308DF839
:10F4A000042004D18DF805308DF8073007E00123E2
:10F4B00028468DF80530FFF789FF8DF807002146B3
:10F4C0002846FFF783FF69468DF80600304611F0A5
:10F4D000FBF8002002B070BD2DE9F0410B460D464F
:10F4E0000446421D103153F8040B42F8040B8B42C2
:10F4F000F9D11B7813706A4B6A4E01201860D3F85B
:10F50000FC2442F00302C3F8FC24D3F8042522F0C3
:10F510000F02C3F80425D4F812201201C3F83425D1
:10F52000D3F8F82422F00302C3F8F824D3F8F42126
:10F530000243C3F8F4215C4A0021C3F8341111607E
:10F5400051609160594AA17503F59A73C2F810355C
:10F55000A3F504533C3BC2F8143503F54053043380
:10F56000C2F81039C2F804053060D3F8000540F045
:10F570000300C3F800056779C82090FBF7F0023854
:10F58000C3F83805D3F8FC04494F20F0030040F0DD
:10F590000100C3F8FC044748016039607960B96034
:10F5A000D3F8F81141F48071C3F8F81102216176A3
:10F5B0004149C2F82005C2F82415A0F540500421A5
:10F5C000C2F80415083B03213C38A176C2F828058F
:10F5D000C2F82C65C2F81C39384A602182F80A1337
:10F5E00092F80A13C1F3411101291F46064643D878
:10F5F000334AC42142F20200FDF761F94FF480332F
:10F60000C7F804330123E375284B2E4AC3F8186565
:10F610002946C3F81C252046FFF75EFC18B1284A8E
:10F62000D821FDF74CF9A61D002563799D4207DA24
:10F630003246E9B22046FFF7EEFE01350636F4E722
:10F640000025DFF8908004F120062F464FF4C870A3
:10F6500012F004FC48F825000135042D06F8017F5E
:10F66000F4D10023E37601232377174B1B68DB07D4
:10F670000ED4FFF7DFFB0BE014498B6823B10A6857
:10F6800042F480620A60B9E74FF480631360B5E723
:10F6900021460F4800F080FC0020BDE8F08100BF4B
:10F6A0000C9000400CA000404491004000F001404C
:10F6B00044A1004040A100400490004000E100E06F
:10F6C0005CB4030000700040CC2F0020F86D0020D7
:10F6D000D02F00203833002070B50446861D002549
:10F6E00063799D4207DA3246E9B22046FFF793FE7E
:10F6F00001350636F4E7104D2B68DB070ED428469B
:10F7000012F052FE50B10D4805F08EFC284612F062
:10F7100067FE0B4A0B49094811F0B0FF1123621D27
:10F7200042F27471054805F0DCFC00230122E37607
:10F730002277237170BD00BFC0320020C432002088
:10F74000B82600200BE50100421810B5002482F80D
:10F750002140C47F022C02D1FFF792FC0FE0027916
:10F7600022B1437F5BB9FFF7B7FF08E0012C06D158
:10F77000023101F00301FFF727FC024B1C6001205E
:10F7800010BD00BF04A00040836A70B504460D465A
:10F79000BBB14318012283F82120837F53B10B4B67
:10F7A0001B68DB0701D4FFF745FB40F22D11084829
:10F7B00000F0EDFB0023A3772846A36ABDE8704064
:10F7C0001847BDE87040FFF7BFBF00BFCC2F002037
:10F7D000D02F002010B50446FFF760FB2178BDE86C
:10F7E0001040FFF7D1BF0368007918477047FFFF4B
:10F7F00030B52DED028BB4EEE00AF1EE10FA85B0D3
:10F800000C46F0EE408AB0EE608A02D4012016F079
:10F81000C3FA4D4B4D4AD3F8043583604C4B1B68FB
:10F82000C3F30423136010EE100A14F0BFFC40A3CE
:10F83000D3E9002314F09EFFC8B1DFED467A68EEED
:10F84000A77A17EE900A14F0B1FC3BA3D3E900238A
:10F8500014F04EFB3AA3D3E9002314F025FE002256
:10F860003D4B14F043FB14F0CDFFC5B200E005465C
:10F8700018EE100A14F09AFC2DA3D3E9002314F01B
:10F8800079FFC0B1DFED337A68EE277A17EE900A80
:10F8900014F08CFC28A3D3E9002314F029FB28A33F
:10F8A000D3E9002314F000FE00222B4B14F01EFBC2
:10F8B00014F0A8FFC0B2002304210622072C8DF803
:10F8C00004108DF806308DF807508DF808008DF87B
:10F8D00009308DF80A308DF80B308DF80D2095D851
:10F8E000013C944214D8DFE804F00406080A0D0F26
:10F8F000120001230CE002230AE0032308E08DF844
:10F900000C1007E0052303E08DF80C2002E007232C
:10F910008DF80C30114901A810F0F2FD18B1104A11
:10F920005221FCF7CCFF05B0BDEC028B30BD00BF0F
:10F93000666666666666AA3F666666666666FA3FDD
:10F940006666666666660A4000B000404035014063
:10F9500024030010000080420000F03F19FA01006B
:10F96000BDB40300013903290DD8DFE801F002041A
:10F970000806042004E0022002E0082000E006203F
:10F98000002110F025BE704710F034BEA1F5807143
:10F9900038B504460C290ED8DFE801F00F0D0D0D27
:10F9A000070D0D0D090D0D0D0B00022304E00123C1
:10F9B00002E0042300E000232371236823B3134AE9
:10F9C000A568D2F80435D2F808255D1B0132002362
:10F9D0004FF44810002115F093F84FF47A72002389
:10F9E00015F08EF825F07F45854209D9084A08218F
:10F9F000204611F079FC18B1064A9B21FCF75FFF05
:10FA0000024BD3F80435A36038BD00BF00B00040FE
:10FA1000E7F70100BDB4030038B5094C2368DB07E4
:10FA2000054606D4204612F0BFFC10B1204612F065
:10FA3000D7FC29460348BDE83840FFF7A7BF00BF01
:10FA40008C3300209033002039DF70473ADF704755
:10FA5000002303607047FFFF73B502AC002304F876
:10FA6000013D06460D469DF80730AB4209D22046BF
:10FA7000FFF7EAFF0028F6D0074A1421FCF71FFF22
:10FA8000F1E729463046FFF7E1FF18B1024A172196
:10FA9000FCF715FF02B070BDFAB4030037B502AD34
:10FAA000002305F8013D04469DF80730012B09D8D5
:10FAB0002846FFF7C9FF0028F6D00C4A3421FCF78E
:10FAC000FEFEF1E702212046FFF7C0FF18B1074A0A
:10FAD0003921FCF7F4FE23784FF0000063F30700B0
:10FAE000637863F30F2080B203B030BDFAB4030033
:10FAF000406800B1007870475B220021406817F031
:10FB000037B82DE9F0474568064688461746002D68
:10FB100055D0FFF7EDFF05F1010982460024544559
:10FB20001CDA49460622404616F0F2FE09F10909A0
:10FB300090B904EBC40425442A8995F9073002FBE7
:10FB40000373013293FBF2F2EA7173681C44238958
:10FB500001332381BDE8F0870134E0E7BAF1090FF2
:10FB600012D900224FF0FF337F2002EBC20129445B
:10FB700091F90710814203DA8F42C4BF53B208469D
:10FB800001320A2AF1D103E02B785A1C2A705BB2A9
:10FB9000002B14DB716803EBC3020A44D8F8001091
:10FBA000C2F80110B8F80410A2F80510726803EB4F
:10FBB000C303134401221A7200225A72DF71BDE896
:10FBC000F087406800B1007870472E22002140681D
:10FBD00016F0CEBFD0F80330D3B18B4218D24278A2
:10FBE00002F00F02012A0CD005D30023C370037169
:10FBF000437183710CE0B0F807203C2101FB023314
:10FC000003E003F5A83303F5C073C0F80330704771
:10FC10007047FFFF2DE9D0430C46D0F8031016467D
:10FC20001F4600294AD0A14245D2437803F00F0372
:10FC3000012B1ED004D3022B4FF0000130D035E051
:10FC4000B0F8073041F294183C224FF00009B0455B
:10FC500002FB03F379EB070207DB4FEA53084FF08F
:10FC60000009464577EB090225DBCA431C441444CE
:10FC70000BE041F294120023B242BB411BDAC1F502
:10FC8000A83303F27F131C440E4BB4FBF3F403FBC5
:10FC90000411C0F80310201C18BF0120BDE8D08358
:10FCA00041F294120023B242BB4107DAC1700171E4
:10FCB0004171817102E00020BDE8D0830846BDE8B3
:10FCC000D08300BF8051010040780009704743781D
:10FCD00003F00F02012A07D002D3022A06D00AE05D
:10FCE000B0F8070010B97047C07928B12F2B8CBF2E
:10FCF0000020012070470020704703065ABF0841CA
:10FD000000F0010001207047D0F80330C3B18B42EE
:10FD100016D2427802F00F02012A03D012D3022A2F
:10FD20000ED10FE00849B3FBF1F307210433B3FB15
:10FD3000F1F1C1EBC101591AC9B2C079FFF7DDBFBA
:10FD400000207047012070478051010043681878F7
:10FD50007047092938B50546144601D9002038BD39
:10FD600043680A221A702046FFF7B1FF0028F5D039
:10FD70006B680C2202FB01312368C1F80130636813
:10FD8000C1F80530A368C1F8093038BD09290AD87F
:10FD900043680C2202FB013100230B714B718B7104
:10FDA000CB710120704700207047F8B543681C787C
:10FDB0000A3C064618BF012400250C27706803780A
:10FDC000E9B2994202D30C2500210BE007FB0100A8
:10FDD0000130FFF77CFF18B93046FFF7D7FF012449
:10FDE0000135EBE7092B08D805FB0302013311713C
:10FDF00051719171D171DBB2F4E70A23037020468F
:10FE0000F8BD2DE9F84F002481460F46A04626464E
:10FE10004FF00C0AD9F804502A78A3B29A4213D9A9
:10FE20000AFB035505F1010B39465846FFF76CFFF5
:10FE300020B16B6898453CBF98465E4639465846A7
:10FE4000FFF7C8FE0134E5E73046BDE8F88F2DE93D
:10FE5000F04700248246884616461F4625464FF046
:10FE60000C09DAF804000278A3B29A420CD909FB13
:10FE7000030032463B4641460130FFF7CBFE0028E7
:10FE800018BF01250134ECE72846BDE8F087036878
:10FE9000DB6818474FF4CC70704710B514464268C1
:10FEA0000A6003681B699847208010BD704770473F
:10FEB00010B5044611F0E8FB204610BD10B504460D
:10FEC00011F0E2FB204610BD10B5084A084C026054
:10FED0006421002242608460C260018282744461B5
:10FEE00082618183827780F8202010BD78B503007D
:10FEF00058B50300C26800231370537082691370F1
:10FF000053707047023A0389C2F34F02934201D8FB
:10FF1000837A0BB10020704741600B704B70012059
:10FF20007047036870B5DB68164604460D4698476F
:10FF3000B0420FD829466560CA2204F10800FFF7D5
:10FF4000E1FF6168CA22114404F11400FFF7DAFFEF
:10FF5000002070BD012070BD0022A0F878207047FD
:10FF60002DE9F84305460F46904699460024B5F81A
:10FF700078309C4209DA55F82400036842469E68AE
:10FF800039464B46B0470134F1E7BDE8F88300231A
:10FF90001A46FFF7E5BFFFFF08B5B0F878301C2B15
:10FFA00006D9074A25210420FCF789FC002008BD5A
:10FFB0005A1CA0F8782040F82310012008BD00BF8B
:10FFC0009CB5030063DF704764DF704782B08388AD
:10FFD00082798DF806209BB2002063F30F00BDF8F4
:10FFE000063063F31F4002B07047FFFF2DE9F8436E
:10FFF000002480468946264625462746D9F8003003
:020000022000DC
:10000000DB5D002B37D00F2D05DD1F4A1F4858211F
:10001000FCF74FFC35E02D2B2BD0202B29D0A3F162
:100020003002D2B2092A12D9A3F14102052A01D81D
:10003000373B04E0A3F16102052A02D8573BDAB24C
:1000400005E0114A12484821FCF733FC002202EB7C
:100050000413F20748BFC5F10F0203F0FF0406F1D5
:10006000010341BF08F802401E460135002458BF75
:100070001E460137C2E70F2D03DC034A054856210F
:10008000C6E74046BDE8F883E3B503003EB603008B
:100090001CB603002EB6030010B50268837986B043
:1000A00004463AB333BB014602A8FFF79FFF01AAFB
:1000B00002A91020FFF788FF05280FD1A11D02A873
:1000C000FFF780FF18B1104A1B21FCF7F8FB9DF8E1
:1000D00015209DF8143043EA022305E030B99DF85D
:1000E0000630A371BDF80430A38009E0064A074832
:1000F000222103E023B9044A05482521FCF7D9FB56
:10010000A07906B010BD00BFE3B503004DB60300F3
:1001100061B6030073DF704774DF704775DF7047A7
:1001200076DF704777DF704778DF70477ADF704798
:100130007CDF70478ADF70478BDF7047A9DF70472D
:1001400060DF704766DF704767DF704768DF7047C2
:100150003FDF704740DF704711DF704712DF7047A5
:1001600010B5064C2368DB0706D4204612F01CF9B4
:1001700010B1204612F034F9014810BDA033002020
:100180009C33002010B50A4C2368DB070ED42046B0
:1001900012F00AF950B10748FCF7D2FB204612F0E2
:1001A0001FF9054A0549034811F068FA014810BDD6
:1001B000C4300020C8300020B826002069D20100D9
:1001C00010B50A4C2368DB070ED4204612F0ECF879
:1001D00050B1074800F03AF8204612F001F9054AFC
:1001E0000549034811F04AFA014810BD5435002072
:1001F000A4330020B82600206903020010B504468D
:10020000006808B116F074F8204610BD70B50B4EAA
:10021000346814F001040FD1304612F0C5F858B11B
:10022000074D30462C60AC80AC7112F0D9F8054A0D
:100230000549284611F022FA014870BD60350020BA
:1002400058350020B8260020FD01020000F1080307
:1002500070B54FF4007203600023044643600372DC
:1002600002838376C36103624362142011F0AAFD06
:100270000546E06908B111F007FA374BE5611868E7
:100280002562042384F82C30A023E3854FF6FF7306
:10029000A4F840301435314B656204F1880600251E
:1002A000E364E3652E4BE366A062294684F82D5093
:1002B0002586C4F83250C4F8365084F83A5084F891
:1002C0003B5084F83C5084F83D5084F83E506564BF
:1002D0002565656525666566256784F8745084F82C
:1002E000865084F8875084F88051C4F89051C4F83F
:1002F000AC512022304616F03BFCC4F8A86004F153
:10030000AC0629462022304616F032FCC4F8CC60F8
:1003100004F1D00620222946304616F029FC114B64
:10032000C4F8F0601A689B88A4F8843094F82D30E3
:10033000C4F88020012262F3030362F3071384F8F8
:100340002D30062363861023A3860A23E3864FF409
:10035000C8732387204670BDA0B7030088B7030089
:10036000A4B70300C9B6030010B5044600F083F932
:10037000E36E04F16400DB68984704F1540000F078
:10038000F9FD04F1440000F0F5FDE06908B111F059
:100390007BF9204612F0F8F8204610BD10B504464F
:1003A000FFF7F0FE1821FCF763FB10B120460CF0BC
:1003B00033F9FFF705FF2146BDE8104000F040BCCF
:1003C00090F83A3013B50446002B37D10DF10700F1
:1003D000FFF7C4FE18B11A4A8A21FCF770FA9DF89B
:1003E000073033B1FFF7B8FE18B1154A8D21FCF77D
:1003F00066FA144B1449482204F1280011F0B8F8A9
:1004000018B10F4A9321FCF75AFA104811F0EAF894
:1004100018B10B4A9921FCF752FA0D4811F0ECF88B
:1004200018B1074A9D21FCF74AFA0120FFF790FE18
:100430000320FFF78FFE012384F83A3002B010BD8D
:10044000D0B603006D160300643500209D03020042
:10045000E91B020030B590F83A308FB00446002B0B
:1004600000F0838090F83C50002D7ED11422294664
:1004700003A816F07DFB03AA0121284611F0D8F845
:1004800018B13B4ABB21FCF71AFA4FF440630793BB
:100490009DF81830374A43F001038DF818300623D1
:1004A000ADF80C300EAB03A843F8382D1946FFF712
:1004B00047FE042805460BD10022194603A80092E6
:1004C000FFF73EFE2A4AC9212846FCF7F8F900E06A
:1004D00020B1274ACB212846FCF7F1F900230193EC
:1004E000ADF8083001A80C23ADF80630FFF72AFE5E
:1004F00018B11F4AD021FCF7E2F9626804F12D051A
:1005000052B192B221682846FFF712FEC8B1184ACC
:10051000D421FCF7D4F914E0174A0AAB911F08A8BC
:10052000089300F0C9FDBDF8242008992846FFF77C
:10053000FFFD18B10E4AD921FCF7C1F908A812F045
:1005400023F8208BFFF7F0FD18B1094ADB21FCF7F7
:10055000B6F9012384F83C30204600F0E5F8204647
:1005600000F0A2FA204600F0CFF80FB030BD00BF77
:10057000D0B60300B826002010B70300A1F1200375
:100580009BB243F6E072934298BFC185704738B57D
:1005900090F83C30044615467BB1FFF7EFFF00F0C2
:1005A00057F955B194F83D303BB1204600F0ACF915
:1005B0002046BDE8384000F091B938BD30B504465A
:1005C00087B011F0F7FF94F83C3033B3626804F160
:1005D0002D055AB192B221682846FFF7A9FDE0B176
:1005E0000F4A4FF48B71FCF76AF916E00D4A02AB23
:1005F000A2F10A016846009300F05EFDBDF80420F8
:1006000000992846FFF794FD20B1054A4FF48D71FB
:10061000FCF755F9684611F0B7FF07B030BD00BFD1
:10062000D0B603001BB7030038B590F83C304BB18F
:10063000C469056AA54205D054F8040B03689B6899
:100640009847F7E738BD90F83C3070B5044683B161
:1006500090F83B306BB9C569066AAE4206D055F8D2
:10066000040B03682146DB689847F6E7012384F80A
:100670003B3070BD704770B5044600F045F9E56940
:10068000266AAE4205D055F8040B03681B699847EB
:10069000F7E7002384F83A3070BD07B5036A426A71
:1006A0000191934205D003B11960036A04330362D8
:1006B00003E001A91C3000F064FC03B05DF804FB0A
:1006C00011F10C0F14D009DC11F1140F10D011F13D
:1006D000100F0DD011F1280F15D109E00B1D07D017
:1006E00003DC11F1080F0ED102E009B104290AD18F
:1006F00090F92C308B4206D090F83C3080F82C10CA
:100700000BB100F001B8704708B590F92C00FFF765
:1007100009FD30B1034A40F27911BDE80840FCF709
:10072000CEB808BDD0B6030008B53230FFF7FEFCE6
:1007300030B1044A40F2A111BDE80840FCF7BFB84F
:1007400008BD00BFD0B6030038B54C220023C0F866
:100750009431A0F894211722C0F898310446C0F8CB
:100760009C11A0F8982100F5CA7519463822F83076
:1007700016F0FEF9062384F8FB30C4F81C5138BD8E
:1007800010B5382204460021F83016F0F1F904F1D2
:100790002C03C4F8FC30062384F8FB3010BD70B580
:1007A00004460D463822002100F5987016F0E0F955
:1007B000D4F8AC01012684F83061F8B1F5B100231A
:1007C000C4F8A031C4F8A431C4F8A8314CF2010334
:1007D000A4F8A03101F079FBC4F8A801D4F8AC0169
:1007E00001F075FB04F5D075A4F8A401C0F119005F
:1007F000C4F8585184F85C61C0B200E01D20237930
:10080000984228BF184684F8310170BD38B50446B7
:100810001546FFF799FF29462046FFF7C0FF2046FF
:1008200000F0A8F82046BDE8384000F011B838B50F
:1008300004460D46FFF7A4FF29462046FFF7AFFF09
:10084000204600F097F82046BDE8384000F000B898
:10085000002380F86831C0F86C3180F87031C38DA6
:10086000A0F87831038EA0F87A317047002380F821
:1008700068317047032380F86831704790F83C3046
:1008800010B504463BB390F83D304BB1FFF744FC44
:1008900030F0080304D0104A40F2C321FCF70FF8EF
:1008A00004F5B470FFF736FC072802D0112812D0E7
:1008B00008E0094A40F2D321FCF701F8012384F84B
:1008C0003D3010BD20B1044A40F2D721FBF7F7FFBD
:1008D000012384F83D3010BDD0B6030090F83D30C0
:1008E00010B5044663B900F5B470FFF713FC20B1EE
:1008F000044A40F2E921FBF7E2FF012384F83D308E
:1009000010BD00BFD0B6030090F83D3010B50446CE
:1009100063B1FFF701FC30F0080304D0044A40F251
:10092000F921FBF7CCFF002384F83D3010BD00BF58
:10093000D0B6030090F83D30D3B1B0F840204FF668
:10094000FF739A4214D190F83E308BB939B190F8C8
:1009500080310133DBB280F88031DB0703D500231F
:1009600080F8683102E0032380F86831FFF786BF22
:100970007047FFFF38B590F83C303BB90F4A4FF451
:100980004C710120BDE83840FBF799BF00F5987421
:1009900000F1F805214628460FF050FD68B1072800
:1009A0000BD0214628460FF049FD30B1034A40F2F2
:1009B0004531BDE83840FBF782BF38BDD0B60300F3
:1009C00030B590F83C3085B0054673B390F83E40A2
:1009D0005CBB9DF80030019443F0010364F34103D4
:1009E0008DF80030ADF80C40FFF7CCFB234602AA8F
:1009F0002721FCF7CFFAFFF7C5FB23460DF10A02CA
:100A00002821FCF7C7FA6846FFF794FB20B1084A93
:100A100040F25E31FBF753FF012385F83E30FDF7CE
:100A200097FA4FF48271FFF7B2FA05B030BD00BFFC
:100A3000D0B6030090F83C3010B50446ABB190F846
:100A40003E3093B1FFF778FB20B1084A40F26E3197
:100A5000FBF735FF002384F83E30FDF779FA40F2CA
:100A60000511BDE81040FFF792BA10BDD0B60300E3
:100A700090F83E00704770B5C469066A0D46A642FC
:100A800005D0294654F8040B00F094FBF7E770BD3D
:100A90000A68C0F8802090F83C308A88A0F884204A
:100AA0000BB100F001B8704790F83C3007B563B166
:100AB00002A9803041F8080D2220FFF747FB20B142
:100AC000034A40F2ED31FBF7FAFE03B05DF804FB98
:100AD000D0B6030070B50D4616460446FFF770FB0E
:100AE00033462A462146BDE8704000F022B813B5CF
:100AF0000446FFF747FB00230DF107022A21FCF70C
:100B000049FA9DF907102046FFF7DAFD02B010BD43
:100B100013B50446FFF736FB00230DF107020B2146
:100B2000FCF738FA9DF907102046FFF7C9FD02B01F
:100B300010BD10B51278112A044602D0142A0CD028
:100B40000EE00868C4F8F400FFF70AFB4FF44041D8
:100B500004F1CC0000F0D4FA02E00BB100F0DEF9B1
:100B6000002010BDB0F840204FF6FF739A4213B535
:100B700018D000F1F4040DF1070120460DF0BAFE83
:100B800020B1094A40F25F41FBF799FE9DF807301A
:100B900043B920460DF08AFE20B1034A40F2654178
:100BA000FBF78DFE02B010BDD0B6030010B50446B1
:100BB000FFF706FB2146BDE81040FFF7D3BFFFFF5C
:100BC0001FB5044604A800F8101D0DF0CDFD20B19E
:100BD000184A4FF48F61FBF772FE0023CDF80930FD
:100BE00007228DF80D308DF80A209DF8093010226B
:100BF0008DF80B20104A019243F00303012201A952
:100C000004F186008DF808208DF809300DF018FEEB
:100C100020B1084A4FF49161FBF751FEFFF7A0FAAB
:100C2000064904F1CC0000F037FA012384F887303C
:100C300004B010BDD0B60300D50A0200AD0B02000F
:100C400090F887302DE9F04104460D4613B108466F
:100C50000DF0A0FE2B881C2B59D010D8102B1FD0C4
:100C600006D8012B00F0B880022B25D0BDE8F0811A
:100C7000112B40D01B2B00F0A980BDE8F081512B37
:100C800045D006D81D2B00F09680502B4AD0BDE8E9
:100C9000F081532B70D07FD3552B38D0BDE8F08135
:100CA0002946204600F0EEF8FDF752F94FF48A711C
:100CB000BDE8F041FFF76BB9FFF7A8FA03682BB165
:100CC0008288083A03F1080193B200E019469A1DA0
:100CD0008B1F2146A4F87C20B4F8400041F8783FEF
:100CE000FFF732FA00287DD03F4A40F2B641BDE816
:100CF000F041FBF7E4BD2946204600F0F1F8FDF78E
:100D000027F940F21511BDE8F041FFF740B9E66957
:100D1000246AB44266D056F8040B036829465B691E
:100D20009847F6E7204600F08FF82B7B062B16D16C
:100D3000FFF76CFA03680BB19E1C00E01E46276AA1
:100D4000E4690635A7424DD054F8040B3288036895
:100D500029461B6A98470028F4D0BDE8F081E6696F
:100D6000276AAC1DB7423DD056F8040BEA880368E9
:100D700021461B6A9847F5E7266AE3699E4231D00F
:100D800053F8040BE988428D9142F7D10368294654
:100D90005B69BDE8F0411847002203231146B4F80F
:100DA0004000FFF7CBF9E8B10F4A40F2FE41BDE841
:100DB000F041FBF784BDFDF7CBF82A464FF6FF73F1
:100DC00040F21311BDE8F041FFF7CAB82B7A4BB9D6
:100DD00084F83D30BDE8F08129462046BDE8F04169
:100DE00000F0BAB8BDE8F081D0B6030008B5FFF74F
:100DF000E7F9BDE8084000F091B8FFFF10B50446E0
:100E0000F034FFF7ADF90649204600F045F9FFF749
:100E1000A7F920464FF42021BDE8104000F070B93A
:100E2000ED0D020010B50446FFF79AF9D4F8F00072
:100E30000DF038FA28B1034A4721BDE81040FBF70E
:100E40003EBD10BD1CB7030010B50446FFF788F97E
:100E5000D4F8F0000DF026FA18B1094A5021FBF73A
:100E60002EFD00224FF42021D4F8F0000DF0DAF925
:100E700028B1034A5121BDE81040FBF720BD10BD49
:100E80001CB70300F8B50D46002380F83D3083768B
:100E9000044600F13201A888FFF740F920B10F4A5B
:100EA00040F23A51FBF70BFD236D1BB1A98804F109
:100EB00044009847AB88E669276AA4F84030B742F7
:100EC00006D056F8040B036829465B699847F6E795
:100ED0002046BDE8F840FFF791BF00BFD0B6030041
:100EE000F8B54FF6FF73A0F84030036D04460E4688
:100EF0001BB1036E898854309847E569276AAF4271
:100F000006D055F8040B036831465B699847F6E74D
:100F10002046BDE8F840FFF785BFFFFF08B5034650
:100F2000B0F840004FF6FF72904210D09A7E72B92E
:100F300001229A761321FFF7F3F830F0080306D068
:100F4000034A40F26351BDE80840FBF7B8BC08BD56
:100F5000D0B60300807E704770B5C469066A0D1D67
:100F6000A64206D054F8040B036829465B6A9847EA
:100F7000F6E770BD10B583680446DB6898472046E5
:100F800010BD2DE9F843436804681C1BA41014BF6E
:100F900023460123E4180646894602D2B4F1804F65
:100FA00025D36FF04044A00010F00CFF0746D6F8A0
:100FB00000807568D9F80030C8EB0505EF4218BF0E
:100FC0007B51AB0804D02A464146384615F06CFDEB
:100FD00004353D44B8F1000F02D0404610F054FBF8
:100FE00007EB840437607560B460BDE8F883002CBB
:100FF000D9D12746DBE7FFFF0B6800B10360014B47
:101000008360704788B70300024B83600B680360FE
:10101000704700BF88B703000B6800B103607047DA
:101020007047FFFF0048704794B6030010B50446B0
:101030000846044910F022FF002814BF2046002073
:1010400010BD00BF94B603000B6800B10360014BF4
:1010500083607047A4B70300024B83600B68036092
:10106000704700BFA4B703000B6800B1036070476E
:101070007047FFFF004870477CB6030010B5044678
:101080000846044910F0FAFE002814BF204600204C
:1010900010BD00BF7CB6030008B50A4600210DF064
:1010A000AFF828B1034A3221BDE80840FBF707BC7E
:1010B00008BD00BF1CB7030073B5044616460D46B5
:1010C00001B9BAB9731B0F2B019307D9002201A9EB
:1010D000204611F033FA019B2060A3603246294676
:1010E000206811F059FA019B226863600021D154F5
:1010F00002B070BD014811F091F900BF5CB7030068
:1011000008B5002200680DF08DF828B1034A40218F
:10111000BDE80840FBF7D3BB08BD00BF1CB7030008
:10112000A0DF704770473030704713B5436B826B58
:1011300001919342044605D003B11960636B0433F7
:10114000636303E001A9303000F006F9204602B0E5
:1011500010BDFFFF73B500F1080541600446284645
:10116000FEF79AFF2846FEF731FF02A922464FF606
:10117000FF7341F8040D22F82A3F0120FFF7D0FF4A
:1011800018B10B4A2021FBF79AFB236820469B6A83
:10119000984790E86000AE4205D0214655F8040B10
:1011A00000F09CF9F7E7012384F82C3002B070BD01
:1011B000C4B70300036870B59B6A0D46984790E872
:1011C0005000A6420FD054F8040B90F8203065F37D
:1011D000861380F82030036815B1DB6A9847F0E782
:1011E0001B6B9847EDE770BD0A88112A09D0502A79
:1011F0000DD0102A10D1036801F108029B6989887B
:101200001847036801F10802DB69898818470368F9
:1012100031F8062F1B6A1847704770470368F7B507
:101220009B6A0D46064617469847416803689942EF
:1012300013D053F8044B2888E28A904211D16A896E
:10124000022A0ED16A7B2B7B43EA022394F82020EA
:1012500063F3C30284F8202001E0002022E0012093
:1012600020E0628ABA42E2D1AB795A1E022A06D83D
:10127000236869891B6A20469847012012E0062BE3
:10128000EDD102AA7068002322F8023D3946B0F879
:10129000400000F0F9FC2368BDF806101B6A2046E8
:1012A0009847012003B0F0BD036870B59B6A0D46F6
:1012B000984790E85000A64206D054F8040B036803
:1012C00029469B6A9847F6E770BD70B50446006BE7
:1012D000626B151A2D11002D034616DD06688E422D
:1012E0002DD046688E4201D1043028E086688E42B7
:1012F00001D1083023E0103050F8046C8E4202D146
:1013000003F10C001BE0013DE5E7151AAD10022DBD
:1013100008D0032D02D0012D0ED107E005688D42C3
:101320000DD004331868884208D004331868884206
:1013300014BF1046184602E0104600E01846011D92
:101340008A4204D0521A930801D015F0ADFB636BAA
:10135000043B6363204670BD2DE9F843436804688D
:101360001C1BA41014BF23460123E418064689461B
:1013700002D2B4F1804F25D36FF04044A00010F0AA
:1013800021FD0746D6F800807568D9F80030C8EB13
:101390000505EF4218BF7B51AB0804D02A464146F1
:1013A000384615F081FB04353D44B8F1000F02D0FA
:1013B000404610F069F907EB840437607560B4604B
:1013C000BDE8F883002CD9D12746DBE7A2DF7047C0
:1013D000A6DF704710B50446006808B114F088FF16
:1013E000204610BD704710B5044610F04DF9204658
:1013F00010BDFFFF70B50D4E336813F0010513D11A
:10140000304610F0D1FF78B1094C0A4B23603046CA
:10141000042384F84C5084F8543010F0E1FF064A5D
:101420000649204610F02AF9014870BD1036002008
:10143000B8350020E8BA0300B8260020E513020002
:10144000704790F820305B0603D590F82830FF2BCA
:1014500002D103685B691847406A704770470020F3
:101460007047A0F84210704708B500F0DBFA00683A
:1014700008BDB0F842007047B0F840007047A0F8CF
:1014800044107047B0F844007047FFFF094A0260FB
:101490004DF6AD610022426001818272C260C0F8E7
:1014A0001220C0F81620C2610284426280F828200F
:1014B000704700BFBCB9030038B590F82030DB0797
:1014C00004460D4605D5044A1A2102F14300FBF7F4
:1014D000F0F9E56038BD00BFB8B803002DE9F0436E
:1014E00004469BB00DF15C080EAD0DF162071C22A5
:1014F000E1610E4610A8002188F802100E91696083
:10150000ADF85C10ADF86210B97015F031FB09A9A7
:10151000204600F0DBF8012303228DF85E201A46F6
:1015200063F307128DF85C2094F82020CDF85480E6
:10153000920654BF1A46032204F104084CBF62F31A
:10154000071363F3071240464CBF8DF85D308DF8EA
:101550005D20FEF7A1FD4046FEF738FD0DF168085D
:101560001422002148F8640D09A815F001FB236836
:10157000CDF824801B69204698472368ADF82C00DD
:101580009B6820469847ADF830002046FFF759FF8A
:1015900005238DF8643094F820300D9013F0200F5F
:1015A0004FF001030AD01946032262F3071162F3D8
:1015B00007138DF862108DF8633009E01A4663F363
:1015C00007128DF862201A4663F307128DF8632024
:1015D0000A97E7684FF0000805ABCDF84480CDF8D6
:1015E00050800393002F69D0384616F0C9F90F28B0
:1015F00007EB0009029007D9424602A903A810F0A0
:101600009DFF029B039005934A463946039810F0CC
:10161000C3FF029B039904930022CA54049B33B373
:101620009BB2ADF84A30ADF8483003238DF86730EF
:1016300094F82030ADF8652013F0200F9DF8653048
:10164000039911914FF0010262F3030318BF0322C3
:1016500062F307138DF865309DF8663003F0F003F0
:101660006FF307138DF866300DF16503149323684B
:10167000002713975B6B29462046984710B1ADF8B9
:101680003A70139504F1120309AA10A9708DFFF79F
:101690009DFE18B10B4A9921FBF711F90021204654
:1016A00000F036F894F8203043F0010384F820303D
:1016B00003A810F069FF1BB0BDE8F083024810F0EA
:1016C000ADFE00BFB8B8030025B903000B7F43F09F
:1016D00002036FF300030B7790F820300A7FC3F307
:1016E000800363F3C3020A7790F82030D2B2C3F3C9
:1016F000400363F304120A7790F82030D2B2C3F3A8
:10170000001363F34512437C0A7781F83F3070473A
:101710002DE9F043036887B0DB69044688469847A3
:1017200006462046FFF78DFE94F820305B060546FE
:1017300033D594F82830FF2B2FD04146304601F0A6
:10174000D5F90746FFF756FE236881465B692046B8
:10175000984794F82830019332460146CDF8088026
:1017600000972B46484601F05FFA064678B93A469C
:101770000146284615F0FCF923683146DB6820460F
:101780009847FFF737FE01F0D7F9032038E02368C8
:101790003946DB682046984704E023683146DB6819
:1017A00020469847236820461B699847E369618A69
:1017B00006AA22F8020D58682B46B0F8400000F047
:1017C00074FA18B1104AF921FBF779F894F820302F
:1017D00003F0020202F0FF0092B1E2695268B2F82F
:1017E00040104FF6FF72914209D003F0080303F056
:1017F000FF002BB1236820465B6A984700E0002079
:1018000007B0BDE8F08300BFB8B8030030B590F86A
:1018100020309A0787B0054609D5C2695268B2F8E8
:1018200040104FF6FF72914201D01B0701D40820EF
:1018300038E003681B6998476B8AADF808300DF1F2
:101840000602012304928DF80A30EA69ADF8060019
:10185000002305935268ADF80C3002A9B2F840009D
:10186000FFF7B6FD0446E0B143F20402944206D10C
:1018700095F8203043F0800385F8203011E0082CE3
:1018800006D195F8202063F3C71285F8202008E0E0
:1018900043F201439C4204D0034A40F23F11FBF75C
:1018A0000EF8204607B030BDB8B803002DE9F04F60
:1018B00090F820309A0791B0044609D5C269526861
:1018C000B2F840104FF6FF72914201D01B0701D4CD
:1018D00008207EE003681B69984780462046FFF792
:1018E000B0FD94F8203023F07F03814603F0FF061B
:1018F0000BB1B4F8466000250DF1180AB04567D960
:10190000C6EB0805132D4FF014024FF000015046AE
:101910002F46A8BF132715F02BF9BFB2132D09EBE3
:10192000060BCCBF1323FF233A4659460DF119008D
:10193000C8BFB6FBF3F38DF8183015F01BF87A1C0E
:1019400092B259460BA8ADF8062015F013F80DF128
:1019500006020492E269CDF814A0638A5268ADF8D9
:10196000083001238DF80A3002A90023B2F84000A4
:10197000ADF80C30FFF72CFD054600B343F204022E
:10198000904208D194F82030A4F8466043F08003D8
:1019900084F820301CE0082808D194F82020A4F80E
:1019A000463063F3C71284F8202011E043F201436C
:1019B000984204D0084A4FF4D671FAF780FFBDF878
:1019C00006200BA958463E4414F0D4FFB6B295E762
:1019D000284611B0BDE8F08FB8B8030010B590F8F4
:1019E00020301B06044609D503685B6A984728B96E
:1019F00094F8203060F3C71384F8203010BD10B580
:101A000090F820301B0604460BD503685B6A9847A4
:101A100038B994F82030A4F8460060F3C71384F86E
:101A2000203010BD80B483B000AF78607B682C3369
:101A300018460C37BD465DF8047B704710B5044668
:101A4000034B40F8303BA36BDB689847204610BD42
:101A500058B8030010B50446FFF7F0FF20460FF01A
:101A600013FE204610BD2DE9F04387B00D46044615
:101A7000FFF7C0FC01F067F80646002863D1236831
:101A80002946DB6820469847C9238DF8173094F81B
:101A9000203013F0400F236838D094F82820FF2A14
:101AA00034D01B692046984701F02FF8236801467F
:101AB0009B6920469847FFF79DFC05462046FFF7A7
:101AC000C0FC236807461B69204698472368804668
:101AD0005B692046984723688146DB692046984722
:101AE0000DF117038DE8090002964B464246394630
:101AF000284601F01BF910B3FFF77CFC9DF8172076
:101B000094F8281001F0A1FA38B918E0FF228DF8F6
:101B100017209B6929462046984720469DF8176064
:101B2000FFF780FF23680746DB6920469847E56B8F
:101B300003463A46314604F13000A84703E0FFF778
:101B400059FC00F0F9FF07B0BDE8F083F8B5436A2F
:101B500004463BBB90F82130DB071CD5124F134ED7
:101B60003D6815F001050ED1384610F01DFC50B14E
:101B700038463560B580B57110F032FC0C4A0D491D
:101B800030460FF07BFD336803B16362636A4BB983
:101B9000012014F001F903689B689847012114F0B3
:101BA000B7F86062F8BD00BFB4350020AC35002046
:101BB000B8260020D513020038B50446406A50B15B
:101BC00094F8213013F0010502D00023636238BD80
:101BD00014F08EFB656238BD1B2301200B700023BF
:101BE0000871CB804870704738B5831E012B0446BE
:101BF00001D80FF007F91C4D2B68DA070ED42846E0
:101C000010F0D2FB50B11948FAF79AFE284610F0AE
:101C1000E7FB174A174915480FF030FD13480378C2
:101C20001BB11821FAF724FFB0B9012C1BD1124CBB
:101C30002368DB0709D4204610F0B6FB28B10F4813
:101C4000FEF78AF9204610F0CBFB40F217110B4843
:101C5000BDE83840FEF79BB920460AF0E5FC204677
:101C6000FCF741FCE1E738BDC4300020C83000205B
:101C7000B826002069D20100CC2F0020D02F0020F0
:101C8000A4DF7047A5DF704713B514461288ADF87E
:101C900000200022ADF802206A460193FFF7F2FF10
:101CA000BDF80030238002B010BD13B51446128871
:101CB000ADF800200022ADF802206A460193FFF73C
:101CC000DFFFBDF80030238002B010BD0B78037138
:101CD00070477047704710B504460FF0D5FC20469A
:101CE00010BDFFFF08B5054810F05EFB28B10448A1
:101CF000FEF732F9014810F073FB08BDCC2F00202D
